:100000000C943B010C9463010C9463010C94630108
:100010000C9463010C9463010C9463010C946301D0
:100020000C9463010C9463010C9463010C946301C0
:100030000C9463010C9463010C9463010C946301B0
:100040000C945F130C9463010C94CF130C94A913BC
:100050000C9463010C9463010C9463010C94630190
:100060000C9401140C9463015B4248313735305DC8
:10007000204552524F523A20756E646566696E652E
:1000800064206572726F72005B4248313735305DB3
:10009000204552524F523A206F7468657220657243
:1000A000726F72005B4248313735305D20455252E5
:1000B0004F523A207265636569766564204E41430C
:1000C0004B206F6E207472616E736D6974206F6661
:1000D0002064617461005B4248313735305D2045F2
:1000E00052524F523A207265636569766564204EBC
:1000F00041434B206F6E207472616E736D69742082
:100100006F662061646472657373005B42483137C7
:1001100035305D204552524F523A20746F6F206C3B
:100120006F6E6720666F72207472616E736D697492
:1001300020627566666572005B4248313735305D16
:10014000204552524F523A20756E646566696E655D
:1001500064206572726F72005B4248313735305DE2
:10016000204552524F523A206F7468657220657272
:10017000726F72005B4248313735305D2045525214
:100180004F523A207265636569766564204E41433B
:100190004B206F6E207472616E736D6974206F6690
:1001A0002064617461005B4248313735305D204521
:1001B00052524F523A207265636569766564204EEB
:1001C00041434B206F6E207472616E736D697420B1
:1001D0006F662061646472657373005B42483137F7
:1001E00035305D204552524F523A20746F6F206C6B
:1001F0006F6E6720666F72207472616E736D6974C2
:1002000020627566666572005B4248313735305D45
:1002100020446576696365206973206E6F7420637E
:100220006F6E6669677572656421000000000025C5
:100230000028002B00040404040404040402020245
:100240000202020303030303030102040810204017
:1002500080010204081020010204081020000000A0
:100260000800020100000304070000000000000075
:1002700000002015111B11241FBECFEFD8E0DEBFF8
:10028000CDBF23E0AEEEB1E001C01D92AA3BB207A4
:10029000E1F711E0A0E0B1E0ECE0FEE302C0059080
:1002A0000D92AE3EB107D9F711E0CAE3D1E004C028
:1002B0002197FE010E94BF1DC933D107C9F70E94D3
:1002C00086150C94F91E0C9400000895089590E092
:1002D000FC01E35AFD4F2491FC01E75BFD4F349193
:1002E000FC01EB5CFD4FE491EE23C9F0222339F0D1
:1002F000233001F1A8F4213019F1223029F1F0E086
:10030000EE0FFF1FE55DFD4FA591B4918FB7F894F7
:10031000EC91611126C030953E233C938FBF089528
:100320002730A9F02830C9F0243049F780918000A7
:100330008F7D03C0809180008F7780938000DFCF16
:1003400084B58F7784BDDBCF84B58F7DFBCF809163
:10035000B0008F778093B000D2CF8091B0008F7DB6
:10036000F9CF3E2BDACF8E50806480937C00809151
:100370007A00806480937A0080917A0086FDFCCFB9
:10038000809178009091790008958230910538F03D
:10039000880F991F880F991F05970197F1F7089506
:1003A0003FB7F8948091370290913802A0913902BA
:1003B000B0913A0226B5A89B05C02F3F19F00196CF
:1003C000A11DB11D3FBFBA2FA92F982F8827BC01AF
:1003D000CD01620F711D811D911D42E0660F771FD7
:1003E000881F991F4A95D1F708958F929F92AF92D7
:1003F000BF92CF92DF92EF92FF924B015C010E947D
:10040000D0016B017C010E94D0016C197D098E091D
:100410009F09683E734081059105A8F321E0821A87
:100420009108A108B10888EEC80E83E0D81EE11C2F
:10043000F11C81149104A104B10429F7FF90EF90FD
:10044000DF90CF90BF90AF909F908F9008952FB77F
:10045000F89460913302709134028091350290914A
:1004600036022FBF0895AF92BF92CF92DF92EF92E4
:10047000FF920F931F93CF93DF936C017B018B014E
:10048000040F151FEB015E01AE18BF08C017D1079E
:1004900059F06991D601ED91FC910190F081E02D28
:1004A000C6010995892B79F7C501DF91CF911F917D
:1004B0000F91FF90EF90DF90CF90BF90AF90089595
:1004C000FC01538D448D252F30E0842F90E0821B5A
:1004D000930B541710F0CF96089501970895FC01DF
:1004E000918D828D981761F0A28DAE0FBF2FB11D37
:1004F0005D968C91928D9F5F9F73928F90E008958F
:100500008FEF9FEF0895FC01918D828D981731F048
:10051000828DE80FF11D858D90E008958FEF9FEF9C
:100520000895FC01918D228D892F90E0805C9F4F72
:10053000821B91098F739927089583EB92E00E94A3
:10054000910221E0892B09F420E0822F089580E0B8
:1005500090E0892B29F00E949D0281110C940000EB
:100560000895FC01A48DA80FB92FB11DA35ABF4F48
:100570002C91848D90E001968F739927848FA689A2
:10058000B7892C93A089B1898C91837080648C93F6
:10059000938D848D981306C00288F389E02D8081A5
:1005A0008F7D80830895EF92FF920F931F93CF93D7
:1005B000DF93EC0181E0888F9B8D8C8D98131AC09E
:1005C000E889F989808185FF15C09FB7F894EE8985
:1005D000FF896083E889F9898081837080648083E2
:1005E0009FBF81E090E0DF91CF911F910F91FF902D
:1005F000EF900895F62E0B8D10E00F5F1F4F0F73D5
:100600001127E02E8C8D8E110CC00FB607FCFACF8F
:10061000E889F989808185FFF5CFCE010E94B1027A
:10062000F1CFEB8DEC0FFD2FF11DE35AFF4FF08260
:100630009FB7F8940B8FEA89FB8980818062CFCFC6
:10064000682F83EB92E00C94D302CF93DF93EC01FD
:10065000888D8823B9F0AA89BB89E889F9898C91AA
:1006600085FD03C0808186FD0DC00FB607FCF7CF66
:100670008C9185FFF2CF808185FFEDCFCE010E9466
:10068000B102E9CFDF91CF9108950895DC01ED919A
:10069000FC910190F081E02D0994FC0183858F3F4E
:1006A00019F061E00C9467010895FC01808191814B
:1006B000892B39F0A281B3819C9111968C919CBDBC
:1006C0008DBD83858F3F19F060E00C94670108951C
:1006D000BF92CF92DF92EF92FF920F931F93CF932F
:1006E000DF93EC0188819981892B81F06EBD0DB477
:1006F00007FEFDCF0EB5802FDF91CF911F910F9197
:10070000FF90EF90DF90CF90BF90089588859985F6
:1007100011E0892B09F010E8BB24B394862F8123C4
:1007200009F0B12CF62E2C813D814E815F8160E273
:1007300071EA87E090E00E949D1DE22E00E0C22E4B
:10074000D12CEE2019F0C6010E94C5018A85982F90
:10075000977F09F044C08D858F3F89F09F2D9123AD
:1007600081E009F480E08B1551F0EF85F8898F89DD
:10077000992379F19081892B8083BB24B394E989F3
:10078000FA898081998D892B8083EE2019F0C6012A
:100790000E94C5018E858F3F39F0EB89FC898081ED
:1007A000988D892309F0012BE989FA899081898D37
:1007B00080958923808388859985892B09F067C076
:1007C000110F1111BECF8E858F3F09F094CF0F2DE1
:1007D00092CF9081809589238083B12CD0CF8C30AB
:1007E00099F58D858F3F49F0EF85F8898F899F2D89
:1007F000912331F19081892B8083E989FA89908155
:10080000898D809589238083EE2019F0C6010E948E
:10081000C501E989FA898081998D892B8083EE2031
:1008200019F0C6010E94C5018E858F3F21F2EB8928
:10083000FC898081988D892309F4BDCF012BBBCF22
:10084000908180958923D8CFE989FA898081998D13
:10085000892B8083EE2019F0C6010E94C5018D8589
:100860008F3F49F0EF85F8898F899F2D912359F0AB
:100870009081892B8083E989FA899081898D80957F
:1008800089238083D1CF908180958923F3CF1695DA
:1008900098CF8F929F92AF92BF92CF92DF92EF92BA
:1008A000FF920F931F93CF93DF937C014B016A015B
:1008B000B22EA32E0E945503E401C80CD91CCC15FE
:1008C000DD0569F4CB2DDA2D0C0F1D1FC017D107E4
:1008D00059F06FEFC7010E9468038993F7CF6991C0
:1008E000C7010E946803EBCFC7010E944D0381E05E
:1008F000DF91CF911F910F91FF90EF90DF90CF90FC
:10090000BF90AF909F908F9008958F929F92AF92DB
:10091000BF92CF92DF92EF92FF920F931F93CF93EC
:10092000DF937C01B62EA72E6A0149010E94550370
:10093000E401080D191DC017D10761F4CB2DDA2D84
:10094000CC0EDD1ECC15DD0551F06991C7010E946A
:100950006803F8CF6991C7010E946803ECCFC70113
:100960000E944D0381E0DF91CF911F910F91FF9085
:10097000EF90DF90CF90BF90AF909F908F900895B1
:10098000089520910F02260F3327331F213231059E
:10099000ECF42091AD02FC0190E080E0243069F09D
:1009A00082E00895A0910F022191AC0141515E4F68
:1009B000A40FB52FB11D2C930196861798F3809143
:1009C0000F02680F60930F0280E0089581E00895A0
:1009D0001092AD0281E080938C021092870261E058
:1009E00082E10E94670161E083E10E946701E9EB17
:1009F000F0E080818E7F808380818D7F808388E49A
:100A00008093B80085E48093BC0008951092420260
:100A10001092410210924402109266020E94E80471
:100A200085E691E09093400280933F0286E691E054
:100A300090933E0280933D020895CF93DF9391E01F
:100A40009093EE018823B9F0C091B800D091BA001C
:100A50008091BC008A7B8093BC0060E082E10E94B0
:100A6000670160E083E10E9467010E94E804D0937F
:100A7000BA00C093B800DF91CF9108958F929F92F2
:100A8000AF92BF92CF92DF92EF92FF920F931F939C
:100A9000CF93DF93D82FC62F142F613208F09CC05C
:100AA0000E94D0016B017C018091AD0281116FC069
:100AB00081E08093AD0210938C029FEF90938B02A4
:100AC00010928A029C0F90938902809388028091F1
:100AD0008802DD0FD82BD093880280918702813065
:100AE00009F07CC0109287020E94D0016B017C014A
:100AF000809188028093BB008091AF029091B002F8
:100B0000A091B102B091B202892B8A2B8B2BA1F05C
:100B10000E94D0010091AF021091B0022091B10269
:100B20003091B2026C197D098E099F0906171707CB
:100B30002807390708F44CC08091BC0083FDD8CF4A
:100B400085EC8093BC000E94D0016B017C018091F8
:100B5000AD02813009F444C080918A028C1710F4F0
:100B6000C0918A02E7E6F2E0ADE8B2E080E08C13E3
:100B700059C08C2FDF91CF911F910F91FF90EF9073
:100B8000DF90CF90BF90AF909F908F90089580910D
:100B9000AF029091B002A091B102B091B202892B44
:100BA0008A2B8B2B09F480CF0E94D0018090AF025A
:100BB0009090B002A090B102B090B2026C197D0981
:100BC0008E099F0986169706A806B90608F06CCF0D
:100BD0008091AE020E941D05C0E0CBCF85EEB1CF63
:100BE0008091AF029091B002A091B102B091B20297
:100BF000892B8A2B8B2B09F4AACF0E94D00100915C
:100C0000AF021091B0022091B1023091B2026C1982
:100C10007D098E099F09061717072807390708F06D
:100C200096CFD6CF91919D938F5FA1CF8F929F92B8
:100C3000AF92BF92CF92DF92EF92FF920F931F93EA
:100C4000CF93DF93D0916602D13208F0D7C0182F2E
:100C5000C09165020E94D0016B017C018091AD02C0
:100C600081116BC082E08093AD0210938C028FEFF4
:100C700080938B0210928A02D0938902A5E4B2E09D
:100C8000E7E6F2E080E0D81391C0109288028091EC
:100C90008802CC0FC82BC0938802809187028130D4
:100CA00009F088C0109287020E94D0016B017C017C
:100CB000809188028093BB008091AF029091B00236
:100CC000A091B102B091B202892B8A2B8B2BA1F09B
:100CD0000E94D0010091AF021091B0022091B102A8
:100CE0003091B2026C197D098E099F09061717070A
:100CF0002807390708F442C08091BC0083FDD8CF93
:100D000085EC8093BC000E94D0016B017C01809136
:100D1000AD02823009F450C080918B028F3F09F4FC
:100D20006FC080918B02803209F46CC080918B027D
:100D3000803309F469C084E026C08091AF029091AD
:100D4000B002A091B102B091B202892B8A2B8B2BF9
:100D500009F484CF0E94D0018090AF029090B0023D
:100D6000A090B102B090B2026C197D098E099F0962
:100D700086169706A806B90608F070CF8091AE02D5
:100D80000E941D0585E010924402109266021092A6
:100D90004302DF91CF911F910F91FF90EF90DF9071
:100DA000CF90BF90AF909F908F9008959D91919319
:100DB0008F5F69CF85EEA5CF8091AF029091B00291
:100DC000A091B102B091B202892B8A2B8B2B09F42E
:100DD0009ECF0E94D0010091AF021091B0022091ED
:100DE000B1023091B2026C197D098E099F09061774
:100DF00017072807390708F08ACFC0CF81E0C3CF93
:100E000080E0C1CF82E0BFCF83E0BDCF8F929F92C1
:100E1000BF92CF92DF92EF92FF920F931F93CF93E7
:100E2000DF93DA01AE0DBF1DEC01EC81FD81EA1705
:100E3000FB0710F490E026C0B22E6A014B018981B5
:100E40009A81288131E03093430220936502109209
:100E5000440210926602E114F10409F589819A8135
:100E6000DC01ED91FC910280F381E02DA601B4013B
:100E70000995C816D906F1F68B2D0E94160691E049
:100E80008111D8CF892FDF91CF911F910F91FF90C2
:100E9000EF90DF90CF90BF909F908F9008950115B5
:100EA0001105E1F2DC01ED91FC910280F381E02D6E
:100EB000A701B80109958E159F0509F0BBCFCECFCC
:100EC000CF92DF92EF92FF920F931F93CF93DF9316
:100ED00000D0CDB7DEB7DC01211103C01A962C91EA
:100EE0001A97253008F092C051964D935D936D93FB
:100EF0007C93549790E080E0C22ED12C8C159D05F8
:100F0000B4F41C962C911C9721110AC0FD01E80F26
:100F1000F91F4587452F562F672F77270196EECF6C
:100F2000F601E81BF90BEA0FFB1F4487F3CFBD0165
:100F3000635F7F4F18969C91189719964C9119975B
:100F400099834A83ED91FC9111973097B1F01B96EC
:100F5000EC90F12C8E010F5F1F4F21E0A601CF0115
:100F60000E9406070F900F90DF91CF911F910F9174
:100F7000FF90EF90DF90CF9008951296ED91FC9145
:100F80001397309741F116962D913C9117971B9628
:100F90000C9110E02330310569F44E7F49839A8328
:100FA0000F5F1F4F9E012F5F3F4FA601CF010E9491
:100FB0008504D8CF2115310519F49F779983F2CF95
:100FC0002230310511F49068F9CF2130310551F705
:100FD0009F779064F3CF1496ED91FC91159730971D
:100FE000A9F08085882309F4BDCFE680F780E1145D
:100FF000F10461F086019B011B964C91BE016F5F6D
:101000007F4F81859285F7010995ACCF80E0AACF0B
:10101000CF93DF93EC018B818823A1F0888191E04D
:1010200090934302809365021092440210926602EC
:1010300081E00E94160691E0811190E0892FDF91F6
:10104000CF9108950E94060581E08B83CE010E9416
:101050000808982F8111E2CFF1CF0895E091420264
:1010600080914102E81730F4F0E0E357FD4F8081B2
:1010700090E008958FEF9FEF089590914202809144
:1010800041022FEF3FEF981748F4E92FF0E0E357C4
:10109000FD4F208130E09F5F90934202C901089587
:1010A0008091410290914202891B990B0895CF9241
:1010B000DF92EF92FF920F931F93CF93DF937C0108
:1010C000CB018A0120914302222389F0EB016B01BD
:1010D000C40ED51ECC15DD0569F06991D701ED91DF
:1010E000FC910190F081E02DC7010995F3CF642FA9
:1010F0000E94C104C801DF91CF911F910F91FF9011
:10110000EF90DF90CF900895CF93DF931F92CDB7EC
:10111000DEB76983209143022223F9F02091660211
:10112000203258F021E030E0FC013383228390E04C
:1011300080E00F90DF91CF91089580914402E82FD5
:10114000F0E0EB5BFD4F998190838F5F80934402C9
:101150008093660281E090E0ECCF61E0CE010196E1
:101160000E94C104F7CF90E080E008956F927F92D3
:101170008F929F92AF92BF92CF92DF92EF92FF92A7
:101180000F931F93CF93DF937C013B016A0110E023
:1011900000E00C151D05F0F5D70114968D919C917A
:1011A000E601C01BD10B8C179D0708F4EC0141E050
:1011B000C6018C1B9D0B0817190708F440E06C2F23
:1011C000C13208F060E2F70180810E943E05109272
:1011D0004202809341028C171D0661F54301800E87
:1011E000911E5401C501881999098C179D0778F43F
:1011F000D70111968D919C91DC01ED91FC910284B7
:10120000F385E02D0995F50181935F01EBCF0C0F7C
:101210001D1FBFCF81E0DF91CF911F910F91FF90F4
:10122000EF90DF90CF90BF90AF909F908F907F9086
:101230006F90089580E0EFCFEF92FF920F931F938E
:10124000CF93DF9300D0CDB7DEB71982F12CE12C1C
:1012500010E000E021E041E050E0BE016F5F7F4F11
:1012600080913B0290913C020E94060741E050E0D1
:10127000BE016E5F7F4F80913B0290913C020E94C5
:10128000B6088A8190E0880F892F881F990B21E08A
:1012900082270F900F90DF91CF911F910F91FF90B8
:1012A000EF9008958F929F92BF92CF92DF92EF922C
:1012B000FF920F931F93CF93DF9300D0CDB7DEB78C
:1012C000DC016B01B42E18969C91189719968C919D
:1012D000199799838A838D909C901197811491041A
:1012E00031F11B964C9150E0F12CE12C10E000E024
:1012F00020E0BE016F5F7F4FC4010E94060781118D
:101300000FC080E00F900F90DF91CF911F910F9150
:10131000FF90EF90DF90CF90BF909F908F900895B7
:101320004B2D50E0B601C4010E94B608EBCF1296D7
:10133000ED91FC911397309749F116962D913C91C0
:101340001797042F10E01B964C9150E02330310585
:1013500069F4816089839A834F5F5F4F9601BE0174
:101360006F5F7F4FCF010E944904CCCF211531051B
:1013700019F490689983F2CF2230310511F49F77E8
:10138000F9CF2130310551F7906CF4CF1496ED91DF
:10139000FC911597309709F4B4CF8085882309F420
:1013A000B0CF848095808114910409F4AACF042FD2
:1013B00010E09B011B964C91BE016F5F7F4F8185B2
:1013C0009285F40109959ECFCF93DF93EC01BC0188
:1013D000635F7F4F4A850E945209882301F14A8545
:1013E00050E030E020E060E070E0CB0124173507EA
:1013F000CCF4982F872F762F6627EC85E1110AC051
:10140000FA01E21BF30BEC0FFD1FE4856E2B2F5F3F
:101410003F4FECCFFE01E20FF31FE585F7CF6FEFF3
:101420007FEFCB01DF91CF9108958F929F92AF9282
:10143000BF92CF92DF92EF92FF920F931F93CF93C1
:10144000DF93EC014A015B01888199810E94E409E4
:101450002A8101E010E002C0000F111F2A95E2F777
:1014600001501109012E000C220B330BAB816801D6
:1014700079010A2E04C0CC0CDD1CEE1CFF1C0A9462
:10148000D2F7C094D094E094F094C622D722E822F8
:10149000F922E881F981B901A801482159216A217D
:1014A0007B2104C0440F551F661F771FAA95D2F7F2
:1014B0004C295D296E297F292285CF01DF91CF91AB
:1014C0001F910F91FF90EF90DF90CF90BF90AF9062
:1014D0009F908F900C9460070F931F93CF93DF938F
:1014E000EC01888199810E94E409AB01BC012A8149
:1014F00081E090E002C0880F991F2A95E2F70197DA
:10150000092E000CAA0BBB0B2B8104C076956795A6
:10151000579547952A95D2F78C019D0104231523F1
:1015200026233723C901B801DF91CF911F910F9175
:101530000895AF92BF92CF92DF92EF92FF920F93F6
:101540001F93CF93DF93CDB7DEB7EC970FB6F89428
:10155000DEBF0FBECDBF8C01FC01868D978D1FA213
:1015600018A619A61AA69F8B8E8B198E188EFF248B
:10157000F394F9A28BE390E09F8F8E8F1AA28EE0F6
:1015800088A34EE0BE01655D7F4FCE0146960E9466
:1015900052098BA59CA5982789279827F80195A71C
:1015A00084A78DA59EA598278927982797A786A702
:1015B0008FA598A998278927982791AB80AB69A90F
:1015C0007AA976276727762773AB62AB8BA99CA98C
:1015D00098278927982795AB84AB8DA99EA9982732
:1015E0008927982797AB86AB8FA998AD982789272D
:1015F000982791AF80AF072E000C880B990B0E94A3
:10160000681B20E030E04AEA53E40E94F21C28EB19
:101610003EE142E152E40E94861CF801628373833A
:1016200084839583868D978D1A8A1B8A1C8A1D8ACE
:101630009A8389831C821B82FC868CE190E09A87C6
:1016400089871D86FB86CE0101965C019AAF89AF22
:1016500082E08BAF83E08CAFCE01C9960E946C0A0A
:10166000C12CD12CE12CE5E4FE2E63307105E1F0B4
:101670006230710599F06130710509F4D6C0C12C52
:10168000D12CF0E8EF2EFFE3FF2E672B69F4C12C7D
:10169000D12C50E8E52E56E4F52E06C0C12CD12CF5
:1016A00070E8E72E75E4F72EF80164A575A5072EFE
:1016B000000C880B990B0E94681BA70196010E94E1
:1016C000F21CF801668377838087918766A577A5EA
:1016D000072E000C880B990B0E94681BA70196012E
:1016E0000E94F21CF801628773878487958760A93E
:1016F00071A9072E000C880B990B0E94681BA7018B
:1017000096010E94F21CF80166877787808B918B87
:10171000868D978D1A8A1B8A1C8A1D8A9A838983D3
:101720001C821B8281E08C872BE130E03A8729877D
:101730001D868B87BAAEA9AE82E08BAF83E08CAFFB
:10174000CE01C9960E946C0AC12CD12C33E0E32E45
:1017500033E4F32E6115710519F1C12CD12C23E866
:10176000E22E22E4F22E61307105D1F093E3C92E0E
:10177000DC2C93E0E92E92E4F92E6230710581F0C1
:10178000C12CD12C40E8E42E4FE3F42E63307105D8
:1017900039F483E3C82EDC2C83E8E82E81E4F82EAC
:1017A000F80164A975A9072E000C880B990B0E94FB
:1017B000681BA70196010E94F21CF801628B738BD3
:1017C000848B958B66A977A9072E000C880B990B43
:1017D0000E94681BA70196010E94F21CF801668B0B
:1017E000778B808F918F60AD71AD072E000C880BC9
:1017F000990B0E94681BA70196010E94F21CF80138
:10180000628F738F848F958FEC960FB6F894DEBF3E
:101810000FBECDBFDF91CF911F910F91FF90EF9041
:10182000DF90CF90BF90AF900895C12CD12CE12CC8
:1018300066E4F62E39CFCF93DF931F92CDB7DEB794
:1018400041E050E0BE016F5F7F4FFC0184859585CC
:101850000E94B608882329F089810F90DF91CF91EB
:1018600008958FEFFACFFC0101900020E9F731973E
:10187000AF01481B590BBC0183EB92E00C9433027F
:101880008F929F92AF92BF920F931F93CF93DF934C
:10189000CDB7DEB7A1970FB6F894DEBF0FBECDBFB0
:1018A00019A2423008F44AE08E010F5D1F4F842ECA
:1018B000912CB12CA12CA50194010E949D1DE62F15
:1018C000B901CA01EA30F4F4E05DD801EE938D016C
:1018D000232B242B252B79F790E080E0109719F02B
:1018E000CD010E94330CA1960FB6F894DEBF0FBE57
:1018F000CDBFDF91CF911F910F91BF90AF909F907F
:101900008F900895E95CE1CFCF92DF92EF92FF9242
:10191000CF93DF936C01990FEE08FF08F7FE1DC00F
:101920008DE20E942003EC0166277727CB016C191A
:101930007D098E099F094AE00E94400CC80FD91FFB
:1019400089E791E00E94330C8C0F9D1FDF91CF91AE
:10195000FF90EF90DF90CF9008954AE0C701B60165
:101960000E94400CEC01ECCF0C94330C4F925F9230
:101970006F927F928F929F92AF92BF92CF92DF929F
:10198000EF92FF921F93CF93DF936B017C01142F93
:10199000AC019B010E94981D8823D9F08CE791E04F
:1019A0000E94330CEC0189E791E00E94330C8C0F0C
:1019B0009D1FDF91CF911F91FF90EF90DF90CF900F
:1019C000BF90AF909F908F907F906F905F904F905F
:1019D000089546015701E894B7F82FEF3FEF4FE71E
:1019E0005FE7C501B4010E94981D81110DC02FEF62
:1019F0003FEF4FE75FE7C501B4010E94611B181676
:101A00001CF480E891E0CCCF2FEF3FEF4FE75FE48D
:101A1000C701B6010E94931D18161CF484E891E0DA
:101A2000BFCF2FEF3FEF4FE75FECC701B6010E943A
:101A3000611B87FDF3CF20E030E0A901C701B601AB
:101A40000E94611BD0E0C0E087FF08C08DE20E94C9
:101A50002003EC01F7FAF094F7F8F09420E060E04E
:101A600070E080E09FE3211740F420E030E040E2A6
:101A700051E40E94F21C21E0F6CFA70196010E94DA
:101A8000861C2B013C010E94641D4B015C014AE055
:101A90000E94400CC80FD91F112309F484CF8EE295
:101AA0000E9420037C01C501B4010E94661B9B01BA
:101AB000AC01C301B2010E94851C20E030E040E28D
:101AC00051E40E94C71B0E94641D90E080E04AE040
:101AD0000E94400C8E0D9F1DC80FD91F64CFCF935D
:101AE000DF93682F70E090E080E04AE00E94400CB5
:101AF000EC0189E791E00E94330C8C0F9D1FDF9170
:101B0000CF9108950F931F93CF93DF938C01D0E073
:101B1000C0E0F801EC0FFD1F6491662341F083EBF8
:101B200092E00E94D302892B11F02196F2CF89E72F
:101B300091E00E94330C8C0F9D1FDF91CF911F917C
:101B40000F9108950C94611E0C94611E0C94611EFB
:101B50000C94611E0C94611E9F92AF92BF92CF9223
:101B6000DF92EF92FF920F931F93CF93DF93CDB746
:101B7000DEB7AE970FB6F894DEBF0FBECDBF8C01B7
:101B8000DC0197965C934E939697CA0101969996BD
:101B90009C938E9398974E5F5F4F9B965C934E936A
:101BA0009A975E962D913C911FA218A619A61AA687
:101BB0003F8B2E8B198E188E81E089A34BE650E067
:101BC0005F8F4E8F1AA288A31A8A1B8A1C8A1D8ACD
:101BD0003A8329831C821B828C8728E630E03A876F
:101BE00029871D868B875E01B6E1AB0EB11CBCA6B2
:101BF000ABA68DA787E08EA741E050E060E070E0E3
:101C0000CE018B960E94150ACE018B960E946C0A1B
:101C1000613071058105910539F461E070E080E083
:101C200090E00E94F501F0CF64E670E080E090E083
:101C30000E94F50120E047E050E060E070E0FE0126
:101C400031966F01CF010E94600764E670E080E08A
:101C500090E00E94F501D8015E968D919C911A8AC0
:101C60001B8A1C8A1D8A9A8389831C821B82FF24FB
:101C7000F394FC8689E190E09A8789871D86FB862C
:101C800020E040E050E0BA01C6010E946007F80180
:101C9000868D978D1A8A1B8A1C8A1D8A9A8389834E
:101CA0001C821B82FC868AE190E09A8789871D86C8
:101CB000FB86DF8ACE8A83E0E82EE88E198E40E02C
:101CC00050E0BA01C5010E94150AD8015E968D91B7
:101CD0009C911A8A1B8A1C8A1D8A9A8389831C827A
:101CE0001B82FC868BE190E09A8789871D86FB86A4
:101CF000DF8ACE8A92E0992E988EE98E41E050E0FC
:101D000060E070E0C5010E94150AF801868D978D8C
:101D10001A8A1B8A1C8A1D8A9A8389831C821B82C9
:101D2000FC868CE190E09A8789871D86FB86DF8A96
:101D3000CE8A988EE98E40E050E0BA01C5010E943B
:101D4000150AD8015E968D919C911A8A1B8A1C8A6D
:101D50001D8A9A8389831C821B82FC868BE690E015
:101D60009A8789871D86FB8620E041E050E060E08D
:101D700070E0C6010E94600764E670E080E090E0D9
:101D80000E94F501F80180A191A1009739F0DC01D2
:101D9000ED91FC910280F381E02D0995F80182A17B
:101DA00093A1009739F0DC01ED91FC910280F38161
:101DB000E02D0995F80184A195A1009739F0DC0187
:101DC000ED91FC910280F381E02D099586E090E091
:101DD0000E94C51DFC0189E291E09183808380E52A
:101DE00096E09383828315830483D8019196FC93B4
:101DF000EE93909786E090E00E94C51DFC018BE178
:101E000091E09183808381E596E0938382831583BB
:101E10000483D8019396FC93EE93929786E090E02A
:101E20000E94C51DFC018DE091E09183808382E5D5
:101E300096E09383828315830483D8019596FC935F
:101E4000EE93949781E0AE960FB6F894DEBF0FBE86
:101E5000CDBFDF91CF911F910F91FF90EF90DF9059
:101E6000CF90BF90AF909F9008954F925F926F92E6
:101E70007F928F929F92AF92BF92CF92DF92EF921A
:101E8000FF920F931F93CF93DF93CDB7DEB72997C0
:101E90000FB6F894DEBF0FBECDBF6C015B014A01E7
:101EA0000E9427022B013C018091060190910701BD
:101EB000A09108018F839887A987F12CE12C10E06D
:101EC00000E021E043E050E0BE01695F7F4FD601B2
:101ED0001C968D919C910E940607811119C010E0FB
:101EE000812F29960FB6F894DEBF0FBECDBFDF91CC
:101EF000CF911F910F91FF90EF90DF90CF90BF9007
:101F0000AF909F908F907F906F905F904F900895CB
:101F1000C6010E941B0C87FF07C06AE070E080E0EA
:101F200090E00E94F501F4CF46E050E0BE016F5F03
:101F30007F4FF601848595850E94B608182F882367
:101F400071F26A817B81762767277627CB01B0E023
:101F5000A0E09C01AD0184E0220F331F441F551FF8
:101F60008A95D1F70C81802F90E064E09595879554
:101F70006A95E1F7092E000CAA0BBB0BBC01CD0141
:101F8000622B732B842B952B0E94661B20E030E084
:101F900048EC52E40E94C71B20E030E040E855E3E3
:101FA0000E94C71BD60114966D937D938D939C93CD
:101FB00017970F70602F70E090E080E0982F872FC8
:101FC000762F66272D81622B982F872F762F6627F5
:101FD0002E81622B0E94661B20E030E048E453E42F
:101FE0000E94C71B20E030E040E855E30E94C71B79
:101FF00020E030E048E452E40E94851CF601608352
:102000007183828393838114910481F1F401349666
:1020100080E2DF011D928A95E9F784E290E0A0E07A
:10202000B0E0F40180839183A283B383D6011A9632
:102030008D919C91B0E0A0E084839583A683B783C3
:102040008DE090E0A0E0B0E080879187A287B38721
:10205000408A518A628A738AF60180819181A281C5
:10206000B381F401848B958BA68BB78BA114B1043B
:1020700009F436CFF501349680E2DF011D928A958E
:10208000E9F784E290E0A0E0B0E0F501808391837D
:10209000A283B383D60118968D919C91B0E0A0E005
:1020A00084839583A683B7838DE090E0A0E0B0E0C1
:1020B00080879187A287B387408A518A628A738A10
:1020C000F60184819581A681B781F501848B958B7A
:1020D000A68BB78B05CFAB0170E060E0FC0184817B
:1020E00095810E94350F81E0089550E040E0FC01A9
:1020F000848195810E94350F81E008950F931F938D
:10210000CF93DF938C01EB01DC0114968D919C91B0
:102110000E94990AF801048115810E942702AB01EF
:10212000BC01FE01349680E2DF011D928A95E9F739
:1021300084E290E0A0E0B0E088839983AA83BB8327
:10214000F80182A593A5B0E0A0E08C839D83AE83C7
:10215000BF838DE090E0A0E0B0E088879987AA87F0
:10216000BB87488B598B6A8B7B8B82819381A4813F
:10217000B5818C8B9D8BAE8BBF8B81E0DF91CF9136
:102180001F910F9108958F929F92AF92BF92CF921D
:10219000DF92EF92FF920F931F93CF93DF938C0107
:1021A000EB01DC0114968D919C910E94990AF80133
:1021B000048115810E942702FE01349620E2DF018E
:1021C0001D922A95E9F7C12CD12C7601C394C882BF
:1021D000D982EA82FB82F80126A137A14901B12CFC
:1021E000A12C8C829D82AE82BF82C886D986EA8667
:1021F000FB86688B798B8A8B9B8B2AE038EE4CE1CF
:1022000051E466817781808591850E94C71B6C8B24
:102210007D8B8E8B9F8B2AE038EE4CE151E4D80108
:102220001A966D917D918D919C911D970E94C71B6F
:10223000688F798F8A8F9B8F2AE038EE4CE151E4CA
:10224000F80166857785808991890E94C71B6C8F0C
:102250007D8F8E8F9F8F81E0DF91CF911F910F91A6
:10226000FF90EF90DF90CF90BF90AF909F908F90B6
:1022700008950F931F93CF93DF938C01EB01DC0143
:1022800014968D919C910E94990AF8010481158100
:102290000E942702AB01BC01FE01349680E2DF01FF
:1022A0001D928A95E9F781E090E0A0E0B0E0888394
:1022B0009983AA83BB83F80180A591A5B0E0A0E033
:1022C0008C839D83AE83BF8384E090E0A0E0B0E088
:1022D00088879987AA87BB87488B598B6A8B7B8BAA
:1022E00025E33AEF4EE85CE3628973898489958936
:1022F0000E94C71B6C8B7D8B8E8B9F8B25E33AEFE7
:102300004EE85CE3D80156966D917D918D919C913C
:1023100059970E94C71B688F798F8A8F9B8F25E3FF
:102320003AEF4EE85CE3F801628D738D848D958DF4
:102330000E94C71B6C8F7D8F8E8F9F8F81E0DF91F6
:10234000CF911F910F9108950F931F93CF93DF9318
:102350008C01EB0188E2FB0111928A95E9F74BE0D1
:1023600050E068E871E0CE010E94EA1E1B8681E021
:1023700090E0A0E0B0E08C879D87AE87BF87F80132
:1023800082819381092E000CAA0BBB0B888B998B41
:10239000AA8BBB8B8DE090E0A0E0B0E08C8B9D8B96
:1023A000AE8BBF8B1CA21DA21EA21FA280E090E0DC
:1023B000A0E2B2EC8C8F9D8FAE8FBF8F80E090E05B
:1023C000AAEAB2E4888F998FAA8FBB8F8AE999E92C
:1023D000A9E9BEE388A399A3AAA3BBA3DF91CF91E8
:1023E0001F910F9108950F931F93CF93DF938C014B
:1023F000EB0188E2FB0111928A95E9F74BE050E08E
:1024000060E971E0CE010E94EA1E1B8681E090E047
:10241000A0E0B0E08C879D87AE87BF87F8018281FE
:102420009381092E000CAA0BBB0B888B998BAA8B6E
:10243000BB8B8CE090E0A0E0B0E08C8B9D8BAE8BF2
:10244000BF8B1CA21DA21EA21FA21C8E1D8E1E8E43
:102450001F8E80E090E0A8ECB2E4888F998FAA8F5D
:10246000BB8F80E090E0A0E0B0E488A399A3AAA38A
:10247000BBA3DF91CF911F910F9108950F931F93ED
:10248000CF93DF938C01EB0188E2FB0111928A95D7
:10249000E9F74BE050E068E971E0CE010E94EA1EE6
:1024A0001B8681E090E0A0E0B0E08C879D87AE873E
:1024B000BF87F80182819381092E000CAA0BBB0B08
:1024C000888B998BAA8BBB8B8DE090E0A0E0B0E06D
:1024D0008C8B9D8BAE8BBF8B1CA21DA21EA21FA23C
:1024E00080E090E0A0E2B2EC8C8F9D8FAE8FBF8F2A
:1024F00080E090E0A2EDB2E4888F998FAA8FBB8F25
:1025000084E09DEAA0E4BBE388A399A3AAA3BBA3AC
:10251000DF91CF911F910F9108950F931F93CF9348
:10252000DF938C01EB0188E2FB0111928A95E9F7B8
:102530004BE050E062EA71E0CE010E94EA1E1B8689
:1025400041E050E060E070E04C875D876E877F87F8
:10255000F80182819381092E000CAA0BBB0B888B9A
:10256000998BAA8BBB8B4C8B5D8B6E8B7F8B1CA24C
:102570001DA21EA21FA28AE098EEACE1B3EC8C8FE4
:102580009D8FAE8FBF8F8AE098EEACE1B3E4888F69
:10259000998FAA8FBB8F83E29BEDA9E7BDE388A348
:1025A00099A3AAA3BBA3DF91CF911F910F91089587
:1025B0000F931F93CF93DF938C01EB0188E2FB0114
:1025C00011928A95E9F74BE050E06CEA71E0CE0198
:1025D0000E94EA1E1B8681E090E0A0E0B0E08C87BC
:1025E0009D87AE87BF87F80182819381092E000CF9
:1025F000AA0BBB0B888B998BAA8BBB8B84E090E0DA
:10260000A0E0B0E08C8B9D8BAE8BBF8B1CA21DA27B
:102610001EA21FA287ED93EAABE0B2EC8C8F9D8FD8
:10262000AE8FBF8F87ED93EAABE0B2E4888F998FCE
:10263000AA8FBB8F8AE99BEAABE0B9E388A399A391
:10264000AAA3BBA3DF91CF911F910F91089585EDB0
:102650008093BC008091AF029091B002A091B10232
:10266000B091B2020796A11DB11D23E0B695A795C2
:10267000979587952A95D1F72091BC0024FD03C03A
:102680001092AD0208954091AF025091B002609156
:10269000B1027091B202452B462B472B69F300978C
:1026A000A105B10541F02AE22A95F1F700C0019792
:1026B000A109B109E1CF8091AE020C941D051F92D2
:1026C0000F920FB60F9211242F933F938F939F93E6
:1026D000AF93BF938091330290913402A091350261
:1026E000B09136023091320223E0230F2D3758F596
:1026F0000196A11DB11D2093320280933302909365
:102700003402A0933502B093360280913702909143
:102710003802A0913902B0913A020196A11DB11D73
:102720008093370290933802A0933902B0933A0213
:10273000BF91AF919F918F913F912F910F900FBEBD
:102740000F901F90189526E8230F0296A11DB11D2A
:10275000D2CF1F920F920FB60F9211242F933F9357
:102760004F935F936F937F938F939F93AF93BF9399
:10277000EF93FF9383EB92E00E94B102FF91EF9100
:10278000BF91AF919F918F917F916F915F914F9189
:102790003F912F910F900FBE0F901F9018951F9291
:1027A0000F920FB60F9211242F938F939F93EF9355
:1027B000FF93E091C302F091C4028081E091C902CD
:1027C000F091CA0282FD1BC090818091CC028F5F84
:1027D0008F732091CD02821741F0E091CC02F0E09E
:1027E000ED54FD4F958F8093CC02FF91EF919F9117
:1027F0008F912F910F900FBE0F901F901895808191
:10280000F4CF1F920F920FB60F9211242F933F9384
:102810004F935F936F937F938F939F93AF93BF93E8
:10282000EF93FF938091B900887F803609F44AC006
:10283000F0F5883209F4A7C018F5803109F49BC07F
:10284000B8F4882309F4F9C0883009F494C0FF91E2
:10285000EF91BF91AF919F918F917F916F915F9118
:102860004F913F912F910F900FBE0F901F90189591
:10287000883109F488C0803251F780938B0214C0EC
:10288000803409F49DC040F48033B9F38833F9F6FD
:1028900080938B0285ECB0C0803509F485C0883503
:1028A00009F496C0883499F60E942713D0CF88394E
:1028B00009F48CC038F5883729F050F4883611F0C7
:1028C000803729F683E08093AD021092310257C021
:1028D000883809F47BC0803919F0803809F0B7CF07
:1028E00080913102803208F071C0E091310281E0C4
:1028F0008E0F809331028091BB00F0E0EF5EFD4FC0
:1029000080833DC0803B39F0E0F4803A09F479C01F
:10291000883A09F09CCF84E08093AD0210921002B7
:1029200010920F02E0913F02F091400209958091D0
:102930000F0281110FC081E080930F021092EF010E
:1029400009C0803C09F4A6CF883C09F4A3CF883B9A
:1029500009F07DCFE091100281E08E0F809310028C
:10296000F0E0E151FE4F80818093BB009091100216
:1029700080910F0229C0809188028093BB0085EC72
:102980008093BC0064CF90918A028091890298174D
:1029900058F5E0918A0281E08E0F80938A02F0E080
:1029A000E959FD4F8081E9CFE0918A0281E08E0FE5
:1029B00080938A028091BB00F0E0E959FD4F80834B
:1029C00090918A02809189029817C8F285E8D8CF41
:1029D000E0918A0281E08E0F80938A028091BB0091
:1029E000F0E0E959FD4F808380918C0281115CCF2A
:1029F00081E08093870284EA8093BC001092AD024C
:102A000026CF85EC8093BC001092AD0280913102FC
:102A1000803230F4E0913102F0E0EF5EFD4F108241
:102A20006091310270E0E0913D02F0913E0281E15F
:102A300092E00995109231020ACF10928B0234CFA6
:102A4000E3EBF2E01382128248EE53E060E070E0C4
:102A5000448355836683778383E591E09183808304
:102A600085EC90E09587848784EC90E09787868753
:102A700080EC90E0918B808B81EC90E0938B828B4B
:102A800082EC90E0958B848B86EC90E0978B868B24
:102A9000118E128E138E148EA0E5B3E013961C9245
:102AA0001E92129714964D935D936D937C93179796
:102AB00085E691E011969C938E93ECE7F3E087E72F
:102AC00091E091838083178E168E11A210A213A21B
:102AD00012A215A214A2EEE6F3E085E481834AE98E
:102AE00059E969E97FE342835383648375831782DD
:102AF000168283E28083B187A087ECE5F3E0158638
:102B0000148617861686118A108A0895CF93DF934C
:102B1000CDB7DEB7C457D1090FB6F894DEBF0FBEEC
:102B2000CDBF789484B5826084BD84B5816084BD56
:102B300085B5826085BD85B5816085BD80916E005B
:102B4000816080936E00109281008091810082608C
:102B500080938100809181008160809381008091C9
:102B600080008160809380008091B10084608093B8
:102B7000B1008091B00081608093B00080917A00B4
:102B8000846080937A0080917A00826080937A00DA
:102B900080917A00816080937A0080917A008068C9
:102BA00080937A001092C100E091C302F091C402B8
:102BB00082E08083E091BF02F091C0021082E09138
:102BC000C102F091C20280E180831092CB02E091B9
:102BD000C702F091C80286E08083E091C502F091BF
:102BE000C602808180618083E091C502F091C602B7
:102BF000808188608083E091C502F091C602808167
:102C000080688083E091C502F091C60280818F7D4B
:102C100080830E94060586EB91E00E94B40C8091AF
:102C20009A0390919B03009711F00E94611E86E029
:102C300090E00E94C51DFC0189E6808380E593E059
:102C400092838183138280E290E095838483F09362
:102C50009B03E0939A0385E0F82E01E0C0909A036D
:102C6000D0909B030E940605D60113960C93C601D3
:102C70000E940808182F8111ADC46AE070E080E05E
:102C800090E00E94F501FA94F110E8CF812F90E0D6
:102C90000E94840C0E9427026B017C018CE793E068
:102CA0000E94990AFE013D9618E1DF01812F1D92D5
:102CB0008A95E9F784E290E0A0E0B0E089839A8306
:102CC000AB83BC838091A6039091A703B0E0A0E002
:102CD0008D839E83AF83B8878DE090E0A0E0B0E065
:102CE00089879A87AB87BC87C98ADA8AEB8AFC8A8C
:102CF00080917E0390917F03A0918003B091810326
:102D00008D8B9E8BAF8BB88FE9E4F0E0EC0FFD1F4D
:102D10003C96DF01812F1D928A95E9F7812C912C39
:102D2000540183942D968CAE9DAEAEAEBFAE2D9762
:102D30008091A2039091A303B0E0A0E061968CAFD4
:102D40009DAFAEAFBFAF619765968CAE9DAEAEAE98
:102D5000BFAE65976D96CCAEDDAEEEAEFFAE6D97B5
:102D60002AE038EE4CE151E46091820370918303D4
:102D700080918403909185030E94C71BA1966CAF3C
:102D80007DAF8EAF9FAFA1972AE038EE4CE151E4C2
:102D900060918603709187038091880390918903E5
:102DA0000E94C71BA5966CAF7DAF8EAF9FAFA59756
:102DB0002AE038EE4CE151E460918A0370918B0374
:102DC00080918C0390918D030E94C71BA9966CAFD4
:102DD0007DAF8EAF9FAFA997FE01F196DF011D92E7
:102DE0001A95E9F78DA29EA2AFA2B8A68091A4037E
:102DF0009091A503B0E0A0E089A79AA7ABA7BCA7D4
:102E000084E090E0A0E0B0E08DA79EA7AFA7B8ABAC
:102E1000CDAADEAAEFAAF8AE25E33AEF4EE85CE3CE
:102E200060918E0370918F03809190039091910334
:102E30000E94C71B69AF7AAF8BAF9CAF25E33AEF17
:102E40004EE85CE360919203709193038091940348
:102E5000909195030E94C71B21966CAF7DAF8EAFFA
:102E60009FAF219725E33AEF4EE85CE3609196032C
:102E70007091970380919803909199030E94C71BCA
:102E800025966CAF7DAF8EAF9FAF25978BEB91E012
:102E90000E94B40CA9966CAD7DAD8EAD9FADA99787
:102EA00041E050E00E94B60C8FEB91E00E94B40C20
:102EB00023E220936E03809176039091770301E0E3
:102EC000009343022093650210924402109266021E
:102ED000DC01ED91FC910190F081E02D60E109951C
:102EE00081E00E941606182F6AE070E080E090E012
:102EF0000E94F501123009F489C048F4112399F0B9
:102F00008BED91E0113059F088E391E008C084E73F
:102F100091E0133021F088E591E01430A9F70E9488
:102F2000820D80E07AC080E190E0909375038093F9
:102F300074030E942702609378037093790380934F
:102F40007A0390937B03809176039091770320918D
:102F50006E03009343022093650210924402109284
:102F6000660262E470E00E94460381E00E94160659
:102F7000182F809176039091770320916E03009330
:102F8000430220936502109244021092660265E6A5
:102F900070E00E94460381E00E941606182B809183
:102FA00076039091770320916E0300934302209360
:102FB000650210924402109266026091740370914F
:102FC00075030E94460381E00E941606182B6AE0F2
:102FD00070E080E090E00E94F501123009F4F6C143
:102FE00050F41123B1F08BE091E0113009F497CF48
:102FF00088E690E094CF84EA90E0133009F48FCF14
:1030000088E890E0143009F48ACFF2CF86EA91E0A4
:1030100086CF85E480936F0381E090E00E94840C6A
:1030200068EC70E080E090E00E94F50183EC91E0B4
:103030000E94B40C8091740390917503892B09F060
:10304000C8C188E092E00E94820DC12CD12CE12CF5
:10305000B0ECFB2E50E040E0C701B6010E94B60C78
:1030600088EC91E00E94B40C80913B0290913C026C
:10307000009711F00E94611E86E090E00E94C51D3D
:103080008C0188E6F801808380E593E09283818358
:10309000138280E290E09583848310933C02009336
:1030A0003B020E94060581E0D80113968C93C8016B
:1030B0000E94080890E00E94840C8DEC91E00E9430
:1030C000B40C0E941C090E946F0D6E01BDE6CB0E70
:1030D000D11C86E0F60111928A95E9F786E5D601C2
:1030E00011968C93119784E312968C93129782E138
:1030F00013968C93139780E315968C93159789E01C
:1031000016968C93169786E217968C93F12CE12CE9
:1031100010E000E021E048E050E0B60180913B0281
:1031200090913C020E940607F6011082A0903B029B
:10313000B0903C0220E041E050E0B601C5010E94A1
:103140000607882331F047E050E0B601C5010E9430
:10315000B608D6012C912F77822F90E034E0959518
:1031600087953A95E1F7982F990F990FB82EB91ACC
:10317000BB0CB20E11966C911197862F90E044E033
:10318000959587954A95E1F7982F990F990F182FE4
:10319000191B110F160F12966C911297862F90E043
:1031A00054E0959587955A95E1F7982F990F990FC7
:1031B000082F091B000F060F14966C911497862F89
:1031C00090E074E0959587957A95E1F7982F990F9F
:1031D000990FF82EF91AFF0CF60E15966C911597AB
:1031E000862F90E0E4E095958795EA95E1F7982F92
:1031F000990F990FE82EE91AEE0CE60E1696AC9090
:1032000082ED91E00E94B40C8A2D90E0F4E0959557
:103210008795FA95E1F7982F990F990F891B880FD9
:103220008A0D682F70E06053784F90E080E04AE0AC
:103230000E94400C8DE20E9420036E2D70E090E011
:1032400080E04AE00E94400C8DE20E9420036F2D36
:1032500070E090E080E04AE00E94400C80E20E9432
:103260002003602F70E090E080E04AE00E94400C74
:103270008AE30E942003612F70E090E080E04AE042
:103280000E94400C8AE30E9420038B2D0E946F0D48
:103290008DEC91E00E94B40C0E941C090E946F0DFD
:1032A00087ED91E00E94B40C64E170E080E090E072
:1032B0000E94F5018091680390916903009711F0D5
:1032C0000E94611E86E090E00E94C51D8C0188E38B
:1032D000F801808380E593E092838183138280E20A
:1032E00090E09583848310936903009368030E94A0
:1032F000060581E0D80113968C93C8010E94080846
:10330000B82E8823A9F08AEBF6018083F12CE12CFA
:1033100010E000E021E041E050E0B6018091680358
:10332000909169030E940607B82E8111D5C0B12C77
:103330008B2D90E00E94840CAE014B5D5F4FBE016F
:10334000675B7F4F8CE593E00E94350F8CED91E039
:103350000E94B40CA1966CAD7DAD8EAD9FADA197D2
:1033600041E050E00E94B60C89ED91E00E94B40C5F
:1033700069AD7AAD8BAD9CAD41E050E00E94B60CDA
:1033800080EE91E00E94B40C8EE00E94B3010E9496
:10339000840C84EE91E00E94B40C8FE00E94B30193
:1033A0000E94840C88EE91E00E94330C89E791E042
:1033B0000E94330C00E010E001151105E9F30E94B2
:1033C0009D028823C9F30E940000F6CF86ED90E0AD
:1033D000A6CD41E062E080916E030E943E0510920E
:1033E000420280934102C12CD12CA0E8EA2EAFEB1F
:1033F000FA2E823009F58091760390917703DC01F3
:10340000ED91FC910284F385E02D099500E0182FE1
:103410008091760390917703DC01ED91FC91028419
:10342000F385E02D0995802B912BBC0190E080E085
:103430000E94661B6B017C010E9427026093780347
:103440007093790380937A0390937B0320E030E0BC
:1034500040E85FEBC701B6010E94611B882309F4B5
:10346000F9CD60916F036534A9F070E090E080E0E1
:103470000E94661B9B01AC0160E070E08AE892E468
:103480000E94F21C9B01AC01C701B6010E94C71B40
:103490006B017C01809174039091750381329105D9
:1034A00011F0419751F420E030E040E05FE3C701C4
:1034B000B6010E94C71B6B017C0120917003309103
:1034C00071034091720350917303C701B6010E94CA
:1034D000F21C6B017C01BECD64E170E080E090E005
:1034E0000E94F5018CE593E00E941B0C87FF05C04C
:1034F0006AE070E080E090E0F3CF81EED6018C933B
:1035000088E011968C93119712961C92F12CE12C65
:1035100010E000E021E043E050E0B6018091680354
:10352000909169030E9406078CE593E00E941B0CB2
:1035300087FF07C06AE070E080E090E00E94F5013C
:10354000F3CF8CE593E00E941B0C83FFF0CE8091BB
:103550006C0390916D03009739F0DC01ED91FC91C3
:103560000280F381E02D099580916A0390916B03AD
:10357000009739F0DC01ED91FC910280F381E02DA0
:10358000099586E090E00E94C51DFC0185E491E06C
:103590009183808380E290E1938382830CE513E042
:1035A00015830483F0936D03E0936C0386E090E051
:1035B0000E94C51DFC0187E391E09183808381E235
:1035C00090E19383828315830483F0936B03E093EC
:1035D0006A03AECE80919A0390919B031A8A1B8A4C
:1035E0001C8A1D8A9A8389831C821B820C8785E72B
:1035F00090E09A8789871D860B87CE0101960E94ED
:10360000E40910E0683671058105910509F03ECBAB
:1036100040E050E0BA018CE793E00E94AC0D182F17
:1036200035CB80916A0390916B03009739F0DC01F0
:10363000ED91FC910280F381E02D099580916C035E
:1036400090916D03009739F0DC01ED91FC910280BF
:10365000F381E02D099587E791E090937D038093B6
:103660007C0380919C0390919D03009739F0DC01CD
:10367000ED91FC910280F381E02D099580919E03EC
:1036800090919F03009739F0DC01ED91FC9102804D
:10369000F381E02D09958091A0039091A1030097FB
:1036A00039F0DC01ED91FC910280F381E02D099568
:1036B00080919A0390919B03009711F00C94611EE6
:1036C00008950E94A31B08F481E00895E89409C0BE
:1036D00097FB3EF490958095709561957F4F8F4F45
:1036E0009F4F9923A9F0F92F96E9BB279395F6955B
:1036F000879577956795B795F111F8CFFAF4BB0FD9
:1037000011F460FF1BC06F5F7F4F8F4F9F4F16C03C
:10371000882311F096E911C0772321F09EE8872FC6
:10372000762F05C0662371F096E8862F70E060E082
:103730002AF09A95660F771F881FDAF7880F9695FB
:10374000879597F90895990F0008550FAA0BE0E89F
:10375000FEEF16161706E807F907C0F01216130653
:10376000E407F50798F0621B730B840B950B39F493
:103770000A2661F0232B242B252B21F408950A26F9
:1037800009F4A140A6958FEF811D811D08950E9427
:10379000DA1B0C944B1C0E943D1C38F00E94441C08
:1037A00020F0952311F00C94341C0C943A1C112435
:1037B0000C947F1C0E945C1C70F3959FC1F3950FC5
:1037C00050E0551F629FF001729FBB27F00DB11DA5
:1037D000639FAA27F00DB11DAA1F649F6627B00D35
:1037E000A11D661F829F2227B00DA11D621F739F1E
:1037F000B00DA11D621F839FA00D611D221F749F2C
:103800003327A00D611D231F849F600D211D822F72
:10381000762F6A2F11249F5750409AF0F1F0882399
:103820004AF0EE0FFF1FBB1F661F771F881F9150C6
:103830005040A9F79E3F510580F00C94341C0C9425
:103840007F1C5F3FE4F3983ED4F3869577956795A8
:10385000B795F795E7959F5FC1F7FE2B880F911DF0
:103860009695879597F9089597F99F6780E870E096
:1038700060E008959FEF80EC089500240A941616E6
:10388000170618060906089500240A94121613064E
:10389000140605060895092E0394000C11F48823DC
:1038A00052F0BB0F40F4BF2B11F460FF04C06F5FF8
:1038B0007F4F8F4F9F4F089557FD9058440F551FCE
:1038C00059F05F3F71F04795880F97FB991F61F0A2
:1038D0009F3F79F087950895121613061406551F19
:1038E000F2CF4695F1DF08C0161617061806991F85
:1038F000F1CF86957105610508940895E894BB277A
:1039000066277727CB0197F908955058BB27AA2738
:103910000E949D1C0C944B1C0E943D1C38F00E9480
:10392000441C20F039F49F3F19F426F40C943A1CFF
:103930000EF4E095E7FB0C94341CE92F0E945C1C0C
:1039400058F3BA17620773078407950720F079F4D4
:10395000A6F50C947E1C0EF4E0950B2EBA2FA02D2C
:103960000B01B90190010C01CA01A0011124FF272C
:10397000591B99F0593F50F4503E68F11A16F04027
:10398000A22F232F342F4427585FF3CF4695379526
:103990002795A795F0405395C9F77EF41F16BA0BEB
:1039A000620B730B840BBAF09150A1F0FF0FBB1F99
:1039B000661F771F881FC2F70EC0BA0F621F731FE2
:1039C000841F48F4879577956795B795F7959E3F3F
:1039D00008F0B0CF9395880F08F09927EE0F9795D0
:1039E000879508950E94061D0C944B1C0E94441C50
:1039F00058F00E943D1C40F029F45F3F29F00C94E0
:103A0000341C51110C947F1C0C943A1C0E945C1CB9
:103A100068F39923B1F3552391F3951B550BBB27FD
:103A2000AA2762177307840738F09F5F5F4F220F42
:103A3000331F441FAA1FA9F335D00E2E3AF0E0E839
:103A400032D091505040E695001CCAF72BD0FE2F83
:103A500029D0660F771F881FBB1F26173707480717
:103A6000AB07B0E809F0BB0B802DBF01FF279358CF
:103A70005F4F3AF09E3F510578F00C94341C0C9443
:103A80007F1C5F3FE4F3983ED4F386957795679566
:103A9000B795F7959F5FC9F7880F911D9695879504
:103AA00097F90895E1E0660F771F881FBB1F621723
:103AB00073078407BA0720F0621B730B840BBA0BE1
:103AC000EE1F88F7E09508950E94641C88F09F57C8
:103AD00098F0B92F9927B751B0F0E1F0660F771F32
:103AE000881F991F1AF0BA95C9F714C0B13091F028
:103AF0000E947E1CB1E008950C947E1C672F782FE5
:103B00008827B85F39F0B93FCCF3869577956795EC
:103B1000B395D9F73EF490958095709561957F4F58
:103B20008F4F9F4F08950E94A31B08F48FEF0895B5
:103B30000E94A31B880B990B0895A1E21A2EAA1BC1
:103B4000BB1BFD010DC0AA1FBB1FEE1FFF1FA2174D
:103B5000B307E407F50720F0A21BB30BE40BF50B4A
:103B6000661F771F881F991F1A9469F760957095D3
:103B7000809590959B01AC01BD01CF010895EE0F9A
:103B8000FF1F0590F491E02D09940F931F93CF939D
:103B9000DF938230910510F482E090E0E091B80369
:103BA000F091B90330E020E0B0E0A0E0309799F464
:103BB0002115310509F44AC0281B390B2430310581
:103BC000D8F58A819B816115710589F1FB01938389
:103BD0008283FE0111C04081518102811381481707
:103BE0005907E0F04817590799F4109761F01296B9
:103BF0000C93129713961C933296CF01DF91CF91BD
:103C00001F910F9108950093B8031093B903F4CF57
:103C10002115310551F04217530738F0A901DB0196
:103C20009A01BD01DF01F801C1CFEF01F9CF9093F7
:103C3000B9038093B803CDCFFE01E20FF31F819348
:103C400091932250310939832883D7CF2091B6032D
:103C50003091B703232B41F42091020130910301ED
:103C60003093B7032093B6032091000130910101F6
:103C70002115310541F42DB73EB740910401509113
:103C80000501241B350BE091B603F091B703E21751
:103C9000F307A0F42E1B3F0B2817390778F0AC016F
:103CA0004E5F5F4F2417350748F04E0F5F1F50934C
:103CB000B7034093B603819391939FCFF0E0E0E088
:103CC0009CCFCF93DF930097E9F0FC0132971382EA
:103CD0001282A091B803B091B903ED0130E020E069
:103CE0001097A1F420813181820F931F2091B60398
:103CF0003091B7032817390709F061C0F093B70373
:103D0000E093B603DF91CF910895EA01CE17DF0764
:103D1000E8F54A815B819E0141155105B1F7E90142
:103D2000FB83EA8349915991C40FD51FEC17FD0716
:103D300061F4808191810296840F951FE901998336
:103D40008883828193819B838A83F0E0E0E01296EE
:103D50008D919C9113970097B9F52D913C911197F6
:103D6000CD010296820F931F2091B6033091B703C5
:103D70002817390739F6309751F51092B903109288
:103D8000B803B093B703A093B603BCCFD383C28369
:103D900040815181840F951FC817D90761F44E5F88
:103DA0005F4F88819981480F591F518340838A81D1
:103DB0009B81938382832115310509F0B0CFF09365
:103DC000B903E093B8039ECFFD01DC01C0CF13829D
:103DD0001282D7CFFB01DC014150504048F00190E6
:103DE0000D920020C9F701C01D9241505040E0F7EC
:103DF000089511E0CAE3D1E004C0FE010E94BF1D96
:0C3E00002196CB33D107C9F7F894FFCF0F
:103E0C000000BA038000AC3300000000004503A69C
:103E1C000DC0043911D812000000004503A80DC0D4
:103E2C0004C3108D12000000004503AA0DC0047ECF
:103E3C00103E12000000004503A40DC0046B10A43A
:103E4C0011000000004503A20DC0047510F3110011
:103E5C00000000D30233026002250391026F02833B
:103E6C00020000000084085708B3082D0850083DD4
:103E7C00082E0800000000AC0D0D0A006E616E00EB
:103E8C00696E66006F76660041485478305F540066
:103E9C0041485478305F48004D5055363035305FCE
:103EAC0054004D5055363035305F41004D5055362D
:103EBC003035305F47004D50553D00415A3D004272
:103ECC00483D004C55583D005254433D0052554E10
:103EDC003D004E4F573D004148543D0052483D0077
:0E3EEC0041303D0041313D00444F4E45000045
:00000001FF
