:100000000C9463000C948B000C948B000C948B006C
:100010000C948B000C948B000C948B000C9492032A
:100020000C948B000C948B000C948B000C948B0024
:100030000C948B000C948B000C948B000C948B0014
:100040000C9448030C948B000C945C040C943604C0
:100050000C948B000C948B000C948B000C948B00F4
:100060000C948B000C948B000000000023002600F1
:10007000290000000008000201000003040700003E
:1000800000000000000000000000240027002A00FB
:10009000010204081020408001020408102001021F
:1000A0000408102000000000250028002B00040494
:1000B0000404040404040202020202020303030310
:1000C00003030200520611241FBECFEFD8E0DEBFAB
:1000D000CDBF11E0A0E0B1E0E2E5FDE002C0059097
:1000E0000D92A23EB107D9F722E0A2EEB1E001C025
:1000F0001D92A23FB207E1F710E0C3E6D0E004C0D2
:100100002197FE010E94A106C236D107C9F70E94BD
:100110008E040C94A7060C940000833081F028F420
:10012000813099F08230A9F008958730A9F08830A5
:10013000C9F08430B1F4809180008F7D03C080913C
:1001400080008F7780938000089584B58F7784BD79
:10015000089584B58F7DFBCF8091B0008F77809319
:10016000B00008958091B0008F7DF9CFCF93DF93D9
:1001700090E0FC01E057FF4F249182559F4FFC0116
:1001800084918823D1F090E0880F991FFC01EA57F1
:10019000FF4FA591B491FC01EC55FF4FC591D4914F
:1001A00061110EC09FB7F8948C91E22FE0958E23D9
:1001B0008C932881E223E8839FBFDF91CF9108953C
:1001C0008FB7F894EC91E22BEC938FBFF6CFCF93DF
:1001D00080910001843021F08F3F61F1CF9108952B
:1001E000E2ECF0E0C491C7FDF9CF61E084E00E9449
:1001F000B600CC2309F48CC0C23009F0A1C08091B4
:10020000B100887F83608093B1008AEB8093B30054
:1002100085ED90E0A0E0B0E08093490290934A021F
:10022000A0934B02B0934C02809170008260809347
:100230007000D4CF84E080930001E2ECF0E0C49140
:10024000CF3F61F2C13021F150F0C23009F43EC01D
:10025000C7FDC4CF61E084E00E94B600CDCF14BCDE
:1002600015BC84B5826084BD85B5816085BDE2EB37
:10027000F0E0E491F0E0EE0FFF1FEC55FF4F8591A9
:100280009491E4E9F0E0E491E0934802C0E0ADCF5E
:10029000109280001092810080918100886080938C
:1002A000810080918100816080938100E2EBF0E029
:1002B000E491F0E0EE0FFF1FEC55FF4F8591949114
:1002C000E4E9F0E0E491E09347028FCF1092B000B0
:1002D0001092B1008091B00082608093B000809154
:1002E000B10081608093B100E2EBF0E0E491F0E0D6
:1002F000EE0FFF1FEC55FF4F8591949190934602AE
:1003000080934502E4E9F0E0E491E09344026DCF8C
:1003100085B5887F836085BD8CE587BD85ED90E0E0
:10032000A0E0B0E08093510290935202A093530258
:10033000B093540280916E00826080936E004ECF25
:10034000C130F1F480918100887F816080938100C9
:1003500083E697E1909389008093880085ED90E093
:10036000A0E0B0E080934D0290934E02A0934F0224
:10037000B093500280916F00826080936F002ECF07
:10038000C23021F0C1112ACF83E6C7CF83E63ECF2A
:100390003FB7F8948091400290914102A0914202AF
:1003A000B091430226B5A89B05C02F3F19F00196D6
:1003B000A11DB11D3FBFBA2FA92F982F8827BC01BF
:1003C000CD01620F711D811D911D42E0660F771FE7
:1003D000881F991F4A95D1F708958F929F92AF92E7
:1003E000BF92CF92DF92EF92FF926B017C010E944D
:1003F000C8014B015C01C114D104E104F104B9F05E
:100400000E94C801681979098A099B09683E7340EE
:100410008105910580F321E0C21AD108E108F108B5
:1004200088EE880E83E0981EA11CB11CE4CFFF90DB
:10043000EF90DF90CF90BF90AF909F908F900895F6
:10044000AF92BF92CF92DF92EF92FF920F931F93E2
:10045000CF93DF936C017B018B01040F151FEB0120
:100460005E01AE18BF08C017D10759F06991D601D7
:10047000ED91FC910190F081E02DC6010995892B49
:1004800079F7C501DF91CF911F910F91FF90EF9008
:10049000DF90CF90BF90AF900895FC01538D448DB5
:1004A000252F30E0842F90E0821B930B541710F01F
:1004B000CF96089501970895FC01918D828D98172C
:1004C00061F0A28DAE0FBF2FB11D5D968C91928D04
:1004D0009F5F9F73928F90E008958FEF9FEF089535
:1004E000FC01918D828D981731F0828DE80FF11DFE
:1004F000858D90E008958FEF9FEF0895FC01918D19
:10050000228D892F90E0805C9F4F821B91098F7311
:100510009927089585E592E00E947E0221E0892BCB
:1005200009F420E0822F089580E090E0892B29F0E3
:100530000E948A0281110C9400000895FC01A48D90
:10054000A80FB92FB11DA35ABF4F2C91848D90E0F5
:1005500001968F739927848FA689B7892C93A089D8
:10056000B1898C91837080648C93938D848D981362
:1005700006C00288F389E02D80818F7D80830895F5
:10058000EF92FF920F931F93CF93DF93EC0181E0E3
:10059000888F9B8D8C8D98131AC0E889F98980818A
:1005A00085FF15C09FB7F894EE89FF896083E889BD
:1005B000F98980818370806480839FBF81E090E0AF
:1005C000DF91CF911F910F91FF90EF900895F62E3C
:1005D0000B8D10E00F5F1F4F0F731127E02E8C8DD6
:1005E0008E110CC00FB607FCFACFE889F98980811B
:1005F00085FFF5CFCE010E949E02F1CFEB8DEC0F6F
:10060000FD2FF11DE35AFF4FF0829FB7F8940B8F37
:10061000EA89FB8980818062CFCFCF93DF93EC01A1
:10062000888D8823B9F0AA89BB89E889F9898C91DA
:1006300085FD03C0808186FD0DC00FB607FCF7CF96
:100640008C9185FFF2CF808185FFEDCFCE010E9496
:100650009E02E9CFDF91CF910895FC010190002027
:10066000E9F73197AF01481B590BBC0185E592E0D2
:100670000C942002CF93DF930E942D03EC0183E1C1
:1006800091E00E942D038C0F9D1FDF91CF91089563
:100690001F920F920FB60F9211242F933F938F93B7
:1006A0009F93AF93BF9380913C0290913D02A091A4
:1006B0003E02B0913F0230913B0223E0230F2D37E1
:1006C00058F50196A11DB11D20933B0280933C0279
:1006D00090933D02A0933E02B0933F02809140026E
:1006E00090914102A0914202B09143020196A11D56
:1006F000B11D8093400290934102A0934202B093B7
:100700004302BF91AF919F918F913F912F910F9095
:100710000FBE0F901F90189526E8230F0296A11D7B
:10072000B11DD2CF1F920F920FB60F9211242F93AB
:100730003F934F935F936F937F938F939F93AF9369
:10074000BF93CF93DF93EF93FF93809149029091F2
:100750004A02A0914B02B0914C02892B8A2B8B2B21
:10076000E1F190914402E0914502F09146028081CE
:10077000892780838091490290914A02A0914B027F
:10078000B0914C02181619061A061B069CF48091AB
:10079000490290914A02A0914B02B0914C020197FC
:1007A000A109B1098093490290934A02A0934B0298
:1007B000B0934C02FF91EF91DF91CF91BF91AF9138
:1007C0009F918F917F916F915F914F913F912F9169
:1007D0000F900FBE0F901F90189520910001E2EC32
:1007E000F0E0E4918FEF80930001E13041F120F1DE
:1007F000E23059F130E0F901EE58FF4F8491F901F0
:10080000E057FF4FD491F901E255FF4FC491CC233B
:1008100089F281110E948D00EC2FF0E0EE0FFF1F96
:10082000EC55FF4FA591B4918FB7F894EC91D0950A
:10083000DE23DC938FBFBECF10926E00DBCF8091A2
:100840006F008D7F80936F00D5CF809170008D7F7A
:100850008093700081E08093B0008091B100887F28
:1008600084608093B1001092B300C4CF1F920F92A6
:100870000FB60F9211242F933F934F935F936F9373
:100880007F938F939F93AF93BF93EF93FF9385E5F0
:1008900092E00E949E02FF91EF91BF91AF919F91D4
:1008A0008F917F916F915F914F913F912F910F9019
:1008B0000FBE0F901F9018951F920F920FB60F92B8
:1008C00011242F938F939F93EF93FF93E0916502F1
:1008D000F09166028081E0916B02F0916C0282FDE2
:1008E0001BC0908180916E028F5F8F7320916F0289
:1008F000821741F0E0916E02F0E0EB5AFD4F958FC8
:1009000080936E02FF91EF919F918F912F910F90A5
:100910000FBE0F901F9018958081F4CFCF93DF9377
:10092000CDB7DEB7A1970FB6F894DEBF0FBECDBF2F
:10093000789484B5826084BD84B5816084BD85B5BA
:10094000826085BD85B5816085BD80916E008160C6
:1009500080936E001092810080918100826080936C
:10096000810080918100816080938100809180006E
:100970008160809380008091B10084608093B10099
:100980008091B00081608093B00080917A00846093
:1009900080937A0080917A00826080937A008091BF
:1009A0007A00816080937A0080917A0080688093D9
:1009B0007A001092C100E0916502F091660282E037
:1009C0008083E0916102F09162021082E091630203
:1009D000F09164028FEC808310926D02E0916902C5
:1009E000F0916A0286E08083E0916702F0916802EC
:1009F000808180618083E0916702F091680280814C
:100A000088608083E0916702F0916802808180684D
:100A10008083E0916702F091680280818F7D8083FE
:100A200060E083E00E94B60061E084E00E94B600CE
:100A300086E191E00E943A038FE291E00E943A033E
:100A40005AE0452E512C612C712C40E0242E40E0C0
:100A5000342EE5E7F0E08491E3E9F0E01491E1EB76
:100A6000F0E00491002309F47EC081110E948D0002
:100A7000E02FF0E0EE0FFF1FE859FF4FA591B49172
:100A80008C91182391E080E009F490E0092F182F51
:100A90008FB7F894C0903C02D0903D02E0903E02A7
:100AA000F0903F028FBF01301105E9F480913902C7
:100AB00090913A02892BB9F480913802811156C085
:100AC000F1E0F09338021092370210923602C09291
:100AD0003202D0923302E0923402F09235028FE576
:100AE00091E00E943A0310933A02009339028091F8
:100AF0003802882309F4CAC08091320290913302EF
:100B0000A0913402B0913502C81AD90AEA0AFB0A48
:100B1000F9EBCF16FBE0DF06E104F10408F4B6C000
:100B2000109238028BE891E00E943A030E94E7009D
:100B300082EEE82E81E0F82E10E000E0809136028F
:100B400090913702081719070CF092C0F7016191D4
:100B50007191819191917F010E94ED010E94E700C6
:100B60000F5F1F4FEBCF10E000E092CF8091320279
:100B700090913302A0913402B0913502B701A601E1
:100B8000481B590B6A0B7B0B4536510561057105F6
:100B900008F4A9CF809136029091370284319105F3
:100BA0000CF0A1CFFC01EE0FFF1FEE0FFF1FEE5167
:100BB000FE4F408351836283738301969093370283
:100BC00080933602C0923202D0923302E092340215
:100BD000F092350285E891E00E942D038090360264
:100BE00090903702092C000CAA08BB08B7FE2AC057
:100BF0006DE285E592E00E94C00222273327A90119
:100C0000281939094A095B0919A2CE0181965C01AC
:100C1000CA01B901A30192010E947F06605DF5013E
:100C200062935F01211531054105510589F7A11432
:100C3000B10419F0C5010E942D0383E191E00E94E7
:100C40002D0351CFA501940119A2CE0181965C011B
:100C5000CA01B901A30192010E947F06605DF501FE
:100C600062935F01211531054105510589F7DFCFF9
:100C700066E970E080E090E00E94ED0185EB91E094
:100C80000E943A0310923702109236022114310466
:100C900009F4DFCE0E948A02882309F4DACE0E948A
:100CA0000000D3CEE5E5F2E01382128288EE93E0F5
:100CB000A0E0B0E084839583A683B78385E091E0CC
:100CC0009183808385EC90E09587848784EC90E025
:100CD0009787868780EC90E0918B808B81EC90E009
:100CE000938B828B82EC90E0958B848B86EC90E0EA
:100CF000978B868B118E128E138E148E0895A1E21F
:100D00001A2EAA1BBB1BFD010DC0AA1FBB1FEE1F85
:100D1000FF1FA217B307E407F50720F0A21BB30BD0
:100D2000E40BF50B661F771F881F991F1A9469F74C
:100D300060957095809590959B01AC01BD01CF01A8
:100D40000895EE0FFF1F0590F491E02D0994F8949B
:020D5000FFCFD3
:100D5200FF00000000C00220024D020D037E025C73
:100D62000270020D0A0052687974686D2052656340
:100D72006F7264657220537461727465642E004DE3
:100D8200616B6520736F6D65206E6F6973652028D6
:100D9200652E672E20636C61702920746F20737436
:100DA200617274207265636F7264696E67210052AA
:100DB20065636F7264696E672073746172746564CF
:100DC2002E2E2E20436C6170207468652072687923
:100DD20074686D2100436C617020005265636F720C
:100DE20064696E672073746F707065642E20506C36
:100DF2006179696E67206261636B207268797468D9
:100E02006D2E2E2E00506C61796261636B206669D3
:100E12006E69736865642E2057616974696E672014
:100E2200666F72206E65772072687974686D2E2EF7
:020E32002E0090
:00000001FF
