:100000000C945D000C9485000C9485000C94850084
:100010000C9485000C9485000C9485000C9485004C
:100020000C9485000C9485000C9485000C9485003C
:100030000C9485000C9485000C9485000C9485002C
:100040000C9476020C9485000C94E6020C94C00289
:100050000C9485000C9485000C9485000C9485000C
:100060000C9485000C9485000000000024002700FB
:100070002A0000000000250028002B0004040404CE
:100080000404040402020202020203030303030342
:10009000010204081020408001020408102001021F
:1000A00004081020000000080002010000030407FB
:1000B0000000000000000000750411241FBECFEFF7
:1000C000D8E0DEBFCDBF11E0A0E0B1E0E2E0FAE0B1
:1000D00002C005900D92A233B107D9F721E0A2E347
:1000E000B1E001C01D92A83DB207E1F710E0CDE5F7
:1000F000D0E004C02197FE010E94EA04CC35D1076C
:10010000C9F70E9418030C94FF040C9400003FB739
:10011000F8948091370190913801A0913901B09104
:100120003A0126B5A89B05C02F3F19F00196A11DE5
:10013000B11D3FBFBA2FA92F982F8827BC01CD0131
:10014000620F711D811D911D42E0660F771F881F90
:10015000991F4A95D1F708958F929F92AF92BF92BF
:10016000CF92DF92EF92FF924B015C010E948700D9
:100170006B017C010E9487006C197D098E099F0923
:10018000683E734081059105A8F321E0821A910829
:10019000A108B10888EEC80E83E0D81EE11CF11C4E
:1001A00081149104A104B10429F7FF90EF90DF902E
:1001B000CF90BF90AF909F908F900895AF92BF92D5
:1001C000CF92DF92EF92FF920F931F93CF93DF9323
:1001D0006C017B018B01040F151FEB015E01AE1852
:1001E000BF08C017D10759F06991D601ED91FC9174
:1001F0000190F081E02DC6010995892B79F7C501A1
:10020000DF91CF911F910F91FF90EF90DF90CF90F2
:10021000BF90AF900895FC01538D448D252F30E0A1
:10022000842F90E0821B930B541710F0CF96089503
:1002300001970895FC01918D828D981761F0A28D30
:10024000AE0FBF2FB11D5D968C91928D9F5F9F73F6
:10025000928F90E008958FEF9FEF0895FC01918DAC
:10026000828D981731F0828DE80FF11D858D90E019
:1002700008958FEF9FEF0895FC01918D228D892FB6
:1002800090E0805C9F4F821B91098F73992708959E
:100290008BE391E00E943C0121E0892B09F420E0EE
:1002A000822F089580E090E0892B29F00E94480178
:1002B00081110C9400000895FC01A48DA80FB92FA2
:1002C000B11DA35ABF4F2C91848D90E001968F737E
:1002D0009927848FA689B7892C93A089B1898C919D
:1002E000837080648C93938D848D981306C00288EC
:1002F000F389E02D80818F7D80830895EF92FF92B6
:100300000F931F93CF93DF93EC0181E0888F9B8D38
:100310008C8D98131AC0E889F989808185FF15C0F2
:100320009FB7F894EE89FF896083E889F989808115
:100330008370806480839FBF81E090E0DF91CF91E4
:100340001F910F91FF90EF900895F62E0B8D10E006
:100350000F5F1F4F0F731127E02E8C8D8E110CC075
:100360000FB607FCFACFE889F989808185FFF5CFC0
:10037000CE010E945C01F1CFEB8DEC0FFD2FF11D42
:10038000E35AFF4FF0829FB7F8940B8FEA89FB89FD
:1003900080818062CFCF682F8BE391E00C947E0147
:1003A000CF93DF93EC01888D8823B9F0AA89BB89AC
:1003B000E889F9898C9185FD03C0808186FD0DC097
:1003C0000FB607FCF7CF8C9185FFF2CF808185FFB8
:1003D000EDCFCE010E945C01E9CFDF91CF9108956E
:1003E000FC0101900020E9F73197AF01481B590B40
:1003F000BC018BE391E00C94DE008F929F92AF9250
:10040000BF92CF92DF92EF92FF920F931F93CF9301
:10041000DF93CDB7DEB7A1970FB6F894DEBF0FBE5E
:10042000CDBF6B017C01F7FE3FC08DE20E94CB0186
:100430008C0122273327A9012C193D094E095F0998
:1004400019A2CE0181967C019AE0892E912CA12CD3
:10045000B12CCA01B901A50194010E94A204605DFA
:10046000F70162937F01211531054105510589F797
:1004700090E080E0309719F0CF010E94F001800FEA
:10048000911FA1960FB6F894DEBF0FBECDBFDF91CE
:10049000CF911F910F91FF90EF90DF90CF90BF9081
:1004A000AF909F908F900895AC019B0119A28E018F
:1004B0000F5D1F4F8AE0C82ED12CE12CF12CCA0110
:1004C000B901A70196010E94A204605DF801629340
:1004D0008F01211531054105510589F790E080E034
:1004E000309779F2CF010E94F001CBCF1F920F928B
:1004F0000FB60F9211242F933F938F939F93AF9337
:10050000BF938091330190913401A0913501B09156
:1005100036013091320123E0230F2D3758F5019633
:10052000A11DB11D209332018093330190933401BA
:10053000A0933501B0933601809137019091380135
:10054000A0913901B0913A010196A11DB11D80938E
:10055000370190933801A0933901B0933A01BF91CC
:10056000AF919F918F913F912F910F900FBE0F9060
:100570001F90189526E8230F0296A11DB11DD2CF1A
:100580001F920F920FB60F9211242F933F934F9308
:100590005F936F937F938F939F93AF93BF93EF93EB
:1005A000FF938BE391E00E945C01FF91EF91BF917B
:1005B000AF919F918F917F916F915F914F913F91FB
:1005C0002F910F900FBE0F901F9018951F920F92B2
:1005D0000FB60F9211242F938F939F93EF93FF9356
:1005E000E0914B01F0914C018081E0915101F0913B
:1005F000520182FD1BC09081809154018F5F8F73E7
:1006000020915501821741F0E0915401F0E0E55C42
:10061000FE4F958F80935401FF91EF919F918F91A1
:100620002F910F900FBE0F901F9018958081F4CFDF
:10063000789484B5826084BD84B5816084BD85B5BD
:10064000826085BD85B5816085BD80916E008160C9
:1006500080936E001092810080918100826080936F
:100660008100809181008160809381008091800071
:100670008160809380008091B10084608093B1009C
:100680008091B00081608093B00080917A00846096
:1006900080937A0080917A00826080937A008091C2
:1006A0007A00816080937A0080917A0080688093DC
:1006B0007A001092C100E0914B01F0914C0182E070
:1006C0008083E0914701F09148011082E091490157
:1006D000F0914A018FEC808310925301E0914F0119
:1006E000F091500186E08083E0914D01F0914E0140
:1006F000808180618083E0914D01F0914E01808185
:1007000088608083E0914D01F0914E018081806886
:100710008083E0914D01F0914E0180818F7D808337
:1007200048E950E0FA01649184E890E0FC012491EA
:10073000222399F030E0220F331FF901E859FF4FCF
:10074000A591B491F901EE58FF4F259134912FB73F
:10075000F8943C91632B6C932FBFECEAF0E024916A
:10076000FA014491FC0194919923D9F0222359F084
:10077000233009F4A3C008F096C0213009F4A4C0C6
:10078000223009F4A5C0E92FF0E0EE0FFF1FEE586C
:10079000FF4FA591B4918FB7F8949C91492B4C933E
:1007A0008FBF6AEF70E080E090E00E94AC0010E440
:1007B00088248A9483E0982EA12CB12C98EE492E9F
:1007C00093E0592E612C712C20E0222E20E0322E55
:1007D00010937C0080917A00806480937A008091ED
:1007E0007A0086FDFCCFC0917800D091790028E88E
:1007F00033E1DE010E94E3046B017C0182E191E0C0
:100800000E94F001BE01DD0F880B990B0E94FD01D3
:1008100084E291E00E94F001C701B60128E13CE9C1
:100820004FE050E00E94C404CA01B9010E94FD01DA
:100830008EE20E94CB01C701B601A50194010E947E
:10084000C404CA01B901A30192010E94C4046B014E
:100850007C01EB016436710544F480E30E94CB0116
:100860002A971CF480E30E94CB01C701B6010E94C5
:10087000FD018BE291E00E94F0018EE291E00E9486
:10088000F00168EE73E080E090E00E94AC0021147B
:10089000310409F49DCF0E944801882309F498CFC0
:1008A0000E94000095CF2730B1F02830D1F02430DD
:1008B00009F069CF809180008F7D03C08091800016
:1008C0008F77809380005FCF84B58F7784BD5BCFB7
:1008D00084B58F7DFBCF8091B0008F778093B0007F
:1008E00052CF8091B0008F7DF9CFEBE3F1E013821E
:1008F000128288EE93E0A0E0B0E084839583A68323
:10090000B78384E091E09183808385EC90E09587C4
:10091000848784EC90E09787868780EC90E0918BC9
:10092000808B81EC90E0938B828B82EC90E0958BB6
:10093000848B86EC90E0978B868B118E128E138EB3
:10094000148E0895A1E21A2EAA1BBB1BFD010DC037
:10095000AA1FBB1FEE1FFF1FA217B307E407F5076F
:1009600020F0A21BB30BE40BF50B661F771F881F4B
:10097000991F1A9469F760957095809590959B01E1
:10098000AC01BD01CF010895052E97FB1EF4009424
:100990000E94DB0457FD07D00E94A20407FC03D08D
:1009A0004EF40C94DB0450954095309521953F4FC3
:1009B0004F4F5F4F089590958095709561957F4F4B
:1009C0008F4F9F4F08950E94F004B7FF0895821B38
:1009D000930B0895EE0FFF1F0590F491E02D0994FD
:1009E000A29FB001B39FC001A39F700D811D112470
:1009F000911DB29F700D811D1124911D0895F894D1
:020A0000FFCF26
:100A0200000000007E01DE000B01D0013C011A0152
:100A12002E01616E616C6F675265616428413029F5
:100A2200203D200020202D3E2020002056000D0ACF
:020A32000000C2
:00000001FF
