:020000041000EA
:1000000000B5324B212058609868022188439860DF
:10001000D860186158612E4B002199600221596106
:100020000121F02299502B49196001219960352056
:1000300000F044F80222904214D00621196600F024
:1000400034F8196E01211966002018661A6600F04E
:100050002CF8196E196E196E052000F02FF8012189
:100060000842F9D1002199601B49196000215960AB
:100070001A491B48016001219960EB211966A021F2
:10008000196600F012F800219960164914480160C1
:100090000121996001BC002800D000471248134993
:1000A000086003C880F30888084703B5996A0420EC
:1000B0000142FBD001200142F8D103BD02B5186610
:1000C0001866FFF7F2FF186E186E02BD00000240BE
:1000D000000000180000070000035F00212200005C
:1000E000F4000018222000A00001001008ED00E03C
:1000F00000000000000000000000000074B24E7A12
:1001000000200420E3010010CB010010CD010010FD
:10011000C9010010C9010010C9010010C901001077
:10012000C9010010C9010010C9010010CF01001061
:10013000C9010010C9010010D1010010D301001045
:10014000C1010010C1010010C1010010C101001067
:10015000C1010010C1010010C1010010C101001057
:10016000C1010010C1010010C1010010C101001047
:10017000C1010010C1010010C1010010C101001037
:10018000C1010010C1010010C1010010C101001027
:10019000C1010010C1010010C1010010C101001017
:1001A000C1010010C1010010C1010010C101001007
:1001B000C1010010C1010010C1010010C1010010F7
:1001C000EFF30580103800BE00BE00BE00BE00BECA
:1001D00000BE00BE00202149086006C881F30888DF
:1001E00010471F480068002801D00020F3E70DA445
:1001F0000ECC002902D000F012F8F9E719491A4A8A
:10020000002000E001C19142FCD1184988471849FB
:1002100088471849884700BEFDE701C901C29A42D4
:10022000FBD3704778020010C00000202423002078
:10023000DC24001030230020842600203028001009
:1002400000000420000004203028001000100420CA
:1002500000100420000000007047000008ED00E0DE
:10026000000000D084260020F02A0020392200203F
:10027000090100208D020020B0B500AF054B064AF1
:100280009A60054B1D68054B1B681C002B009D46A2
:10029000A047C04600ED00E0003000100430001020
:1002A00080B500AF00F016F803001A000123534098
:1002B000DBB2002B01D0FFF7DFFFC046BD4680BD9B
:1002C00080B582B000AF7860396000F04FF8FFF77A
:1002D000D3FF0000104B114A1B6812681B6812689C
:1002E000002010B5934215D080211800D21A490180
:1002F00000F016F900280DD009490A4800F060F90D
:10030000002807D008220849064802F083F8434233
:100310005841C0B210BDC046F4250020F025002091
:10032000B827002004FA0320B82400200D4B012038
:1003300070B5002201269C460B4D40420821AB5C63
:1003400058400300644633405B4223404008013973
:1003500058400029F5D1A32301329B009A42EDD1E8
:10036000C04370BD2083B8ED04FA032070B586B099
:10037000FFF7DCFFA323314C9B00E35883425BD1A2
:10038000A368002B58D000238026019376012B4BC5
:10039000019A9B689A4209D3294B186800F0B8F873
:1003A00000216422080001F027FEFEE7E368012B2C
:1003B00011D12000103000F02BF900283CD0206D26
:1003C00000F0A0F9002837D0656DA36D0093002DD3
:1003D00006D100F0AAF9019B503401330193D6E70E
:1003E0000295B54200D90296029800F061F9039097
:1003F000002821D03200009902F00CF8002814D017
:10040000EFF3108372B6F0220593009B12069B183F
:1004100018003100049302F0A9F8320003990498FF
:1004200002F0E6F8059B83F310888022029B5201BC
:10043000ED1A009B9B18C9E706B070BD04FA0320B3
:10044000B8270020FEE7FEE70020704770B5094C92
:10045000094A236810684B43C018EFF3108572B641
:10046000F0231B062168C01802F080F885F310887D
:10047000002070BD84260020B42700200A4810B553
:1004800000680A4C4843821820688018EFF31084F3
:1004900072B6F022120680181900029A02F0A8F82B
:1004A00084F31088002010BD84260020B42700208B
:1004B00010B50C00074908480968614389180268AB
:1004C00018005118029A01F08BFF044B00201C60A9
:1004D00010BDC04684260020B4270020DC26002062
:1004E000802370B5074C05002200046006495B01BB
:1004F000064801F01BF82B6824185A1C6C602A600F
:10050000187870BD04E7032088260020E02600202C
:1005100010B501000148FFF799FF10BD60270020CA
:10052000F8B51C4B0D0018601B4B1700196080229A
:1005300000211A4801F04EFF194C542200212000DE
:1005400001F048FF174BE5616360174BA360174B41
:10055000E360174B236180235B006361A361002D7F
:1005600004D02900380001F07BFE050010236362EF
:10057000F033A362E3620F4B210063630E4B074825
:10058000A3630E4B2562E36300F0EEFDC043C00F92
:10059000F8BDC046B427002084260020E0260020B5
:1005A00060270020F9020020C502002095020020EB
:1005B0009102002004F9032004F8032004F703202B
:1005C000F0B50F4B99B006000D0000930D4A0123C2
:1005D0000D4803A900F0F6FE002802DA002019B049
:1005E000F0BDA427BF003B003200074803A900F07C
:1005F0009DFFB842F2D1054B01201B682B60EEE74E
:1006000004260020C1240020E0260020DC26002053
:10061000F0B500271F4B87B003931F701E4B0200DD
:1006200000931E4901231E4800F0CCFEB8422BDB8C
:1006300005AC022322001949194800F077FF02286F
:1006400022D11649164801F079F823781F2B02D1E0
:1006500063788B2B02D0012007B0F0BD01F09AF92E
:100660008022104C104B2000104912022760676056
:10067000A36001F090F9200001F001FB002805D0F3
:100680000649074801F05AF80020E5E70123039ADC
:100690001370E0E7EC2A0020F825002088260020CF
:1006A000E0260020005203202903002004670320D5
:1006B0000F4B70B51B7805000E4C002B0BD12B0097
:1006C00022000D490D4800F031FF281A43425841DD
:1006D0004042204070BD0A48651944618461C5618B
:1006E00001F068F903000020012BF3D82000F1E7A6
:1006F000EC2A00200457032088260020E026002052
:100700000052032070B5802604007601002C01D130
:10071000012070BD2500B44200D935002800FFF744
:10072000C7FF0028F5D0641BF0E7704710B50B68D1
:1007300004689C4201D1002010BD4068496888428D
:10074000F9D08C42F7D0181A431E9841F4E783057C
:100750009B1501335A42534118188005800D04300F
:1007600070470200836A2832002B03D08B4202D1EB
:100770001B68136070471A001B68F5E7F0B58BB073
:10078000109E0493129B0992F218836E0C00DB6991
:1007900006909A4205D8C36E002B20D0049A93424B
:1007A0001DD8542040420BB0F0BD6168A5684D19BA
:1007B000AE4248D28E4217D3129BAD1B9D4200D948
:1007C0001D00E368711A59182A00119801F008FEFB
:1007D000119B76195B191193129B5B1B1293129B51
:1007E000002B2CD11298DEE7129B8F1B9F422BD936
:1007F0001F0029E0049B2360059BF31A08936360A4
:10080000099B5F1E039BFF18BF191900380001F0F8
:1008100027FDEB697F1A9F4200D91F00059BAA6A3A
:100820009B1BFF18974200D91700A760009728006C
:10083000E368089A0499079DA8470028B3D1236864
:10084000049A9A42B1D0129F069B30009D6E6B694C
:100850001900039301F004FD6B68099A0793129B3A
:1008600005919342C6D30029C4D1039B129A9342A7
:10087000C0D81900380001F0F3FC7B1A280005915C
:10088000039300933200119B0499079DA847002809
:1008900000D088E7039A119BB6189B181193059B0B
:1008A000129ADB1BD31899E7F0B5036886688DB000
:1008B0008905050006938F0DBE4200D93E00002435
:1008C00013680793536808936B680993A64206D888
:1008D000AB680020BB4221D0BB4240411DE0321B2F
:1008E0000592082A01D908230593059B06990293CE
:1008F0000AAB0193089B08001B190093079BFFF7A5
:100900003DFF00280AD1099B059A19190AA801F090
:1009100081FD002804D0C043C00F01300DB0F0BDF0
:10092000059BE418D2E7F8B5C7690C68083F0E00CC
:100930000020BC4215D33900200001F091FC0138A1
:1009400001F088FC023080003900201A01F088FC98
:10095000050001F07FFC8000241A28006F43E41B8F
:100960003460F8BDF0B50C001500496B85B0002B64
:1009700007D05518012B04D00D00022B01D1E56AD8
:100980005519436FAB4232D32E008D4220D0236BDA
:1009900000935B0329D5876EE26BFB699A421AD0FC
:1009A0000291380002A9FFF7BEFF03A901903800A9
:1009B0000395FFF7B8FF019B83420CD1636C039A48
:1009C000934208D8A16C5B189A4204D26563E26333
:1009D000300005B0F0BD009BDB0202D401235B4276
:1009E0002364044B009A1A4022636563F0E71626DD
:1009F0007642EDE7FFFFFBFF10B50C00826AFF2196
:100A0000E06801F0E7FC01235B42236010BD0000B9
:100A1000F0B59FB01393C36E06000F000592002B34
:100A20000BD01268934204D85424644220001FB0B3
:100A3000F0BD059A52689342F6D9002516AB16957B
:100A400017950693079504220292069AAB0001922D
:100A500000220092059A3100D35830000422FFF79B
:100A60008DFE041E62D003005433DFD1069B043395
:100A70000693012D58D1079B05999A00059B9B5819
:100A80003B60079B5B192B400D939B00CB587B6011
:100A900016ABD358BB600023FB6002331193033BBA
:100AA0000793BB4B18AA11CB11C2390001200422B5
:100AB0000831404200F04CFE079B012505930023BE
:100AC000149010930F9309936D4208932800FFF739
:100AD0003EFE089BB26E1B1808930423029315ABCD
:100AE0000193089B3100009330003B68D269FFF707
:100AF00045FE041E26D02300543397D10025FB6801
:100B00000693002B00D04FE13B687A687B600D9B19
:100B10003A609B0016AA9B58BB60119B012B00D129
:100B200082E701231193BCE701258CE70123069A94
:100B30006B409B0016A912685B58D31A834295DD5F
:100B4000079593E70422149815A900F001FE159B60
:100B500014901BBA6B4006931593A34209DAF02355
:100B60002D0DDB001D408B4BED186B425D41EDB24E
:100B7000C5E70698FFF7EBFDB36EDB690C93089BA6
:100B80000C9AC318934200D9FFE0F021A0223B68E1
:100B9000C9001293089B250004330B93069BD200D7
:100BA0001B0D0B40011F0E91934254D1042302935D
:100BB0001CAB01930B9B310000933000129B0C9AED
:100BC000FFF7DCFD041E96D11C9A149B9A4295D126
:100BD000159B069A1B0DDB075A40069214A90422A6
:100BE000F06A00F0B5FDF0621598FFF7B0FD089BC4
:100BF000C018069BF8603B61099BBB82189BBB61D8
:100C0000199BFB610F9BFB7501235B421493059BB2
:100C10000793069D5AE70E9B5B1B0A93082B01D98D
:100C200008230A930C9B31005A1B0A9B3000029345
:100C30001CAB01930B9BEB180093129BFFF79EFDDF
:100C4000041E00D057E70A9A14981CA900F080FDF2
:100C50000A9B1490ED180E9BAB42DCD8159BE0214B
:100C60001D0D2A00C9000A400D421DD1099A1B031F
:100C70009B0D9A4201D8013309931599249B139D2A
:100C8000139A4B401D401A42C3D13B6827981C93CE
:100C90000B9B1CAA1D93269B9847041E58DA030041
:100CA000543300D12BE7C1E68021C9008A4220D10C
:100CB000099A6DB2521992B237490992059A1140B8
:100CC000364A0A43934205D18023059A1B061A43EC
:100CD0000592D2E7059A0132CFD0059A1B03120381
:100CE0009B0D920D9342C8D8059BAD02EB1805935E
:100CF000C3E7C0213B68C9008A4212D10821B26E05
:100D0000029118A901910B9930000091D26931002C
:100D1000FFF734FD041E00D0EDE601231D400F95C2
:100D2000ABE71F4A6D056D0D9542A6D10821B26E45
:100D300002911AA901910B9930000091D2693100FA
:100D4000FFF71CFD543000D1D8E60123109394E73F
:100D50001599002801D105915BE7059B114A4B408D
:100D600013420FD0022800D053E7059B1A030B0350
:100D7000920D9B0D9A4200D24BE780231B060B433A
:100D8000059346E701235B42FAE72500B7E6C04634
:100D9000E024002000FBFFFF00FC0F000000F04FEC
:100DA000FF05000000FCFF7F0023BB759D4236D08D
:100DB000B46E0698A16901F053FA0D1E2FD1109B55
:100DC0008B422CD0E3690A933B680B931A9B0993DF
:100DD00001235B420893099BAB421AD9099B5B1B19
:100DE0000593082B01D9082305930A9B31005A1B50
:100DF000059B300002931CAB0193069B5B1900938B
:100E00000B9BFFF7BBFC041E25D00300543300D01E
:100E10000CE6089A1B9B9B1A5A425341BB75E02370
:100E2000F46BDB00220D1A4226D03000390040302E
:100E3000FFF77CFC00281FD1079A24031203A30D9F
:100E4000920D9A4210D18024079B24061C43259BB7
:100E5000002B15D11FE0059A08981CA900F078FC1A
:100E6000059B0890ED18B6E7079901311CD007994A
:100E70000E480C189A4200D8079C259B002B07D0DF
:100E8000BA8A23039B0D934200D91300259A13803D
:100E9000002C00DBCAE5BA8A23039B0D00249A428A
:100EA00000D8C3E5023CC1E5079CD0E700FCFFFF8A
:100EB000F0B58BB00793CB68C46B0593E0230D6945
:100EC0000692DB00220D0F00049009951A4200D112
:100ED0007FE04030FFF72AFC002800D079E0069B35
:100EE0001B039B0D834200D173E0079B24031B036C
:100EF000A40D9B0D9C424AD09C42A441A40AA60288
:100F00002800FFF724FC059A031D93423FD8059B58
:100F100004991B1A05930423029309AB0193059BC3
:100F20000800009304223B68FFF728FC011E30D123
:100F3000099B069A1BBA6B405B005B08120309937E
:100F4000920D824219D0E0242A0D80211000E40085
:100F5000C9002040884210D10799881B01038C0DDD
:100F60002903890D8C4208D31C4908401C490143C0
:100F7000A9420CD052B292029619079A0699921B76
:100F80006A40114227D1AC05A315013304D10221D7
:100F9000494208000BB0F0BD129BA40D9C4200D941
:100FA0001C00119B059A0193109B049904339B1814
:100FB00002940093080022003B68FFF7DFFB011E4C
:100FC000E7D1129B1A1B119B181901F003FA711932
:100FD000DFE7002694E71D0092E7C04600FC0F0003
:100FE000000010401FB59C05A40D0294069C0194BE
:100FF00000240094FFF75CFF04B010BDF0B593B07F
:101000000D93036A15688B61436A0F00CB612B78DF
:1010100006900A92002B00D190E04B4C230D0B93CD
:10102000022B04D12800494901F03CFA2D18280070
:10103000464901F011FA0490012806D12B782E2B95
:101040000ED16B1C0793079DE8E7049B022B07D189
:1010500028003F49049A01F0DDF9002800D16DE035
:10106000049BEB181E00079301230593374B09934C
:10107000374B0C933000099901F014FA3618300000
:10108000099901F0E9F9089000281CD0012805D140
:1010900033782E2B13D1089BF618EBE7089B022B15
:1010A0000DD11A0030000C9901F0B4F9002806D1D6
:1010B000059B013B05938342EDD1B31CC2E7059B21
:1010C00001330593E7E72B78002B34D00A9B1D6092
:1010D0000B9B022B35D11F4A23039B0D93420DD04E
:1010E0001D4A1E4B224013433A0018320092390029
:1010F0001B4A0698FFF776FF041E1CDB3E001836DD
:101100000FAB0393174B069A02930D9B0F9201931B
:10111000F023049A39001192009206983200DB0500
:101120001095FFF775FC041E05DB00288BD1FB7DB5
:101130008342E5D1023C200013B0F0BD1624644286
:10114000F9E71424FBE7C04600FC2F00D024002060
:10115000D2240020FF03000000FC0F000800002044
:1011600000FC0F70F1060020F0B504000B6A99B086
:10117000E3664B6B0800A166E360002B03D08B6B2A
:10118000002B02D1E3610C20E1E0E3612100FFF7D5
:1011900033FC2100A06E1031FFF72EFCA16ECB6B4B
:1011A000002B01D16366EEE763660B6C002B5BD00E
:1011B00023674B6C002B00D1784B6367886C002849
:1011C00000D17748A0670B6D5A1C51D0002B0AD173
:1011D000CA6C8B6A002A49D0D208834200D9030026
:1011E000934200D913000125002620006D42E367D9
:1011F00031000C22A662E662256265623C3001F095
:10120000E9F8200031000C22303001F0E3F8200032
:1012100031000C22483001F0DDF831001C2210A80A
:1012200001F0D8F801231E00179304930595169B2F
:101230005A1C03D0179A511C00D0A6E0226BD30F82
:101240009B1823632200230030323C3323CA23C37C
:10125000E56EE06A290001F003F800206165A065F1
:10126000E065256619B0F0BDFF23A1E7CA69B3E7C1
:101270000023B8E7AB4203D105998A4200D18BE045
:101280000499B14205D1150000260499059349003F
:10129000049107AB0393434B434A02930023089204
:1012A00008220193414B099200932000404B16AA5B
:1012B00010A90794FFF7ACFB0028D3DB49D08005C9
:1012C0008015013045D0109B0AAF2362119B20008E
:1012D0006362374A374B009710A9FFF783FE002857
:1012E000C0DB0A990B0C022B30D189B201292DD811
:1012F000236B314A134001224A40520213432363B5
:101300000D9B002B03D0226F93421FD823670E9BA7
:10131000002B03D0626F934218D863670F9B002B9A
:1013200008D0A26F934211D8E26FA3679A4200D906
:101330001A00E267A36E0C9A196A002901D0914243
:1013400004D1E266DB690B9A9A4202D01620404231
:1013500088E70AAF2000194B194A009710A9FFF738
:1013600041FE002804DA831C00D07BE701365EE7EB
:10137000236B0A9A534023637A68636B5340636319
:10138000BA68A36B5340A363F0E705998B4200D082
:1013900070E7AA4200D073E75420D8E7FFFFFF7F31
:1013A000FE030000F1060020D52400200800F00F05
:1013B00000FCFF7F18001020FFFDFFFF0C00F07FF6
:1013C0000000F07FF0B589B00B6300234B63CB6363
:1013D000CB640B00079208330E9A03930A650B1D2A
:1013E0000C0007AA03990600FFF708FE051E12DA93
:1013F000831C2BD1474B079F19003800049301F041
:101400002BF804990590381801F04CF8059B3F180B
:10141000FB5C002B1AD10123A371B36A2360B46271
:10142000AB1C13D02B0D04931525012B49D1A28899
:10143000394B920213432200283200923000374A7F
:101440000399FFF7CFFD0027051E09DA21003000C0
:10145000FFF787F916E0226B04990A4215D101378C
:10146000236D9A689742F6D31B68E364002B27D05C
:101470002100B06E4031FFF7BFFA294A2B0D93428D
:1014800021D00025280009B0F0BD0C21C0207943EF
:101490005A68A388521891689B020B431178800008
:1014A0005268091809050B43009230001D4A039940
:1014B000FFF798FD0028D2DA831CD0D00500C5E7DD
:1014C0000C256D42C2E78023216B5B030B43236332
:1014D000002302226364B36EAD059B6A5242AD0DD8
:1014E000A262E5622264A364CCD0A2880E49920273
:1014F0008B4200D90B001A4380239B051343E26CF7
:10150000300000920399054AFFF76CFD051EB8DA1A
:101510009CE7C046D02400200800002000FC0F708B
:101520000102000000FCFF7FFE030000F0B597B051
:101530000C000A924A6BC96A070000208A4200D355
:10154000D7E08A1A08929A4200D90893089B06931A
:10155000069B002B01D10898CBE08022236BD2029E
:10156000134204D0BA6EE66BD269964215D180223E
:101570005203666B134200D08BE0A26AE36A1392B7
:101580001496002B4CD101221E005242A263E36349
:101590008022236BD20213432363BA6E0699D26969
:1015A0000992921B05928A4200D90591802252032A
:1015B000134200D19FE0059B099A9B199A4200D2E1
:1015C000B4E0230008331093A3885A4A9B021A43BD
:1015D0000A9B11920B93059B0793079B002B00D14D
:1015E00097E0E36C0F93236C023356D1616CA56CCA
:1015F0004D19AE4251D28E424FD3079BAD1B9D4237
:1016000000D91D000F9B711A59182A000B9800F081
:10161000E7FE0B9B76195B190B93079B5B1BDBE7C4
:101620002200BE6E4032013B15A93000099215938D
:10163000FFF779F914A905003000FFF774F9079056
:10164000139B0593079BAB4204D3059B149EA36396
:10165000E6639DE7079BE81A00F0F0FD060028000E
:1016600000F0F2FD1F239E1B864200D906000423D2
:10167000029313AB0193B300009304223800059B3F
:101680000999FFF77BF8002833D10123B340ED1A05
:10169000D6E702235B42A363DAE702235B422364BB
:1016A000BB6E30000D935B6919000C9300F0D8FD00
:1016B000731A0C9A0E936364099B11009D18013DE7
:1016C000AD19280000F0CCFD0D9B6D1A9B6A9D4260
:1016D00000D91D000F9BA56401930E9B3800009359
:1016E000154A119B10990295FFF7E2FB002800DBD9
:1016F00077E717B0F0BD2100059B009602930A9B87
:1017000038000193A36B099A4031FFF737F800289E
:10171000EFD1059A636B9B186363E36B9B18E363DC
:101720000A9B9B180A93069B9B1A10E75420404281
:10173000DFE7C0460000102000FCF7FF002310B5D3
:101740001A00FFF70FF9002800DD002010BD00008F
:1017500070B50F250A4C8A18914200D170BD0B78E4
:10176000060958402840800000591B094640734034
:101770002B409B001B59300958400131ECE7C04613
:10178000E8240020F0B50D0016000021202289B0C9
:10179000040000F01FFE2A00A81990420ED1002379
:1017A00069461A002380E05A5A5202331218202B3D
:1017B000F9D10022B24208D109B0F0BD137801324C
:1017C0005B00E15A0131E152E7E7A85C002806D04E
:1017D00040000B5A5F1C10335B000F52E252013283
:1017E000E8E70368426810B5934203D25A1C0260CE
:1017F000187810BD8368841D002B07D0E27F002A73
:1018000004D19847002801DBC0B2F2E70123002091
:10181000E377EEE7036910B55A1E04000261002B5E
:1018200004D1FFF7DEFF0723E0602361E06843088F
:10183000E3600123184010BDF7B5002517000190A3
:10184000A94204D0012426008E40B44201D3781965
:10185000FEBD0198FFF7DEFF604364002D18F4E73A
:10186000F7B500250B000F002C00203301908E1CD3
:1018700000930198FFF7CEFF009B9E420DD06D00B4
:101880002818358802362B19451B04D52418103426
:101890006400385BFEBD1C00EBE703204042F9E723
:1018A000F0B5D5B0039202220091FF320521050068
:1018B000FFF7C2FF0122052106002800FFF7BCFF49
:1018C0000422029011002800FFF7B6FF1322070040
:1018D000002104A800F07EFD0024BC4218D10024A1
:1018E0001322009804A9FFF74DFF029BF318019300
:1018F000019B9C4217D304AC320021000098FFF7F3
:1019000041FF0398029AA119FFF73CFF002012E063
:10191000002203212800FFF78FFF1D4B04AA1B5D47
:101920000134D054D9E728000099FFF799FF002827
:1019300003DA0320404255B0F0BD112820D0122810
:1019400022D0102818D1002CF3D02300413304AA50
:10195000FF339B1802210322423BFF3B1F782800E4
:10196000FFF76AFF019B20189842E2D804ABA0421F
:10197000BED0E7540134FAE704AB18550134B7E799
:10198000032211000027EAE70B220721FAE7C046ED
:10199000282500207047002310B5841DE37701241B
:1019A00064420361C3628462C2638163036403634C
:1019B00010BD0000F8B50400A36A013375D1200002
:1019C000A56AFFF727FF0022E06202212000FFF74F
:1019D00033FFA062012800D0CBE085426BD021000C
:1019E00000230831A21DD38702318B87CB870231B8
:1019F000CB870231CB8740310B804B8023001821ED
:101A000052331980803159802839998021008023F0
:101A1000183064315B00FF300B8001339BB2023120
:101A20008342F9D1200000239430590043520133FE
:101A3000902BFAD1D7218C204900400050521A2017
:101A40000231FF3050520231013050521C2002311D
:101A5000FF3050520231013050521E200231FF300F
:101A6000505202310130505220200231FF3050528A
:101A70002200C532FF32BC39138001339BB20232DF
:101A80008B42F9D1A922002320219200A352A2184F
:101A9000518153809380D3801381B1229200A11889
:101AA0005A008B520133202BFAD1A66A002E6FD038
:101AB000013E012E69D8236B002B38D12100200074
:101AC0004431FFF7CDFEA31DDB7F002B5DD1FF2846
:101AD00000DC7FE080235B00984200D1A5E0023863
:101AE000FF381C2851DC554B4200D25A544B195C2C
:101AF0002000FFF7A1FEA9239B002063E11820002E
:101B0000FFF7AEFE1D2840DC4E4B4200D25A4E4B32
:101B1000195C2000FFF790FEA36B002B75D0E26BE1
:101B2000904200D987E0236C1B1A6BD46363A16BCE
:101B3000A369626B002972D0581CA0618A5C1A707C
:101B4000A36B002B0BD0226C616B501C2064595C82
:101B50009954226CE36B9A4201D100232364636B96
:101B6000E26B0133934258D06363236B013B2363E1
:101B700041E0022899D1A92321009B002000E2180E
:101B80004431FFF78DFE00288FD00320404251E002
:101B9000206BB04217D12000FFF723FE0500200084
:101BA000FFF71FFE000245192000FFF71AFE07008D
:101BB0002000FFF716FE254B0002C01943409D424E
:101BC000E3D1681C26610138206300282DD0200055
:101BD000FFF707FEA3695A1CA2611870A26B002AC6
:101BE00009D0236C591C2164D054226CE36B9A42B7
:101BF00001D100232364A269E3699A4200D2DBE6A3
:101C0000002017E0D218626391E7A36962699B1A0A
:101C10009842BAD84042606389E70023A4E79A5CFF
:101C20001A70A3690133A3619FE7E36A002B00D117
:101C3000C5E60120F8BD0520A8E7C046962500208E
:101C4000D22500203C25002078250020FFFF000041
:101C500070B505000C00002C00D170BD2800013CBF
:101C6000FFF7BFFDF7E770B50400FFF7BAFD050009
:101C70002000FFF7B6FD0002284380B270BD70B5AA
:101C80000400FFF7AEFD1F2804D12000FFF7A9FDD7
:101C90008B2802D00320404270BD2000FFF7A1FD39
:101CA0000828F7D12000FFF79CFD05001F28F1D878
:101CB00006212000FFF7CCFF6B0706D52000FFF7B9
:101CC000D2FF01002000FFF7C3FF2B0704D520003F
:101CD000FFF787FD0028FAD1EB0604D52000FFF7B7
:101CE00080FD0028FAD10226354202D02000FFF7FD
:101CF000BAFF631DDE7701235B4200202362CBE73E
:101D0000044B0548054A1900043308609342FAD190
:101D10007047C04600E400E08080808020E400E05E
:101D2000044A1078431CDBB2172B00D91023137020
:101D30007047C046102600200021044B044ABFF320
:101D40005F8F02C39342FAD17047C046000100D0B2
:101D5000800100D0024BC918890001607047C0465D
:101D60004000003410B50400FFF7DAFF0100200046
:101D7000FFF7F0FFFF232371BFF35F8F10BD10B596
:101D80000400FFF7CDFF01002000FFF7E3FFFF2372
:101D9000A380BFF35F8F10BD10B50848084B984271
:101DA00000D310BD040003680834002B03D0FFF7F4
:101DB000E6FF2000F2E7FFF7D5FFFAE74026002014
:101DC00048260020142310B5010018889B889847E6
:101DD00010BD162310B5010018885B88984710BD08
:101DE000F8B50F00040000260125BE4201D12800ED
:101DF000F8BD2068FFF7E6FF01C4431E9841013695
:101E00000540F2E7F7B50C2444430193244B0092BC
:101E1000E4186368089A05000E00934200D26260DD
:101E2000C0232F1F9B01FFB2E318012F27D8012EDB
:101E300025D103221A60A3683342FCD0009B22689C
:101E40005B015340E022134080225201A350012F36
:101E500009D80321236873400B40A3500123B340EA
:101E6000A2681342FCD0802380229B011201E25021
:101E7000089B019A63600B4BAD00EA50F7BD8022CE
:101E800012011A60074BAA00D1580029D6D0586910
:101E900000F0E6F9431C032058430338FDD2CDE798
:101EA00000800040BC28002073B50D000699040096
:101EB0001800160000F0D4F9069A03001202290057
:101EC000009220003200FFF79DFF73BD13B5802400
:101ED00064000094FFF796FF13BD0000014B8000E3
:101EE000C0587047BC280020F8B504001F481700F0
:101EF0001E000D0000F0B4F90100380000F0B0F948
:101F0000069A3304120313432268002A0FDA3F2192
:101F100022680A40AA420AD1A2681205120D824222
:101F200005D1EE21E268C9020A409A421CD0104A4B
:101F3000104EA1184A42514101220C318A400E49EB
:101F40000A600E490A60170031688F43391EFAD1C2
:101F50000B4A2131A2182560A06011602168002978
:101F6000FCDAE36008231360F8BDC046001BB7002D
:101F70000040FDBF08C0004000E0004000F000400D
:101F800004300000024B1A68024B5A607047C0468A
:101F9000E4280020008005408022114BD20510B5B6
:101FA000104C1A60104A1460E022104CD204002930
:101FB00006D02260002805D180231B06236010BDB7
:101FC0001A60F7E7FA23DB005843094B094A9842A5
:101FD00000D918001060FFF7D5FF8023DB05EDE77F
:101FE00000B00540FCFF01000820014000A00540B2
:101FF000FFFFFF00E428002070B580240A4BE405B1
:102000001C600A4B00280DD00124094D04430948E7
:102010006540D8611D6259629C6200211000FFF783
:10202000BBFF70BDD861F8E700B0054000800540F7
:102030002D3FF84FD3C007B08023024A9B000B43CB
:10204000D362704700800540AA22064B12011A6035
:102050002132FF32DA600449044A11605A68002ACA
:10206000FCDA70470040024000B0FA000060024015
:102070007047000010B5044C044B9C4200D310BDC7
:1020800008CC9847F8E7C046482600208426002060
:10209000054B064A06491A60064B074A13601800AA
:1020A0000A689043FBD1704700E00040BFCDFBFEC3
:1020B00008C00040FE7F3C0000F00040044BDB6C99
:1020C000002B03D18022034BD2021A607047C04616
:1020D000000011504C201150044A054B1A60054A6B
:1020E0001368DB018033FBD17047C046FFFFFF015F
:1020F00000F0004008C000404022034B9A675A6736
:102100001A67DA667047C04600F0014010B5FFF765
:1021100013FE10BD70B50B490B4C0C4D641AA4088E
:102120002200302C00D930222800920000F058F90B
:10213000074B2F2C02D9074B9D6070BDA200AB50FE
:102140000134F6E700010010C0010010000000207B
:10215000C101001000ED00E0002373B5284DAB670E
:10216000FFF772FF0122274B1A606B6C012BFCD129
:102170000322254B1A60AC6B012CFCD102260525ED
:10218000210000960623214A2148FFF7ADFE2B00CF
:10219000210000951F4A2048FFF7A6FE31000022CB
:1021A00004201E4BFFF792FE2800210000221C4B4A
:1021B000FFF78CFE0022072011001A4BFFF786FE66
:1021C000002208201100174BFFF780FE8023002219
:1021D000DB00110000930920124BFFF765FE00227F
:1021E0000F4B11000620FFF771FE0420FFF776FE6B
:1021F0000D4900F035F801000020FFF71DFF73BD09
:10220000008000403CB0004030B00040002F6859D2
:1022100000800240008C864700C00240001BB700CF
:1022200040597307006CDC0240420F000148042152
:10223000014B184720260020291C0020014B5B6819
:102240001847000020260020014B9B68184700001B
:1022500020260020014B1B68184700002026002084
:10226000114A936F9B0813D210665166002905D05E
:10227000FFE7FFE7FFE7516F106F704704B50028D5
:1022800001D00020C04300F0C3F8002104BDC046C7
:10229000F0B5146E556E576F166FFFF7E5FF1466B5
:1022A000556657671667F0BD000000D0132370B560
:1022B0001C78114D012C0ED1002310499A000133D6
:1022C000A950202BFAD10D4BAB640D48FFF77AFDD6
:1022D0000C4B186070BD012CF5DD0B48FFF779FD44
:1022E00006000A48FFF775FD80223100280000F043
:1022F00077F8022CE9D1E6E7E828002059210020F0
:102300004C330000E82900205344000053460000ED
:1023100007B5604601880A0A0230DF2AFAD1C9B23D
:10232000820804D3028840880004104300E000685B
:10233000014A5050039007BDE8280020132310B530
:1023400010481C78FFF745FD0100012C13D10E4CFD
:102350005422200000F044F815230C4A9900013360
:102360006250202BFAD12262E2610948FFF72AFD70
:10237000084B186010BD012CF7DD8022024800F0E8
:102380002FF8F2E753460000EC290020E12100205D
:102390004C330000E829002007B5604601880A0A8E
:1023A0000230DF2AFAD1C9B2820804D302884088F9
:1023B0000004104300E00068014A5050039007BD3C
:1023C000EC29002001480421014B18473026002049
:1023D000291C0020014B1B681847000030260020F4
:1023E000014B5B6818470000302600207047000052
:1023F00010B5FFF73FFE044C044B9C4200D310BDC8
:1024000008CC9847F8E7C0468426002084260020A0
:102410007047C04630B50400032A18D90B000343A7
:102420009B070BD00023013A02E09A4211D00133FE
:10243000E05CCD5CA842F8D0401B0BE020680B6844
:102440009842EFD1043A04340431032AF6D8002A22
:10245000E8D1002030BDC04630B50C00017884467C
:1024600000291CD02578002D14D022002B0003E079
:1024700053780132002B04D08B42F9D16346C01A45
:1024800030BD417801300029EFD1F7E78378023081
:10249000002BF3D04378002BF8D10130EEE7002079
:1024A000EEE7C04630B50C000178844600200029D4
:1024B00012D025786046002D0CD022002B0003E0BE
:1024C00053780132002B05D09942F9D1417801307F
:1024D0000029F2D16346C01A30BDC046084A10B583
:1024E0001378002B0AD18023064807495B051C6836
:1024F000C45004338B42FAD10123137010BDC0467F
:10250000ED2A0020BC2700100001001010B5014B7F
:10251000984710BDBD270020002310B5011D064CB3
:102520009A00145901338C50062BF8D1A0235B0577
:102530001B68036010BDC04604000240002330B594
:10254000041D9A00A158054D01335151062BF8D1B5
:10255000A02302685B051A6030BDC046040002403B
:102560008023F0B5421807000E008DB05B049A423C
:1025700001D9FDF762FF14251824288823881549FE
:102580009847238801901449288898472388029007
:10259000124928889847238811490390288898472A
:1025A0000400FFF79BFF05A8FFF7B6FF019B9847C4
:1025B000029B98478022D823310038005202039DA5
:1025C000A847A047FFF7A2FF05A8FFF7B7FF0DB088
:1025D000F0BDC04649460000455800005245000085
:1025E000464300008023F0B517008DB08218060026
:1025F00000915B049A4201D9FDF71FFF14251824AE
:1026000028882388134998472388019012492888ED
:1026100098472388029011492888984723881049B1
:102620000390288898470400FFF758FF05A8FFF794
:1026300073FF019B9847029B98473A00300000992E
:10264000039B9847A047FFF761FF05A8FFF776FFB8
:102650000DB0F0BD49460000455800005250000042
:10266000464300005069636F204F5441006F74610E
:10267000636F6D6D616E642E62696E002F002E2E89
:10268000006C6974746C656673000000FFFFFFFFE7
:10269000FFFFFFFF000000006410B71DC8206E3B65
:1026A000AC30D9269041DC76F4516B6B5861B24D59
:1026B0003C7105502083B8ED44930FF0E8A3D6D6C3
:1026C0008CB361CBB0C2649BD4D2D38678E20AA02B
:1026D0001CF2BDBD10111200080709060A050B0403
:1026E0000C030D020E010F000100020003000400A4
:1026F0000500070009000D0011001900210031003C
:10270000410061008100C10001018101010201035A
:10271000010401060108010C01100118012001301B
:1027200001400160000000000101020203030404F3
:10273000050506060707080809090A0A0B0B0C0C11
:102740000D0D030004000500060007000800090045
:102750000A000B000D000F001100130017001B00F2
:102760001F0023002B0033003B0043005300630095
:1027700073008300A300C300E30002010000000017
:102780000000000000000101010102020202030337
:10279000030304040404050505050000F42F0010DC
:1027A000F02F001000500320000000000000000087
:1027B0000051032000000000000000001000000095
:1027C0000000000000000000000000005033000086
:1027D0004C33000054330000523300004D530000CE
:1027E0004D4300005334000043340000000000005B
:1027F00000000000752000200D220020E9000020CC
:10280000D91E0020051F0020F52000208521002072
:10281000A11F0020211F0020411F0020551F002064
:10282000E11B00205D1F0020B91E0020491B002075
:102830000000000000000000000000000000000098
:102840000000000000000000000000000000000088
:102850000000000000000000000000000000000078
:102860000000000000000000000000000000000068
:102FF00000F01F1000F01F1000F01F1000F01F0065
:1030000000200420E3300010CB300010CD30001041
:10301000C9300010C9300010C9300010C93000108C
:10302000C9300010C9300010C9300010CF30001076
:10303000C9300010C9300010D1300010D33000105A
:10304000C1300010C1300010C1300010C13000107C
:10305000C1300010C1300010C1300010C13000106C
:10306000C1300010C1300010C1300010C13000105C
:10307000C1300010C1300010C1300010C13000104C
:10308000C1300010C1300010C1300010C13000103C
:10309000C1300010C1300010C1300010C13000102C
:1030A000C1300010C1300010C1300010C13000101C
:1030B000C1300010C1300010C1300010C13000100C
:1030C000EFF30580103800BE00BE00BE00BE00BE9B
:1030D00000BE00BE00201E49086006C881F30888B3
:1030E00010471C480068002801D00020F3E70DA419
:1030F0000ECC002902D000F012F8F9E71649174A61
:10310000002000E001C19142FCD1154988471549D2
:1031100088471549884700BEFDE701C901C29A42A8
:10312000FBD37047C0050110C0000020B81200207A
:10313000B81701100000042000000420B817011087
:103140000010042000100420000000007047000060
:1031500008ED00E0000000D0B8120020E0220020BE
:103160007DEE0010453300100D330010F8B5C04659
:103170000448054B10B5834203D0044B002B00D00C
:10318000984710BDB8120020B812002000000000BF
:1031900006480749091A8B10C90FC91810B54910FC
:1031A00003D0044B002B00D0984710BDB81200206C
:1031B000B81200200000000010B5074C2378002B47
:1031C00009D1FFF7D5FF054B002B02D0044800E0E2
:1031D00000BF0123237010BDD8150020000000009F
:1031E00000FC0010054B10B5002B03D00449054826
:1031F00000E000BFFFF7CCFF10BDC046000000009C
:10320000DC15002000FC001010B50121152000F095
:1032100067FA10BD70B5822500246D0021001520CD
:1032200000F05AF90534142000F00EF8AC42F5D144
:10323000FF242100152000F04FF9053C142000F078
:1032400003F8631DF5D170BD10B5002801D001F061
:103250001FFE10BD10B5D024FF232406206823656F
:1032600004490F3001F0DEF9206801210F3001F030
:10327000A9F910BDE5000020104B10B51B78002BFC
:103280000DD1002000210E4B9860D9600D490F3000
:1032900002F062F807220C4B1A600C4A5A60FFF7E2
:1032A000D9FF0B4B002B01D000E000BF094B002BD6
:1032B00000D1FEE700E000BFF8E7C046D1220020C1
:1032C000A8150020C100002010E000E0FFFFFF0073
:1032D000000000000000000070470000084B10B51F
:1032E000002B01D000F03CFD064B002B01D000E08C
:1032F00000BF054B002B01D000E000BF10BDC04651
:10330000613D0010000000000000000010B5014801
:1033100001F0A4F800FC001010B5074C10220021A9
:10332000200003F039F80023044923740448013BCA
:10333000E36201F080F810BDA815002077FC0010B2
:10334000081B0020F0B585B001F0CAFF0B2805D896
:103350000C2001F0B7FF454B033BFDD2444803ABC3
:1033600002AA01A901F024FF041E75D0039A029954
:10337000019801F0EDFE3F4E002E02D13E4B002B96
:1033800010D04C21012007F0CDF905003B4B4C2219
:103390000021186003F000F8394B6B60394BAB60CB
:1033A000394BEB6000220023384D39490F202A6049
:1033B0006B6001F0D1FF0722364B1A60364A5A6023
:1033C000FFF78AFF354800F097FFE12134484902B2
:1033D00000F0AEFB002E02D1274BB34240D0314863
:1033E00001F070FA1021022007F09CF90700E86153
:1033F00001F04CF8082203000421380001F022FEFD
:10340000EF6901F043F81037030008220421380067
:1034100001F018FE2C74FFF71DFF002E02D1164B91
:10342000B34212D00120FFF70FFF1F4B1B78002B78
:1034300018D08020800108F067FF80221B4B01001C
:10344000186092011A4803F00DF8FFF7DDFEFFF750
:10345000E1FEFFF743FFFAE71648054900F0FEFFDB
:103460003400D7E7124803F017F8EEE7E02E00002B
:10347000400D030000000000000000009016002036
:10348000C012002030130020A0130020A815002037
:10349000C100002010E000E0FFFFFF004816002000
:1034A0002C160020BC150020D2220020001B00207A
:1034B0007932001005FC001010B502000120002137
:1034C0000CF006FB034C2268636882438B430CC4F8
:1034D00010BDC04618140020F0B589B006AC0090AD
:1034E000039101222000714900F09EF9009B1D2BE1
:1034F00000D9C4E02379002B00D1C0E00098FFF789
:10350000DBFF6B4B01931B78002B49D10123694EE4
:103510003380052001F016FE02F0ABFE664B0290F0
:10352000186802F0A6FE654D071C2C68200002F00A
:10353000A0FE011C381C02F04EFE011C029802F095
:1035400036FE5F4902F084FE002803D05D4B9C42AA
:1035500000D899E001225C4B1A80052001F0F2FDB1
:1035600002F087FE544B061C186802F082FE2C689D
:10357000071C200002F07DFE011C381C02F02BFE0F
:10358000011C301C02F013FEFE21890502F052FEE0
:10359000002802D0052C00D97CE00123019A137089
:1035A000009B01201D076D0F2A0000210CF090FAEE
:1035B000464C0E002268636802400B401A43171EF7
:1035C000029036D1052001F0BDFD3C4B1B680193F4
:1035D00002F04FFE384B0490186802F04AFE059046
:1035E000019802F046FE011C059802F0F4FD011C52
:1035F000049802F0DCFDF421890502F0D5FD832159
:10360000C90502F0E8FD02F05BFE019B30495A1E3D
:1036100014236B4392B25B181F609F60DF601A61D6
:10362000012258601A602268029B1A436368334380
:103630000CC4204B039A1B889A4013001C00224A9A
:1036400012881441002B2CDB1C4B1B689C4200D9B8
:103650001C000421009800F033FF14236B431D4A23
:10366000A4B29B18009AD2071DD51B4A24041968DE
:1036700006A861400A40802149015A5000E020001C
:1036800000F0EBF809B0F0BD3388640001333380FB
:103690002C603EE70C4A640813882C6001331380C9
:1036A0005BE70024D5E70D4AE1E7C0466012002041
:1036B0007C210020A20B0020A40B0020A80B0020DE
:1036C00000007F43A57F0000A00B00201014002005
:1036D000000005400C0005400000FFFFFFFF000058
:1036E000F7B5040001911D281FD808291DD808002E
:1036F0000CF026FA053E1C2D1B4C3E5258000123AF
:10370000D022A340120605212000936200F0D8FECB
:1037100000222000110000F0F3FE254B019A1A55FB
:10372000192C02D92000FFF7C7FEF7BD01273E0084
:10373000D025A6402D0605212000AE6200F0C0FE77
:1037400000223900200000F0DBFEAE61E5E7012732
:103750003E00D025A6402D0605212000AE6200F0D7
:10376000AFFE3A000021200000F0CAFE6E61D4E7EF
:103770000521200000F0A4FE0121200000F0F0FE51
:103780000123D022A34012065362C6E70521200080
:1037900000F096FE0021F0E70521200000F090FEE9
:1037A0000221EAE70521200000F08AFE0321E4E778
:1037B0007D210020D0231B061B6808489B00195858
:1037C00030B5002909D0064C01391A59195055084D
:1037D0001D5101231A4082F3108830BD9416002039
:1037E0009C160020D0231B061B680C499B005A58CE
:1037F00010B50F2A02D10A4800F030FE094A985845
:1038000040009850EFF3108472B6601E84419858BF
:10381000204398505A5801325A5010BD9416002037
:1038200037FC00109C16002013B50023040008008C
:1038300021602371627101A90CF06AF9002808D196
:10384000D0231B06019A1B689A4204D020680CF012
:10385000A7F901232371200016BD10B503790400D8
:10386000002B02D000680CF023F9200010BD10B529
:103870000368DB69984710BD13B56B460268D971C0
:103880005468D91D0122A04716BD000030B50400C0
:1038900085B002AD002228001049FFF7C5FF237C48
:1038A000002B06D11C002800FFF7D7FF200005B031
:1038B00030BD2B79002BF5D001200021404203F0D0
:1038C000EDF86B46DC1D2100002003F00BFD002805
:1038D00001D02478E7E701246442E4E74816002099
:1038E00037B50400002268460C49FFF79DFF237C92
:1038F0006D46002B05D11C002800FFF7AEFF20000D
:103900003EBD2B79002BF6D001200021404203F070
:10391000C5F8002003F0C2FC0400EDE748160020C3
:1039200030B5040085B002AD002228001249FFF72F
:103930007BFF237C002B02D10124644216E02B790B
:10394000002BF9D001200021404203F0A7F800200D
:1039500003F0A4FC0028EFD06B46DC1D01222100FF
:10396000002003F0A7FC0028E6D024782800FFF709
:1039700074FF200005B030BD4816002037B50400A4
:10398000002268460C49FFF74FFF237C6D46002B51
:1039900005D11C002800FFF760FF20003EBD2B79F9
:1039A000002BF6D001200021404203F077F80020E0
:1039B00003F000FD0400EDE74816002037B50500D0
:1039C000002268460A49FFF72FFF2B7C6C46002B2C
:1039D0000AD02379002B07D0002003F08FFC0120B0
:1039E0000021404203F05AF82000FFF736FF37BDB0
:1039F00048160020F0B5050085B0019100923A49C3
:103A0000002202A8FFF710FF2B7C002B03D002AB93
:103A10001B79002B06D11D0002A8FFF71EFF28000E
:103A200005B0F0BD02F0C4FE002801D002F0C8FECF
:103A3000002003F01BFC002851D102222B7E150030
:103A40001D401A424ED100200021284B03C340E004
:103A5000002003F0AFFC009B1E1B864200DD060029
:103A6000002E17D0019B32001919002003F084FCAE
:103A700024182D1801200021404203F00FF80020E7
:103A800003F03CFC01F090FA184B03C3009B9C42EE
:103A9000DED31EE001203100404202F0FFFF300083
:103AA00003F02CFC300003F0E1FBB04211D03000F9
:103AB00003F080FCB042E9D1002701F075FA0C4E0A
:103AC0000A4B0CCB92197B41994202D8DED190422D
:103AD000DCD901200021404202F0E0FF9CE70024F5
:103AE0002500D3E70400FBE748160020201400203F
:103AF00040420F0037B50400002268460B49FFF72B
:103B000093FE247C6D46002C0BD02C79002C08D021
:103B100001200021404202F0C1FF002003F0A6FB7B
:103B200004002800FFF799FE20003EBD4816002043
:103B30007FB5067C0400002E23D1124800F09AFBCA
:103B4000104800F04DF9A0740E4800F05DF9E074E3
:103B50000C4800F045F90C4920750A4800F0DAF9E4
:103B600042236075029601360221084A00930548F7
:103B70002300019600F0B5F96074024800F0AAFB3A
:103B800026747FBD481600204AFC0010B93C001086
:103B900070B5037C0500002B13D00A4800F06AFBC7
:103BA000697C084800F0AFF9A97C064800F026F9C6
:103BB0000448E97C00F035F9002302482B7400F03A
:103BC00089FB70BD481600200023FA22436003746D
:103BD000E12392008260024A5B03026083617047C6
:103BE00040FD0010F0B5160093B0244A0C0001A966
:103BF0000A800222CA70224A6D460292214A442754
:103C00000392214A8C700492204A8C720592204AB9
:103C10000692204A0792204A0892204A0992204A96
:103C20000A92204A0B92204A0C920A220D921F4AB5
:103C30000E921F4A0F921F4A10920022EA53427DB1
:103C4000651C0A746A460732D47702AAD5770B221C
:103C50008D76847C6A44D47731226A4415703A2286
:103C6000C47C6A4414704122007D6A4410701A00BA
:103C7000300002F097FB13B0F0BDC046080B000007
:103C800002020000090400000102020000052400F5
:103C9000200105240100000424020605240600007A
:103CA00007050003080010090400000207050002D0
:103CB000400000070500024010B504001800130082
:103CC0000A002100FFF78EFF10BD00000A22836961
:103CD00010B593439622D201934214D10123027E60
:103CE000002113430376052000F06CFC8023064A74
:103CF0005B041360054A0320136001F091F9002171
:103D0000080001F015FB10BD00E0004000F000408D
:103D10008900D2000A430C21044810B5037E0A40F2
:103D20008B431A430276FFF7D1FF10BD2C160020FB
:103D30004B780A781B0213438A78084812041A4306
:103D4000CB780F2110B51B06134382691B010A4073
:103D500013438361FFF7BAFF10BDC0462C16002045
:103D6000054B10B5002B06D00448FFF7B9FD00281D
:103D700001D000E000BF10BD000000002C160020A4
:103D800010B50248FFF720FF10BDC0462C160020DA
:103D900070B50C0005001900200002F003FBA570AF
:103DA00070BD000010B5044B187A00F02BFCFA200F
:103DB0000021800010BDC0464816002010B500212B
:103DC00006480BF0A5FE002807D001200021404244
:103DD00002F064FE01480BF06BFE10BD4816002097
:103DE00070B5448D0500201E07D001F0DFFA0123D5
:103DF000834080389C436C85C0B270BD01238B40EA
:103E0000428D13434385704770B5848D0500201E95
:103E100006D001F0CBFA012383409C43AC85C0B2AD
:103E200070BD012380398B40828D13438385704799
:103E3000F8B518201F000D001403089E08F064FA5E
:103E4000069B07604360184B2F681A78511C197045
:103E5000079BB1031B051B0D1C433F231340890B1C
:103E60009B040B43C1680481090E09060B43C36020
:103E7000099B390003610023436100290CD0CC6801
:103E8000A403A40BB44204DB002B07D041615861AA
:103E900006E00B004969F0E78B42F8D147612860E2
:103EA0003F201040F8BDC046AC0B002070B50D6837
:103EB0000C002800002100280AD0837B1B069B0EE3
:103EC000934206D1A84207D1456908F027FA256038
:103ED00070BD01004069EEE743694B6108F01EFACE
:103EE000F6E730B50C00010085B00A9D00930395FC
:103EF000099D13000295089D220010310195FFF7DE
:103F000097FF05B030BD0A00010010B51031FFF772
:103F1000CDFF10BDF7B50191417E037E05008B42B8
:103F200007D30431C9B240696976890006F0FCFC08
:103F300068612C7E6F69002C03D10C4B01343B600F
:103F40002C760026B300F958019808F03DFC0028B3
:103F500002D1F4B22000FEBD0136B442F2D8019A7B
:103F6000A300DA51631C2B76F4E7C04677FC0010FF
:103F7000F7B5394F04003B78002B03D119213800E5
:103F800002F0A2FAE68D002E00D1344E258E002DCF
:103F900000D10A35230032331B780093002B04D163
:103FA0002F493048FFF7B6FF0090230033331B78CA
:103FB0000193002B04D12C492A48FFF7ABFF019055
:103FC000230034331A78002A04D139002548FFF73A
:103FD000A1FF02002000122335300370234B012182
:103FE000A363230040273C33E1865E70360A1F70CE
:103FF0009E702E0A1E71260000274136DD70327138
:1040000022003770009F4632B770019F7170F770C1
:104010001170268E0333002E12D12A00E768002F7C
:104020000FD1BE4203D01500110A1A705970002139
:104030002269002A0AD1914202D01D702D0A5D70BA
:10404000FEBD3E8A7F6972400E00E8E7118A526920
:104050004D400121EDE7C0469B2100208A2E000043
:1040600056FC00104816002063FC001002EF02010D
:1040700010B50248FFF77CFF10BDC046481600206F
:10408000F8B50023C56806002A001800002A05D1EB
:1040900093420BD1B38300233362F8BD1389526975
:1040A0001B051B0DC01880B20123EFE7B083002869
:1040B000F1D008F029F98527306204000126002D8F
:1040C000EBD02A89200012056968120D02F06AF906
:1040D000E671A7712B8901361B051B0D6D69E4186C
:1040E000EDE70000014B586A7047C04648160020B3
:1040F000F0B5466A05008FB0002E55D1036AB34271
:1041000025D0394A838B0792384A394F0892394A69
:1041100007AC0992384A38000A92384A0B92384A5A
:1041200023741B120C926374FFF75AFE354BE8762A
:104130001B68207523760A2301930F330093012116
:1041400023003800304A0296FFF7CBFEA876002203
:10415000092617002B69002B28D13300002A01D132
:104160000926330029492B852148FFF7D3FE059006
:104170002B8D1800049308F0C7F804006862002132
:10418000049A02F009F9224B6680238001236371AF
:10419000059B0026A371A0232D69E371233B2771A2
:1041A00023720934002D0CD10FB0F0BD1A8912050D
:1041B000120DB6185A7A5B691206120FBF18012247
:1041C000C9E72A896B681205210030002F68120D9B
:1041D000B8472B891B051B0DE4186B7A6D691B060C
:1041E0001B0F9E19DEE7C046090401000103000011
:1041F00048160020000921110100012200000705D6
:1042000000034000B00B0020913D001077FC00102F
:1042100009020000030000290CD10F4B0F4A5A80FD
:104220000123C0220133DBB20B485B009200134331
:1042300003807047027E00208A42FAD95B698900B8
:10424000C8580023044AC15C0029EAD001335180D8
:1042500002321F2BF7D1E4E73C21002009040000C3
:1042600010B50A0001000248FFF7D4FF10BDC04698
:104270004816002070B5040002F08AFA06001448BF
:104280000BF08EFC02F0B4FA002E03D0FA204000AE
:1042900000F0FEFD0E480BF00BFC606A08F03EF8E3
:1042A000002363622385236A002B09D02000A17EAE
:1042B000FFF729FE0123E27E9340628D134363855D
:1042C000206A08F02BF800232362A38370BDC04648
:1042D0004816002010B50400FFF7D2FE2000FFF7BB
:1042E00007FF04480BF05CFC02F08CFA01480BF06D
:1042F000DFFB10BD4816002030B585B0040003F088
:104300002BFA051E30D12000FFF7BAFE2000FFF780
:10431000EFFE200000F0D6FA2900280003F0F8F99B
:10432000012000F0BDFA11492072C0B200F07AF904
:104330000121207A00F046F900F0A8FC040000F00A
:1043400033FEFA220023920012184B41AB4202DAEC
:104350000122074B5242012102910021019105499E
:104360002000009100F0E8FC05B030BDBD3D00101C
:10437000FFFFFF7FA53D0010FF210022084B09042D
:1043800099610849DA60996207491A615A619A830A
:104390001A625A62D9621A6334331A707047C0467F
:1043A000481600200000FEFFFEFF000010B50400CC
:1043B0000068002801D007F0B1FF00232360A3604C
:1043C000636010BD70B504000D000068013106F097
:1043D000ABFA031E01D0012028C470BD036810B5DC
:1043E0000400002B03D0436801208B4209D2200037
:1043F000FFF7E8FF002804D0A368002B01D1226852
:10440000137010BD70B50E00110004001500FFF709
:10441000E5FF002804D12000FFF7C8FF200070BD91
:104420002A0031002068A56001F0BCFF002122684D
:10443000A368D154F2E7002370B504000D000360B7
:1044400043608360994207D0080007F085FF290088
:1044500002002000FFF7D6FF200070BD0FB407B5A3
:10446000084806F04BF9049B002B07D005A918005B
:10447000019104F0E9F8044806F040F901200AF03F
:10448000E4FCC04668FC001077FC0010044A107879
:10449000431CDBB2172B00D9102313707047C046A2
:1044A000B40B002013B5044B0100009318221F2306
:1044B000024803F054FC16BD78FC0010D41A00200A
:1044C000074B820010B5D45840236340C0242340DA
:1044D000044CC0001351044BC018416010BDC046CD
:1044E00004C0014004D0014000400140034BC00023
:1044F000C0181F23406818407047C0460040014064
:10450000054B8000C358C90092000A435A400C234F
:104510001A40024BC250704704C0014004D0014011
:10452000054BC000C35809045940C0239B021940E1
:10453000024BC1507047C046044001400450014046
:10454000054BC000C35809035940C0239B011940C3
:10455000024BC1507047C046044001400450014026
:10456000044B8000C3580901594030231940024BC5
:10457000C150704704C0014004D00140074B1030C7
:104580009B688000C150BFF35F8FBFF35F8F002136
:10459000034B196082F310887047C04600ED00E0BD
:1045A000240100D0044B0548054A19000433086073
:1045B0009342FAD17047C04600E400E080808080DA
:1045C00020E400E01F2318401E3B8340002905D053
:1045D000C021044A4900535013607047024AD36710
:1045E000FBE7C04600E100E004E100E00122824078
:1045F000034B1B6813405A1E9341D8B27047C04604
:1046000000E100E001238340014A13607047C04687
:1046100000E200E0024B10309B688000C0587047F9
:1046200000ED00E070B504000D00EFF3108672B6E7
:104630000A4A1368002BFCD0BFF35F8F2000FFF7FE
:10464000E9FF074B984201D0A84205D1320029006A
:104650002000FFF793FF70BD01F056FF240100D04A
:10466000C1300010F0B587B0049003910292EFF3CF
:10467000108372B6564A05931368002BFCD0BFF323
:104680005F8F00235349CB560093002B01DA01F0D2
:104690003BFF0C239C466246009B4F4D53435A19E7
:1046A000907908704D49886804991031890009583B
:1046B000481B472819D94A488142E8D149495953EA
:1046C0004949023304395B19CB1A1B0547495B0D75
:1046D0000B435380464B9380FF239371029BD3710E
:1046E000039B93600121114335E001200E008643B6
:1046F000340000200196E779029EB74231D83B4C46
:10470000A44600283AD006268657071D002E33DB24
:10471000384D84885D1963466405241508340419EE
:10472000641B043C2405640D1C436346043AD21BFD
:104730001205520D13438380009B009A83710C2352
:104740005343254A9B182C4A9C801A60029A9E71FA
:10475000DA71039A9A60059A0498FFF70FFF07B081
:10476000F0BD0627E757002F04DB604647432000D3
:10477000EC19C0E72000C2E71D4CD6E70C206646C6
:10478000154C1E4D0199091B49414D432D0D0099B2
:104790009F1C484313493F190153134920180439FA
:1047A000C91B0905490D31434180043301991B1987
:1047B000CB1A043B1B055B0D33438380029B01999D
:1047C000C371039B857183600B4B0B608AE7C04606
:1047D000240100D0D5220020B80B002000ED00E01D
:1047E000C130001000A1FFFF000C002000E0FFFF1F
:1047F00001BDFFFFBC0B002001488047AAAA0000B2
:1048000001230343F0B51E00EFF30581EFF310879A
:1048100072B61C4B1B68002BFBD0BFF35F8F1A4A8C
:1048200004001A4BA41A644163431B0D5BB29C46FF
:10483000174B89009B6814005B581D000023B5428C
:1048400014D1134B134A9B685A50134B1A78827138
:1048500062461A70BFF35F8F00230A4A136087F322
:104860001088F0BD01330C34062BEED006216156C2
:104870006145F7D10C214B43D318FF229A71074AA7
:104880009A80E2E7240100D0B80B0020AAAA000019
:1048900000ED00E0C1300010D522002001BDFFFF77
:1048A00013B5064B0100009300220523044803F0D2
:1048B00056FA002801DB1F23181A16BD93FC0010BE
:1048C000DE22002010B50400FFF7E0FD010020000B
:1048D00003F07CFAFF232371BFF35F8F10BD10B587
:1048E0000400FFF7D3FD0100200003F06FFAFF235F
:1048F000A380BFF35F8F10BD10B50848084B9842E6
:1049000000D310BD040003680834002B03D0FFF768
:10491000E6FF2000F2E7FFF7D5FFFAE75812002084
:10492000B81200200A4B1868EFF3108272B60168C3
:104930000029FCD0BFF35F8F1B68BFF35F8F00219E
:10494000196082F3108840BF002000217047C046E4
:1049500038210020F8B5C16004001F0016000D00CA
:10496000FFF794FD154B2670C018D0231B061B685B
:104970008000637001235B422381A380FB18638066
:10498000002320616781BB4211D101270C4BB2008B
:10499000D4503C00B44030002C620A49FFF742FE7C
:1049A00039003000FFF70EFE074BEC50F8BD182021
:1049B000584361695A1E42520133E4E74000003413
:1049C000241F0020254A00103820000010B5094C93
:1049D0002369002B09D10321074800F0B1FA102305
:1049E000032220000449FFF7B5FF0A21034803F022
:1049F000EDF910BD200C00200040054038210020BA
:104A0000074A10B5536A04000020994206D8926AFA
:104A10000130A24202D2C81A431E984110BDC046BE
:104A200000400540F0B587B0EFF3058203231A403C
:104A3000924B03929200D4580123039A934004931B
:104A4000049A8F4B1A608F4B049A5A630822A35E14
:104A50000293002B55DB1823029A6569534389485A
:104A6000ED18AA68EB680092019300F073FA019BBD
:104A70008B4246DC02D1009B834242D8019B002B33
:104A800000DAA5E02B69804A6E69934200D08FE07E
:104A9000300033699847002800D199E0C0CE330038
:104AA0003B4300D194E0002F00DB8BE0009801999C
:104AB000801BB9410022AB5EA860E960002B20DBBF
:104AC0006269944618225A436244D6688E4218DCC2
:104AD00002D19268824214D8260023810836182217
:104AE0005A436244D7688F4208DC02D197688742F4
:104AF00004D816000022B35E002BF0DA2B80029B54
:104B000033800422A35E002B1ADB2169EFF31083AC
:104B100072B60A68002AFCD0BFF35F8F0422A15E40
:104B200001225242A2802269BFF35F8F00201060F1
:104B300083F31088230008330593002900DB5EE02F
:104B4000A379002B08D00023A37120000822A35EC4
:104B500008305A1C00D076E00823E15E002924DBEF
:104B600018224A4363699B189D68DE686B1C01D15B
:104B7000731C10D0039B434F9B00DB19B96A1A6961
:104B8000681A521A904205D301220398396A82406A
:104B9000114200D11D613B4800F0DCF98E4204DC7B
:104BA00000D050E7854200D84DE740BF07B0F0BDC8
:104BB0000821605E6A8800043100104398470600AF
:104BC0000F006CE72F4800F0C5F98019794171E7B3
:104BD0002B8821692381EFF3108372B60A68002ABB
:104BE000FCD0BFF35F8F62882A80029A62802269BC
:104BF000BFF35F8F0021116083F3108881E7636941
:104C0000059D009318234B43009AD3189A68DF68D8
:104C100002920822A05E00280CDB18224243009E6C
:104C2000B218D668BE4205DC09D19668B446029E29
:104C3000B44504D929800022995E18807DE71500CB
:104C40000022A85EE7E71821594366697218715E71
:104C50000227D65F002E0EDA01267642F7179660FD
:104C6000D7600827E65F9E4203D001802689168020
:104C700023810B006DE71000FBE7C046241F0020D6
:104C80003C70054000400540254A00100048704730
:104C9000200C0020F0B5010016001F000269EFF3A0
:104CA000108072B61368002BFCD0BFF35F8F182200
:104CB0000223CC5E4B6962439B18002C01DB1A88EF
:104CC0004A800A69BFF35F8F0025156080F3108862
:104CD000AC422CDB059A9E60DF601A61069A5A612D
:104CE0005A8801325204520C101CAA4200D10120F1
:104CF00082B25880200410430E69EFF3108272B61E
:104D00003568002DFCD0BFF35F8F04268D5F1D80BA
:104D10008C800B69BFF35F8F00241C6082F31088C6
:104D200001220B789A40CB6802495A50F0BD01200D
:104D30004042FBE73C200000F7B51F000AAB1C789F
:104D400005001600002C09D0099B32000193089B36
:104D5000280000933B00FFF79DFFFEBD00F024F903
:104D600032003B00121A8B41A342EDDA2000F4E737
:104D700030B5448903000A140020944225DD183020
:104D800050435A691D691218EFF3108472B62868EF
:104D90000028FCD0BFF35F8F558889B20020A9425C
:104DA00004D10A4801435180012098711A69BFF368
:104DB0005F8F0021116084F31088884205D00122A2
:104DC0001978DB688A4002495A5030BD0080FFFFE5
:104DD0003C200000F0B506000F0006246442E517F1
:104DE000A4197D4185B08D4202D803D1844201D9F6
:104DF0000024002500F0D8F822002B00121A8B4165
:104E0000002B08DC01D19A4205D13000390000F0B6
:104E10000FF905B0F0BD002302930193104B22005F
:104E2000009310482B00FFF787FF0130EDD02000E2
:104E30002900FFF7E5FD0028E7D10B4B1868EFF3D9
:104E4000108272B601680029FCD0BFF35F8F1B6827
:104E5000BFF35F8F0021196082F3108820BFE6E75F
:104E600025490010200C00203821002070B50400D6
:104E70000D0000F099F800196941002902DA0120BB
:104E800002494042FFF7A6FF70BDC046FFFFFF7F0B
:104E9000FA2210B500239200002101F05BFAFFF71F
:104EA000E5FF10BDF0B504000D0087B0EFF30583FA
:104EB000002B05D020002900FFF7A2FD07B0F0BDB0
:104EC0001C4B05931B68834205D1059B5B688B4295
:104ED00001D120BFEEE7184B0493DF68049B380034
:104EE0001E7800F037F80436B600BA5926002F00B5
:104EF0000023361A8F41121ABB4202DCE9D1B242BA
:104F0000E7D9029301930D4B2200009304982B00E4
:104F1000FFF712FF061ECDDD059B2000290030C3E0
:104F2000FFF76EFD002800D120BF31000498FFF785
:104F30001FFFBFE7180C0020200C0020254900109F
:104F400010B5024A024802F0ECFE10BDAEFC0010A3
:104F5000D02200200300416A0A00986A596A8A42F6
:104F6000FAD17047416A9942FCD3994202D1816AD1
:104F7000914200D37047416AF7E770B514001D00F5
:104F80000600FFF7E7FF22002B0012184B41994261
:104F900002D804D1904202D901225242D3173000E4
:104FA000FFF7E0FF70BD000010B50248FFF7D2FF29
:104FB00010BDC0460040054010B502000B0002487D
:104FC000FFF7DBFF10BDC0460040054010B50029CB
:104FD00005DB826A836A9B1A8B42FBD310BD0800F3
:104FE0000021FFF7E9FFF9E70C4B10B504000800BA
:104FF000994206D8FA21890041432000FFF7E6FFD5
:1050000010BDFA2200239200002101F0A3F9020052
:105010000B002000FFF7B1FFF2E7C0469BC4200061
:1050200010B501000148FFF7DFFF10BD004005404B
:1050300010B502000B000248FFF794FF10BDC046F8
:105040000040054070B50E0019000400150002F084
:10505000BDFE00233100E581A681A360681C05F038
:1050600061FB6060431E9841C0B270BDF7B50C246F
:1050700044430193244B0092E4186368089A0500A6
:105080000E00934200D26260C0232F1F9B01FFB22B
:10509000E318012F27D8012E25D103221A60A36817
:1050A0003342FCD0009B22685B015340E022134056
:1050B00080225201A350012F09D803212368734095
:1050C0000B40A3500123B340A2681342FCD08023BD
:1050D00080229B011201E250089B019A63600B4BF6
:1050E000AD00EA50F7BD802212011A60074BAA00FA
:1050F000D1580029D6D0586900F086F9431C032006
:1051000058430338FDD2CDE700800040D81A002074
:1051100073B50D00069904001800160000F074F92C
:10512000069A030012022900009220003200FFF7C5
:105130009DFF73BD13B5802464000094FFF796FFB4
:1051400013BD0000014B8000C0587047D81A0020E2
:1051500073B51400012205000E0005201100114B4B
:10516000FFF7E8FF33002A00009401210E4800F009
:105170005BF821002800714300F046F9040000228A
:1051800002210420094BFFF7D5FF23000022012153
:105190000520FFF7CFFF022200210620014BFFF779
:1051A000C9FF73BD006CDC0200800240001BB70029
:1051B000F0B5A02587B002900391049205936D008D
:1051C000154B164A6B4301939B18154A07249342CB
:1051D0000BD9013D0F2DF3D100201BE0013E3F1BF9
:1051E000002E05D1013CB442F3D0270026006743CE
:1051F0003900019800F008F9029B9842EED100298D
:10520000ECD10120074B039A6B431360049B1C6095
:10521000059B1E6007B0F0BDE02E0000508EF4FF2D
:1052200050F80C00001BB700F8B504001F48170029
:105230001E000D0000F0E8F80100380000F0E4F86E
:10524000069A3304120313432268002A0FDA3F211F
:1052500022680A40AA420AD1A2681205120D8242AF
:1052600005D1EE21E268C9020A409A421CD0104AD8
:10527000104EA1184A42514101220C318A400E4978
:105280000A600E490A60170031688F43391EFAD14F
:105290000B4A2131A2182560A06011602168002905
:1052A000FCDAE36008231360F8BDC046001BB700BA
:1052B0000040FDBF08C0004000E0004000F000409A
:1052C00004300000044B00011B685840F0231840D4
:1052D000024B18607047C046004006400050064030
:1052E000024B18680006000F7047C0460040064099
:1052F000142310B5010018889B88984710BD162309
:1053000010B5010018885B88984710BDF8B50F00EC
:10531000040000260125BE4201D12800F8BD206806
:10532000FFF7E6FF01C4431E984101360540F2E74E
:1053300070B5040003480D00FFF7DAFF29000300F1
:105340002000984755420000024B80009B68C058DF
:105350007047C04600ED00E070B504000D00EFF3AB
:10536000108672B6FFF7F0FFA84207D0084B9842AC
:1053700002D3084B984201D301F0C6F8064BA400B3
:105380009B68E550BFF35F8F86F3108870BDC04601
:10539000C0300010D430001000ED00E001480421BE
:1053A000014B1847400C00200D530010014B9B6827
:1053B00018470000400C0020124A936F9B0815D23A
:1053C0009066D166002905D0FFE7FFE7FFE7516F40
:1053D000106F704704B580210906C217514000289C
:1053E00000D0C8430AF084FB002104BDF0B5146E60
:1053F000556E576F166FFFF7E3FF146655665767D4
:105400001667F0BD000000D0114A936F9B0813D2BD
:1054100010665166002905D0FFE7FFE7FFE7516FEF
:10542000106F704704B5002801D00020C0430AF077
:105430005FFB002104BDC046F0B5146E556E576F7A
:10544000166FFFF7E5FF1466556657671667F0BDE0
:10545000000000D094464A4A926F9208624601D2F8
:1054600028E0C046F0B5464E346E756E776F366FE5
:1054700000F020F89446424A14665566576716674E
:105480006246F0BD94463E4A926F9208624601D24F
:1054900054E0C046F0B53A4E346E756E776F366F95
:1054A00000F04CF89446364A1466556657671667FE
:1054B0006246F0BD002B24DB11D000293EDA00B596
:1054C000C943404200D1013100F038F8C94340429D
:1054D00000D10131DB43524200D1013300BD002A2B
:1054E000EBD1002801D1002905D00020C90FC90740
:1054F00001D1C043410800B50AF0E2FA00220023BE
:1055000000BD00B500290ADBDB43524200D1013364
:1055100000F014F8C943404200D1013100BDC94335
:10552000404200D10131DB43524200D1013300F04F
:1055300005F8DB43524200D1013300BD002923D1DD
:10554000002B18D1002A0CD0BC460D4F38667A6665
:1055500000210023FFE7FFE7FFE77A6F386F674618
:105560007047002801D00748010000B50AF0A8FAEA
:105570000022002300BD02000B0000200021704724
:10558000000000D0FFFFFFFF002B00D0BFE0130C96
:1055900028D1002AE7D080B4114F39667A66FFE738
:1055A000FFE730B4040C7B6F396F1B0423433B6669
:1055B0007A66FFE7FFE7FFE7C04684B27B6F3D6F87
:1055C0001B0423433B667A66FFE7FFE7C0460023E0
:1055D0002C042D0C7A6F386F00196941B0BC7047EC
:1055E000000000D0F0B594460025140E01D112023F
:1055F0000835140F01D112010435940F01D1920026
:105600000235D40F01D152000135D40B0134254F9E
:105610007C66254C3C660E0C93B2FFE7FFE7FFE784
:105620003C6F6643360C7703BE467343DF0B5B0467
:10563000C01AB941130C7343DB18C91ACE0866436C
:10564000360CB64493B273431F0F1B01C01AB94105
:10565000130C73431F0B1B05C01AB941860D8F0233
:105660003E436643360C092D24DB520A7243801AEE
:105670007703460A6643360C16235B1BDE40DF4089
:10568000BF1964466643821B704604350633010029
:10569000D940A840C01900D30131A24206D200234C
:1056A000F0BD0000000000D0FFFFFFFF121B013023
:1056B000F3D3F1E709277F1BFE406446A2B2724391
:1056C000801A00D20139220C7243130C1204821A80
:1056D00099410B007046043513370100F940A8408A
:1056E000801900D30131002B02D1A2420AD2F0BDB1
:1056F000013000D30131121BFAD2013BF8D1A24292
:1057000000D2F0BD013000D30131121BF7E7F0B534
:105710001C0C00D080E00CB400251C0A04D11B0234
:10572000160E3343120208351C0B04D11B01160F51
:105730003343120104359C0B04D19B00960F334375
:1057400092000235DC0B02D192185B4101351C003E
:10575000971864410134464F7C66464C3C660E0CFB
:10576000FFE7FFE7FFE7C0463C6F6643360C770371
:10577000BE4697B27743C01B00D20139C01B00D28E
:1057800001399FB27743C91BC91B170C77437E04AD
:10579000FF0B801BB941CE086643360C0C2D33DB62
:1057A000B644120B1F053A431B0B97B27743C01B3D
:1057B00000D201399FB27743C91B170C77433E04CF
:1057C0003F0C801BB941860D8F023E43664329275B
:1057D0007F1BFE400C3D7746AF40BF1930BCA2B2E4
:1057E000ABB272437343801A9941220C7243130C7B
:1057F0001204801A994102000B000137001BA941D5
:10580000F9D2781E0021F0BD0C277F1BFE407746A1
:105810007F0BAF40FF19E0E700245D1C07D0144F59
:105820007D663966FFE7FFE7FFE7FFE73C6F95B26C
:105830009EB265436643401BB141150C1E0C654387
:10584000664336042F0C3E432D04401BB141994260
:1058500004D202000B0020000021F0BD01D19042D3
:10586000F7D3801A994101349942F2D3F6E7000048
:10587000000000D0FFFFFFFF48404140484018B4FF
:105880001B4B5B68FC46019308BD04DF6B5B00109B
:1058900018B4174B1B68FC46019308BD00DF755B0D
:1058A00000109446134A926F920809D2624618B4C7
:1058B0000F4BDB68FC46019308BD0CDF2D5E00102A
:1058C0000C4AF0B5146E556E576F166F6246FFF7AF
:1058D000EEFF084A1466556657671667F0BD18B4A0
:1058E000034B9B68FC46019308BD08DFD15C0010A8
:1058F000341F0020000000D0FFB55040424050400F
:1059000059404B40594000E0FFB5154F4C00640D25
:1059100003D0BC4204D10C0314D80020090D0905A2
:105920005C00640D03D0BC4204D11C030AD80022E1
:105930001B0D1B0501264B4009D44B4003D58B4260
:1059400000D18242FFBD9942FCD19042FFBD0B4382
:10595000DB1803431343F5D0C9434918FFBD0000CA
:10596000FF07000000B5FFF7CFFF01D0002000BD0A
:10597000012000BD00B5FFF7C7FF804100BDC04654
:1059800000B5FFF7C1FF01D9002000BD012000BD17
:1059900000B5FFF7B1FF804100BD012040054A007E
:1059A000121804D85A00121801D80020704701209C
:1059B000704700000021002805D17047C1174840FA
:1059C000401AFAD0C90713B5064B1B6898470CBCA0
:1059D000441CA2401005120B0349091B0905194379
:1059E000114310BD342000201F04000010B54C00EE
:1059F000620D8023D218DB00D21A5B057E2A10DDEF
:105A00009E3A13DACC170903490819435242D14090
:105A1000640001341532202A05DAD040084360437F
:105A200010BD002010BD0846604310BDC80FC0184F
:105A3000013810BD18B4044B5B6AFC46019308BDE5
:105A400024DFDD5F00100000341F002018B4044B79
:105A5000DB6DFC46019308BD5CDFE96000100000CF
:105A6000341F0020C94211D300B549004908002263
:105A700000F018F8002904D4002240428A4111465F
:105A800000BD80210906002000BD000018B4044BB1
:105A9000DB6EFC46019308BD6CDFEB5F001000007D
:105AA000341F002018B4044B9B6FFC46019308BDC3
:105AB00078DF076000100000341F002018B4044B8A
:105AC000DB6FFC46019308BD7CDF756000100000B1
:105AD000341F0020132370B51C78114D012C0ED1FA
:105AE000002310499A000133A950202BFAD10D4B05
:105AF000AB640D48FFF7FCFB0C4B186070BD012C2C
:105B0000F5DD0B48FFF7FBFB06000A48FFF7F7FB44
:105B100080223100280000F045FC022CE9D1E6E7A4
:105B2000341F0020395B00104C330000342000206B
:105B3000534400005346000007B5604601880A0A36
:105B40000230DF2AFAD1C9B2820804D30288408821
:105B50000004104300E00068014A5050039007BD64
:105B6000341F00200FB403BC0CBCF0B50124E407C3
:105B7000634000E0F0B50C0DCF0F661E3605891BA3
:105B8000640503D3C943404200D30131640D03D0FF
:105B9000661CF60A07D0E41B00207F00791C8907E9
:105BA0008912803C24031D0DDF0F6E1E36059B1BE2
:105BB0006D0503D3DB43524200D301336D0D03D097
:105BC0006E1CF60A07D0ED1B00227F007B1C9B0792
:105BD0009B12803D2D032F1B661B58D4A446202EFC
:105BE00046DA20371400BC401D00BD40F24033416E
:105BF0002A4380185941CB0F05D0C943C043002226
:105C000064425041514162464D0D28D10D0D07D1DE
:105C100000281FD0241940414941013A0D0DF9D007
:105C2000640006D3013000D30131002C01D14008BB
:105C30004000013A0BD4941CE40A04D1120511442B
:105C4000DB071944F0BDD907204B194300E0D90701
:105C50000020F0BD0029DDD1002CDBD1F0BD0132E8
:105C6000C6074008CD0728434908002EE1D0D9E7F0
:105C70003C2E29DA203E40371400BC4000D00124DD
:105C8000F24014431A00BB401C43D317ACE7AC46A8
:105C9000202F08DA20360400B4400D00B540F8404B
:105CA00039412843A5E73C2F0CDA203F4036040059
:105CB000B44000D00124F84004430800B1400C4334
:105CC000C117EAE710001900002494E70000F07FF4
:105CD000F0B50C0D661E3605891BE60A6405640DD9
:105CE00002D0651CED0A04D0002001210905803C8A
:105CF0002403A4461C0D671E3F05DB1BE70A640551
:105D0000640D02D0651CED0A04D0002201231B059E
:105D1000803C24037740644497B484B296B27443C1
:105D2000070C7E43150C6F4380B26843361802D3CC
:105D3000012000043F183004350C00197D418446D1
:105D400088B29AB250430C0C62431F0C7C438EB253
:105D50007E43921902D301263604A4191604170CA7
:105D60003618674101BC81B29AB25143040C6243B8
:105D70001B0C5C4380B25843121802D3012000046C
:105D800024181004130C401863412D185E410020A4
:105D9000474106BC88B293B258430C0C6343120CC3
:105DA000544389B251435B1802D30121090464189A
:105DB00019041A0C091862416D1856410020474118
:105DC00018BCF902720D1143F0026A0D1043ED0286
:105DD0000A0D03D16D1940414941013B124E9B1BF5
:105DE0007600B3420ED26D0007D301300026714118
:105DF0006646354301D1400840001B05C918E40739
:105E00002144F0BD0BDA013306D1013004D1013158
:105E10004F0D01D04908F2E7E1070020F0BD01363F
:105E200031050020EBE70000FF030000F0B51C0D7A
:105E3000671E3F05DB1BE70A6405640D02D0661C84
:105E4000F60A04D0002201231B05803C2403D02540
:105E50002D060026F6432E661E096E66CE0FF61935
:105E6000B44649004F0D02D07E1CF60A03D0002034
:105E70000021403F3F033E1BB600B444013F7F0575
:105E8000C91B49082E6F013676089C02950D2543E3
:105E90007543ED137543AD1301356D10F603761B95
:105EA0000CB4CC02450D2C43A2B2B3B25A43270C1A
:105EB0007B43350C6F43A4B26C431B1902D30124FE
:105EC00024043F191C041D0CA4187D4124196D41A4
:105ED000009A91B2ACB26143170C7C432B0C5F4328
:105EE00092B25A43A41802D301221204BF1822040A
:105EF000230C52187B41019C6C431B19520ED90193
:105F00000A434401A01A81B2B2B2514303145A4366
:105F1000360C734387B27743D617D21900277E41D8
:105F200036049B191704160C7F185E417316ED1882
:105F3000F301002680337541A90F06D16400690A78
:105F4000E8055B0A184309D22FE004229444803309
:105F50007541A90AA8059B0A184326D34041494127
:105F60002404009A019B0D005543641B4343E41A2B
:105F700095B286B27543170C7E43030C5F4392B211
:105F80005A43B61802D301221204BF183204330C4C
:105F900052197B4152429C41002C02D40022013014
:105FA00051414008CA071043490802B06246D7076A
:105FB0009210084BD218084B9A4203D21205891846
:105FC000C919F0BD0020002A01DC3900F0BD013301
:105FD0001905F5E7FD030000FE070000002200B5EB
:105FE000203200F010F8080000BD002200B500F0DB
:105FF0000CF8CA179A4200D100BDD8430121C90745
:10600000414000BD00220B150AD410B5944600F0A3
:10601000A7F81414013400DA0021CB17144C2047E0
:106020000020002170476244343A0CD40C2A07DA6D
:1060300004009140904052422032D440214310BD90
:10604000D843D94310BD203207D40C469440524265
:1060500020321141D040204310BD0800C917203222
:1060600003D452422032104110BD1800190010BD57
:10607000276000104A00520D144BD21A13DDFF2A7C
:106080001EDAD205CB0FDB071A43C300400F09030A
:10609000490A084310435B0001D301D00130704727
:1060A0004308FBD2704702D0C80FC00770470A03ED
:1060B00012130132F8D1420F072AF5D1012200E074
:1060C000FF22C80F00028018C0057047800300003F
:1060D00000210A00002104E000210A00C11704E0A9
:1060E0000022002306E0C0460022CB17584059404A
:1060F000C01A994130B5184CA21A002903D10100E9
:1061000010D00020203A4C1512D104D2013A0018C8
:1061100049414C0DFAD3114CA24204D21205891800
:10612000DB07C91830BDD243520D00200021F5E72E
:1061300003D4013A00184941FBD50B324405C00A8B
:106140004D052843C90A640003D000246041614121
:10615000E1E7E0D34408F8E732040000FE0700005E
:106160000A0DCC0F531E1B05C91A520503D3C94390
:10617000404200D30131520D03D0531CDB0A07D03B
:10618000121B00206400611C89078912803A1203E7
:10619000014BD21A70470000FF0300004840414005
:1061A00048400E4B5B6818470C4B1B6818470C4A5D
:1061B000936F9B0802D2094BDB681847F0B5146E49
:1061C000556E576F166FFFF7F6FF054A1466556652
:1061D00057671667F0BD014B9B68184738200020B1
:1061E000000000D007B548404140484001E0C046AB
:1061F00007B54200120E03D0FF2A03D1420218D87D
:10620000C00DC0054A00120E03D0FF2A03D14A0276
:106210000FD8C90DC9050122414005D4414001D51F
:10622000814207BD884207BD0143491801D0C043E0
:10623000001807BD00B5FFF7DBFF804100BDC04679
:1062400000B5FFF7D5FF01D9002000BD012000BD3A
:1062500000B5FFF7C7FF804100BD01231B064200C8
