:100000000C945E000C9486000C9486000C94860080
:100010000C9486000C9486000C9486000C94CC0200
:100020000C9486000C9486000C9486000C94860038
:100030000C9486000C9486000C9486000C94860028
:100040000C9482020C9486000C944E030C942803AA
:100050000C9486000C9486000C9486000C94860008
:100060000C9486000C948600000000080002010039
:100070000003040700000000000000000200000070
:1000800000250028002B0000000000240027002A83
:100090000004040404040404040202020202020331
:1000A000030303030301020408102040800102043B
:1000B00008102001020408102000CA0411241FBEE9
:1000C000CFEFD8E0DEBFCDBF11E0A0E0B1E0EEEFB2
:1000D000F9E002C005900D92AA33B107D9F721E0EB
:1000E000AAE3B1E001C01D92A13FB207E1F710E021
:1000F000CEE5D0E004C02197FE010E94F704CD3583
:10010000D107C9F70E9480030C94FD040C940000F1
:10011000EDEAF0E02491E9E9F0E08491882399F098
:1001200090E0880F991FFC01E957FF4FA591B4910A
:10013000FC01E358FF4F859194918FB7F894EC91AF
:10014000E22BEC938FBF0895FC01538D448D252F36
:1001500030E0842F90E0821B930B541710F0CF9661
:10016000089501970895FC01918D828D981761F093
:10017000A28DAE0FBF2FB11D5D968C91928D9F5FAA
:100180009F73928F90E008958FEF9FEF0895FC0189
:10019000918D828D981731F0828DE80FF11D858D3C
:1001A00090E008958FEF9FEF0895FC01918D228DCF
:1001B000892F90E0805C9F4F821B91098F73992754
:1001C0000895FC01A48DA80FB92FB11DA35ABF4FEC
:1001D0002C91848D90E001968F739927848FA68946
:1001E000B7892C93A089B1898C91837080648C939A
:1001F000938D848D981306C00288F389E02D808149
:100200008F7D80830895EF92FF920F931F93CF937A
:10021000DF93EC0181E0888F9B8D8C8D98131AC041
:10022000E889F989808185FF15C09FB7F894EE8928
:10023000FF896083E889F989808183708064808385
:100240009FBF81E090E0DF91CF911F910F91FF90D0
:10025000EF900895F62E0B8D10E00F5F1F4F0F7378
:100260001127E02E8C8D8E110CC00FB607FCFACF33
:10027000E889F989808185FFF5CFCE010E94E100F0
:10028000F1CFEB8DEC0FFD2FF11DE35AFF4FF08204
:100290009FB7F8940B8FEA89FB8980818062CFCF6A
:1002A000CF93DF93EC01888D8823B9F0AA89BB89AD
:1002B000E889F9898C9185FD03C0808186FD0DC098
:1002C0000FB607FCF7CF8C9185FFF2CF808185FFB9
:1002D000EDCFCE010E94E100E9CFDF91CF910895EB
:1002E0008BE491E00E94D50021E0892B09F420E005
:1002F000822F089580E090E0892B29F00E94700100
:1003000081110C94000008953FB7F8948091ED019D
:100310009091EE01A091EF01B091F00126B5A89B5C
:1003200005C02F3F19F00196A11DB11D3FBFBA2F87
:10033000A92F982F8827BC01CD01620F711D811D47
:10034000911D42E0660F771F881F991F4A95D1F7CC
:1003500008958F929F92AF92BF92CF92DF92EF92C9
:10036000FF920E9484014B015C0188EEC82E83E05D
:10037000D82EE12CF12C0E948401681979098A0990
:100380009B09683E734081059105A8F321E0C21ADC
:10039000D108E108F10888EE880E83E0981EA11CC0
:1003A000B11CC114D104E104F10429F7FF90EF90CE
:1003B000DF90CF90BF90AF909F908F9008959091D5
:1003C000000189130DC0ECE7F0E0E4919FEF9093FA
:1003D0000001E13009F431C068F1E23009F433C0C2
:1003E00090E0FC01E859FF4F2491FC01EB55FF4FD1
:1003F0003491FC01EF56FF4FE491EE23D1F022231C
:1004000051F0233009F43AC078F5213009F43CC0AA
:10041000223009F43DC0F0E0EE0FFF1FE358FF4F1C
:10042000A591B4918FB7F894EC9130953E233C930D
:100430008FBF089510926E00D3CF90916F009D7F73
:1004400090936F00CDCF909170009D7F909370003E
:1004500091E09093B0009091B100987F9460909358
:10046000B1001092B300BCCF2730A9F02830C9F0FA
:10047000243089F6809180008F7D03C080918000B8
:100480008F7780938000C7CF84B58F7784BDC3CF2B
:1004900084B58F7DFBCF8091B0008F778093B000C3
:1004A000BACF8091B0008F7DF9CFAF92BF92CF923B
:1004B000DF92EF92FF920F931F93CF93DF936C0124
:1004C0007B018B01040F151FEB015E01AE18BF0805
:1004D000C017D10759F06991D601ED91FC910190B7
:1004E000F081E02DC6010995892B79F7C501DF91CF
:1004F000CF911F910F91FF90EF90DF90CF90BF9021
:10050000AF9008951F920F920FB60F9211242F9360
:100510003F938F939F93AF93BF938091E901909105
:10052000EA01A091EB01B091EC013091E80123E0E8
:10053000230F2D3758F50196A11DB11D2093E80119
:100540008093E9019093EA01A093EB01B093EC0151
:100550008091ED019091EE01A091EF01B091F00139
:100560000196A11DB11D8093ED019093EE01A09322
:10057000EF01B093F001BF91AF919F918F913F91A7
:100580002F910F900FBE0F901F90189526E8230F04
:100590000296A11DB11DD2CF1F920F920FB60F92DE
:1005A00011242F933F934F935F936F937F938F9378
:1005B0009F93AF93BF93EF93FF9380913F019091EF
:1005C0004001A0914101B0914201892B8A2B8B2BD4
:1005D000D1F190913A01E0913B01F0913C01808191
:1005E0008927808380913F0190914001A091410132
:1005F000B0914201181619061A061B069CF4809148
:100600003F0190914001A0914101B09142010197B9
:10061000A109B10980933F0190934001A09341014A
:10062000B0934201FF91EF91BF91AF919F918F9154
:100630007F916F915F914F913F912F910F900FBEDE
:100640000F901F901895809100010E94DF01EACF62
:100650001F920F920FB60F9211242F933F934F9337
:100660005F936F937F938F939F93AF93BF93EF931A
:10067000FF938BE491E00E94E100FF91EF91BF9125
:10068000AF919F918F917F916F915F914F913F912A
:100690002F910F900FBE0F901F9018951F920F92E1
:1006A0000FB60F9211242F938F939F93EF93FF9385
:1006B000E0915B01F0915C018081E0916101F0913A
:1006C000620182FD1BC09081809164018F5F8F73F6
:1006D00020916501821741F0E0916401F0E0E55B53
:1006E000FE4F958F80936401FF91EF919F918F91C1
:1006F0002F910F900FBE0F901F9018958081F4CF0F
:10070000789484B5826084BD84B5816084BD85B5EC
:10071000826085BD85B5816085BD80916E008160F8
:1007200080936E001092810080918100826080939E
:1007300081008091810081608093810080918000A0
:100740008160809380008091B10084608093B100CB
:100750008091B00081608093B00080917A008460C5
:1007600080937A0080917A00826080937A008091F1
:100770007A00816080937A0080917A00806880930B
:100780007A001092C1000E9488004CE7E42E40E0FD
:10079000F42E5DEBA52E55E0B52E69E9262E60E01E
:1007A000362E0DEA10E044244A94542C3201E8E03D
:1007B0008E2E30E0C32E30E0D32E42E250E063E1D3
:1007C00071E08BE491E00E94550242E050E066E364
:1007D00071E08BE491E00E94550280910001883025
:1007E00021F5F701C491C7FD88C00E948800CC2381
:1007F00009F448C0C23009F4B5C0C13009F466C07C
:10080000C23009F4B6C0C11178C08DEB87BD4092EB
:100810004701509248016092490170924A018091CB
:100820006E00826080936E0068C08F3F09F065C0E3
:1008300080920001F701C491CF3F09F45EC0C1303E
:1008400039F140F0C23009F46BC0C7FD56C00E94B8
:100850008800D0CF14BC15BC84B5826084BD85B53A
:10086000816085BDF1018491E82FF0E0EE0FFF1F5C
:10087000E358FF4F85919491F801849180933E0154
:100880000E94880085B5887F856085BD8AE5BECFDA
:100890001092800010928100809181008860809386
:1008A000810080918100816080938100F1018491B9
:1008B000E82FF0E0EE0FFF1FE358FF4F8591949172
:1008C000F801849180933D010E948800809181000D
:1008D000887F836080938100B0928900A092880015
:1008E000409243015092440160924501709246014A
:1008F00080916F00826080936F000E94A90188E060
:100900000E94DF010E94A901C114D10409F455CF4E
:100910000E947001882309F450CF0E94000049CF43
:100920001092B0001092B1008091B000826080936C
:10093000B0008091B10081608093B100F101849199
:10094000E82FF0E0EE0FFF1FE358FF4F85919491E1
:1009500090933C0180933B01F801849180933A018C
:100960000E9488008091B10087608093B1008AE581
:1009700001C08DEB8093B30040923F015092400143
:100980006092410170924201809170008260809378
:100990007000B3CFEBE4F1E01382128288EE93E0B3
:1009A000A0E0B0E084839583A683B78385E091E0DF
:1009B0009183808385EC90E09587848784EC90E038
:1009C0009787868780EC90E0918B808B81EC90E01C
:1009D000938B828B82EC90E0958B848B86EC90E0FD
:1009E000978B868B118E128E138E148E0895EE0FB8
:0E09F000FF1F0590F491E02D0994F894FFCFBD
:1009FE00FF0000000003015502A4005001D500B312
:100A0E0000C70052756E6E696E6720506572697A06
:100A1E006F2042757A7A65722054656D706C6165CF
:0A0A2E0020436F6465000D0A00000C
:00000001FF
