:100000000C94CB000C94F3000C94F3000C94F300CC
:100010000C94F3000C94F3000C94F3000C94F30094
:100020000C9446050C94F3000C94F3000C94F3002C
:100030000C94F3000C94F3000C94F3000C94F30074
:100040000C94A4040C94F3000C9414050C94EE048A
:100050000C94F3000C94F3000C94F3000C94F30054
:100060000C94F3000C94F30017002860095802B0B8
:1000700004580258025802102D000000060026E025
:100080002070100E022A060E022602806E00510415
:10009000050026E02070100E022A060E020E020055
:1000A00041000000130026801180113002900630BC
:1000B000023002006E0000001E002638081C040EEC
:1000C000022A060E020E0200320000001C00262248
:1000D0000B220BEE026608EE02EE02806E000000BC
:1000E000190026F603BC050802BC050802D401006D
:1000F0004B0000001B00261F015D033E023E021F55
:10010000015D03A06E00000004002604010C03043E
:10011000011C0704010C03006E0000000B00258089
:100120000DC006B0011005B001B001008200000052
:1001300007002600238011300290063002300200B2
:100140006E004104000000080002010000030407E3
:100150000000000000000000000000002500280052
:100160002B0000000000240027002A0004040404DF
:100170000404040402020202020203030303030351
:10018000010204081020408001020408102001022E
:1001900004081020360611241FBECFEFD8E0DEBFC2
:1001A000CDBF22E0A0E3B1E001C01D92A13FB207A4
:1001B000E1F711E0A0E0B1E0ECEFFFE102C0059053
:1001C0000D92A033B107D9F710E0CBECD0E004C01A
:1001D0002197FE010E94F60FCA3CD107C9F70E9481
:1001E00072060C94FC0F0C9400002091E2023091F6
:1001F000E3022817390728F48091E0028160809398
:10020000E00208952091E4018091E10240E0281786
:1002100098F5422F41703091E701311121C0E22F52
:10022000F0E0E552FE4F838992E3899FF0011124AB
:10023000ACEEBFEF442311F0A4E1B0E06091E8011F
:100240007091E901CB01969587958E0F9F1F8A0FBC
:100250009B1F0E94E20F77277093E6016093E501F0
:100260008091E5019091E601009771F03F5F3817AA
:10027000190620F43093E701842F08951092E701C6
:100280002F5F2093E401F8CF42E0F6CF90E0FC012D
:10029000EC5BFE4F2491FC01E058FE4F3491FC01D1
:1002A000E459FE4FE491EE23C9F0222339F02330C4
:1002B00001F1A8F4213019F1223029F1F0E0EE0F1C
:1002C000FF1FE85AFE4FA591B4918FB7F894EC91B7
:1002D000611126C030953E233C938FBF089527308F
:1002E000A9F02830C9F0243049F7809180008F7D33
:1002F00003C0809180008F7780938000DFCF84B52A
:100300008F7784BDDBCF84B58F7DFBCF8091B0002C
:100310008F778093B000D2CF8091B0008F7DF9CFDE
:100320003E2BDACF3FB7F89480913501909136019A
:10033000A0913701B091380126B5A89B05C02F3F89
:1003400019F00196A11DB11D3FBFBA2FA92F982FFB
:100350008827BC01CD01620F711D811D911D42E0F6
:10036000660F771F881F991F4A95D1F70895AF929E
:10037000BF92CF92DF92EF92FF920F931F93CF9392
:10038000DF936C017B018B01040F151FEB015E01F4
:10039000AE18BF08C017D10759F06991D601ED9189
:1003A000FC910190F081E02DC6010995892B79F728
:1003B000C501DF91CF911F910F91FF90EF90DF90DA
:1003C000CF90BF90AF900895FC01538D448D252FA1
:1003D00030E0842F90E0821B930B541710F0CF96DF
:1003E000089501970895FC01918D828D981761F011
:1003F000A28DAE0FBF2FB11D5D968C91928D9F5F28
:100400009F73928F90E008958FEF9FEF0895FC0106
:10041000918D828D981731F0828DE80FF11D858DB9
:1004200090E008958FEF9FEF0895FC01918D228D4C
:10043000892F90E0805C9F4F821B91098F739927D1
:10044000089589E391E00E94150221E0892B09F4C7
:1004500020E0822F089580E090E0892B29F00E940F
:10046000210281110C9400000895FC01A48DA80FB5
:10047000B92FB11DA35ABF4F2C91848D90E00196E6
:100480008F739927848FA689B7892C93A089B18906
:100490008C91837080648C93938D848D981306C0A7
:1004A0000288F389E02D80818F7D80830895EF920B
:1004B000FF920F931F93CF93DF93EC0181E0888F1E
:1004C0009B8D8C8D98131AC0E889F989808185FFEE
:1004D00015C09FB7F894EE89FF896083E889F98990
:1004E00080818370806480839FBF81E090E0DF9192
:1004F000CF911F910F91FF90EF900895F62E0B8DE5
:1005000010E00F5F1F4F0F731127E02E8C8D8E119F
:100510000CC00FB607FCFACFE889F989808185FF06
:10052000F5CFCE010E943502F1CFEB8DEC0FFD2F00
:10053000F11DE35AFF4FF0829FB7F8940B8FEA89C1
:10054000FB8980818062CFCFCF93DF93EC01888DD0
:100550008823B9F0AA89BB89E889F9898C9185FD3E
:1005600003C0808186FD0DC00FB607FCF7CF8C91CC
:1005700085FFF2CF808185FFEDCFCE010E9435024D
:10058000E9CFDF91CF9108958F929F92AF92BF9262
:10059000CF92DF92EF92FF924B015C010E94920199
:1005A0006B017C0124E0C21AD108E108F1080E9425
:1005B00092016C197D098E099F09681579058A05D4
:1005C0009B05A8F3FF90EF90DF90CF90BF90AF9086
:1005D0009F908F90089542E3489F9001499F300D6E
:1005E00011242C5E3F4F7695679576956795CB01E4
:1005F000880F991F860F971F8217930750F485E085
:10060000869FA001879F500D112481E04217530758
:1006100008F480E0089542E3489F9001499F300D1F
:100620001124245131097695679576956795CB010C
:10063000880F991F860F971F8217930750F485E044
:10064000869FA001879F500D112481E04217530718
:1006500008F480E008954F925F926F927F929F928C
:10066000AF92BF92CF92DF92EF92FF920F931F93C0
:10067000CF93DF93182F5A01922EC62FD0E0C2518C
:10068000DE4F412C512C32014394C12CD12C7601E8
:100690001123F1F09920B1F08881B50190E00E941A
:1006A0000B03002369F1CC0CDD1CEE1CFF1C88231E
:1006B00011F06894C0F8440C551C661C771C11504E
:1006C0002296E6CF8981B50190E00E94EB02E9CF46
:1006D000C092BE02D092BF02E092C002F092C1026C
:1006E000DF91CF911F910F91FF90EF90DF90CF900E
:1006F000BF90AF909F907F906F905F904F900895C4
:100700008823C9F2C428D528E628F728D4CFCF9368
:10071000DF93EC01FC013396659174918091EF01B8
:1007200090E00E940B03882359F0FE0135966591F5
:1007300074918091F00190E0DF91CF910C94EB02E5
:1007400080E0DF91CF9108958AE190E09093D80105
:100750008093D70185E090E09093DA018093D901EE
:100760008091D60190E0FC01E058FE4F249184591D
:100770009E4FFC018491882399F090E0880F991F87
:10078000FC01EE59FE4FA591B491FC01E85AFE4FD1
:10079000859194918FB7F894EC91E22BEC938FBFF5
:1007A00008958091EF028F3F11F42D98089560E035
:1007B0000C944601882349F08091EF028F3F11F499
:1007C0002D9A089561E00C9446010C94D1038F9208
:1007D0009F92AF92BF92CF92DF92EF92FF92CF9310
:1007E0006C010E9492014B015C01F12CE12C88E02C
:1007F000C80ED11CE11CF11CC80CD91CEA1CFB1C46
:10080000C0E0F89461E08091D6010E944601E09139
:10081000D901F091DA01E230F10538F0EE0FFF1F57
:10082000EE0FFF1F35973197F1F760E08091D60109
:100830000E9446017894C11103C081E00E94DA034E
:100840008091D7019091D801880E991EA11CB11CEE
:100850000E9492016C157D058E059F0558F0CF9181
:10086000FF90EF90DF90CF90BF90AF909F908F90D0
:100870000C94D103C1E0681579058A059B0540F306
:10088000C0CF0E94A40380E093E20E94E70360ECE3
:1008900078E080E090E00E94C40280E392E00C9453
:1008A000E7030E94A40380EE90E20E94E70368E35E
:1008B00078E080E090E00E94C4028EE092E00C9428
:1008C000E703FC0101900020E9F73197AF01481BD5
:1008D000590BBC0189E391E00C94B701FF920F938F
:1008E0001F93CF93DF93CDB7DEB764970FB6F8941D
:1008F000DEBF0FBECDBF162FF42E44E150E0BC0189
:10090000CE0101960E94AF0F0889802F8071488523
:10091000598504FD02C04A855B85001F0027001F22
:1009200021E0811101C020E06F2D812F0E942B0357
:1009300064960FB6F894DEBF0FBECDBFDF91CF91A6
:100940001F910F91FF9008951F920F920FB60F9273
:1009500011242F933F938F939F93AF93BF938091D5
:10096000310190913201A0913301B0913401309165
:10097000300123E0230F2D3758F50196A11DB11D3D
:10098000209330018093310190933201A093330181
:10099000B09334018091350190913601A0913701D7
:1009A000B09138010196A11DB11D8093350190933E
:1009B0003601A0933701B0933801BF91AF919F9159
:1009C0008F913F912F910F900FBE0F901F90189510
:1009D00026E8230F0296A11DB11DD2CF1F920F92C0
:1009E0000FB60F9211242F933F934F935F936F9302
:1009F0007F938F939F93AF93BF93EF93FF9389E37D
:100A000091E00E943502FF91EF91BF91AF919F91CC
:100A10008F917F916F915F914F913F912F910F90A7
:100A20000FBE0F901F9018951F920F920FB60F9246
:100A300011242F938F939F93EF93FF93E09149019C
:100A4000F0914A018081E0914F01F091500182FDC7
:100A50001BC09081809152018F5F8F732091530151
:100A6000821741F0E0915201F0E0E75CFE4F958F74
:100A700080935201FF91EF919F918F912F910F9051
:100A80000FBE0F901F9018958081F4CF1F920F9288
:100A90000FB60F9211242F933F934F935F936F9351
:100AA0007F938F939F93AF93BF93CF93EF93FF93D6
:100AB000E091DD01F091DE01C0818091DF01C8236A
:100AC0008091E0019091E1012091E0013091E101FC
:100AD0002F3F3F4F29F001969093E1018093E00171
:100AE0002091DB01211115C0C1114BC0813A910544
:100AF00058F01092EA019093ED018093EC0181E0AF
:100B00008093EB018093DB011092E1011092E001F0
:100B100038C0213099F4CC23A1F1E091EB012E0FE4
:100B20002093EB01F0E0E552FE4F8F3F910519F065
:100B300010F08FEF90E0838B82E0E4CF223009F059
:100B400047C0E091EB01813A910510F4E73CA0F138
:100B5000E83C18F081E08093EA018091EC019091EB
:100B6000ED019093E3028093E202E093E10283E0DF
:100B70008093DB01E091E201F091E301309709F00D
:100B800009958091F002882329F081E0C11180E06D
:100B90000E94DA03FF91EF91CF91BF91AF919F91A6
:100BA0008F917F916F915F914F913F912F910F9016
:100BB0000FBE0F901F901895C111E3CF91E09E0FCB
:100BC0009093EB01F0E0E552FE4F838B81E09ACFEA
:100BD0002330B9F6C111D5CF97CFDF92EF92FF92B4
:100BE0000F931F93CF93DF93EC01D62E8A017901E7
:100BF000F0E090E080E030E0E0E0DE01AE0FB11D1B
:100C00002C91FF5F222339F0320F2E9F800D911D12
:100C100011241C92F0E03323B9F0DE1611F0F2300B
:100C200098F0232F2695820F911D632F70E00E946C
:100C3000E20FDE01A60FB11D3C93D8013C913111AA
:100C40000FC06C9390E080E0EF5FDE16B0F681E0BD
:100C5000DF91CF911F910F91FF90EF90DF9008955A
:100C6000D7013C91332369F380E0F2CFE9E3F1E06F
:100C70001382128288EE93E0A0E0B0E08483958333
:100C8000A683B78388E191E09183808385EC90E02F
:100C90009587848784EC90E09787868780EC90E046
:100CA000918B808B81EC90E0938B828B82EC90E037
:100CB000958B848B86EC90E0978B868B118E128EB1
:100CC000138E148E8FEF8093EF02EBEDF1E0118223
:100CD00081E0848389E290E093838283509810922C
:100CE000D6010895CF93DF93CDB7DEB7E9970FB65E
:100CF000F894DEBF0FBECDBF789484B5826084BD0A
:100D000084B5816084BD85B5826085BD85B581600F
:100D100085BD80916E00816080936E00109281008D
:100D20008091810082608093810080918100816048
:100D30008093810080918000816080938000809109
:100D4000B10084608093B1008091B0008160809395
:100D5000B00080917A00846080937A0080917A005C
:100D6000826080937A0080917A00816080937A001B
:100D700080917A00806880937A001092C100E0919F
:100D80004901F0914A0182E08083E0914501F091B0
:100D900046011082E0914701F09148019FEC908359
:100DA00010925101E0914D01F0914E0196E0908337
:100DB000E0914B01F0914C01908190619083E09122
:100DC0004B01F0914C01908198609083E0914B0130
:100DD000F0914C01908190689083E0914B01F091EB
:100DE0004C0190819F7D90838093DC0194E09093EF
:100DF000DF0129E230E03093DE012093DD015298DB
:100E00001092F0029FEF9093EF02259A8093B0002A
:100E10008093B10084E68093B3008093B400109275
:100E2000B2008091DB01833011F41092DB0184E089
:100E3000809370009E012F5F3F4F590190E2892EF1
:100E4000912C8091DB01833009F014C28091EA017A
:100E5000882309F463C080E48093E0021092B70213
:100E60001092B6021092BB021092BA021092B9020E
:100E70001092B8021092BE021092BF021092C002ED
:100E80001092C1021092DF021092DE028091E00205
:100E900086FDBCC11091E102812F8F7B843009F067
:100EA000BDC08091EF0160E073E290E00E940B030F
:100EB000882309F440C18091F00190E0143009F0DA
:100EC00048C060EC78E00E94EB02882309F433C14B
:100ED0008091F10160E372E090E00E940B038823AF
:100EE00009F429C181E08093E0028091E6029091AB
:100EF000E7029093B9028093B8028091E802909142
:100F0000E9029093BB028093BA028091E40290912F
:100F1000E5029093B7028093B60278C11092E00286
:100F20008091B6029091B7029093E5028093E4021B
:100F30008091BA029091BB029093E9028093E802FB
:100F40008091B8029091B9029093E7028093E602F3
:100F500085CF60E871E10E94EB02882309F4EBC0C1
:100F600043E060E280E391E00E946E042091BE02C3
:100F70009091BF026091C0028091C102462F50E063
:100F80005093BB024093BA02422F592F4E3E37E88E
:100F9000530709F523E030E03093B7022093B602FF
:100FA00090E09093B9028093B8029092DF02809211
:100FB000DE028AE795E00E94F5008091E00280FF62
:100FC00025C128E030E03093B7022093B60280625A
:100FD0008093E0021BC19095291310C030E030933C
:100FE000B9022093B802982F909569130CC087E03E
:100FF00090E09093B7028093B602D7CF5093B90296
:101000004093B802F0CF29E030E03093B70220934C
:10101000B6026093BA028093BB02C7CF143609F0C0
:101020008AC08CE191E00E948703882309F483C081
:1010300043E060E18CE191E00E946E04D090BE023A
:101040000D2D1091BF02BAE0EB2EF12C023040E2E0
:101050001407F9F0ADE0EA2EF12C0A3A8AE51807F8
:10106000C1F0FCE0EF2EF12C043592E3190789F072
:10107000EEE0EE2EF12C0330A1E01A0751F08FE0E4
:10108000E82EF12C0332BBEC1B0719F07BE0E72EB6
:10109000F12CD1268D2D82958F70D82643E260E207
:1010A0008CE191E00E946E048091BE029091BF029B
:1010B000A091C002B091C1029C0164E036952795D1
:1010C0006A95E1F73093B9022093B8022A2F30E0F5
:1010D0003093BB022093BA02282F2A2729273D2DBF
:1010E0003F70482F4F70341719F034E03093E0020E
:1010F000EBE0EE16F10449F43091E00230613093F8
:10110000E0021093BD020093BC022B1729F08091DE
:10111000E00284608093E00280E390E09093DF023D
:101120008093DE02F092B702E092B6028AE397E083
:101130000E94F5006BC08091E102803209F0AAC0E4
:101140008091EF018A3008F0A5C041E06FE088E0AF
:1011500091E00E946E048091BE029091BF02A09126
:10116000C002B091C1029C012F7133273093B902A4
:101170002093B80255E0B695A795979587955A950F
:10118000D1F7392F3370AC0155275093BB024093F0
:10119000BA024091E2025091E3024536544008F011
:1011A00076C02091E00222602093E0022091EE02BE
:1011B0002F5F2093EE0220FF19C0213019F021E0AB
:1011C0002093E0023091E8024091E902282F209517
:1011D000231729F02091E00224602093E00230934D
:1011E000BA024093BB02392F3095337086E190E00C
:1011F000311102C084E090E09093B7028093B60270
:101200008FE090E09093DF028093DE0286E291E02F
:101210000E9461044091BA025091BB0270E060E00C
:1012200019A2CE0181968A019B010F7011272227F6
:10123000332724E076956795579547952A95D1F7FA
:101240000A300CF08AC6005DFC010293CF01411503
:1012500051056105710539F7EF2B11F00E9461040A
:101260008DE291E00E9461048091DB01833011F4F2
:101270001092DB0180E090E0892B09F4E2CD0E941E
:101280002102882309F4DACD0E940000D7CD109204
:10129000EE02ACCF88E690E00E9487039091E102D5
:1012A000882309F445C09A3129F09A3219F0903216
:1012B00009F03EC0892F90E0BC016150710977FDB3
:1012C000BC017595679543E088E690E00E946E0446
:1012D0008091BE029091BF02A091C002B091C10264
:1012E0009C012F7733273093BB022093BA0247E04B
:1012F000B695A795979587954A95D1F79093B9029A
:101300008093B8022091E10230E0C901019797FD76
:10131000C901959587959093DF028093DE0287E15E
:1013200090E09093B7028093B60288E292E000CFFB
:1013300081E08093E40129E733E03093E9012093D1
:10134000E8011092E7019E509B3108F0C1C08091E6
:10135000EF018D3208F0BCC00E940201813009F01B
:10136000B7C000E0C12CD12C760110E09091E401CF
:101370008091E1029817C0F50E940201782E0E9428
:10138000020171100AC0813091F4CC0CDD1CEE1CFE
:10139000FF1C6894C0F81F5FE9CF31E0731207C0EB
:1013A000811105C0CC0CDD1CEE1CFF1CF4CF1730E6
:1013B00009F08EC08091E401E82FF0E0E552FE4F85
:1013C0009389963340F39091E7019E5F9093E701F4
:1013D0002091E5013091E6019217130618F08F5F16
:1013E0008093E40101E0D7CFC092BE02D092BF0249
:1013F000E092C002F092C102C601A6E096958795E0
:10140000AA95E1F7212F30E00023D9F121503109CD
:101410003093DF022093DE0296012F73332730933F
:10142000BD022093BC028F7399279093BB028093D7
:10143000BA02B701A601FCE07695679557954795E6
:10144000FA95D1F74F7155275093B9024093B802DE
:10145000E2FC06C0805C9F4F9093BB028093BA026F
:1014600080E98093E002E1FE03C088E98093E00216
:101470008DE190E09093B7028093B6028AED98E0F8
:1014800057CE3093DF022093DE022C2D2F7330E0F5
:101490003093BB022093BA028F7199279093B902BF
:1014A0008093B802C60188279071892B31F4205CA3
:1014B0003F4F3093BB022093BA0280E88093E00252
:1014C000D3FE03C088E88093E00280E190E0D2CFB1
:1014D0008091E1028A518F3208F0A5C08091EF011E
:1014E00068E67AE090E00E940B03882309F49BC031
:1014F0008091F00168E773E090E00E94EB0288239E
:1015000009F491C083E08093E4018CEB91E0909327
:10151000E9018093E8011092E7010E940201813005
:1015200009F081C00E94020181117DC0C12CD12C23
:10153000760110E09091E4018091E102981730F576
:101540000E940201082F0E940201133049F408137F
:101550006AC00E940201782E0E940201781263C0C4
:10156000013051F481115FC0CC0CDD1CEE1CFF1C5E
:101570006894C0F81F5FDECF011155C0813009F0BB
:1015800052C0CC0CDD1CEE1CFF1CF4CF812F90E070
:101590009093DF028093DE02C092BE02D092BF021F
:1015A000E092C002F092C1022C2D30E08D2D90E02F
:1015B000133200F540E84093E0023093BB022093E1
:1015C000BA029093B9028093B802E0FE03C088E8A3
:1015D0008093E002153128F08091E00280618093D1
:1015E000E00281E190E09093B7028093B60283E736
:1015F0009AE09ECD40E94093E0023093BB022093F5
:10160000BA029093B9028093B802C7019F73909376
:10161000BD028093BC02F7FE03C088E98093E0021C
:1016200082E190E0E0CF1091E1021C3319F0143018
:1016300009F099C08091EF0160EE70E290E00E94A5
:101640000B03882309F48FC01430A1F50091E40244
:101650001091E5020630110509F0DBC08091F00120
:1016600068E378E090E00E94EB02882309F4D1C09F
:101670008091F1016EE072E090E00E940B038823FC
:1016800009F4C7C081E88093E0028091E60290915E
:10169000E7029093B9028093B8028091E80290919A
:1016A000E9029093BB028093BA021093B7020093B1
:1016B000B602ACCD8091F00160E770E190E00E944D
:1016C000EB02882309F44FC043E06CE18CE790E023
:1016D0000E946E0480E88093E0028091BE029091A7
:1016E000BF02A091C002B091C1028C019D0144E0F3
:1016F00036952795179507954A95D1F7A801109328
:10170000BB020093BA028C019D0164E136952795D6
:10171000179507956A95D1F71093B9020093B8020F
:1017200024E030E060E0742F7F70670F04E056958E
:1017300047950A95E1F721503109A9F786278F705F
:101740009927AA27BB27892B8A2B8B2B19F084E892
:101750008093E00286E090E09093B7028093B60217
:101760008CE190E04FCD123271F1143209F051C08A
:1017700080E990E00E948703882309F44AC043E08F
:1017800060E180E990E00E946E048091BE02909139
:10179000BF02A091C002B091C102492F5A2F6B2FF6
:1017A00077275093BB024093BA0299279093B902CE
:1017B0008093B80280E190E09093DF028093DE0294
:1017C00085E090E0A6CB0091E4021091E50205309F
:1017D000110509F01BCD8091E2029091E3028C3E4D
:1017E0009C4508F013CD8091EF016EE072E090E02F
:1017F0000E940B03882309F409CD80910F026EE04B
:1018000072E090E00E940B03882309F4FFCC81E092
:101810003ACF8091E102982F9F7D943419F0863061
:1018200009F081C084EA90E00E948703882309F4CC
:101830007AC08091E4029091E50284319105C1F46F
:101840002091E1022630A1F421E22093E0022091D0
:10185000E6023091E7023093B9022093B80220915A
:10186000E8023091E9023093BB022093BA0251CBD7
:1018700043E060E284EA90E00E946E049091BE0230
:101880008091BF021091C0024091C1029C0130932F
:10189000B8022093B9022091E102042F009524366A
:1018A00039F543E460E184EA90E00E946E0480919F
:1018B000BE029091BF02101731F09095981719F061
:1018C00094E09093E002982F812F9093BB02809335
:1018D000BA0280E390E09093DF028093DE0285E11C
:1018E00090E09093B7028093B6028EEB9AE020CC02
:1018F000101314C0212F30E03093BB022093BA02A2
:10190000891305C090E09093B9028093B802909239
:10191000DF028092DE0283E190E0E3CF1093BA020F
:101920004093BB02EDCF8091E102843269F588EBF0
:1019300090E00E948703882339F143E060E188EB5F
:1019400090E00E946E041091BE028091BF028095CB
:10195000181719F084E08093E0028DE692E00E946F
:10196000F500812F90E09093BB028093BA02109211
:10197000B9021092B80280E190E09093DF02809368
:10198000DE028EE190E0C5CA8091E1028434B1F4B8
:101990008CEC90E00E948703882381F043E060E2B2
:1019A0008CEC90E00E946E0480E88093E0029092BC
:1019B000DF028092DE028CE190E0ABCA8091EF0101
:1019C000A2E38A9FC0011124835691098C399105A5
:1019D00008F068C08091F00162E074E090E00E943D
:1019E000EB02882309F45EC08091E102843209F0A1
:1019F00059C000910F01802F8071409107015091D3
:101A0000080104FD04C04091090150910A01001F22
:101A10000027001F21E0811101C020E063E080E188
:101A20000E942B0380E88093E0029091BE02809197
:101A3000BF02292F382F482F42954F708F70A4E096
:101A400036952795AA95E1F72F70392F3F709FE0C3
:101A5000942798279227391719F094E89093E00279
:101A60006091E2027091E302683F714128F4909125
:101A7000E00292609093E0024093B8021092B902A3
:101A8000E0E18E9FC0011124822B9093BB028093D2
:101A9000BA0280E190E09093DF028093DE028AE157
:101AA00090E037CA80EE90E00E948703882371F1AE
:101AB0008091E102843251F543E060E180EE90E0F4
:101AC0000E946E048091110268E072E090E00E9432
:101AD0000B038823D9F08091BE029091BF02982712
:101AE0009F3FA1F490E09093BB028093BA0280E103
:101AF00090E09093DF028093DE0289E190E0909382
:101B0000B7028093B60288ED94E012CB8091E10297
:101B1000803709F04FC041E068E084EF90E00E9418
:101B20006E048091BE029091BF02A091C002B0915C
:101B3000C102892B8A2B8B2BE9F541E16FE184EF00
:101B400090E00E946E04C090BE02D090BF02E09070
:101B5000C002F090C1024FE461E184EF90E00E9486
:101B60006E049091BF028091C0028927982789272F
:101B70009093BB028093BA02C092BE02D092BF0281
:101B8000E092C002F092C102D092B902C092B802B3
:101B9000F092BD02E092BC028BE190E09093B7021C
:101BA0008093B60288E390E09093DF028093DE0298
:101BB00080E80ECA8091E1028F7B8430F1F580913C
:101BC000EF0160E073E290E00E940B038823A9F12B
:101BD0008091F00160E871E190E00E94EB028823BF
:101BE00061F143E060E280E391E00E946E04809145
:101BF000BE029091BF023091C0022091C102909527
:101C000089131BC0922F90959317B9F04FE150E0C4
:101C10005093B7024093B60290E09093B90280933C
:101C2000B802C9019093BA028093BB029092DF027E
:101C30008092DE028AE795E07BCA8091E1028231E0
:101C400008F438C192E3D5011D929A95E9F743E073
:101C500060E08250990B242F30E02817390794F464
:101C600025523E4FF9012389223308F023C1F501A3
:101C7000E20FF11D30813F5F3083621708F4622F5D
:101C80004E5FE9CF1EAA1DAA9E012B5C3F4FAE01FD
:101C90004A5C5F4FC5010E94ED05882309F40AC123
:101CA00082E3D5011D928A95E9F72091E102225045
:101CB000330B44E060E0842F90E08217930794F4A4
:101CC00085529E4FFC018389823308F0F3C0F501F1
:101CD000E80FF11D90819F5F9083681708F4682FCB
:101CE0004E5FE9CF1CAA1BAA9E012D5C3F4FAE019F
:101CF0004C5C5F4FC5010E94ED05882309F4DAC0F2
:101D00008091E10286951FEF180FEBA8EE2011F0ED
:101D10001EEF180F212F30E03093DF022093DE02F8
:101D2000C901019797FD4F969C01F5E035952795E0
:101D3000FA95E1F738AF2FAB3FA939AFCDA8C11065
:101D400003C0EE2009F4B6C04CA882E3489E2001EF
:101D500011246EA8689E30011124C89E60011124D0
:101D6000E89E70011124E3E02E2E312C812F1132D8
:101D700008F080E29BA9992309F47CC0A2E0B0E0BE
:101D8000B093B702A093B60200E020E0A701622D55
:101D90000E942B038091BE029091BF02A091C002CD
:101DA000B091C10224E0329EF0011124E253FD4FB4
:101DB00080839183A283B38330E4230E1052339443
:101DC00049AD431598F62091E2023091E302203D9F
:101DD0003740F0F4EFA9F8ADEE0FFF1FEE0FFF1F35
:101DE000E253FD4F00811181228133814091EA024B
:101DF0005091EB026091EC027091ED02041715070F
:101E00002607370729F42091E00221602093E002A1
:101E10008093EA029093EB02A093EC02B093ED0260
:101E20002091EF0192E3299F900111243093C30286
:101E30002093C2028091F001899FC00111249093E8
:101E4000C5028093C4027092CB026092CA02509283
:101E5000CD024092CC02C114D10419F1E114F10475
:101E600099F4D092C702C092C6025092C902409221
:101E7000C802CCC9E1E0F0E0F093B702E093B6020B
:101E800000E021E0A60183CFF092C902E092C802EF
:101E90007092C7026092C602D092CB02C092CA0270
:101EA000B5C97092C7026092C602F092C902E09270
:101EB000C802ACC9E091E102E63008F4A7C911E01C
:101EC00025EC3DE94CE151E8F0E00AE0612F70E0DB
:101ED000CB0102968E179F077CF585529E4FDC0141
:101EE00053968C9165527E4FDB0153966C91809F87
:101EF0007001112498E0699FD0011124EA16FB06B5
:101F0000C8F0609FB0011124A8E08A9FC00111248D
:101F1000FF24F3946817790710F462E0F62E63E962
:101F200071E080E091E00E94B80F9B01AC012F2589
:101F30001F5FCCCFF12CF3CF2093BE023093BF02B2
:101F40004093C0025093C1029092DF028092DE0261
:101F50001092B7021092B60259C9095C75C9FB010B
:101F6000DC0102C005900D9241505040D8F7089511
:101F7000DB018F939F930E94C80FBF91AF91A29FE7
:101F8000800D911DA39F900DB29F900D1124089577
:101F90000E94D30FA59F900DB49F900DA49F800D1C
:101FA000911D11240895A29FB001B39FC001A39F6A
:101FB000700D811D1124911DB29F700D811D112482
:101FC000911D0895AA1BBB1B51E107C0AA1FBB1F8F
:101FD000A617B70710F0A61BB70B881F991F5A95B5
:101FE000A9F780959095BC01CD010895EE0FFF1FD4
:0C1FF0000590F491E02D0994F894FFCFC7
:101FFC001A00269E0002049E0029029E0007010082
:10200C006E000000000000005702B701E401A402BA
:10201C001502F3010702434D44203078000D0A00ED
:00000001FF
