:100000000C9458000C9480000C9480000C94800098
:100010000C9480000C9480000C9480000C94800060
:100020000C9480000C9480000C9480000C94800050
:100030000C9480000C9480000C9480000C94800040
:100040000C9496050C9480000C9406060C94E00524
:100050000C9480000C9480000C9480000C94800020
:100060000C9438060C948000000000002500280045
:100070002B00040404040404040402020202020229
:10008000030303030303010204081020408001025C
:1000900004081020010204081020000000080002DB
:1000A00001000003040700000000000000005707E3
:1000B00011241FBECFEFD8E0DEBFCDBF11E0A0E01E
:1000C000B1E0E4E8F1E102C005900D92A434B1077B
:1000D000D9F722E0A4E4B1E001C01D92A03BB20731
:1000E000E1F710E0C8E5D0E004C02197FE010E94CE
:1000F000BA08C735D107C9F70E9490070C94C00809
:100100000C94000090E0FC01E656FF4F2491FC01A6
:10011000EA57FF4F3491FC01EE58FF4FE491EE2374
:10012000C9F0222339F0233001F1A8F4213019F16C
:10013000223029F1F0E0EE0FFF1FE859FF4FA591A3
:10014000B4918FB7F894EC91611126C030953E239D
:100150003C938FBF08952730A9F02830C9F0243090
:1001600049F7809180008F7D03C0809180008F7758
:1001700080938000DFCF84B58F7784BDDBCF84B5DB
:100180008F7DFBCF8091B0008F778093B000D2CF6E
:100190008091B0008F7DF9CF3E2BDACF3FB7F89436
:1001A0008091B3019091B401A091B501B091B601D5
:1001B00026B5A89B05C02F3F19F00196A11DB11DC2
:1001C0003FBFBA2FA92F982F8827BC01CD01620FFE
:1001D000711D811D911D42E0660F771F881F991FB9
:1001E0004A95D1F7089508950895AF92BF92CF929E
:1001F000DF92EF92FF920F931F93CF93DF936C01E7
:100200007B018B01040F151FEB015E01AE18BF08C7
:10021000C017D10759F06991D601ED91FC91019079
:10022000F081E02DC6010995892B79F7C501DF9191
:10023000CF911F910F91FF90EF90DF90CF90BF90E3
:10024000AF900895FC01538D448D252F30E0842F0D
:1002500090E0821B930B541710F0CF9608950197EE
:100260000895FC01918D828D981761F0A28DAE0FDB
:10027000BF2FB11D5D968C91928D9F5F9F73928F62
:1002800090E008958FEF9FEF0895FC01918D828D8E
:10029000981731F0828DE80FF11D858D90E008955B
:1002A0008FEF9FEF0895FC01918D228D892F90E0B3
:1002B000805C9F4F821B91098F739927089587E077
:1002C00092E00E94530121E0892B09F420E0822F63
:1002D000089580E090E0892B29F00E945F01811150
:1002E0000C9400000895FC01A48DA80FB92FB11D36
:1002F000A35ABF4F2C91848D90E001968F7399275C
:10030000848FA689B7892C93A089B1898C91837039
:1003100080648C93938D848D981306C00288F38932
:10032000E02D80818F7D80830895EF92FF920F935F
:100330001F93CF93DF93EC0181E0888F9B8D8C8D91
:1003400098131AC0E889F989808185FF15C09FB785
:10035000F894EE89FF896083E889F9898081837048
:10036000806480839FBF81E090E0DF91CF911F91F7
:100370000F91FF90EF900895F62E0B8D10E00F5F18
:100380001F4F0F731127E02E8C8D8E110CC00FB6EE
:1003900007FCFACFE889F989808185FFF5CFCE0186
:1003A0000E947301F1CFEB8DEC0FFD2FF11DE35A8D
:1003B000FF4FF0829FB7F8940B8FEA89FB89808109
:1003C0008062CFCFCF93DF93EC01888D8823B9F083
:1003D000AA89BB89E889F9898C9185FD03C0808150
:1003E00086FD0DC00FB607FCF7CF8C9185FFF2CFCD
:1003F000808185FFEDCFCE010E947301E9CFDF91AF
:10040000CF91089520918501260F3327331F213284
:100410003105ECF42091DD01FC0190E080E0243016
:1004200069F082E00895A09185012191AC014B59BA
:100430005E4FA40FB52FB11D2C930196861798F32C
:1004400080918501680F6093850180E0089581E0C7
:1004500008951092DD0181E08093DC011092B701D4
:1004600061E082E10E94820061E083E10E948200FB
:10047000E9EBF0E080818E7F808380818D7F8083B7
:1004800088E48093B80085E48093BC000895CF93FE
:10049000DF9391E0909364018823B9F0C091B80094
:1004A000D091BA008091BC008A7B8093BC0060E050
:1004B00082E10E94820060E083E10E9482000E944B
:1004C0002902D093BA00C093B800DF91CF9108956C
:1004D0008F929F92AF92BF92CF92DF92EF92FF9254
:1004E0000F931F93CF93DF93D0910602D13208F080
:1004F000D7C0182FC09105020E94CE006B017C016D
:100500008091DD0181116BC082E08093DD01109349
:10051000DC018FEF8093DB011092DA01D093D901D7
:10052000A5EEB1E0E9EBF1E080E0D81391C01092C4
:10053000B8018091B801CC0FC82BC093B80180914D
:10054000B701813009F088C01092B7010E94CE0037
:100550006B017C018091B8018093BB008091DF0129
:100560009091E001A091E101B091E201892B8A2BE9
:100570008B2BA1F00E94CE000091DF011091E001D1
:100580002091E1013091E2016C197D098E099F09EA
:10059000061717072807390708F442C08091BC00E6
:1005A00083FDD8CF85EC8093BC000E94CE006B0108
:1005B0007C018091DD01823009F450C08091DB0123
:1005C0008F3F09F46FC08091DB01803209F46CC069
:1005D0008091DB01803309F469C084E026C08091FA
:1005E000DF019091E001A091E101B091E201892B3E
:1005F0008A2B8B2B09F484CF0E94CE008090DF01E0
:100600009090E001A090E101B090E2016C197D09A9
:100610008E099F0986169706A806B90608F070CFBE
:100620008091DE010E94470285E01092E401109261
:1006300006021092E301DF91CF911F910F91FF907D
:10064000EF90DF90CF90BF90AF909F908F900895E4
:100650009D9191938F5F69CF85EEA5CF8091DF014A
:100660009091E001A091E101B091E201892B8A2BE8
:100670008B2B09F49ECF0E94CE000091DF011091D8
:10068000E0012091E1013091E2016C197D098E09B0
:100690009F09061717072807390708F08ACFC0CF28
:1006A00081E0C3CF80E0C1CF82E0BFCF83E0BDCF88
:1006B0000895E091AD018091AC01E81730F4F0E0CD
:1006C000EC5BFE4F808190E008958FEF9FEF0895DF
:1006D0009091AD018091AC012FEF3FEF981748F456
:1006E000E92FF0E0EC5BFE4F208130E09F5F9093BC
:1006F000AD01C90108958091AC019091AD01891BB4
:10070000990B0895CF92DF92EF92FF920F931F9370
:10071000CF93DF937C01CB018A012091E301222357
:1007200089F0EB016B01C40ED51ECC15DD0569F017
:100730006991D701ED91FC910190F081E02DC70105
:100740000995F3CF642F0E940202C801DF91CF9177
:100750001F910F91FF90EF90DF90CF900895CF936E
:10076000DF931F92CDB7DEB769832091E301222387
:10077000F9F020910602203258F021E030E0FC012F
:100780003383228390E080E00F90DF91CF91089532
:100790008091E401E82FF0E0EB51FE4F99819083C6
:1007A0008F5F8093E4018093060281E090E0ECCFBC
:1007B00061E0CE0101960E940202F7CF90E080E056
:1007C0000895FC0101900020E9F73197AF01481B23
:1007D000590BBC0187E092E00C94F5008F929F9238
:1007E000AF92BF920F931F93CF93DF93CDB7DEB736
:1007F000A1970FB6F894DEBF0FBECDBF19A242304D
:1008000008F44AE08E010F5D1F4F842E912CB12C0D
:10081000A12CA50194010E949808E62FB901CA01F4
:10082000EA30F4F4E05DD801EE938D01232B242B04
:10083000252B79F790E080E0109719F0CD010E9408
:10084000E103A1960FB6F894DEBF0FBECDBFDF91D6
:10085000CF911F910F91BF90AF909F908F9008956F
:10086000E95CE1CFEF92FF920F931F93CF93DF9359
:10087000F62E172F042F0E94E103CF2DD12F0C0F3E
:100880001D2F111DC017D10799F07E01888180317D
:1008900028F460E387E092E00E9495012196F70139
:1008A000608170E090E080E040E10E94EE03EACFDA
:1008B00084E291E0DF91CF911F910F91FF90EF9033
:1008C0000C94E1034F925F926F927F92BF92CF920E
:1008D000DF92EF92FF920F931F93CF93DF93D62F68
:1008E000B72E142F91E09093E30198E690930502C0
:1008F0001092E40110920602682F84EA92E00E94AE
:10090000AF0380E00E946802C82F8111C7C00E9417
:10091000CE006B017C018091DD01811163C081E01B
:100920008093DD018093DC019FEF9093DB011092B7
:10093000DA01910F9093D9018093B8018091B801A9
:10094000806D8093B8018091B701813009F082C039
:100950001092B7010E94CE006B017C018091B8011A
:100960008093BB008091DF019091E001A091E101B3
:10097000B091E201892B8A2B8B2BA1F00E94CE0033
:100980004090DF015090E0016090E1017090E20141
:100990006C197D098E099F09461657066806790667
:1009A00008F441C08091BC0083FDD8CF85EC8093D2
:1009B000BC000E94CE006B017C018091DD01813082
:1009C00009F44AC08091DA01811710F41091DA011C
:1009D000A9EBB1E0E4E4F1E0C11749F18D91819315
:1009E000CF5FFACF8091DF019091E001A091E1010A
:1009F000B091E201892B8A2B8B2B09F48CCF0E94BA
:100A0000CE004090DF015090E0016090E1017090D5
:100A1000E2016C197D098E099F0946165706680682
:100A2000790608F078CF8091DE010E94470210928B
:100A3000AD01C093AC01FD2E0D2F1B2D802F8F1902
:100A40008C1768F584EA92E00E946803F8018193AC
:100A50008F01F4CF85EEABCF8091DF019091E00163
:100A6000A091E101B091E201892B8A2B8B2B09F433
:100A7000A4CF0E94CE004090DF015090E001609032
:100A8000E1017090E2016C197D098E099F094616FB
:100A900057066806790608F090CFC5CFC0E08C2FC6
:100AA000DF91CF911F910F91FF90EF90DF90CF904A
:100AB000BF907F906F905F904F90089585ED8093E9
:100AC000BC008091DF019091E001A091E101B09123
:100AD000E2010796A11DB11D23E0B695A795979554
:100AE00087952A95D1F72091BC0024FD03C0109270
:100AF000DD0108954091DF015091E0016091E10135
:100B00007091E201452B462B472B69F30097A10515
:100B1000B10541F02AE22A95F1F700C00197A10939
:100B2000B109E1CF8091DE010C9447021F920F9230
:100B30000FB60F9211242F933F938F939F93AF93F0
:100B4000BF938091AF019091B001A091B101B0919C
:100B5000B2013091AE0123E0230F2D3758F50196F5
:100B6000A11DB11D2093AE018093AF019093B00100
:100B7000A093B101B093B2018091B3019091B401FF
:100B8000A091B501B091B6010196A11DB11D809350
:100B9000B3019093B401A093B501B093B601BF9196
:100BA000AF919F918F913F912F910F900FBE0F901A
:100BB0001F90189526E8230F0296A11DB11DD2CFD4
:100BC0001F920F920FB60F9211242F933F934F93C2
:100BD0005F936F937F938F939F93AF93BF93EF93A5
:100BE000FF9387E092E00E947301FF91EF91BF9124
:100BF000AF919F918F917F916F915F914F913F91B5
:100C00002F910F900FBE0F901F9018951F920F926B
:100C10000FB60F9211242F938F939F93EF93FF930F
:100C2000E0911702F09118028081E0911D02F0918D
:100C30001E0282FD1BC09081809120028F5F8F7306
:100C400020912102821741F0E0912002F0E0E95F5B
:100C5000FD4F958F80932002FF91EF919F918F918F
:100C60002F910F900FBE0F901F9018958081F4CF99
:100C70001F920F920FB60F9211242F933F934F9311
:100C80005F936F937F938F939F93AF93BF93EF93F4
:100C9000FF938091B900887F803609F44AC0F0F54F
:100CA000883209F4A7C018F5803109F49BC0B8F464
:100CB000882309F4F9C0883009F494C0FF91EF91BA
:100CC000BF91AF919F918F917F916F915F914F9164
:100CD0003F912F910F900FBE0F901F901895883164
:100CE00009F488C0803251F78093DB0114C080344E
:100CF00009F49DC040F48033B9F38833F9F680934A
:100D0000DB0185ECB0C0803509F485C0883509F475
:100D100096C0883499F60E945E05D0CF883909F4D0
:100D20008CC038F5883729F050F4883611F08037B8
:100D300029F683E08093DD011092A70157C088381F
:100D400009F47BC0803919F0803809F0B7CF809161
:100D5000A701803208F071C0E091A70181E08E0FF9
:100D60008093A7018091BB00F0E0E957FE4F80839C
:100D70003DC0803B39F0E0F4803A09F479C0883A0C
:100D800009F09CCF84E08093DD01109286011092DF
:100D90008501E091AA01F091AB010995809185014F
:100DA00081110FC081E0809385011092650109C017
:100DB000803C09F4A6CF883C09F4A3CF883B09F016
:100DC0007DCFE091860181E08E0F80938601F0E077
:100DD000EB59FE4F80818093BB00909186018091FA
:100DE000850129C08091B8018093BB0085EC809378
:100DF000BC0064CF9091DA018091D901981758F521
:100E0000E091DA0181E08E0F8093DA01F0E0E7549F
:100E1000FE4F8081E9CFE091DA0181E08E0F80936F
:100E2000DA018091BB00F0E0E754FE4F808390919F
:100E3000DA018091D9019817C8F285E8D8CFE091FE
:100E4000DA0181E08E0F8093DA018091BB00F0E03F
:100E5000E754FE4F80838091DC0181115CCF81E0FB
:100E60008093B70184EA8093BC001092DD0126CF05
:100E700085EC8093BC001092DD018091A701803247
:100E800030F4E091A701F0E0E957FE4F1082609145
:100E9000A70170E0E091A801F091A90187E891E035
:100EA00009951092A7010ACF1092DB0134CFE7E039
:100EB000F2E01382128288EE93E0A0E0B0E0848337
:100EC0009583A683B78324E031E03183208325EC2A
:100ED00030E03587248724EC30E03787268720EC04
:100EE00030E0318B208B21EC30E0338B228B22ECF5
:100EF00030E0358B248B26EC30E0378B268B118E3F
:100F0000128E138E148EE4EAF2E01382128284832E
:100F10009583A683B78386E191E0918380830895CA
:100F2000CF93DF9300D000D000D0CDB7DEB7789458
:100F300084B5826084BD84B5816084BD85B58260DE
:100F400085BD85B5816085BD80916E00816080938F
:100F50006E001092810080918100826080938100F8
:100F60008091810081608093810080918000816008
:100F7000809380008091B10084608093B100809163
:100F8000B00081608093B00080917A00846080938B
:100F90007A0080917A00826080937A0080917A0052
:100FA000816080937A0080917A00806880937A00D3
:100FB0001092C100E0911702F091180282E0808344
:100FC000E0911302F09114021082E0911502F09169
:100FD000160280E1808310921F02E0911B02F091C3
:100FE0001C0286E08083E0911902F0911A02808150
:100FF00080618083E0911902F0911A0280818860FB
:101000008083E0911902F0911A02808180688083C8
:10101000E0911902F0911A0280818F7D80831092F5
:10102000AD011092AC011092E401109206020E94F0
:10103000290283EF90E09093AB018093AA0184EFA3
:1010400090E09093A9018093A80141E0BE016F5FF9
:101050007F4F85E70E946204482FBE016F5F7F4F7C
:1010600087E291E00E94320446E0BE016F5F7F4F4D
:101070008BE30E946204482FBE016F5F7F4F8CE2BA
:1010800091E00E94320411E01093E30188E680931E
:1010900005021092E401109206026BE684EA92E0E7
:1010A0000E94AF036AE584EA92E00E94AF0381E008
:1010B0000E94680241E0BE016F5F7F4F8BE60E9495
:1010C0006204482FBE016F5F7F4F81E391E00E9471
:1010D00032041093E30180E5809305021092E4014D
:1010E0001092060287E391E00E94E10381E00E94F2
:1010F0006802682F70E090E080E04AE00E94EE0312
:1011000084E291E00E94E1038FE391E00E94E10319
:1011100084E291E00E94E10300E010E00115110576
:10112000E9F30E945F018823C9F30E940000F6CF13
:10113000A1E21A2EAA1BBB1BFD010DC0AA1FBB1FDB
:10114000EE1FFF1FA217B307E407F50720F0A21B4D
:10115000B30BE40BF50B661F771F881F991F1A94BA
:1011600069F760957095809590959B01AC01BD01E4
:10117000CF010895EE0FFF1F0590F491E02D099423
:04118000F894FFCF11
:10118400000000009501F5002201E2015301310144
:10119400450100000000AF038203DE0358037B0314
:1011A400680359030D0A0057484F3D004143433D2E
:1011B400004241434B3D00414253454E543D00449F
:0411C4004F4E450045
:00000001FF
