:100000000C94E0000C9408010C9408010C94080175
:100010000C9408010C9408010C9408010C947406CB
:100020000C9408010C9408010C9408010C9408012C
:100030000C9408010C9408010C9408010C9408011C
:100040000C942A060C9408010C941C070C94F606D8
:100050000C9408010C9408010C9408010C940801FC
:100060000C9408010C94080100407A10F35A00A087
:10007000724E18090010A5D4E80000E87648170071
:1000800000E40B54020000CA9A3B000000E1F505B1
:10009000000080969800000040420F000000A086FB
:1000A00001000000102700000000E803000000002D
:1000B0006400000000000A000000000001000000D1
:1000C00000002C76D888DC674F0823DFC1DFAE59EB
:1000D000E1B1B796E5E3E453C63AE651997696E87E
:1000E000E6C28426EB898C9B62ED407C6FFCEFBC02
:1000F0009C9F40F2BAA56FA5F490055A2AF75C932D
:100100006B6CF9676DC11BFCE0E40D47FEF520E662
:10011000B500D0ED902E0300943577050080841E45
:10012000080000204E0A000000C80C333333330FA0
:10013000986E12831141EF8D2114893BE65516CF3D
:10014000FEE6DB18D1844B381BF77C1D901DA4BB49
:10015000E424203284725E228100C9F124ECA1E5FE
:100160003D2700000000240027002A0000000000B6
:1001700023002600290000000008000201000003FF
:100180000407000000000000000001020408102025
:100190004080010204081020010204081020000021
:1001A0000000250028002B000404040404040404B7
:1001B00002020202020203030303030302004E07CA
:1001C00011241FBECFEFD8E0DEBFCDBF25E0A0E3F6
:1001D000B3E001C01D92A033B207E1F713E0A0E045
:1001E000B1E0ECEEF6E202C005900D92A033B1074B
:1001F000D9F710E0C0EED0E004C02197FE010E94C4
:100200007C11CF3DD107C9F70E9439080C947413B3
:100210000C940000833081F028F4813099F0823012
:10022000A9F008958730A9F08830C9F08430B1F47E
:10023000809180008F7D03C0809180008F778093B4
:100240008000089584B58F7784BD089584B58F7D2F
:10025000FBCF8091B0008F778093B000089580919C
:10026000B0008F7DF9CFCF93DF93282F30E0F901D5
:10027000EA58FE4F8491F901E657FE4FD491F901F7
:10028000E855FE4FC491CC23A1F081110E940A01D0
:10029000EC2FF0E0EE0FFF1FE459FE4FA591B49153
:1002A000EC91ED2381E090E009F480E0DF91CF91C3
:1002B000089580E090E0FACF1F93CF93DF93282F2B
:1002C00030E0F901EA58FE4F8491F901E657FE4FFC
:1002D000D491F901E855FE4FC491CC23A9F0162F13
:1002E00081110E940A01EC2FF0E0EE0FFF1FE25691
:1002F000FE4FA591B4918FB7F894EC91111108C0FD
:10030000D095DE23DC938FBFDF91CF911F910895AD
:10031000DE2BF8CFCF93DF9390E0FC01E657FE4F42
:10032000249188559E4FFC0184918823C9F090E068
:10033000880F991FFC01EE59FE4FA591B491FC0165
:10034000E256FE4FC591D49161110DC09FB7F8944C
:100350008C91209582238C938881282328839FBFAA
:10036000DF91CF910895623051F49FB7F8943C919A
:10037000822F809583238C93E8812E2BEFCF8FB72C
:10038000F894EC912E2B2C938FBFEACFCF938091D2
:100390000A01833021F08F3F61F1CF910895ECEB9A
:1003A000F1E0C491C7FDF9CF61E083E00E948A01CA
:1003B000CC2309F48CC0C23009F0A1C08091B100F7
:1003C000887F83608093B1008CE78093B30088EAD4
:1003D00092E0A0E0B0E08093140490931504A09301
:1003E0001604B093170480917000826080937000AF
:1003F000D4CF83E080930A01ECEBF1E0C491CF3FCE
:1004000061F2C13021F150F0C23009F43EC0C7FDA5
:10041000C4CF61E083E00E948A01CDCF14BC15BC3B
:1004200084B5826084BD85B5816085BDEBEAF1E06D
:10043000E491F0E0EE0FFF1FE256FE4F859194919C
:10044000EDE8F1E0E491E0931304C0E0ADCF109249
:1004500080001092810080918100886080938100EB
:1004600080918100816080938100EBEAF1E0E4916A
:10047000F0E0EE0FFF1FE256FE4F85919491EDE8FC
:10048000F1E0E491E09312048FCF1092B00010924B
:10049000B1008091B00082608093B0008091B10083
:1004A00081608093B100EBEAF1E0E491F0E0EE0FBF
:1004B000FF1FE256FE4F8591949190931104809313
:1004C0001004EDE8F1E0E491E0930F046DCF85B501
:1004D000887F836085BD8DE387BD88EA92E0A0E0D8
:1004E000B0E080931C0490931D04A0931E04B0936D
:1004F0001F0480916E00826080936E004ECFC130E9
:10050000F1F480918100887F8160809381008FE980
:100510009FE0909389008093880088EA92E0A0E0B1
:10052000B0E08093180490931904A0931A04B09338
:100530001B0480916F00826080936F002ECFC230C9
:1005400021F0C1112ACF8FE9C7CF8FE93ECF2FB756
:10055000F89460910B0470910C0480910D049091BB
:100560000E042FBF0895AF92BF92CF92DF92EF9209
:10057000FF920F931F93CF93DF936C017B018B014D
:10058000040F151FEB015E01AE18BF08C017D1079D
:1005900059F06991D601ED91FC910190F081E02D27
:1005A000C6010995892B79F7C501DF91CF911F917C
:1005B0000F91FF90EF90DF90CF90BF90AF90089594
:1005C000FC01538D448D252F30E0842F90E0821B59
:1005D000930B541710F0CF96089501970895FC01DE
:1005E000918D828D981761F0A28DAE0FBF2FB11D36
:1005F0005D968C91928D9F5F9F73928F90E008958E
:100600008FEF9FEF0895FC01918D828D981731F047
:10061000828DE80FF11D858D90E008958FEF9FEF9B
:100620000895FC01918D228D892F90E0805C9F4F71
:10063000821B91098F739927089580E294E00E94AC
:10064000110321E0892B09F420E0822F089580E036
:1006500090E0892B29F00E941D0381110C94000069
:100660000895FC01A48DA80FB92FB11DA35ABF4F47
:100670002C91848D90E001968F739927848FA689A1
:10068000B7892C93A089B1898C91837080648C93F5
:10069000938D848D981306C00288F389E02D8081A4
:1006A0008F7D80830895EF92FF920F931F93CF93D6
:1006B000DF93EC0181E0888F9B8D8C8D98131AC09D
:1006C000E889F989808185FF15C09FB7F894EE8984
:1006D000FF896083E889F9898081837080648083E1
:1006E0009FBF81E090E0DF91CF911F910F91FF902C
:1006F000EF900895F62E0B8D10E00F5F1F4F0F73D4
:100700001127E02E8C8D8E110CC00FB607FCFACF8E
:10071000E889F989808185FFF5CFCE010E943103F8
:10072000F1CFEB8DEC0FFD2FF11DE35AFF4FF0825F
:100730009FB7F8940B8FEA89FB8980818062CFCFC5
:10074000CF93DF93EC01888D8823B9F0AA89BB8908
:10075000E889F9898C9185FD03C0808186FD0DC0F3
:100760000FB607FCF7CF8C9185FFF2CF808185FF14
:10077000EDCFCE010E943103E9CFDF91CF910895F3
:10078000CF93C82F682F8AE00E945C016C2F89E00C
:100790000E945C016C2F88E00E945C01CF9108955B
:1007A0001092AD031092AC0390E080E00C94C00373
:1007B0000E94D0038091D8039091D903029739F415
:1007C00083E090E09093D9038093D803089510922A
:1007D000D9031092D803209100013091010186E2E3
:1007E000829FD001839FB00D1124A65CBC4FE2EB29
:1007F000F3E001900D928A95E1F7089542E050E010
:1008000069E271E080E294E00C94B302CF93DF934D
:10081000FC0101900020E9F73197AF01481B590B0B
:10082000BC0180E294E00E94B302EC010E94FE034E
:100830008C0F9D1FDF91CF9108950F931F93CF933E
:10084000DF938330910540F08CE291E0DF91CF910E
:100850001F910F910C940604EC0186E28C9F80019D
:100860008D9F100D1124065C1C4FF8018081918131
:10087000181619069CF089E391E00E940604109274
:1008800005011092040181E090E09093AD03809304
:10089000AC03DF91CF911F910F9108958AE491E00D
:1008A0000E94060486E2F801AAEDB3E001900D92E1
:1008B0008A95E1F7CC0FDD1FCF5EDE4F188189816D
:1008C0001093080180930901C1E0D0E0D0930701A3
:1008D000C09306010E94C60161E0812F0E945C0165
:1008E0008FE591E00E940604D0930504C0930404B0
:1008F0000E94A70260930004709301048093020495
:1009000090930304C6CFCF93DF93FC0144815581BC
:100910006081718180E294E00E94B302EC010E9448
:10092000FE038C0F9D1FDF91CF9108950F931F93AE
:10093000CF93DF93EC0188819981009759F02A8148
:100940003B812617370730F081E0DF91CF911F916F
:100950000F9108958B016F5F7F4F0E94A712009740
:1009600059F0998388831B830A832C813D81232B33
:1009700059F7FC011082E8CF80E0E7CFEF92FF92B9
:100980000F931F93CF93DF936115710541F480E0BE
:10099000DF91CF911F910F91FF90EF900895411536
:1009A0005105B1F07B01EC010C811D81040F151F75
:1009B000B8010E949604882351F3288139818C81E3
:1009C0009D81B701820F931F0E946D131D830C83BD
:1009D00081E0DECFFB0101900020E9F73197AF0104
:1009E000461B570B0C94BE04EF92FF920F931F937C
:1009F000CF93DF93CDB7DEB728970FB6F894DEBF5D
:100A00000FBECDBF7C01CB014AE08E010F5F1F4FAF
:100A1000B8010E94660DF80101900020E9F73197B6
:100A2000AF01401B510BB801C7010E94BE042896BC
:100A30000FB6F894DEBF0FBECDBFDF91CF911F91EF
:100A40000F91FF90EF900895FC01808191810097B4
:100A500011F00C941E120895EF92FF920F931F93C2
:100A6000CF93DF93EC017B01198218821B821A82DB
:100A70001D821C82FB0101900020E9F731978F0154
:100A8000061B170BB8010E94960428813981811139
:100A900013C02115310519F0C9010E941E121982D7
:100AA00018821D821C821B821A82DF91CF911F91B6
:100AB0000F91FF90EF9008951D830C83B701C9013A
:100AC000DF91CF911F910F91FF90EF900C946D13D8
:100AD0000F931F93CF93DF9300D000D000D0CDB7FA
:100AE000DEB78C016FE671E0CE0101960E942C0505
:100AF000B801CE0101960E94F404CE0101960E9435
:100B00008304C8010E941D04CE0101960E942405A1
:100B100026960FB6F894DEBF0FBECDBFDF91CF9102
:100B20001F910F9108950F931F93CF93DF9300D0E0
:100B300000D000D0CDB7DEB78C0160E871E0CE0107
:100B400001960E942C05B801CE0101960E94F40482
:100B5000CE0101960E9483041092030110920201BB
:100B600002E010E01093AD030093AC030E94A702D3
:100B70006093AE037093AF038093B0039093B1037F
:100B80001092B3031092B2031092390388E991E0F6
:100B90000E9406041093D9030093D803CE01019656
:100BA0000E94240526960FB6F894DEBF0FBECDBF77
:100BB000DF91CF911F910F9108950F931F93CF93C2
:100BC000DF9300D000D000D0CDB7DEB78C016FEA44
:100BD00071E0CE0101960E942C05B801CE0101966C
:100BE0000E94F404CE0101960E9483041093010137
:100BF000009300010E94A7026093AE037093AF03BD
:100C00008093B0039093B1030330110520F085EC7D
:100C100091E00E9406041092B3031092B203109266
:100C2000390387ED91E00E94060481E090E0909303
:100C3000D9038093D803CE0101960E9424052696FD
:100C40000FB6F894DEBF0FBECDBFDF91CF911F91DD
:100C50000F9108951F920F920FB60F9211242F93A8
:100C60003F938F939F93AF93BF9380910B04909189
:100C70000C04A0910D04B0910E0430910A0423E0FD
:100C8000230F2D3758F50196A11DB11D20930A049D
:100C900080930B0490930C04A0930D04B0930E0466
:100CA0008091060490910704A0910804B091090472
:100CB0000196A11DB11D8093060490930704A09393
:100CC0000804B0930904BF91AF919F918F913F9118
:100CD0002F910F900FBE0F901F90189526E8230FAD
:100CE0000296A11DB11DD2CF1F920F920FB60F9287
:100CF00011242F933F934F935F936F937F938F9321
:100D00009F93AF93BF93EF93FF93809114049091BF
:100D10001504A0911604B0911704892B8A2B8B2BF4
:100D2000D1F190910F04E0911004F09111048081B1
:100D3000892780838091140490911504A091160452
:100D4000B0911704181619061A061B069CF4809118
:100D5000140490911504A0911604B0911704019702
:100D6000A109B1098093140490931504A09316046B
:100D7000B0931704FF91EF91BF91AF919F918F9125
:100D80007F916F915F914F913F912F910F900FBE87
:100D90000F901F90189580910A01ECEBF1E0E4911F
:100DA0009FEF90930A01E13051F030F0E23069F0AA
:100DB00060E00E945C01DECF10926E00F9CF90914E
:100DC0006F009D7F90936F00F3CF909170009D7F97
:100DD0009093700091E09093B0009091B100987F53
:100DE00094609093B1001092B300E2CF1F920F92E3
:100DF0000FB60F9211242F933F934F935F936F93EE
:100E00007F938F939F93AF93BF93EF93FF9380E272
:100E100094E00E943103FF91EF91BF91AF919F91B8
:100E20008F917F916F915F914F913F912F910F9093
:100E30000FBE0F901F9018951F920F920FB60F9232
:100E400011242F938F939F93EF93FF93E09130049E
:100E5000F09131048081E0913604F091370482FDF5
:100E60001BC09081809139048F5F8F7320913A0469
:100E7000821741F0E0913904F0E0E05EFB4F958F7E
:100E800080933904FF91EF919F918F912F910F9053
:100E90000FBE0F901F9018958081F4CF0F931F9372
:100EA000CF93DF93E0E2F4E01382128288EE93E0C6
:100EB000A0E0B0E084839583A683B7838BE191E0C3
:100EC0009183808385EC90E09587848784EC90E023
:100ED0009787868780EC90E0918B808B81EC90E007
:100EE000938B828B82EC90E0958B848B86EC90E0E8
:100EF000978B868B118E128E138E148EEDEBF4E091
:100F00001182108287E090E093838283158214829D
:100F100005E010E020E030E006831783208731876A
:100F200040E951E060E070E042875387648775874D
:100F300080E293E0A0E0B0E086879787A08BB18B3A
:100F4000128A138A148A168A158A178A108E118EAD
:100F5000128E138E148E158E168E10A2178E12A25C
:100F600011A214A213A216A215A2C6E0D0E0D0A727
:100F7000C7A3C1E0D0E0D2A7C1A703A714A725A7A4
:100F800036A747A750AB61AB72AB83AB94ABA5ABB5
:100F9000B6AB17AA10AE11AE13AE12AE14AE15AEAC
:100FA00016AE17AE1092FD041092FE041092FF04CC
:100FB000109200051092020510920105109204058E
:100FC000109203051092060510920505109208056F
:100FD00010920705E5E0F0E0F0930A05E0930905BB
:100FE000E2E0F0E0F0930C05E0930B0500930D05B3
:100FF00010930E0520930F053093100540931105B3
:101000005093120560931305709314058093150592
:1010100090931605A0931705B09318051092190523
:1010200010921A0510921B0510921D0510921C05B6
:1010300010921E0510921F05109220051092210596
:101040001092220510922305109224051092250576
:101050001092270510922605109229051092280556
:1010600010922B0510922A05DF91CF911F910F91BD
:101070000895CF93DF93CDB7DEB7C256D1090FB62F
:10108000F894DEBF0FBECDBF789484B5826084BD76
:1010900084B5816084BD85B5826085BD85B581607C
:1010A00085BD80916E00816080936E0010928100FA
:1010B00080918100826080938100809181008160B5
:1010C0008093810080918000816080938000809176
:1010D000B10084608093B1008091B0008160809302
:1010E000B00080917A00846080937A0080917A00C9
:1010F000826080937A0080917A00816080937A0088
:1011000080917A00806880937A001092C100E0910B
:101110003004F091310482E08083E0912C04F0915E
:101120002D041082E0912E04F0912F048FEC808327
:1011300010923804E0913404F091350486E0808305
:10114000E0913204F0913304808180618083E091EA
:101150003204F0913304808188608083E09132040E
:10116000F0913304808180688083E0913204F091B3
:10117000330480818F7D808360E082E00E948A0159
:1011800061E083E00E948A0161E08AE00E948A01B6
:1011900060E08AE00E945C0161E089E00E948A01CF
:1011A00060E089E00E945C0161E088E00E948A01C1
:1011B00060E088E00E945C010E94D0030DEB14E027
:1011C000E8E6AE2EE5E0BE2EF3E9CF2EF5E0DF2E09
:1011D000ADEDEA2EA5E0FA2E62E0D80112968C91D0
:1011E0000E948A01F801B0A2A78ED2A2C1A2F4A2E5
:1011F000E3A20B5D1F4FF5E00C321F0769F79E015C
:101200002F5F3F4F790122242394312C8091AC032E
:101210009091AD038130910509F431C1029709F035
:1012200042C00E94A7024B015C0180913003909163
:101230003103A0913203B0913303A5019401281B1F
:10124000390B4A0B5B0BDA01C9018A3F9105A105F5
:10125000B10548F190E080E00E94C0038091020156
:10126000909103018330910508F402C185EC91E06F
:101270000E9406048FEF61E00E945C0180923003BF
:1012800090923103A0923203B09233038091020115
:1012900090910301019663E070E00E9454119093D5
:1012A0000301809302010DEB14E0CC24C3940E944F
:1012B000A7024B015C01D80112968C910E94330168
:1012C000DD24D394892B09F0D12CF8018389D81619
:1012D000F9F0878A908EA18EB28E6EEE71E0C70112
:1012E0000E942C05F80164817581C7010E94F404F5
:1012F00063EF71E0C7010E94EA046D2D70E0C70141
:101300000E94F404C7010E948304C7010E942405BF
:10131000F8018789908DA18DB28DB501A401481B7C
:10132000590B6A0B7B0B86819781A085B185841749
:101330009507A607B70708F58489D816F1F0D48A6F
:101340006EEE71E0C7010E942C05D80114966D91D4
:101350007C91C7010E94F4046AEF71E0C7010E940A
:10136000EA04F801648970E0C7010E94F404C7012F
:101370000E948304C7010E942405D8015396DC9281
:10138000539754968C9154972D913C9111972130FD
:10139000310509F4C0C008F4ACC02230310509F4AD
:1013A000F1C02330310509F426C10B5D1F4FB5E0B4
:1013B0000C321B0709F07BCF8091D8039091D903A1
:1013C000009751F08130910538F08330910508F491
:1013D00017C1039709F4DDC18091040490910504BD
:1013E000892BC9F10E94A7022B013C0180910004C6
:1013F00090910104A0910204B091030453014201B1
:10140000881A990AAA0ABB0A1091080160E09BEAAF
:1014100089169104A104B10408F461E0812F0E94AF
:101420005C0180910601909107012091DA033091CF
:10143000DB03821793070CF4C9C2ABEA8A16910446
:10144000A104B10440F0109205041092040482E15A
:1014500093E00E94060480E090E0892B09F4D6CE48
:101460000E941D03882309F4CECE0E940000CBCE3B
:10147000880F991FFC01EF5EFE4F8081FCCE0E9419
:10148000A7024B015C010091040110910501043099
:10149000110564F58091300390913103A0913203DE
:1014A000B0913303A5019401281B390B4A0B5B0B48
:1014B000DA01C9018A3F9105A105B10508F4F3CE0F
:1014C000C80180959095817099270E94C0030F5F95
:1014D0001F4F1093050100930401809230039092F6
:1014E0003103A0923203B0923303DDCE0E94D003C9
:1014F000DACE882309F459CFF801168A158A5B964B
:101500008D929D92AD92BC925E9711963C922E92D6
:1015100052961C924ACFF801811110C08589968994
:101520000196968B858B5B968D929D92AD92BC9227
:101530005E97E2E0F0E0ED93FC9337CF838D948DDE
:10154000A58DB68D881A990AAA0ABB0A8685978541
:10155000A089B18988159905AA05BB0508F025CF92
:1015600003A0F4A1E02D309709F41FCFD801149601
:101570008D919C910995F801C28A23E030E0318376
:10158000208313CF882341F05B968D929D92AD927C
:10159000BC925E972D923C92F801838D948DA58D1F
:1015A000B68D881A990AAA0ABB0A82859385A485F2
:1015B000B58588159905AA05BB0508F0F6CE85897D
:1015C00096898130910551F4078CF0A1E02DD80166
:1015D000309761F4F80111821082E7CE0297D1F7BB
:1015E000D80101A0F2A1E02D3097A1F314968D91BE
:1015F0009C910995EFCF8111D8CE1D921C92D5CE2A
:101600000E94A7022B013C010091390301111CC06B
:101610008091AE039091AF03A091B003B091B1035C
:10162000A3019201281B390B4A0B5B0BDA01C9019C
:10163000893B9B40A105B10540F181E092E00E9409
:1016400006040E94D803C8CE8091B2039091B303E0
:1016500009971CF08BE392E0F2CF809135039091D3
:101660003603A0913703B0913803A3019201281BE0
:10167000390B4A0B5B0BDA01C901893B9B40A10581
:10168000B10518F08BE592E0DACF82E00E943301D9
:1016900011E08130910509F010E0019731F580915A
:1016A0003403811122C0011123C081E080933903EA
:1016B000409235035092360360923703709238039C
:1016C0008091B2039091B30301969093B3038093FA
:1016D000B2031092B4031092B5031092B6031092A5
:1016E000B7038EE892E00E9406041093340374CE90
:1016F0008091350390913603A0913703B091380360
:10170000B301A201481B590B6A0B7B0B4B3A5105E5
:101710006105710550F3C090B203D090B30352013C
:10172000A81AB90A409235035092360360923703E3
:1017300070923803C60101969093B3038093B2036D
:10174000F601EE0FFF1FEE0FFF1FEE54FC4FC50119
:101750000B2C000CAA0BBB0B82839383A483B58351
:1017600063EA72E0C7010E942C05B601C7010E941E
:10177000F40469EA72E0C7010E94EA04B501C701F6
:101780000E94F404C7010E948304C7010E9424053B
:10179000ACCF0E94A7020091AE031091AF0320913D
:1017A000B0033091B103601B710B820B930B693B4B
:1017B0007B408105910508F4D1C08091B2039091DE
:1017C000B303181619060CF0C9C04AE3842E43E08F
:1017D000942ED12CC12C86E2F401DE019D9601905D
:1017E0000D928A95E1F7D4018D919C9118161906F6
:1017F0000CF0A9C02091B2033091B3038217930774
:1018000009F0A1C0FE01F3966F96FFAFEEAF6F97A0
:1018100028EB33E06B963FAF2EAF6B97AA24A394CF
:10182000B12C8091B2039091B303A816B9060CF0C5
:10183000B0C06F96EEADFFAD6F9781919191A19180
:10184000B1916F96FFAFEEAF6F976B96EEADFFADB8
:101850006B9741905190619071906B96FFAFEEAF96
:101860006B97411451046104710449F4892B8A2B4C
:101870008B2B09F068C0FFEFAF1ABF0AD2CFBC01B3
:10188000CD01641975098609970997FF07C09095DE
:101890008095709561957F4F8F4F9F4F0E94F60FF7
:1018A000A3966CAF7DAF8EAF9FAFA397C301B2017C
:1018B0000E94F60F9B01AC01A3966CAD7DAD8EAD81
:1018C0009FADA3970E94DD102B013C0164EB72E0F9
:1018D000CE018D5A9F4F0E942C05870122E044E0E3
:1018E000C301B2010E94480DFC0101900020E9F7FC
:1018F0003197AF01481B590BBC01CE018D5A9F4F48
:101900000E94BE0460EC72E0CE018D5A9F4F0E948F
:10191000EA04B501CE018D5A9F4F0E94F404CE0116
:101920008D5A9F4F0E94830420E030E040E85EE340
:10193000C301B2010E944F1118162CF5CE018D5A29
:101940009F4F0E9424052FEFC21AD20A36E2830E5F
:10195000911C43E0C416D10409F03DCF8CEE92E017
:101960000E9406041092D9031092D8030E94D0035B
:10197000109205011092040181E090E09093AD0374
:101980008093AC0329CDCE018D5A9F4F0E94240530
:1019900072CF65EC72E0C7010E942C05B601C70149
:1019A0000E94F40486ED92E00E940604C7010E94A2
:1019B00083041092D9031092D8030E94D003C60169
:1019C0000E941D04C7010E94240506CD880F991F9F
:1019D000880F991FFC01E652FC4F2281338144811C
:1019E00055816D962CAF3DAF4EAF5FAF6D978216B0
:1019F0009306A406B50608F42ECD0E94C60161E048
:101A0000812F0E945C0166E273E0CE018D960E94F8
:101A10002C052AE0A7016D966CAD7DAD8EAD9FAD16
:101A20006D970E94710DF70101900020E9F7319741
:101A3000AF014E195F09B701CE018D960E94BE0419
:101A400060EC72E0CE018D960E94EA04609106017E
:101A500070910701CE018D960E94F404CE018D96FF
:101A60000E94830480910601909107010196909352
:101A70000701809306014092000450920104609295
:101A8000020470920304CE018D960E942405E3CCDB
:101A9000EF920F931F93CF93DF93E80134E047FD5C
:101AA00034E1042E000C550B57FF03C051954195AE
:101AB0005109E32E022F242FAE010E94AD0DCE015D
:101AC000DF91CF911F910F91EF900895BB274A307E
:101AD00031F4992322F4BDE2909581959F4F0C94A7
:101AE000940DBB27FA01A62F621771058105910598
:101AF000330B30FB66F0AA27660F771F881F991FEC
:101B0000AA1FA21710F0A21B63953850A9F7A05D79
:101B1000AA3308F0A95DA19336F7B111B1931082F1
:101B2000CA010C94E40FBB27FB015527AA27880F95
:101B3000991FAA1FA41710F0A41B83955051B9F741
:101B4000A05DAA3308F0A95DA193009779F7B111C0
:101B5000B1931192CB010C94E40FA9E0B0E0E3EB58
:101B6000FDE00C94AC106A01F22EB02E102FFBE3B6
:101B7000AF2EA01608F41BE31F5F012F27E0AE0174
:101B80004F5F5F4F0E940C0FBC018981982F9970A5
:101B9000913009F43FC09BE2E1FC04C09E2D91709E
:101BA000E0FC3AC05E2D5071E82FE87083FF46C01C
:101BB00084E0911101C083E0EF2DE81B8F1508F040
:101BC000E0E0D6018E2F20E2552351F1992329F030
:101BD000D6019C93C60101966C0196012D5F3F4F83
:101BE000E2FE24C08EE4D6018C9391E411969C937E
:101BF000119712968C93D9018E2F90E281111BC000
:101C0000E20FF32FF11D10828EEF9FEF2996ECE08B
:101C10000C94C8109DE2C6CF90E2C4CF2D938150A2
:101C20008111FCCFCE0ED11CE0E0D0CF8EE6D601E4
:101C30008C9391E6DBCF9D938150E0CF482F447089
:101C400082FF3DC084E0911101C083E08F1510F444
:101C5000EF2DE81BD6018E2F20E2552309F19923A1
:101C600029F0D6019C93C60101966C0196012D5F67
:101C70003F4FE2FE1BC089E4D6018C938EE411969F
:101C80008C93119786E412968C93D9018E2F90E253
:101C9000882309F4B5CF9D938150FACF2D938150BD
:101CA0008111FCCFCE0ED11CE0E0D9CF89E6D60160
:101CB0008C938EE611968C93119786E6E4CF9B0168
:101CC00077FF02C030E020E0A1E0B0E0911102C057
:101CD000B0E0A0E0F9013196AE0FBF1F8B2C912C24
:101CE000BB2009F461C05401EFEFAE1ABE0AAA0D81
:101CF000BB1DFA161B0619F014F04F2D4A1B51118B
:101D000088C0E3FC59C07601A42FB0E2A1114FC0F6
:101D1000C40ED11C992309F45BC040E0D601119692
:101D2000F60190836D01552309F448C0012F060F79
:101D30009A81582F507184FF03C0913309F40150E8
:101D400010160CF047C0093008F008E0EEE2FE2E55
:101D50005B01A01AB10885019194819491082F3FED
:101D6000320729F4D601FC92F60131966F01621711
:101D7000730794F1021713077CF5DB01A21BB30B69
:101D8000AA24A394B12CAC0EBD1EAA0DBB1D1196A6
:101D90008C9121503109D601119628153905F4F09E
:101DA000F60180836D01DBCFB12CA12CA0CFF70110
:101DB000B1937F01A150AACF9111B0CFD601942F3A
:101DC00050E302C05D9391509111FCCFC40ED11C21
:101DD00040E0ACCF01E0BACF80E3DBCF62177307FE
:101DE00031F4963388F4953311F4552369F0F601F4
:101DF0008083FD01842F90E2811108C0A40FB11DE2
:101E00001C9290E080E002CF81E3F1CF919381506A
:101E1000F3CF911183CF8ACF283008F027E0332702
:101E2000DA01990F311D87FD9160009661057105FA
:101E300039F432602E5F3D9330E32A95E1F708953F
:101E40009F3F30F080387105610509F03C5F3C5FD1
:101E50003D93913008F08068911DDF93CF931F93DD
:101E60000F93FF92EF92192F987F9695E92F9695F1
:101E70009695E90FFF27EE53FF4F99273327EE245E
:101E8000FF24A701E70105900894079428F4360F72
:101E9000E71EF81E491F511D660F771F881F991FE7
:101EA0000694A1F70590079428F4E70EF81E491F41
:101EB000561FC11D770F881F991F661F0694A1F733
:101EC0000590079428F4F80E491F561FC71FD11D0F
:101ED000880F991F661F771F0694A1F70590079436
:101EE00020F4490F561FC71FD81F990F661F771F71
:101EF000881F0694A9F784911095177041F0D69524
:101F0000C79557954795F794E7941A95C1F7E8E672
:101F1000F0E0689415901591359165919591059033
:101F20007FE27395E118F10A430B560BC90BD009F8
:101F3000C0F7E10CF11E431F561FC91FD01D7EF4D0
:101F4000703311F48A95E6CFE894015030F0080F11
:101F50000AF40027021708F4202F2395022F7A3362
:101F600028F079E37D932A95E9F710C07D932A95AF
:101F700089F6069497956795379517951794E11804
:101F8000F10A430B560BC90BD00998F023957E91AB
:101F900073957A3308F070E37C932013B8F77E9141
:101FA00070617D9330F0839571E37D9370E32A95A2
:101FB000E1F71124EF90FF900F911F91CF91DF91E6
:101FC000992787FD90950895DC01FC01672F719199
:101FD0007723E1F7329704C07C916D93708362910F
:101FE000AE17BF07C8F30895E89409C097FB3EF405
:101FF00090958095709561957F4F8F4F9F4F992356
:10200000A9F0F92F96E9BB279395F69587957795D3
:102010006795B795F111F8CFFAF4BB0F11F460FF93
:102020001BC06F5F7F4F8F4F9F4F16C0882311F0EB
:1020300096E911C0772321F09EE8872F762F05C0FF
:10204000662371F096E8862F70E060E02AF09A959A
:10205000660F771F881FDAF7880F9695879597F98F
:102060000895990F0008550FAA0BE0E8FEEF161629
:102070001706E807F907C0F012161306E407F5077C
:1020800098F0621B730B840B950B39F40A2661F0F0
:10209000232B242B252B21F408950A2609F4A14093
:1020A000A6958FEF811D811D089597F99F6780E8A0
:1020B00070E060E008959FEF80EC089500240A949A
:1020C0001616170618060906089500240A94121613
:1020D0001306140605060895092E0394000C11F446
:1020E000882352F0BB0F40F4BF2B11F460FF04C0F3
:1020F0006F5F7F4F8F4F9F4F089557FD9058440F4C
:10210000551F59F05F3F71F04795880F97FB991F56
:1021100061F09F3F79F08795089512161306140613
:10212000551FF2CF4695F1DF08C0161617061806A0
:10213000991FF1CF86957105610508940895E8947B
:10214000BB2766277727CB0197F908952F923F92F7
:102150004F925F926F927F928F929F92AF92BF92B7
:10216000CF92DF92EF92FF920F931F93CF93DF9363
:10217000CDB7DEB7CA1BDB0B0FB6F894DEBF0FBEC0
:10218000CDBF09942A88398848885F846E847D840D
:102190008C849B84AA84B984C884DF80EE80FD800F
:1021A0000C811B81AA81B981CE0FD11D0FB6F89485
:1021B000DEBF0FBECDBFED0108950E94F1100C945B
:1021C0006C100E94651058F00E945E1040F029F4D7
:1021D0005F3F29F00C94551051110C94A0100C94F1
:1021E0005B100E947D1068F39923B1F3552391F39E
:1021F000951B550BBB27AA2762177307840738F076
:102200009F5F5F4F220F331F441FAA1FA9F335D0D2
:102210000E2E3AF0E0E832D091505040E695001C86
:10222000CAF72BD0FE2F29D0660F771F881FBB1F40
:10223000261737074807AB07B0E809F0BB0B802D1E
:10224000BF01FF2793585F4F3AF09E3F510578F04A
:102250000C9455100C94A0105F3FE4F3983ED4F317
:10226000869577956795B795F7959F5FC9F7880F1E
:10227000911D9695879597F90895E1E0660F771F70
:10228000881FBB1F621773078407BA0720F0621B01
:10229000730B840BBA0BEE1F88F7E09508950E942C
:1022A000311008F48FEF089597FB072E16F4009471
:1022B00007D077FD09D00E94681107FC05D03EF4D5
:1022C000909581959F4F0895709561957F4F0895E2
:1022D000AA1BBB1B51E107C0AA1FBB1FA617B7074C
:1022E00010F0A61BB70B881F991F5A95A9F7809568
:1022F0009095BC01CD010895EE0FFF1F0590F4915C
:10230000E02D09940F931F93CF93DF9382309105B3
:1023100010F482E090E0E0912E05F0912F0530E07E
:1023200020E0B0E0A0E0309799F42115310509F4E0
:102330004AC0281B390B24303105D8F58A819B818E
:102340006115710589F1FB0193838283FE0111C040
:10235000408151810281138148175907E0F04817E5
:10236000590799F4109761F012960C9312971396EF
:102370001C933296CF01DF91CF911F910F91089559
:1023800000932E0510932F05F4CF2115310551F040
:102390004217530738F0A901DB019A01BD01DF01A3
:1023A000F801C1CFEF01F9CF90932F0580932E054F
:1023B000CDCFFE01E20FF31F81939193225031099B
:1023C00039832883D7CF20912C0530912D05232BDD
:1023D00041F420910D0130910E0130932D05209391
:1023E0002C0520910B0130910C012115310541F490
:1023F0002DB73EB740910F0150911001241B350BB2
:10240000E0912C05F0912D05E217F307A0F42E1BA7
:102410003F0B2817390778F0AC014E5F5F4F241748
:10242000350748F04E0F5F1F50932D0540932C0544
:10243000819391939FCFF0E0E0E09CCFCF93DF9327
:102440000097E9F0FC01329713821282A0912E05C9
:10245000B0912F05ED0130E020E01097A1F420812C
:102460003181820F931F20912C0530912D05281763
:10247000390709F061C0F0932D05E0932C05DF9139
:10248000CF910895EA01CE17DF07E8F54A815B8115
:102490009E0141155105B1F7E901FB83EA8349919A
:1024A0005991C40FD51FEC17FD0761F4808191810C
:1024B0000296840F951FE901998388838281938115
:1024C0009B838A83F0E0E0E012968D919C911397B4
:1024D0000097B9F52D913C911197CD010296820F8D
:1024E000931F20912C0530912D052817390739F6B7
:1024F000309751F510922F0510922E05B0932D05AF
:10250000A0932C05BCCFD383C28340815181840F1B
:10251000951FC817D90761F44E5F5F4F8881998175
:10252000480F591F518340838A819B819383828303
:102530002115310509F0B0CFF0932F05E0932E055A
:102540009ECFFD01DC01C0CF13821282D7CFB0E055
:10255000A0E0EDEAF2E10C94A8108C01009751F490
:10256000CB010E9482118C01C801CDB7DEB7E0E13A
:102570000C94C410FC01E60FF71F9C012250310996
:10258000E217F30708F49DC0D901CD91DC911197B2
:10259000C617D70798F0C530D10530F3CE010497A0
:1025A0008617970708F3C61BD70B2297C193D193C1
:1025B0006D937C93CF010E941E12D6CF5B01AC1AA3
:1025C000BD0A4C018C0E9D1EA0912E05B0912F05C9
:1025D000512C412CF12CE12C109731F580912C05D8
:1025E00090912D058815990509F05CC0461657068F
:1025F00008F058C080910B0190910C01009741F4B4
:102600008DB79EB740910F0150911001841B950B1F
:10261000E817F90708F055C0F0932D05E0932C0555
:10262000F90171836083A0CF8D919C9111971296CF
:102630006C90129713967C901397A815B90559F5CD
:102640006C0142E0C40ED11CCA14DB0420F1AC01C1
:102650004A195B09DA011296159780F0628273823B
:1026600051834083D9016D937C93E114F10471F09F
:10267000D7011396FC93EE93129776CF22968C0F88
:102680009D1FF90191838083F301EFCFF0932F0514
:10269000E0932E0569CF4816590608F42C017D01F8
:1026A000D3019ACFCB010E9482117C01009749F09F
:1026B000AE01B8010E946413C8010E941E12870176
:1026C00053CF10E000E050CFFB01DC0102C00190CD
:1026D0000D9241505040D8F70895FB01DC01019064
:0C26E0000D920020E1F70895F894FFCF60
:1026EC00FFFFFFFFFFFFFFFFFFFFFF000030058034
:1026FC00000A0009000800000000005303B302E0C8
:10270C0002A0031103EF0203030D0A00496E766168
:10271C006C696420736C6F74004E6F20526879740E
:10272C00686D2073746F7265640052687974686D9B
:10273C0020706C6179696E672073746172740049E2
:10274C006E74657276616C203020617420300042AA
:10275C007574746F6E20707265737365643A2000C3
:10276C00427574746F6E20646F75626C6520707244
:10277C0065737365643A200052687974686D2064DF
:10278C006574656374696F6E207374617274004252
:10279C007574746F6E206C6F6E67207072657373D6
:1027AC0065643A2000496E76616C6964204C45443E
:1027BC0020696E6465780052687974686D20726562
:1027CC00636F7264696E6720737461727400427413
:1027DC006E2000207261773A2000206462673A20F4
:1027EC000052687974686D2074696D656F7574201A
:1027FC007265616368656420286E6F20636C61701C
:10280C0073206465746563746564292C206E6F7421
:10281C0068696E67207361766564004D617820632A
:10282C006C61707320726561636865642C207268DA
:10283C007974686D20736176656400526879746888
:10284C006D2074696D656F75742072656163686560
:10285C00642028616674657220636C617073292C26
:10286C002072687974686D20736176656400436CBE
:10287C006170203020617420696E74657276616CB1
:10288C00203000436C6170200020696E7465727694
:10289C00616C20004572726F72526174696F200016
:1028AC0020617420004D61746368656420726879DE
:1028BC0074686D3A200052687974686D2064657490
:1028CC00656374696F6E2073746F700052687974ED
:1028DC00686D20646574656374696F6E2073746FC2
:1028EC00702C206E6F206D6174636820666F756E3E
:1028FC00640052687974686D20706C6179696E67D8
:10290C002073746F7000496E74657276616C200070
:00000001FF
