:020000041000EA
:1000000000B5324B212058609868022188439860DF
:10001000D860186158612E4B002199600221596106
:100020000121F02299502B49196001219960352056
:1000300000F044F80222904214D00621196600F024
:1000400034F8196E01211966002018661A6600F04E
:100050002CF8196E196E196E052000F02FF8012189
:100060000842F9D1002199601B49196000215960AB
:100070001A491B48016001219960EB211966A021F2
:10008000196600F012F800219960164914480160C1
:100090000121996001BC002800D000471248134993
:1000A000086003C880F30888084703B5996A0420EC
:1000B0000142FBD001200142F8D103BD02B5186610
:1000C0001866FFF7F2FF186E186E02BD00000240BE
:1000D000000000180000070000035F00212200005C
:1000E000F4000018222000A00001001008ED00E03C
:1000F00000000000000000000000000074B24E7A12
:1001000000200420E3010010CB010010CD010010FD
:10011000C9010010C9010010C9010010C901001077
:10012000C9010010C9010010C9010010CF01001061
:10013000C9010010C9010010D1010010D301001045
:10014000C1010010C1010010C1010010C101001067
:10015000C1010010C1010010C1010010C101001057
:10016000C1010010C1010010C1010010C101001047
:10017000C1010010C1010010C1010010C101001037
:10018000C1010010C1010010C1010010C101001027
:10019000C1010010C1010010C1010010C101001017
:1001A000C1010010C1010010C1010010C101001007
:1001B000C1010010C1010010C1010010C1010010F7
:1001C000EFF30580103800BE00BE00BE00BE00BECA
:1001D00000BE00BE00202149086006C881F30888DF
:1001E00010471F480068002801D00020F3E70DA445
:1001F0000ECC002902D000F012F8F9E719491A4A8A
:10020000002000E001C19142FCD1184988471849FB
:1002100088471849884700BEFDE701C901C29A42D4
:10022000FBD3704778020010C00000202423002078
:10023000DC24001030230020842600203028001009
:1002400000000420000004203028001000100420CA
:1002500000100420000000007047000008ED00E0DE
:10026000000000D084260020F02A0020392200203F
:10027000090100208D020020B0B500AF054B064AF1
:100280009A60054B1D68054B1B681C002B009D46A2
:10029000A047C04600ED00E0003000100430001020
:1002A00080B500AF00F016F803001A000123534098
:1002B000DBB2002B01D0FFF7DFFFC046BD4680BD9B
:1002C00080B582B000AF7860396000F04FF8FFF77A
:1002D000D3FF0000104B114A1B6812681B6812689C
:1002E000002010B5934215D080211800D21A490180
:1002F00000F016F900280DD009490A4800F060F90D
:10030000002807D008220849064802F083F8434233
:100310005841C0B210BDC046F4250020F025002091
:10032000B827002004FA0320B82400200D4B012038
:1003300070B5002201269C460B4D40420821AB5C63
:1003400058400300644633405B4223404008013973
:1003500058400029F5D1A32301329B009A42EDD1E8
:10036000C04370BD2083B8ED04FA032070B586B099
:10037000FFF7DCFFA323314C9B00E35883425BD1A2
:10038000A368002B58D000238026019376012B4BC5
:10039000019A9B689A4209D3294B186800F0B8F873
:1003A00000216422080001F027FEFEE7E368012B2C
:1003B00011D12000103000F02BF900283CD0206D26
:1003C00000F0A0F9002837D0656DA36D0093002DD3
:1003D00006D100F0AAF9019B503401330193D6E70E
:1003E0000295B54200D90296029800F061F9039097
:1003F000002821D03200009902F00CF8002814D017
:10040000EFF3108372B6F0220593009B12069B183F
:1004100018003100049302F0A9F8320003990498FF
:1004200002F0E6F8059B83F310888022029B5201BC
:10043000ED1A009B9B18C9E706B070BD04FA0320B3
:10044000B8270020FEE7FEE70020704770B5094C92
:10045000094A236810684B43C018EFF3108572B641
:10046000F0231B062168C01802F080F885F310887D
:10047000002070BD84260020B42700200A4810B553
:1004800000680A4C4843821820688018EFF31084F3
:1004900072B6F022120680181900029A02F0A8F82B
:1004A00084F31088002010BD84260020B42700208B
:1004B00010B50C00074908480968614389180268AB
:1004C00018005118029A01F08BFF044B00201C60A9
:1004D00010BDC04684260020B4270020DC26002062
:1004E000802370B5074C05002200046006495B01BB
:1004F000064801F01BF82B6824185A1C6C602A600F
:10050000187870BD04E7032088260020E02600202C
:1005100010B501000148FFF799FF10BD60270020CA
:10052000F8B51C4B0D0018601B4B1700196080229A
:1005300000211A4801F04EFF194C542200212000DE
:1005400001F048FF174BE5616360174BA360174B41
:10055000E360174B236180235B006361A361002D7F
:1005600004D02900380001F07BFE050010236362EF
:10057000F033A362E3620F4B210063630E4B074825
:10058000A3630E4B2562E36300F0EEFDC043C00F92
:10059000F8BDC046B427002084260020E0260020B5
:1005A00060270020F9020020C502002095020020EB
:1005B0009102002004F9032004F8032004F703202B
:1005C000F0B50F4B99B006000D0000930D4A0123C2
:1005D0000D4803A900F0F6FE002802DA002019B049
:1005E000F0BDA427BF003B003200074803A900F07C
:1005F0009DFFB842F2D1054B01201B682B60EEE74E
:1006000004260020C1240020E0260020DC26002053
:10061000F0B500271F4B87B003931F701E4B0200DD
:1006200000931E4901231E4800F0CCFEB8422BDB8C
:1006300005AC022322001949194800F077FF02286F
:1006400022D11649164801F079F823781F2B02D1E0
:1006500063788B2B02D0012007B0F0BD01F09AF92E
:100660008022104C104B2000104912022760676056
:10067000A36001F090F9200001F001FB002805D0F3
:100680000649074801F05AF80020E5E70123039ADC
:100690001370E0E7EC2A0020F825002088260020CF
:1006A000E0260020005203202903002004670320D5
:1006B0000F4B70B51B7805000E4C002B0BD12B0097
:1006C00022000D490D4800F031FF281A43425841DD
:1006D0004042204070BD0A48651944618461C5618B
:1006E00001F068F903000020012BF3D82000F1E7A6
:1006F000EC2A00200457032088260020E026002052
:100700000052032070B5802604007601002C01D130
:10071000012070BD2500B44200D935002800FFF744
:10072000C7FF0028F5D0641BF0E7704710B50B68D1
:1007300004689C4201D1002010BD4068496888428D
:10074000F9D08C42F7D0181A431E9841F4E783057C
:100750009B1501335A42534118188005800D04300F
:1007600070470200836A2832002B03D08B4202D1EB
:100770001B68136070471A001B68F5E7F0B58BB073
:10078000109E0493129B0992F218836E0C00DB6991
:1007900006909A4205D8C36E002B20D0049A93424B
:1007A0001DD8542040420BB0F0BD6168A5684D19BA
:1007B000AE4248D28E4217D3129BAD1B9D4200D948
:1007C0001D00E368711A59182A00119801F008FEFB
:1007D000119B76195B191193129B5B1B1293129B51
:1007E000002B2CD11298DEE7129B8F1B9F422BD936
:1007F0001F0029E0049B2360059BF31A08936360A4
:10080000099B5F1E039BFF18BF191900380001F0F8
:1008100027FDEB697F1A9F4200D91F00059BAA6A3A
:100820009B1BFF18974200D91700A760009728006C
:10083000E368089A0499079DA8470028B3D1236864
:10084000049A9A42B1D0129F069B30009D6E6B694C
:100850001900039301F004FD6B68099A0793129B3A
:1008600005919342C6D30029C4D1039B129A9342A7
:10087000C0D81900380001F0F3FC7B1A280005915C
:10088000039300933200119B0499079DA847002809
:1008900000D088E7039A119BB6189B181193059B0B
:1008A000129ADB1BD31899E7F0B5036886688DB000
:1008B0008905050006938F0DBE4200D93E00002435
:1008C00013680793536808936B680993A64206D888
:1008D000AB680020BB4221D0BB4240411DE0321B2F
:1008E0000592082A01D908230593059B06990293CE
:1008F0000AAB0193089B08001B190093079BFFF7A5
:100900003DFF00280AD1099B059A19190AA801F090
:1009100081FD002804D0C043C00F01300DB0F0BDF0
:10092000059BE418D2E7F8B5C7690C68083F0E00CC
:100930000020BC4215D33900200001F091FC0138A1
:1009400001F088FC023080003900201A01F088FC98
:10095000050001F07FFC8000241A28006F43E41B8F
:100960003460F8BDF0B50C001500496B85B0002B64
:1009700007D05518012B04D00D00022B01D1E56AD8
:100980005519436FAB4232D32E008D4220D0236BDA
:1009900000935B0329D5876EE26BFB699A421AD0FC
:1009A0000291380002A9FFF7BEFF03A901903800A9
:1009B0000395FFF7B8FF019B83420CD1636C039A48
:1009C000934208D8A16C5B189A4204D26563E26333
:1009D000300005B0F0BD009BDB0202D401235B4276
:1009E0002364044B009A1A4022636563F0E71626DD
:1009F0007642EDE7FFFFFBFF10B50C00826AFF2196
:100A0000E06801F0E7FC01235B42236010BD0000B9
:100A1000F0B59FB01393C36E06000F000592002B34
:100A20000BD01268934204D85424644220001FB0B3
:100A3000F0BD059A52689342F6D9002516AB16957B
:100A400017950693079504220292069AAB0001922D
:100A500000220092059A3100D35830000422FFF79B
:100A60008DFE041E62D003005433DFD1069B043395
:100A70000693012D58D1079B05999A00059B9B5819
:100A80003B60079B5B192B400D939B00CB587B6011
:100A900016ABD358BB600023FB6002331193033BBA
:100AA0000793BB4B18AA11CB11C2390001200422B5
:100AB0000831404200F04CFE079B012505930023BE
:100AC000149010930F9309936D4208932800FFF739
:100AD0003EFE089BB26E1B1808930423029315ABCD
:100AE0000193089B3100009330003B68D269FFF707
:100AF00045FE041E26D02300543397D10025FB6801
:100B00000693002B00D04FE13B687A687B600D9B19
:100B10003A609B0016AA9B58BB60119B012B00D129
:100B200082E701231193BCE701258CE70123069A94
:100B30006B409B0016A912685B58D31A834295DD5F
:100B4000079593E70422149815A900F001FE159B60
:100B500014901BBA6B4006931593A34209DAF02355
:100B60002D0DDB001D408B4BED186B425D41EDB24E
:100B7000C5E70698FFF7EBFDB36EDB690C93089BA6
:100B80000C9AC318934200D9FFE0F021A0223B68E1
:100B9000C9001293089B250004330B93069BD200D7
:100BA0001B0D0B40011F0E91934254D1042302935D
:100BB0001CAB01930B9B310000933000129B0C9AED
:100BC000FFF7DCFD041E96D11C9A149B9A4295D126
:100BD000159B069A1B0DDB075A40069214A90422A6
:100BE000F06A00F0B5FDF0621598FFF7B0FD089BC4
:100BF000C018069BF8603B61099BBB82189BBB61D8
:100C0000199BFB610F9BFB7501235B421493059BB2
:100C10000793069D5AE70E9B5B1B0A93082B01D98D
:100C200008230A930C9B31005A1B0A9B3000029345
:100C30001CAB01930B9BEB180093129BFFF79EFDDF
:100C4000041E00D057E70A9A14981CA900F080FDF2
:100C50000A9B1490ED180E9BAB42DCD8159BE0214B
:100C60001D0D2A00C9000A400D421DD1099A1B031F
:100C70009B0D9A4201D8013309931599249B139D2A
:100C8000139A4B401D401A42C3D13B6827981C93CE
:100C90000B9B1CAA1D93269B9847041E58DA030041
:100CA000543300D12BE7C1E68021C9008A4220D10C
:100CB000099A6DB2521992B237490992059A1140B8
:100CC000364A0A43934205D18023059A1B061A43EC
:100CD0000592D2E7059A0132CFD0059A1B03120381
:100CE0009B0D920D9342C8D8059BAD02EB1805935E
:100CF000C3E7C0213B68C9008A4212D10821B26E05
:100D0000029118A901910B9930000091D26931002C
:100D1000FFF734FD041E00D0EDE601231D400F95C2
:100D2000ABE71F4A6D056D0D9542A6D10821B26E45
:100D300002911AA901910B9930000091D2693100FA
:100D4000FFF71CFD543000D1D8E60123109394E73F
:100D50001599002801D105915BE7059B114A4B408D
:100D600013420FD0022800D053E7059B1A030B0350
:100D7000920D9B0D9A4200D24BE780231B060B433A
:100D8000059346E701235B42FAE72500B7E6C04634
:100D9000E024002000FBFFFF00FC0F000000F04FEC
:100DA000FF05000000FCFF7F0023BB759D4236D08D
:100DB000B46E0698A16901F053FA0D1E2FD1109B55
:100DC0008B422CD0E3690A933B680B931A9B0993DF
:100DD00001235B420893099BAB421AD9099B5B1B19
:100DE0000593082B01D9082305930A9B31005A1B50
:100DF000059B300002931CAB0193069B5B1900938B
:100E00000B9BFFF7BBFC041E25D00300543300D01E
:100E10000CE6089A1B9B9B1A5A425341BB75E02370
:100E2000F46BDB00220D1A4226D03000390040302E
:100E3000FFF77CFC00281FD1079A24031203A30D9F
:100E4000920D9A4210D18024079B24061C43259BB7
:100E5000002B15D11FE0059A08981CA900F078FC1A
:100E6000059B0890ED18B6E7079901311CD007994A
:100E70000E480C189A4200D8079C259B002B07D0DF
:100E8000BA8A23039B0D934200D91300259A13803D
:100E9000002C00DBCAE5BA8A23039B0D00249A428A
:100EA00000D8C3E5023CC1E5079CD0E700FCFFFF8A
:100EB000F0B58BB00793CB68C46B0593E0230D6945
:100EC0000692DB00220D0F00049009951A4200D112
:100ED0007FE04030FFF72AFC002800D079E0069B35
:100EE0001B039B0D834200D173E0079B24031B036C
:100EF000A40D9B0D9C424AD09C42A441A40AA60288
:100F00002800FFF724FC059A031D93423FD8059B58
:100F100004991B1A05930423029309AB0193059BC3
:100F20000800009304223B68FFF728FC011E30D123
:100F3000099B069A1BBA6B405B005B08120309937E
:100F4000920D824219D0E0242A0D80211000E40085
:100F5000C9002040884210D10799881B01038C0DDD
:100F60002903890D8C4208D31C4908401C490143C0
:100F7000A9420CD052B292029619079A0699921B76
:100F80006A40114227D1AC05A315013304D10221D7
:100F9000494208000BB0F0BD129BA40D9C4200D941
:100FA0001C00119B059A0193109B049904339B1814
:100FB00002940093080022003B68FFF7DFFB011E4C
:100FC000E7D1129B1A1B119B181901F003FA711932
:100FD000DFE7002694E71D0092E7C04600FC0F0003
:100FE000000010401FB59C05A40D0294069C0194BE
:100FF00000240094FFF75CFF04B010BDF0B593B07F
:101000000D93036A15688B61436A0F00CB612B78DF
:1010100006900A92002B00D190E04B4C230D0B93CD
:10102000022B04D12800494901F03CFA2D18280070
:10103000464901F011FA0490012806D12B782E2B95
:101040000ED16B1C0793079DE8E7049B022B07D189
:1010500028003F49049A01F0DDF9002800D16DE035
:10106000049BEB181E00079301230593374B09934C
:10107000374B0C933000099901F014FA3618300000
:10108000099901F0E9F9089000281CD0012805D140
:1010900033782E2B13D1089BF618EBE7089B022B15
:1010A0000DD11A0030000C9901F0B4F9002806D1D6
:1010B000059B013B05938342EDD1B31CC2E7059B21
:1010C00001330593E7E72B78002B34D00A9B1D6092
:1010D0000B9B022B35D11F4A23039B0D93420DD04E
:1010E0001D4A1E4B224013433A0018320092390029
:1010F0001B4A0698FFF776FF041E1CDB3E001836DD
:101100000FAB0393174B069A02930D9B0F9201931B
:10111000F023049A39001192009206983200DB0500
:101120001095FFF775FC041E05DB00288BD1FB7DB5
:101130008342E5D1023C200013B0F0BD1624644286
:10114000F9E71424FBE7C04600FC2F00D024002060
:10115000D2240020FF03000000FC0F000800002044
:1011600000FC0F70F1060020F0B504000B6A99B086
:10117000E3664B6B0800A166E360002B03D08B6B2A
:10118000002B02D1E3610C20E1E0E3612100FFF7D5
:1011900033FC2100A06E1031FFF72EFCA16ECB6B4B
:1011A000002B01D16366EEE763660B6C002B5BD00E
:1011B00023674B6C002B00D1784B6367886C002849
:1011C00000D17748A0670B6D5A1C51D0002B0AD173
:1011D000CA6C8B6A002A49D0D208834200D9030026
:1011E000934200D913000125002620006D42E367D9
:1011F00031000C22A662E662256265623C3001F095
:10120000E9F8200031000C22303001F0E3F8200032
:1012100031000C22483001F0DDF831001C2210A80A
:1012200001F0D8F801231E00179304930595169B2F
:101230005A1C03D0179A511C00D0A6E0226BD30F82
:101240009B1823632200230030323C3323CA23C37C
:10125000E56EE06A290001F003F800206165A065F1
:10126000E065256619B0F0BDFF23A1E7CA69B3E7C1
:101270000023B8E7AB4203D105998A4200D18BE045
:101280000499B14205D1150000260499059349003F
:10129000049107AB0393434B434A02930023089204
:1012A00008220193414B099200932000404B16AA5B
:1012B00010A90794FFF7ACFB0028D3DB49D08005C9
:1012C0008015013045D0109B0AAF2362119B20008E
:1012D0006362374A374B009710A9FFF783FE002857
:1012E000C0DB0A990B0C022B30D189B201292DD811
:1012F000236B314A134001224A40520213432363B5
:101300000D9B002B03D0226F93421FD823670E9BA7
:10131000002B03D0626F934218D863670F9B002B9A
:1013200008D0A26F934211D8E26FA3679A4200D906
:101330001A00E267A36E0C9A196A002901D0914243
:1013400004D1E266DB690B9A9A4202D01620404231
:1013500088E70AAF2000194B194A009710A9FFF738
:1013600041FE002804DA831C00D07BE701365EE7EB
:10137000236B0A9A534023637A68636B5340636319
:10138000BA68A36B5340A363F0E705998B4200D082
:1013900070E7AA4200D073E75420D8E7FFFFFF7F31
:1013A000FE030000F1060020D52400200800F00F05
:1013B00000FCFF7F18001020FFFDFFFF0C00F07FF6
:1013C0000000F07FF0B589B00B6300234B63CB6363
:1013D000CB640B00079208330E9A03930A650B1D2A
:1013E0000C0007AA03990600FFF708FE051E12DA93
:1013F000831C2BD1474B079F19003800049301F041
:101400002BF804990590381801F04CF8059B3F180B
:10141000FB5C002B1AD10123A371B36A2360B46271
:10142000AB1C13D02B0D04931525012B49D1A28899
:10143000394B920213432200283200923000374A7F
:101440000399FFF7CFFD0027051E09DA21003000C0
:10145000FFF787F916E0226B04990A4215D101378C
:10146000236D9A689742F6D31B68E364002B27D05C
:101470002100B06E4031FFF7BFFA294A2B0D93428D
:1014800021D00025280009B0F0BD0C21C0207943EF
:101490005A68A388521891689B020B431178800008
:1014A0005268091809050B43009230001D4A039940
:1014B000FFF798FD0028D2DA831CD0D00500C5E7DD
:1014C0000C256D42C2E78023216B5B030B43236332
:1014D000002302226364B36EAD059B6A5242AD0DD8
:1014E000A262E5622264A364CCD0A2880E49920273
:1014F0008B4200D90B001A4380239B051343E26CF7
:10150000300000920399054AFFF76CFD051EB8DA1A
:101510009CE7C046D02400200800002000FC0F708B
:101520000102000000FCFF7FFE030000F0B597B051
:101530000C000A924A6BC96A070000208A4200D355
:10154000D7E08A1A08929A4200D90893089B06931A
:10155000069B002B01D10898CBE08022236BD2029E
:10156000134204D0BA6EE66BD269964215D180223E
:101570005203666B134200D08BE0A26AE36A1392B7
:101580001496002B4CD101221E005242A263E36349
:101590008022236BD20213432363BA6E0699D26969
:1015A0000992921B05928A4200D90591802252032A
:1015B000134200D19FE0059B099A9B199A4200D2E1
:1015C000B4E0230008331093A3885A4A9B021A43BD
:1015D0000A9B11920B93059B0793079B002B00D14D
:1015E00097E0E36C0F93236C023356D1616CA56CCA
:1015F0004D19AE4251D28E424FD3079BAD1B9D4237
:1016000000D91D000F9B711A59182A000B9800F081
:10161000E7FE0B9B76195B190B93079B5B1BDBE7C4
:101620002200BE6E4032013B15A93000099215938D
:10163000FFF779F914A905003000FFF774F9079056
:10164000139B0593079BAB4204D3059B149EA36396
:10165000E6639DE7079BE81A00F0F0FD060028000E
:1016600000F0F2FD1F239E1B864200D906000423D2
:10167000029313AB0193B300009304223800059B3F
:101680000999FFF77BF8002833D10123B340ED1A05
:10169000D6E702235B42A363DAE702235B422364BB
:1016A000BB6E30000D935B6919000C9300F0D8FD00
:1016B000731A0C9A0E936364099B11009D18013DE7
:1016C000AD19280000F0CCFD0D9B6D1A9B6A9D4260
:1016D00000D91D000F9BA56401930E9B3800009359
:1016E000154A119B10990295FFF7E2FB002800DBD9
:1016F00077E717B0F0BD2100059B009602930A9B87
:1017000038000193A36B099A4031FFF737F800289E
:10171000EFD1059A636B9B186363E36B9B18E363DC
:101720000A9B9B180A93069B9B1A10E75420404281
:10173000DFE7C0460000102000FCF7FF002310B5D3
:101740001A00FFF70FF9002800DD002010BD00008F
:1017500070B50F250A4C8A18914200D170BD0B78E4
:10176000060958402840800000591B094640734034
:101770002B409B001B59300958400131ECE7C04613
:10178000E8240020F0B50D0016000021202289B0C9
:10179000040000F01FFE2A00A81990420ED1002379
:1017A00069461A002380E05A5A5202331218202B3D
:1017B000F9D10022B24208D109B0F0BD137801324C
:1017C0005B00E15A0131E152E7E7A85C002806D04E
:1017D00040000B5A5F1C10335B000F52E252013283
:1017E000E8E70368426810B5934203D25A1C0260CE
:1017F000187810BD8368841D002B07D0E27F002A73
:1018000004D19847002801DBC0B2F2E70123002091
:10181000E377EEE7036910B55A1E04000261002B5E
:1018200004D1FFF7DEFF0723E0602361E06843088F
:10183000E3600123184010BDF7B5002517000190A3
:10184000A94204D0012426008E40B44201D3781965
:10185000FEBD0198FFF7DEFF604364002D18F4E73A
:10186000F7B500250B000F002C00203301908E1CD3
:1018700000930198FFF7CEFF009B9E420DD06D00B4
:101880002818358802362B19451B04D52418103426
:101890006400385BFEBD1C00EBE703204042F9E723
:1018A000F0B5D5B0039202220091FF320521050068
:1018B000FFF7C2FF0122052106002800FFF7BCFF49
:1018C0000422029011002800FFF7B6FF1322070040
:1018D000002104A800F07EFD0024BC4218D10024A1
:1018E0001322009804A9FFF74DFF029BF318019300
:1018F000019B9C4217D304AC320021000098FFF7F3
:1019000041FF0398029AA119FFF73CFF002012E063
:10191000002203212800FFF78FFF1D4B04AA1B5D47
:101920000134D054D9E728000099FFF799FF002827
:1019300003DA0320404255B0F0BD112820D0122810
:1019400022D0102818D1002CF3D02300413304AA50
:10195000FF339B1802210322423BFF3B1F782800E4
:10196000FFF76AFF019B20189842E2D804ABA0421F
:10197000BED0E7540134FAE704AB18550134B7E799
:10198000032211000027EAE70B220721FAE7C046ED
:10199000282500207047002310B5841DE37701241B
:1019A00064420361C3628462C2638163036403634C
:1019B00010BD0000F8B50400A36A013375D1200002
:1019C000A56AFFF727FF0022E06202212000FFF74F
:1019D00033FFA062012800D0CBE085426BD021000C
:1019E00000230831A21DD38702318B87CB870231B8
:1019F000CB870231CB8740310B804B8023001821ED
:101A000052331980803159802839998021008023F0
:101A1000183064315B00FF300B8001339BB2023120
:101A20008342F9D1200000239430590043520133FE
:101A3000902BFAD1D7218C204900400050521A2017
:101A40000231FF3050520231013050521C2002311D
:101A5000FF3050520231013050521E200231FF300F
:101A6000505202310130505220200231FF3050528A
:101A70002200C532FF32BC39138001339BB20232DF
:101A80008B42F9D1A922002320219200A352A2184F
:101A9000518153809380D3801381B1229200A11889
:101AA0005A008B520133202BFAD1A66A002E6FD038
:101AB000013E012E69D8236B002B38D12100200074
:101AC0004431FFF7CDFEA31DDB7F002B5DD1FF2846
:101AD00000DC7FE080235B00984200D1A5E0023863
:101AE000FF381C2851DC554B4200D25A544B195C2C
:101AF0002000FFF7A1FEA9239B002063E11820002E
:101B0000FFF7AEFE1D2840DC4E4B4200D25A4E4B32
:101B1000195C2000FFF790FEA36B002B75D0E26BE1
:101B2000904200D987E0236C1B1A6BD46363A16BCE
:101B3000A369626B002972D0581CA0618A5C1A707C
:101B4000A36B002B0BD0226C616B501C2064595C82
:101B50009954226CE36B9A4201D100232364636B96
:101B6000E26B0133934258D06363236B013B2363E1
:101B700041E0022899D1A92321009B002000E2180E
:101B80004431FFF78DFE00288FD00320404251E002
:101B9000206BB04217D12000FFF723FE0500200084
:101BA000FFF71FFE000245192000FFF71AFE07008D
:101BB0002000FFF716FE254B0002C01943409D424E
:101BC000E3D1681C26610138206300282DD0200055
:101BD000FFF707FEA3695A1CA2611870A26B002AC6
:101BE00009D0236C591C2164D054226CE36B9A42B7
:101BF00001D100232364A269E3699A4200D2DBE6A3
:101C0000002017E0D218626391E7A36962699B1A0A
:101C10009842BAD84042606389E70023A4E79A5CFF
:101C20001A70A3690133A3619FE7E36A002B00D117
:101C3000C5E60120F8BD0520A8E7C046962500208E
:101C4000D22500203C25002078250020FFFF000041
:101C500070B505000C00002C00D170BD2800013CBF
:101C6000FFF7BFFDF7E770B50400FFF7BAFD050009
:101C70002000FFF7B6FD0002284380B270BD70B5AA
:101C80000400FFF7AEFD1F2804D12000FFF7A9FDD7
:101C90008B2802D00320404270BD2000FFF7A1FD39
:101CA0000828F7D12000FFF79CFD05001F28F1D878
:101CB00006212000FFF7CCFF6B0706D52000FFF7B9
:101CC000D2FF01002000FFF7C3FF2B0704D520003F
:101CD000FFF787FD0028FAD1EB0604D52000FFF7B7
:101CE00080FD0028FAD10226354202D02000FFF7FD
:101CF000BAFF631DDE7701235B4200202362CBE73E
:101D0000044B0548054A1900043308609342FAD190
:101D10007047C04600E400E08080808020E400E05E
:101D2000044A1078431CDBB2172B00D91023137020
:101D30007047C046102600200021044B044ABFF320
:101D40005F8F02C39342FAD17047C046000100D0B2
:101D5000800100D0024BC918890001607047C0465D
:101D60004000003410B50400FFF7DAFF0100200046
:101D7000FFF7F0FFFF232371BFF35F8F10BD10B596
:101D80000400FFF7CDFF01002000FFF7E3FFFF2372
:101D9000A380BFF35F8F10BD10B50848084B984271
:101DA00000D310BD040003680834002B03D0FFF7F4
:101DB000E6FF2000F2E7FFF7D5FFFAE74026002014
:101DC00048260020142310B5010018889B889847E6
:101DD00010BD162310B5010018885B88984710BD08
:101DE000F8B50F00040000260125BE4201D12800ED
:101DF000F8BD2068FFF7E6FF01C4431E9841013695
:101E00000540F2E7F7B50C2444430193244B0092BC
:101E1000E4186368089A05000E00934200D26260DD
:101E2000C0232F1F9B01FFB2E318012F27D8012EDB
:101E300025D103221A60A3683342FCD0009B22689C
:101E40005B015340E022134080225201A350012F36
:101E500009D80321236873400B40A3500123B340EA
:101E6000A2681342FCD0802380229B011201E25021
:101E7000089B019A63600B4BAD00EA50F7BD8022CE
:101E800012011A60074BAA00D1580029D6D0586910
:101E900000F0E6F9431C032058430338FDD2CDE798
:101EA00000800040BC28002073B50D000699040096
:101EB0001800160000F0D4F9069A03001202290057
:101EC000009220003200FFF79DFF73BD13B5802400
:101ED00064000094FFF796FF13BD0000014B8000E3
:101EE000C0587047BC280020F8B504001F481700F0
:101EF0001E000D0000F0B4F90100380000F0B0F948
:101F0000069A3304120313432268002A0FDA3F2192
:101F100022680A40AA420AD1A2681205120D824222
:101F200005D1EE21E268C9020A409A421CD0104A4B
:101F3000104EA1184A42514101220C318A400E49EB
:101F40000A600E490A60170031688F43391EFAD1C2
:101F50000B4A2131A2182560A06011602168002978
:101F6000FCDAE36008231360F8BDC046001BB7002D
:101F70000040FDBF08C0004000E0004000F000400D
:101F800004300000024B1A68024B5A607047C0468A
:101F9000E4280020008005408022114BD20510B5B6
:101FA000104C1A60104A1460E022104CD204002930
:101FB00006D02260002805D180231B06236010BDB7
:101FC0001A60F7E7FA23DB005843094B094A9842A5
:101FD00000D918001060FFF7D5FF8023DB05EDE77F
:101FE00000B00540FCFF01000820014000A00540B2
:101FF000FFFFFF00E428002070B580240A4BE405B1
:102000001C600A4B00280DD00124094D04430948E7
:102010006540D8611D6259629C6200211000FFF783
:10202000BBFF70BDD861F8E700B0054000800540F7
:102030002D3FF84FD3C007B08023024A9B000B43CB
:10204000D362704700800540AA22064B12011A6035
:102050002132FF32DA600449044A11605A68002ACA
:10206000FCDA70470040024000B0FA000060024015
:102070007047000010B5044C044B9C4200D310BDC7
:1020800008CC9847F8E7C046482600208426002060
:10209000054B064A06491A60064B074A13601800AA
:1020A0000A689043FBD1704700E00040BFCDFBFEC3
:1020B00008C00040FE7F3C0000F00040044BDB6C99
:1020C000002B03D18022034BD2021A607047C04616
:1020D000000011504C201150044A054B1A60054A6B
:1020E0001368DB018033FBD17047C046FFFFFF015F
:1020F00000F0004008C000404022034B9A675A6736
:102100001A67DA667047C04600F0014010B5FFF765
:1021100013FE10BD70B50B490B4C0C4D641AA4088E
:102120002200302C00D930222800920000F058F90B
:10213000074B2F2C02D9074B9D6070BDA200AB50FE
:102140000134F6E700010010C0010010000000207B
:10215000C101001000ED00E0002373B5284DAB670E
:10216000FFF772FF0122274B1A606B6C012BFCD129
:102170000322254B1A60AC6B012CFCD102260525ED
:10218000210000960623214A2148FFF7ADFE2B00CF
:10219000210000951F4A2048FFF7A6FE31000022CB
:1021A00004201E4BFFF792FE2800210000221C4B4A
:1021B000FFF78CFE0022072011001A4BFFF786FE66
:1021C000002208201100174BFFF780FE8023002219
:1021D000DB00110000930920124BFFF765FE00227F
:1021E0000F4B11000620FFF771FE0420FFF776FE6B
:1021F0000D4900F035F801000020FFF71DFF73BD09
:10220000008000403CB0004030B00040002F6859D2
:1022100000800240008C864700C00240001BB700CF
:1022200040597307006CDC0240420F000148042152
:10223000014B184720260020291C0020014B5B6819
:102240001847000020260020014B9B68184700001B
:1022500020260020014B1B68184700002026002084
:10226000114A936F9B0813D210665166002905D05E
:10227000FFE7FFE7FFE7516F106F704704B50028D5
:1022800001D00020C04300F0C3F8002104BDC046C7
:10229000F0B5146E556E576F166FFFF7E5FF1466B5
:1022A000556657671667F0BD000000D0132370B560
:1022B0001C78114D012C0ED1002310499A000133D6
:1022C000A950202BFAD10D4BAB640D48FFF77AFDD6
:1022D0000C4B186070BD012CF5DD0B48FFF779FD44
:1022E00006000A48FFF775FD80223100280000F043
:1022F00077F8022CE9D1E6E7E828002059210020F0
:102300004C330000E82900205344000053460000ED
:1023100007B5604601880A0A0230DF2AFAD1C9B23D
:10232000820804D3028840880004104300E000685B
:10233000014A5050039007BDE8280020132310B530
:1023400010481C78FFF745FD0100012C13D10E4CFD
:102350005422200000F044F815230C4A9900013360
:102360006250202BFAD12262E2610948FFF72AFD70
:10237000084B186010BD012CF7DD8022024800F0E8
:102380002FF8F2E753460000EC290020E12100205D
:102390004C330000E829002007B5604601880A0A8E
:1023A0000230DF2AFAD1C9B2820804D302884088F9
:1023B0000004104300E00068014A5050039007BD3C
:1023C000EC29002001480421014B18473026002049
:1023D000291C0020014B1B681847000030260020F4
:1023E000014B5B6818470000302600207047000052
:1023F00010B5FFF73FFE044C044B9C4200D310BDC8
:1024000008CC9847F8E7C0468426002084260020A0
:102410007047C04630B50400032A18D90B000343A7
:102420009B070BD00023013A02E09A4211D00133FE
:10243000E05CCD5CA842F8D0401B0BE020680B6844
:102440009842EFD1043A04340431032AF6D8002A22
:10245000E8D1002030BDC04630B50C00017884467C
:1024600000291CD02578002D14D022002B0003E079
:1024700053780132002B04D08B42F9D16346C01A45
:1024800030BD417801300029EFD1F7E78378023081
:10249000002BF3D04378002BF8D10130EEE7002079
:1024A000EEE7C04630B50C000178844600200029D4
:1024B00012D025786046002D0CD022002B0003E0BE
:1024C00053780132002B05D09942F9D1417801307F
:1024D0000029F2D16346C01A30BDC046084A10B583
:1024E0001378002B0AD18023064807495B051C6836
:1024F000C45004338B42FAD10123137010BDC0467F
:10250000ED2A0020BC2700100001001010B5014B7F
:10251000984710BDBD270020002310B5011D064CB3
:102520009A00145901338C50062BF8D1A0235B0577
:102530001B68036010BDC04604000240002330B594
:10254000041D9A00A158054D01335151062BF8D1B5
:10255000A02302685B051A6030BDC046040002403B
:102560008023F0B5421807000E008DB05B049A423C
:1025700001D9FDF762FF14251824288823881549FE
:102580009847238801901449288898472388029007
:10259000124928889847238811490390288898472A
:1025A0000400FFF79BFF05A8FFF7B6FF019B9847C4
:1025B000029B98478022D823310038005202039DA5
:1025C000A847A047FFF7A2FF05A8FFF7B7FF0DB088
:1025D000F0BDC04649460000455800005245000085
:1025E000464300008023F0B517008DB08218060026
:1025F00000915B049A4201D9FDF71FFF14251824AE
:1026000028882388134998472388019012492888ED
:1026100098472388029011492888984723881049B1
:102620000390288898470400FFF758FF05A8FFF794
:1026300073FF019B9847029B98473A00300000992E
:10264000039B9847A047FFF761FF05A8FFF776FFB8
:102650000DB0F0BD49460000455800005250000042
:10266000464300005069636F204F5441006F74610E
:10267000636F6D6D616E642E62696E002F002E2E89
:10268000006C6974746C656673000000FFFFFFFFE7
:10269000FFFFFFFF000000006410B71DC8206E3B65
:1026A000AC30D9269041DC76F4516B6B5861B24D59
:1026B0003C7105502083B8ED44930FF0E8A3D6D6C3
:1026C0008CB361CBB0C2649BD4D2D38678E20AA02B
:1026D0001CF2BDBD10111200080709060A050B0403
:1026E0000C030D020E010F000100020003000400A4
:1026F0000500070009000D0011001900210031003C
:10270000410061008100C10001018101010201035A
:10271000010401060108010C01100118012001301B
:1027200001400160000000000101020203030404F3
:10273000050506060707080809090A0A0B0B0C0C11
:102740000D0D030004000500060007000800090045
:102750000A000B000D000F001100130017001B00F2
:102760001F0023002B0033003B0043005300630095
:1027700073008300A300C300E30002010000000017
:102780000000000000000101010102020202030337
:10279000030304040404050505050000F42F0010DC
:1027A000F02F001000500320000000000000000087
:1027B0000051032000000000000000001000000095
:1027C0000000000000000000000000005033000086
:1027D0004C33000054330000523300004D530000CE
:1027E0004D4300005334000043340000000000005B
:1027F00000000000752000200D220020E9000020CC
:10280000D91E0020051F0020F52000208521002072
:10281000A11F0020211F0020411F0020551F002064
:10282000E11B00205D1F0020B91E0020491B002075
:102830000000000000000000000000000000000098
:102840000000000000000000000000000000000088
:102850000000000000000000000000000000000078
:102860000000000000000000000000000000000068
:102FF00000F01F1000F01F1000F01F1000F01F0065
:1030000000200420E3300010CB300010CD30001041
:10301000C9300010C9300010C9300010C93000108C
:10302000C9300010C9300010C9300010CF30001076
:10303000C9300010C9300010D1300010D33000105A
:10304000C1300010C1300010C1300010C13000107C
:10305000C1300010C1300010C1300010C13000106C
:10306000C1300010C1300010C1300010C13000105C
:10307000C1300010C1300010C1300010C13000104C
:10308000C1300010C1300010C1300010C13000103C
:10309000C1300010C1300010C1300010C13000102C
:1030A000C1300010C1300010C1300010C13000101C
:1030B000C1300010C1300010C1300010C13000100C
:1030C000EFF30580103800BE00BE00BE00BE00BE9B
:1030D00000BE00BE00201E49086006C881F30888B3
:1030E00010471C480068002801D00020F3E70DA419
:1030F0000ECC002902D000F012F8F9E71649174A61
:10310000002000E001C19142FCD1154988471549D2
:1031100088471549884700BEFDE701C901C29A42A8
:10312000FBD3704760400110C0000020C81300208E
:1031300068530110000004200000042068530110AF
:103140000010042000100420000000007047000060
:1031500008ED00E0000000D0C8130020AC250020DE
:10316000611B011035570010FD560010F8B5C04620
:103170000448054B10B5834203D0044B002B00D00C
:10318000984710BDC8130020C8130020000000009D
:1031900006480749091A8B10C90FC91810B54910FC
:1031A00003D0044B002B00D0984710BDC81300205B
:1031B000C81300200000000010B5074C2378002B36
:1031C00009D1FFF7D5FF054B002B02D0044800E0E2
:1031D00000BF0123237010BDE01600200000000096
:1031E00034290110054B10B5002B03D004490548C4
:1031F00000E000BFFFF7CCFF10BDC046000000009C
:10320000E41600203429011013B51A210A4800F0F1
:1032100073F91B21084800F0B7F90123074C00930C
:103220003C220221200001F0FBFD200001F0E7FD1F
:10323000034B636113BDC046A0180020841D00200D
:103240000100010070B5154C200001F0D8FD2000F0
:10325000022101F03FF9002320001149236102F00F
:103260003DF92000012101F035F9C02320005B0366
:103270000C49236102F020F90B4D0A222968200035
:1032800002F077F9200002F03DF8FA202B684000A8
:1032900001332B6002F0CFF970BDC046841D0020C1
:1032A000382901103F290110801D00201FB5074A51
:1032B00080210292064A074B01920122524200925B
:1032C0000548413201F08EFC05B000BDA08601002A
:1032D000801A0600A0180020841D002000207047DE
:1032E00010B503689C6B0123A04710BD10B503689F
:1032F00001211B6B984710BDF8B505000F001600A3
:103300000024B44201D12000F8BD2B682800395DAB
:103310001B6898470028F6D00134F2E70200037FCB
:103320000020834202D0D36A106B181A70470368DA
:1033300010B51B6904009847002805D0236B626A0A
:10334000591C2163D05C10BD01204042FBE703689B
:1033500010B51B6904009847002803D0626A236BEC
:10336000D05C10BD01204042FBE77047816370478D
:103370004163704710B50022012103F0A5F910BD8B
:1033800070B5FA240600002503F0ACFF6400241891
:103390004D4103F0A7FF8D4202D806D1844204D9E3
:1033A000300002F00DFB0028F3D0300002F008FBE3
:1033B000431E9841C0B270BD037F002B07D0C37F6E
:1033C000002B04D1C362036301338177C377704755
:1033D00010B5037F8161002B02D0006904F092FADE
:1033E00010BD70B5057F0400002D1BD181694577A4
:1033F000006904F0D7FA2A002900206904F0FAFADB
:103400000321207D03F040F9207DFFF7B3FF032166
:10341000607D03F039F9607DFFF7ACFF0123E577AC
:103420002377E56270BD000070B5037F04000E00D5
:10343000002B2ED1012581694577006904F0B2FA8D
:1034400029003200206904F0D5FA236911491A686D
:103450001163114A9D1A69424D4110491735934233
:1034600000D00F49280003F0CFF90121280003F014
:103470009BF90321207D03F007F9207DFFF77AFFF8
:103480000321607D03F000F9607DFFF773FF0123E6
:10349000237770BD64160000400D00204D370010EA
:1034A0005D37001070B5FA250400AD00A560104D21
:1034B0000020256001256D422564656425000126F4
:1034C00050356060A087A064E0642E70606563750D
:1034D0002077084BE077E0620130FF3022752161F0
:1034E000A361A0620BF0B0FD6062200070BDC04619
:1034F000142B0110A0860100F0B5060087B002ACC5
:103500000F00102220001C4905F008FB337F0193B7
:10351000002B15D1194A336901209B1A5A42534195
:103520000021DB003A00E4180FF046F92368184048
:1035300063681940084303D03775012007B0F0BD18
:10354000337DBB42F9D0019932690C4B002909D077
:103550000B4949319A4201D1094947310848603045
:1035600003F048F8064949319A4201D104494731EC
:103570003A00044803F03EF8302C0110400D0020C2
:10358000E02B0110722C0110F0B5050087B01E4B26
:1035900002AC0E00102220001C49019305F0BEFA77
:1035A0002F7F002F16D11A4A2B6901209B1A5A42ED
:1035B00053410021DB003200E4180FF0FDF82368CE
:1035C0001840636819400843B84203D06E75012063
:1035D00007B0F0BD6B7DB342F9D00E4B28691900DE
:1035E0000B4A4931002F07D0904201D147331900CF
:1035F0000198583002F0FEFF904201D14733190084
:103600003200054802F0F6FF602C0110A82C0110D2
:10361000400D0020E02B0110EA2C011090B585B080
:1036200000AF78607B681B691B68DB6AFB60FB6826
:10363000002B00D186E0FB68042213401AD07B687F
:10364000DA6A7B689B6A9A4210DA7B681B691B689E
:103650001B69DCB27B68596A7B68DA6A501C7B683C
:10366000D8621300CB18221C1A7003E07B681B6918
:103670001B681B69FB68202213400AD07B685B6BC8
:10368000002B02D07B685B6B98477B681B691B68CB
:103690001B6DFB684022134003D07B681B691B68CD
:1036A0005B6DFA688023DB00134007D07B683C2207
:1036B000012199547B681B691B685B6EFA68802343
:1036C0005B0113401CD07B689B6B002B09D07B688F
:1036D000DB6A002B05D07B689A6B7B68DB6A18007D
:1036E00090477B680022DA627B6800221A637B685D
:1036F0003C22002199547B681B691B68A8229B58B7
:10370000FA6880239B0013401DD07B689B6B002BC5
:1037100009D07B68DB6A002B05D07B689A6B7B68DD
:10372000DB6A180090477B680022DA627B6800221F
:103730001A637B683C22002199547B681B691B68D3
:103740001B6E00E0C046BD4605B090BD10B50248F6
:10375000FFF764FF10BDC046A018002010B5024856
:10376000FFF75CFF10BDC04648180020F0B51600FA
:103770001C0085B0019103900221019802F094F899
:103780000221300002F090F80521300002F07CFFA9
:103790000521019802F078FF0121019802F0EEF86E
:1037A0002100494804F020FAC50F2D186F10ED17BD
:1037B0003800290003F0F8FC0121300002F0DEF8A7
:1037C0003000FFF7DDFD041E57D00021019802F004
:1037D000D5F83800290003F0E7FC0021300002F0A2
:1037E000CDF83800290003F0DFFC08230293039B87
:1037F00001985B000393D9110123194002F0BEF830
:103800003800290003F0D0FC0121300002F0B6F8A6
:103810003800290003F0C8FC3000FFF7B1FD041E9A
:103820002BD00021300002F0A9F80520002103F080
:10383000BBFC029B013B0293002BD8D101210198D4
:1038400002F09CF83800290003F0AEFC01213000A2
:1038500002F094F83000FFF793FD041E0DD001989C
:1038600002F0AEF8434258412900C4B2380003F0D8
:103870009BFC3000029902F081F83800290003F027
:1038800093FC0198002102F079F83800290003F038
:103890008BFC3000012102F071F83800290003F0A0
:1038A00083FC0198012102F069F83800290003F037
:1038B0007BFC3000032102F0E7FE0198032102F0B7
:1038C000E3FE200005B0F0BD40420F000122431C82
:1038D00070B50400DA77002911D00368427F5B6A73
:1038E0008669002A0CD0857F984723683100200024
:1038F0009B6A98472368290020001B6A984770BD7F
:1039000098470221207D01F0CFFF0221607D01F068
:10391000CBFF0521607D02F0B7FE207D052102F07E
:10392000B3FE207D02F04CF8002829D10925207D26
:1039300002F046F8011E11D1607D02F01FF805204B
:10394000002103F031FC0121607D02F017F8013DF8
:103950000520002103F028FC002DE8D1207D02F095
:103960002FF8050001280BD10021207D02F006F878
:103970000520002103F018FC2900207D01F0FEFF46
:103980002368200031009B6A984723682000DB6988
:103990009847B4E7F0B58BB006910793037F050015
:1039A0001400002B03D1002420000BB0F0BDC67F13
:1039B000002EF8D1B242F7D0836A9342F3D3036961
:1039C00087680493436A059303F08CFCFA220890FD
:1039D0000991002392003800310005F077F8089A29
:1039E000099B80185941B14202DA01200E49404238
:1039F0000123079A0290039153400093059A2300F4
:103A00000699049804F02BF80400E862C31C08D956
:103A1000023404D1AB1C2800D97FFFF757FF0024E4
:103A2000EC6200232B63BFE7FFFFFF7FF0B58BB095
:103A30000791037F0500002B02D104200BB0F0BDDD
:103A4000C37F002BF9D00026C46A877FC677B442B3
:103A50000AD1427D017D836938000124FFF786FE8B
:103A60006040A040C0B2E9E703690493436A05934C
:103A70008368069303F036FCFA220890099100232C
:103A800092003100069805F021F8089A099B8018E9
:103A90005941002902DA01200E4940420123079AC8
:103AA000029003915340009339002300059A049833
:103AB00003F0BCFF831C06D1AB1C2800D97FFFF7A5
:103AC00005FF0520BAE70023201AEB62431E984148
:103AD0008000B3E7FFFFFF7FF7B5037F04000D0011
:103AE000002B32D0437F002B31D08368019303F049
:103AF000F9FBFA2206000F00002300210198920032
:103B000004F0E4FF80197941002902DA0120164906
:103B100040420E002369154F1B685A6F102A09D1C5
:103B20007A6A01929642F8D8BA6A824202D2019A1F
:103B30009642F2D05A6F102A02D01D61012005E092
:103B4000A31C2000D97FFFF7C1FE0020FEBDC37F6C
:103B5000002BFAD0C36A826A9342F6D0426A591C9B
:103B6000C162D554EAE7C046FFFFFF7F0040054031
:103B70000022036910B51B6888331A600123C277DD
:103B80000200190050321370426C9140044A1160D7
:103B9000016C8B401360436D002B00D0984710BD23
:103BA00004340050F8B5A025084C094FED052E59F6
:103BB0003B68334205D0074B1868002801D0FFF757
:103BC000D7FF3B6833402B51F8BDC0460C040000C2
:103BD000041900200C190020F8B5A025084C094F45
:103BE000ED052E593B68334205D0074B1868002875
:103BF00001D0FFF7BDFF3B6833402B51F8BDC046F5
:103C00000C040000081900201019002070B50600EF
:103C10003D3633780400002B33D01D4A0169002360
:103C200091422FD01B4A1C4913601C4A13600B2081
:103C300002F0D8FE206C002807DB03F02BFD206C7F
:103C400003F020FD01235B422364606C002807DB46
:103C500003F020FD606C03F015FD01235B426364FB
:103C600000252369A06C1B6888331D600BF0F6F9F2
:103C7000230001225033A564E564E5771A70656579
:103C8000357070BD064A07491360074A1360CEE7D6
:103C9000400D002004190020A53B00100C19002045
:103CA00008190020D93B00101019002070B504003D
:103CB000FFF7ACFF237F002B21D0637F002B10D0B8
:103CC00022690F4BD51A69424D410E4917359A4268
:103CD00000D00D49280002F085FE0021280002F0E6
:103CE00063FD206903F000FE0021207D01F0DCFD72
:103CF0000021607D01F0D8FD00232377E37770BDBC
:103D0000400D00204D3700105D37001010B5052321
:103D1000042205490548FFF7C5FB1B231A22044965
:103D20000448FFF7BFFB10BD480D002048180020D5
:103D3000400D0020A01800207047F0B51D0089B08C
:103D40000EAB00241C5F0FAB1B886F1A0693A31ADF
:103D5000160094460190DA17F8179B183F18534045
:103D60004740029303970398029F2A000B00009498
:103D7000874205DC220033002C000E00150061464E
:103D8000A64208DC18001300020028000D00010004
:103D90002000340006009B1ADA179B185340079343
:103DA0006B46301B049010229A5ED30F9B185B1059
:103DB0000093012305938D4201DB023B0593B4423E
:103DC00001DD09B0F0BD019B039A1B689B691F00D0
:103DD000029B934214DD22002900069B0198B847FC
:103DE000009A079BD31A1AB200921A0405D5059AB5
:103DF000AD18049A2DB2D3180093013424B2DEE733
:103E00002A002100069BE9E7704710B50468246981
:103E1000A04710BD37B506AC258804680095A46B93
:103E2000A04737BD37B506AC258804680095E46B1C
:103E3000A04737BD73B506AC0025655F07AC268883
:103E4000046801960095246CA04773BDF0B5160078
:103E500004000D0085B003930AAB1F8803685B69FB
:103E60009847039B2268013B9B191BB20093019763
:103E70002B0029002000976A3200B84723682000F1
:103E8000DB6A984705B0F0BDF0B5040016000D00E0
:103E900085B003930AAB1F8803685B699847039B4F
:103EA0002268013B019700965B1929002000976A60
:103EB0001BB23200B84723682000DB6A984705B080
:103EC000F0BDF0B587B01F000CAB059200229B5EE1
:103ED0000C0003930DAB1B88050004930368E719DE
:103EE0005B6998472B68BC4204DB2800DB6A984773
:103EF00007B0F0BD049A210000921B6A28001E0042
:103F0000059A039B0134B04724B2EBE713B5019146
:103F10000E24015F0C22835E02680091146C002263
:103F20001100A04713BDF0B504001D0087B00CAB15
:103F3000049200229B5E039105930DAB1E880368DB
:103F40005B6998472368009620005F6A049A2B00FB
:103F50000399B847059B20005A1E049B0399D21869
:103F6000236800965F6A12B22B00B8472368009658
:103F700020001F6A049A059B0399B847039B013DE3
:103F8000E9182368009620001F6A049A059B09B26D
:103F9000B84723682000DB6A984707B0F0BD704738
:103FA000F0B585B01D000AAB0027DF5F0BAB1B88A7
:103FB00014000600026802910393A94210D1BC428A
:103FC00002DC3B0027001C00039901340091E31B35
:103FD000956B30003A0002991BB2A84705B0F0BDBE
:103FE000BC4211D1029BAB4202DC2B00029D02932A
:103FF000029B0399013300915B1BD76B29002200C0
:1040000030001BB2B847E9E753699847039A336811
:104010000192009730009F6A22002B000299B84756
:1040200033683000DB6A9847D8E703230B4010B5AC
:1040300083760822835E0A24025FC90702D419002E
:1040400013000A008281C38110BD000010B54281B7
:10405000C281012200235242054C4261054A43605D
:10406000046001818181036182610377036210BD75
:10407000282D011001010001F0B58BB0099310ABA0
:10408000089200229B5E0791029311AB00229B5E77
:104090000500059312AB1B88069303685B6998477C
:1040A0000721029BDA1DD3170B409B18DB100393EB
:1040B00000231F001E000093059B9F422BDA089BE4
:1040C0000024FB181BB20197049313E007231C4242
:1040D0001BD07600F6B273B2002B09DA079B2800DA
:1040E00019192B68049A9B6909B21F00069BB847EF
:1040F000013424B2029B9C42E8DB009B019F039A9F
:1041000001379B183FB20093D6E7099A0099E31054
:104110005218D65CDFE72B682800DB6A98470BB0A3
:10412000F0BD0000F0B595B01D001AAB1B880492DD
:1041300006931BAB1E881CAB1B78026A03931DAB56
:1041400004001F780591002A00D0B8E00C22835E9D
:104150008B4274DD0E22835E049A93426FDD062348
:10416000039A53435B18002B69DD049AFB009B18EC
:10417000002B64DD037F002B03D1AF2D01D9013566
:10418000EDB2236820005B69984705235D430B93DC
:10419000002307938E4B5B190E93079A0E9B09928F
:1041A0009B5C0A93039B5343059AD3181BB20D9350
:1041B00008230C930023089301220A9B134250D03A
:1041C000039B2068089A012B3BD19F4239D1049B65
:1041D0000599D218099B85695918069B12B209B234
:1041E0002000A847089B01335BB208930A9B5B0839
:1041F0000A930C9B013BDBB20C93002BDCD1079B99
:1042000001335BB207930B9B013BDBB20B93002B9B
:10421000C3D1069BB3420ED0039B2268012B3DD134
:104220009F423BD1059900960531156A2000049AFA
:1042300009B20733A84723682000DB6A984715B006
:10424000F0BD6B467A430C215B5E04998A1806998F
:1042500012B2019139B20091C5690D992000A847A9
:10426000C0E7069BB342BDD0039B2068089A012B90
:104270000BD19F4209D1049B0599D218099B8569EE
:10428000591812B2330009B2AAE76B467A430C21DF
:104290005B5E049901968A1812B2DBE76B460C212B
:1042A0005B5E05210398FF00414305980196411884
:1042B0000097D5692000049A09B2A847BBE7137A92
:1042C0005168ED1A1268EDB2ED0011924A5B4B197C
:1042D00009929A780D92DA78129205229A569B7971
:1042E0000E925BB20F9300230C930B93039B3B4303
:1042F000012B02D90F9B0B920C93236820005B6962
:10430000984700231E000A930893129B9E4200D3F5
:1043100091E70C9B049AF3187B43D31800221BB23D
:10432000109307920A9B33E05A1C13920722134200
:1043300007D1099B0999119A0133525C9BB20892EB
:1043400009936B4620331B785BB2002B15DA039B75
:104350002068012B27D19F4225D1049B0F9A0E99EB
:104360009A18059BB2185918079B12B259188369FD
:1043700009B21D002000069BA847089B079D5B0013
:10438000DBB201350893EBB207936B464C331B78D5
:104390000D9A07999142C7D30A9B01369B18DBB24D
:1043A0000A93F6B2B1E76B4607990C229B5E0B9A13
:1043B0005118039A5143059A5118069A09B201926D
:1043C0003AB20092C26920001500109AA847D4E7BB
:1043D000782D0110F0B5026A04000B0085B0002AA8
:1043E00034D10A2908D1437E0282DB00628A9B18FD
:1043F0006382012005B0F0BD0D29FAD0E17E007E78
:10440000657E00290ED01026A15F06264643891935
:104410000C27E65FB14205DD1226A15F2282EA0089
:10442000521862821221625E1026A15F03950290EB
:10443000E08A0190A08A00902000FFF773FE062218
:10444000237E5343228A9B182382D2E70A2905D16F
:1044500000230382127B437E5343C7E70D29C8D054
:10446000117A8B42C5D3907A9842C2D3591A5568B3
:10447000C9B2C9006D18AF78002F28D0E97800299B
:1044800025D0E17E207E667E002913D00521695665
:10449000C91941438C461021675EBC440C21675EFC
:1044A000BC4507DD1227E15F00272782127B72439C
:1044B000521862821221625E1027E15F0396029019
:1044C000E08A0190A08A00902000FFF72BFE2B7954
:1044D000227EB6E70B1C002900D101230376437628
:1044E00070477047704770B506000C008D18AC42DD
:1044F00000D170BD3368217830009B6898472070E8
:104500000134F4E710B5837D0400002B04D00023B0
:104510008375406803F0BCFA207CFF2802D0052197
:1045200002F0B2F8237D002B03D00521E07C02F0DD
:10453000ABF8A07C052102F0A7F8607CFF2802D030
:10454000052102F0A1F8002323726372A372E372C3
:104550002373637310BDF8B5160001228B68040045
:104560000D1D101C002B08D19A421ED0CA6895421E
:1045700011D1236065602000F8BD1D69021CB542A1
:1045800000DC0022D2B2B54203DD9F681D003B0073
:10459000E8E7DF68FAE7280006F0E6FA0269002398
:1045A000B242E6DB20606360E5E72800F6E7F0B59D
:1045B0000F00010085B005003A00303102A8FFF776
:1045C000CAFF039E002E15D02B0034330193029BAB
:1045D000002B11D00124182006F09CFA00230100C2
:1045E00043610761019B3200200006F0D9FA6B6C31
:1045F00001336B6405B0F0BD019A9642EAD032698E
:104600000124974200DB1C1CE4B2E4E770B504000F
:10461000002C00D170BDE068FFF7F8FFA56820000E
:10462000182106F073FA2C00F2E710B50400806B35
:10463000FFF7ECFF200010BD10B50400FFF7F5FFF9
:104640002000582106F062FA200010BD3322030931
:104650000001184343B29B00800893431040184365
:1046600043B2223240085B00104093431843C0B26B
:10467000704770B50500C0B2FFF7E8FF0402280AD2
:10468000FFF7E4FF204380B270BD7FB56B46D98051
:104690009D1D837D0400181E1AD0637B88B2012BF8
:1046A00001D0FFF7E6FF0F23288060680E2602681E
:1046B0006E4493438022520183502900012332002B
:1046C0000EF0CAF8637B3088012B01D0FFF7D1FFD1
:1046D00004B070BDF8B51400827D07000D00002AFB
:1046E00012D007214068E618026851400F2211409D
:1046F0008022520181507A7B012A1FD1002C04D1E3
:104700001A0029000EF088F8F8BD2200002D03D110
:10471000FF210EF039F8F7E729000EF08DF8F3E7E6
:104720003B6838009B682978984720707B7B012B79
:1047300001D0FFF78BFF207001350134A642EFD185
:10474000E2E77FB56B46D971DD1D837D0400181E3D
:104750001CD0637BC8B2012B01D0FFF777FF072382
:10476000287060680F2602686E4453400F22134081
:104770008022520183502900012332000EF05CF8A0
:10478000637B3078012B01D0FFF760FF04B070BD70
:10479000436C70B50500002B07D001F037F93435B4
:1047A000AC68A54202D101F019F970BD61692069B8
:1047B000012201F0C7FF200006F0BEF90400F0E777
:1047C0000200343270B5836B04001000002B0ED150
:1047D00082420BD00369994208DB110006F0A0FA6F
:1047E000182106F093F9636C013B636470BD1D6989
:1047F000A94203DC9D6818002B00E7E7DD68030091
:10480000F9E70000F0B54369060089B0002B16D027
:1048100001F0FCF8D0231B061B685A4253412F229B
:104820005B429343524A9B180493F3680193331DF0
:104830000093009B019A934203D101F0CFF809B095
:10484000F0BD0722019B1C69E31713401B19049A52
:10485000DB109B00D718474B3A68234004D508214A
:10486000013B49420B4301339B0005931300059A1A
:10487000009DD3400F2213400393B368002B12D145
:10488000009BAB4219D02B699C4216DB039B6B61EA
:104890000599039B3A688B40534001983B6006F0B2
:1048A0004BF90190C5E71A69944203DC9A681D0030
:1048B0001300E3E7DA682B00F9E7182006F02AF97D
:1048C000039A009B029004614261AB420ED173696E
:1048D000002B03D0326913699C422FDC2200310087
:1048E00006A8FFF738FE069B079A22E02B699C4238
:1048F0000FDAF26895420AD0280006F035F903690C
:1049000002009C42EADDC368002B17D02A00012078
:1049100018E09C4226DD326995420FD0280006F04F
:104920000BF9026903009442D8DAEA68002A11D030
:104930000200002A16D00120002B03D1009B012089
:10494000934208D1009B029906F02AF9736901335A
:1049500073619DE72A00136901209C4200DB00205F
:10496000C0B2EFE71821029806F0D0F890E7C046F1
:104970003041014007000080F0B585B002910392FC
:10498000827D02AD04000E008368002A3DD099426A
:1049900009D18289AB889A420CD120003030FFF7D0
:1049A00031FF05B0F0BD406803F072F83100606877
:1049B00003F0D2F82000022729000622083004F074
:1049C000ADF86168237B124A48688F509A1E3840C0
:1049D000D2B20125019010000022BB43013B854269
:1049E00052415F427B419201DB01134307221A438C
:1049F000CF230E6872401A4080235B01CA50054BDA
:104A0000C918019B0B60A575C7E79942CED1D1E7C4
:104A10000430000004200000F0B505AC267806AC98
:104A200027780F4C050004600024343504622C7094
:104A3000C56305642035846344648464C464046588
:104A40002C70477486744160447584750472447296
:104A50008472C472047344730274C374F0BDC0469C
:104A60008032011070B50400007C0D00FF280BD1CE
:104A7000637C83420BD1144B626814499A4200D183
:104A80001349144801F0B6FD012101F0FDFD257523
:104A9000002D03D00121E07C01F0F6FDA07C012176
:104AA00001F0F2FD607CFF2802D0012101F0ECFD55
:104AB00023682000A168E2681B6A984723682000E9
:104AC0005B6A984770BDC04600000440D5290110BC
:104AD0004A290110B029011010B50021FFF7C2FFCB
:104AE00010BD0000132307B50193013B10220849B4
:104AF00000930848013BFFF78FFF0F230193013B11
:104B000000930C2204480549013BFFF785FF07BDD0
:104B100000C00340341700208C1700200000044020
:104B2000F0B50C00144319D40C25445F8C4215DDFC
:104B30000E25445F944211DD847E022C0FD0032C9D
:104B400016D0012C04D10489A41A013C0A0021B218
:104B5000012B13D0022B33D0002B1FD0F0BD0489C2
:104B6000013C611A448909B2A21A013A12B2EFE774
:104B70004489013C641A110022B2E9E70725D417E1
:104B80002C401540AB400827C65FA418E4107443BE
:104B9000C06A6118425C13434354DFE70724D3170C
:104BA00023400826855F9B18DB106B435B18C16AA6
:104BB0001440CB180121A1401A788A431A70CDE71E
:104BC0000724D31723400826855F9B18DB106B430F
:104BD0005B18C16A2240C918012393400A785340E8
:104BE0000B70BBE770B5002604001D0004AB9E5798
:104BF000FFF72CFA114B2360002363629D4200D122
:104C00000F4DE3622300FF223333A5621A702200A6
:104C1000012336325B42A3861370230037331E70A4
:104C2000059B8022A363069B5200E363054B200093
:104C30006364230048331A8070BDC046C03201103F
:104C40004818002000093D00836AF7B504000E00F3
:104C50000200002B14D0303211781A681800D26A82
:104C60009047A06A002103681B689847A06A31003A
:104C700003681B689847A06A03685B6B9847F7BD99
:104C800035321078190000F079FE606A002804D0EF
:104C9000036831009B689847F1E7082780252300C7
:104CA000290033331878314000F068FE2300343394
:104CB00001931878012100F061FE019B0021187812
:104CC000013F00F05BFE6D08002FE8D1D7E770B51B
:104CD0000400806A0D00002810D00368A16B9B6A55
:104CE00098475A3D2000E9B2FFF7AEFFA06A0028BE
:104CF00013D00368E16B9B6A984770BD606A002817
:104D000004D00368616C1B6AA26C98472300363399
:104D10000021187800F032FEE3E7230036331878DC
:104D2000012100F02BFE606A0028E6D003685B6A70
:104D30009847E2E7F0B5836A85B08A1805000C0051
:104D40000392002B2DD007001A68303718003978ED
:104D5000D26A9047A86A0021036801261B68984719
:104D6000A86A039A0368944203D15B6B984705B025
:104D7000F0BD202E0CD15B6B9847A86A3978036888
:104D80001F3EDB6A9847A86A002103681B689847A2
:104D9000A86A2178036801361B689847B6B20134C7
:104DA000DEE7020035321900107800F0E7FD039BC2
:104DB0009C42DCD02378686A0193002805D0036800
:104DC00001999B6898470134F1E7082780262B005A
:104DD000019933331878314000F0D0FD2B00343383
:104DE00002931878012100F0C9FD029B0021187878
:104DF000013F00F0C3FD7608002FE8D1E3E707216B
:104E000010B50A23C25E0732D3170B409B18082146
:104E1000425EDB1000215A43C06A03F079FE10BDE8
:104E2000F0B587B005930CAB1E78C36A0400170079
:104E30000491002B10D107210A23C25E0732D31739
:104E40000B409B180822805EDB1058430AF0FCF8E8
:104E5000E062002800D1BEE02000FFF7D0FF0A2367
:104E6000E25E0823E15E202A00DCB6E0403A12B29E
:104E7000D00F52398218C80F4118012049100290F2
:104E8000904B3F300190521009B212302500009033
:104E90002000FFF7F1F8049B31352B70A06A002841
:104EA00000D1ABE03B1E05D10A22A35E203B5A1E77
:104EB00093413C33220030321370002E02D003683D
:104EC000DB699847059B002B1BD026000020373656
:104ED0003056002815DB0121C0B200F0E5FC0121AD
:104EE000307800F04BFD012000F0A5FB0021307868
:104EF00000F044FD0A2000F09EFB0121307800F014
:104F00003DFDA06A002800D1A3E00368A16B9B6A65
:104F10009847042220006C49FFF70CFFA17A20007B
:104F20000139C9B2FFF790FE684904222000FFF75B
:104F300001FF0023EB561421012B00D1043920007E
:104F4000FFF782FE2600042220006149FFF7F2FEEF
:104F50008F23403633700822A35E802B00D087E079
:104F60000A22A35E202B00D18FE0402B00D08EE0E0
:104F70000022AA568F33012A00D1303B122733700A
:104F8000DA212000FFF760FE39002000FFF75CFE09
:104F900081212000FFF758FE20003178FFF754FEF2
:104FA000D9212000FFF750FE0023EB56F121012B01
:104FB00000D1CF392000FFF747FE200006224549E7
:104FC000FFF7B8FEA06A002800D16CE00368E16B2F
:104FD0009B6A9847012007B0F0BD203AD00F733983
:104FE0008218C80F411801205210491002901F303A
:104FF0000190394B12B209B2533047E72300270022
:10500000353318783637012100F04EFC387801210D
:1050100000F04AFC3878012100F0B0FC676A002FEC
:1050200006D0002E00D14DE73B6838001B6B48E7E7
:1050300023002600333318783436012100F034FC85
:105040003078012100F030FC3900307800F096FC17
:1050500038E7606A002804D00368616C1B6AA26CA0
:105060009847230036330021187800F087FC50E77A
:10507000602B0CD10A23E25E102A06D1002169566A
:10508000AF23012900D113003370022778E7134BB7
:10509000A2689A42F9D10022AA56CF23012A00D051
:1050A0006CE7BF3B6AE7230036331878012100F034
:1050B00065FC606A002800D18CE703685B6A98474A
:1050C00088E7C04616350110323301102E33011027
:1050D0002A33011024330110363301104000200020
:1050E00070B504AC2588002A21DB0A26845F94422F
:1050F0001DDD002902DA5B1800211BB20826845F3F
:105100005E18A64201DD631A1BB2002B0FDDD6101C
:1051100074436418C16A0720024006389040091998
:10512000C2B2012D04D0022D14D0002D09D070BDC3
:105130000878013B10431BB208700131002BF7D1F6
:10514000F5E70878013B90431BB208700131002B52
:10515000F7D1ECE70878013B50401BB208700131F1
:10516000002BF7D1E3E70000F0B505AC2588002956
:1051700051DB0824065FB1424DDA002A02DA9B189F
:1051800000221BB20A27C45FD718A74201DDA41A68
:1051900023B2002B3FDDD2B2D7087E437618C16A16
:1051A000072789191600DCB23E403A4216D0082281
:1051B000961B2B4AF6B2975DB44204D2FF221340ED
:1051C000F31A1A411740012D26D0022D2BD0002DA5
:1051D00026D0B4421FD30822835EC918A31BDBB2BA
:1051E000072B0ED9022D22D11A000C78083AE4437D
:1051F0000C700826845FD2B20919072AF5D8072255
:105200001340002B07D0174AD35C012D1DD0022D6F
:1052100023D0002D1DD0F0BD0B783B430B70D8E799
:105220000B78BB43FAE70B785F400F70D1E72C0097
:10523000621E94411A0064420C700827C65F083A47
:10524000D2B28919072AF7D8D9E70A7813430B7025
:10525000E1E70A789A430A70DDE70A785340F6E7F7
:105260001C3301101433011037B5140006AA158839
:10527000827E022A0DD0032A18D0012A11D1028978
:10528000121B013A14B20A0000952100FFF76CFFCF
:1052900037BD4289C918121B013A14B20289511A4A
:1052A00009B222000095FFF71BFFF1E74289C918F8
:1052B000511A09B2E7E737B5140006AA1588827EAD
:1052C000022A0DD0032A18D0012A11D10289E4182C
:1052D000141B24B20A0000952100FFF701FF37BD1F
:1052E0000289E418521A013A11B24289141B24B2FD
:1052F00022000095FFF738FFF1E74289521A013A80
:1053000011B2E7E7F0B50400806A85B0002841D00B
:105310000368A16B9B6A9847042220005549FFF758
:1053200009FD0822A35E402B43D120212000FFF776
:105330008BFC217A1F312000C9B2FFF785FC0A22BD
:10534000A35E07220733DD171540ED182389ED1002
:105350005D43A06A2300E76AADB200284BD030332A
:105360000193197803680126DB6A9847A06A4021F7
:1053700003681B689847A06A0368002D20D15B6B07
:105380009847A06A002867D00368E16B9B6A98473A
:1053900005B0F0BD606A002804D00368616C1B6A28
:1053A000A26C9847230036330021187800F0E6FA03
:1053B000B2E700212000FFF747FC217A0139BAE764
:1053C000013DADB2202E0DD15B6B9847A06A019BC9
:1053D0001F3E19780368DB6A9847A06A402103687A
:1053E0001B689847A06A3978036801361B6898479C
:1053F000B6B20137BFE735330121187800F0BEFAA5
:10540000002DBED03B78606A013DADB2029300280A
:1054100005D0036802999B6898470137F0E7082395
:10542000802601932300029933331878314000F02D
:10543000A5FA2300343303931878012100F09EFA73
:10544000039B0021187800F099FA019B7608013B34
:105450000193002BE6D1E0E72300363318780121D1
:1054600000F08CFA606A002800D191E703685B6A5B
:1054700098478DE710330110F8B505000F001600AE
:105480000024B44201D12000F8BD2B682800395D0A
:105490001B6898470028F6D00134F2E770B5050084
:1054A0000C00081E07D009F0F7FD2B680200210050
:1054B00028005B68984770BD10B5FFF7EFFF10BD7F
:1054C00010B503681B68984710BD000010B502496D
:1054D000FFF7E4FF10BDC046D329011070B50400EA
:1054E000FFF7DCFF05002000FFF7F0FF401970BD5B
:1054F000F0B58BB014006A460023243207000D007B
:105500001370012C00D80A2409AE2800210002F0F3
:1055100093FB0B002A0037330500092900D8073B0D
:10552000013E33709442F0D931003800FFF7B6FFE6
:105530000BB0F0BDF8B507000D00161E04D10368CE
:10554000C9B21B689847F8BD0A2A0CD100290BDAAA
:105550002D21FFF7B5FF3200040069423800FFF744
:10556000C7FF2018EFE7D2B229003800FFF7C0FFCD
:10557000E9E770B50400FFF7DDFF05002000FFF745
:10558000A5FF401970BD10B504000068002801D0C7
:1055900009F064FD00232360A360636010BD70B553
:1055A00004000D000068013108F05EF8031E01D010
:1055B000012028C470BD036810B50400002B03D07F
:1055C000436801208B4209D22000FFF7E8FF002842
:1055D00004D0A368002B01D12268137010BD70B5F0
:1055E0000E00110004001500FFF7E5FF002804D1AC
:1055F0002000FFF7C8FF200070BD2A00310020689E
:10560000A56003F08BFA00212268A368D154F2E769
:10561000002370B504000D0003604360836099426D
:1056200007D0080009F038FD290002002000FFF72C
:10563000D6FF200070BD10B5002801D001F0C6FDD6
:1056400010BD000010B5D024FF2324062068236578
:1056500004490F3001F0D8F8206801210F3001F023
:10566000A3F810BDE5000020104B10B51B78002BEF
:105670000DD1002000210E4B9860D9600D490F30EC
:1056800002F03EF807220C4B1A600C4A5A60FFF7F2
:10569000D9FF0B4B002B01D000E000BF094B002BC2
:1056A00000D1FEE700E000BFF8E7C0469E250020DD
:1056B000B0160020C100002010E000E0FFFFFF0056
:1056C000000000000000000070470000084B10B50B
:1056D000002B01D000F058FC064B002B01D000E05D
:1056E00000BF054B002B01D000E000BF10BDC0463D
:1056F000895F0010000000000000000010B50148A4
:1057000000F078FFD629011010B5074C10220021B7
:10571000200003F0FDF90023044923740448013BF1
:10572000E362FFF775FF10BDB0160020D529011008
:10573000D41D0020F0B585B001F070FF0B2805D80E
:105740000C2001F05DFF454B033BFDD2444803AB09
:1057500002AA01A901F0CAFE041E75D0039A02999B
:10576000019801F093FE3F4E002E02D13E4B002BDC
:1057700010D04C21012007F06DFE05003B4B4C2260
:105780000021186003F0C4F9394B6B60394BAB60F2
:10579000394BEB6000220023384D39490F202A6035
:1057A0006B6001F0ADFF0722364B1A60364A5A6033
:1057B000FFF78AFF354800F0B3FEE1213448490283
:1057C00000F0CAFA002E02D1274BB34240D0314834
:1057D00001F016FA1021022007F03CFE0700E861F4
:1057E00000F020FF082203000421380001F0C8FD6A
:1057F000EF6900F017FF103703000822042138007A
:1058000001F0BEFD2C74FFF71DFF002E02D1164BD8
:10581000B34212D00120FFF70EFF1F4B1B78002B65
:1058200018D08020800109F00FFC80221B4B010062
:10583000186092011A4803F0D1F9FDF7E5FCFDF775
:1058400001FDFFF743FFFAE71648054900F0D2FED5
:105850003400D7E7124803F0DBF9EEE7E02E000052
:10586000400D03000000000000000000F8180020B8
:10587000D013002040140020B0140020B0160020E7
:10588000C100002010E000E0FFFFFF000018002032
:10589000E4170020C41600209F2500207C1D002056
:1058A00069560010DB290110F7B5040001911D288D
:1058B0001FD808291DD808000CF0D6FF053E1C2D66
:1058C0001B4C3E5258000123D022A3401206052152
:1058D0002000936200F0D8FE00222000110000F0AA
:1058E000F3FE254B019A1A55192C02D9200000F01D
:1058F00071FEF7BD01273E00D025A6402D060521EB
:105900002000AE6200F0C0FE00223900200000F04E
:10591000DBFEAE61E5E701273E00D025A6402D065F
:1059200005212000AE6200F0AFFE3A000021200009
:1059300000F0CAFE6E61D4E70521200000F0A4FE4D
:105940000121200000F0F0FE0123D022A340120626
:105950005362C6E70521200000F096FE0021F0E723
:105960000521200000F090FE0221EAE70521200039
:1059700000F08AFE0321E4E74A24002070B5050008
:105980000C001D280DD8052100F07EFE0B4BD02207
:10599000595D01231206AB40032903D1002C05D128
:1059A000936270BD022903D1012CF9D05362F8E74C
:1059B000002C01D05361F4E79361F2E74A24002000
:1059C000010000201D2908D80122D0238A401B068F
:1059D0005B6813405A1E9341D8B27047D0231B0610
:1059E0001B6808489B00195830B5002909D0064C9F
:1059F00001391A59195055081D5101231A4082F3D3
:105A0000108830BDFC18002014190020D0231B067C
:105A10001B680C499B005A5810B50F2A02D10A483E
:105A200000F0E8FD094A985840009850EFF31084C0
:105A300072B6601E84419858204398505A580132DB
:105A40005A5010BDFC1800200D2A01101419002016
:105A500013B500230400080021602371627101A9BD
:105A60000CF0CAFE002808D1D0231B06019A1B683F
:105A70009A4204D020680CF01FFF012323712000FC
:105A800016BD10B503790400002B02D000680CF09D
:105A900083FE200010BD10B50368DB69984710BD78
:105AA00013B56B460268D9715468D91D0122A0470D
:105AB00016BD000030B5040085B002AD00222800FC
:105AC0001049FFF7C5FF237C002B06D11C002800DE
:105AD000FFF7D7FF200005B030BD2B79002BF5D0A4
:105AE00001200021404203F095FB6B46DC1D2100A4
:105AF000002003F0B3FF002801D02478E7E7012459
:105B00006442E4E70018002037B50400002268462C
:105B10000C49FFF79DFF237C6D46002B05D11C002F
:105B20002800FFF7AEFF20003EBD2B79002BF6D0FA
:105B300001200021404203F06DFB002003F06AFFCA
:105B40000400EDE70018002030B5040085B002AD78
:105B5000002228001249FFF77BFF237C002B02D193
:105B60000124644216E02B79002BF9D0012000219A
:105B7000404203F04FFB002003F04CFF0028EFD021
:105B80006B46DC1D01222100002003F04FFF00289E
:105B9000E6D024782800FFF774FF200005B030BD60
:105BA0000018002037B50400002268460C49FFF7B2
:105BB0004FFF237C6D46002B05D11C002800FFF70A
:105BC00060FF20003EBD2B79002BF6D00120002184
:105BD000404203F01FFB002003F0A8FF0400EDE7A4
:105BE0000018002037B50500002268460A49FFF773
:105BF0002FFF2B7C6C46002B0AD02379002B07D07B
:105C0000002003F037FF01200021404203F002FB97
:105C10002000FFF736FF37BD00180020F0B5050063
:105C200085B0019100923A49002202A8FFF710FFC7
:105C30002B7C002B03D002AB1B79002B06D11D005F
:105C400002A8FFF71EFF280005B0F0BD03F06CF9B5
:105C5000002801D003F070F9002003F0C3FE0028F3
:105C600051D102222B7E15001D401A424ED1002038
:105C70000021284B03C340E0002003F057FF009BA6
:105C80001E1B864200DD0600002E17D0019B32004D
:105C90001919002003F02CFF24182D1801200021D1
:105CA000404203F0B7FA002003F0E4FE01F01AFBD3
:105CB000184B03C3009B9C42DED31EE00120310041
:105CC000404203F0A7FA300003F0D4FE300003F0A6
:105CD00089FEB04211D0300003F028FFB042E9D174
:105CE000002701F0FFFA0C4E0A4B0CCB92197B41B6
:105CF000994202D8DED19042DCD9012000214042F5
:105D000003F088FA9CE700242500D3E70400FBE7B2
:105D1000001800202815002040420F0037B504006D
:105D2000002268460B49FFF793FE247C6D46002C49
:105D30000BD02C79002C08D001200021404203F028
:105D400069FA002003F04EFE04002800FFF799FED8
:105D500020003EBD001800207FB5067C0400002E08
:105D600023D1124800F09AFB104800F04DF9A074BE
:105D70000E4800F05DF9E0740C4800F045F90C495C
:105D800020750A4800F0DAF9422360750296013660
:105D90000221084A009305482300019600F0B5F956
:105DA0006074024800F0AAFB26747FBD0018002032
:105DB000202A0110E15E001070B5037C0500002B65
:105DC00013D00A4800F06AFB697C084800F0AFF97C
:105DD000A97C064800F026F90448E97C00F035F972
:105DE000002302482B7400F089FB70BD00180020CE
:105DF0000023FA2243600374E12392008260024A86
:105E00005B03026083617047E0370110F0B5160054
:105E100093B0244A0C0001A90A800222CA70224AC7
:105E20006D460292214A44270392214A8C700492C3
:105E3000204A8C720592204A0692204A0792204AF4
:105E40000892204A0992204A0A92204A0B92204A3C
:105E50000C920A220D921F4A0E921F4A0F921F4A5D
:105E600010920022EA53427D651C0A746A4607328A
:105E7000D47702AAD5770B228D76847C6A44D477B6
:105E800031226A4415703A22C47C6A44147041225B
:105E9000007D6A4410701A00300002F03FFE13B01B
:105EA000F0BDC046080B000002020000090400001B
:105EB0000102020000052400200105240100000465
:105EC0002402060524060000070500030800100947
:105ED0000400000207050002400000070500024020
:105EE00010B50400180013000A002100FFF78EFF10
:105EF00010BD00000A22836910B593439622D20197
:105F0000934214D10123027E00211343037605201E
:105F100000F04AFC8023064A5B041360054A032014
:105F2000136001F01BFA0021080001F09FFB10BD77
:105F300000E0004000F000408900D2000A430C213C
:105F4000044810B5037E0A408B431A430276FFF7DC
:105F5000D1FF10BDE41700204B780A781B021343D1
:105F60008A78084812041A43CB780F2110B51B0613
:105F7000134382691B010A4013438361FFF7BAFF91
:105F800010BDC046E4170020054B10B5002B06D00D
:105F90000448FFF7B9FD002801D000E000BF10BDA4
:105FA00000000000E417002010B50248FFF720FFB2
:105FB00010BDC046E417002070B50C0005001900A4
:105FC000200002F0ABFDA57070BD000010B5044BC1
:105FD000187A00F009FCFA200021800010BDC046AC
:105FE0000018002010B5002106480CF005FC002820
:105FF00007D001200021404203F00CF901480CF0C9
:10600000CBFB10BD0018002070B5448D0500201E8C
:1060100007D001F0E3FD0123834080389C436C8569
:10602000C0B270BD01238B40428D1343438570473E
:1060300070B5848D0500201E06D001F0CFFD012330
:1060400083409C43AC85C0B270BD012380398B4036
:10605000828D134383857047F8B518201F000D000B
:106060001403089E08F0F0FF069B07604360184B7E
:106070002F681A78511C1970079BB1031B051B0D63
:106080001C433F231340890B9B040B43C1680481CD
:10609000090E09060B43C360099B39000361002305
:1060A000436100290CD0CC68A403A40BB44204DBE8
:1060B000002B07D04161586106E00B004969F0E709
:1060C0008B42F8D1476128603F201040F8BDC046A0
:1060D000B00C002070B50D680C00280000210028CD
:1060E0000AD0837B1B069B0E934206D1A84207D1A0
:1060F000456908F0B3FF256070BD01004069EEE717
:1061000043694B6108F0AAFFF6E730B50C000100C7
:1061100085B00A9D00930395099D13000295089D83
:10612000220010310195FFF797FF05B030BD0A003E
:10613000010010B51031FFF7CDFF10BDF7B501918B
:10614000417E037E05008B4207D30431C9B240690A
:106150006976890007F088FA68612C7E6F69002CE7
:1061600003D10C4B01343B602C760026B300F95868
:10617000019809F0C9F9002802D1F4B22000FEBD4F
:106180000136B442F2D8019AA300DA51631C2B768F
:10619000F4E7C046D5290110F7B5394F04003B7824
:1061A000002B03D11921380002F04AFDE68D002EA4
:1061B00000D1344E258E002D00D10A352300323314
:1061C0001B780093002B04D12F493048FFF7B6FF0E
:1061D0000090230033331B780193002B04D12C490A
:1061E0002A48FFF7ABFF0190230034331A78002AC6
:1061F00004D139002548FFF7A1FF02002000122337
:1062000035300370234B0121A363230040273C3327
:10621000E1865E70360A1F709E702E0A1E7126007F
:1062200000274136DD70327122003770009F463200
:10623000B770019F7170F7701170268E0333002EB6
:1062400012D12A00E768002F0FD1BE4203D01500FB
:10625000110A1A70597000212269002A0AD191424C
