:020000041000EA
:1000000000B5324B212058609868022188439860DF
:10001000D860186158612E4B002199600221596106
:100020000121F02299502B49196001219960352056
:1000300000F044F80222904214D00621196600F024
:1000400034F8196E01211966002018661A6600F04E
:100050002CF8196E196E196E052000F02FF8012189
:100060000842F9D1002199601B49196000215960AB
:100070001A491B48016001219960EB211966A021F2
:10008000196600F012F800219960164914480160C1
:100090000121996001BC002800D000471248134993
:1000A000086003C880F30888084703B5996A0420EC
:1000B0000142FBD001200142F8D103BD02B5186610
:1000C0001866FFF7F2FF186E186E02BD00000240BE
:1000D000000000180000070000035F00212200005C
:1000E000F4000018222000A00001001008ED00E03C
:1000F00000000000000000000000000074B24E7A12
:1001000000200420E3010010CB010010CD010010FD
:10011000C9010010C9010010C9010010C901001077
:10012000C9010010C9010010C9010010CF01001061
:10013000C9010010C9010010D1010010D301001045
:10014000C1010010C1010010C1010010C101001067
:10015000C1010010C1010010C1010010C101001057
:10016000C1010010C1010010C1010010C101001047
:10017000C1010010C1010010C1010010C101001037
:10018000C1010010C1010010C1010010C101001027
:10019000C1010010C1010010C1010010C101001017
:1001A000C1010010C1010010C1010010C101001007
:1001B000C1010010C1010010C1010010C1010010F7
:1001C000EFF30580103800BE00BE00BE00BE00BECA
:1001D00000BE00BE00202149086006C881F30888DF
:1001E00010471F480068002801D00020F3E70DA445
:1001F0000ECC002902D000F012F8F9E719491A4A8A
:10020000002000E001C19142FCD1184988471849FB
:1002100088471849884700BEFDE701C901C29A42D4
:10022000FBD3704778020010C00000202423002078
:10023000DC24001030230020842600203028001009
:1002400000000420000004203028001000100420CA
:1002500000100420000000007047000008ED00E0DE
:10026000000000D084260020F02A0020392200203F
:10027000090100208D020020B0B500AF054B064AF1
:100280009A60054B1D68054B1B681C002B009D46A2
:10029000A047C04600ED00E0003000100430001020
:1002A00080B500AF00F016F803001A000123534098
:1002B000DBB2002B01D0FFF7DFFFC046BD4680BD9B
:1002C00080B582B000AF7860396000F04FF8FFF77A
:1002D000D3FF0000104B114A1B6812681B6812689C
:1002E000002010B5934215D080211800D21A490180
:1002F00000F016F900280DD009490A4800F060F90D
:10030000002807D008220849064802F083F8434233
:100310005841C0B210BDC046F4250020F025002091
:10032000B827002004FA0320B82400200D4B012038
:1003300070B5002201269C460B4D40420821AB5C63
:1003400058400300644633405B4223404008013973
:1003500058400029F5D1A32301329B009A42EDD1E8
:10036000C04370BD2083B8ED04FA032070B586B099
:10037000FFF7DCFFA323314C9B00E35883425BD1A2
:10038000A368002B58D000238026019376012B4BC5
:10039000019A9B689A4209D3294B186800F0B8F873
:1003A00000216422080001F027FEFEE7E368012B2C
:1003B00011D12000103000F02BF900283CD0206D26
:1003C00000F0A0F9002837D0656DA36D0093002DD3
:1003D00006D100F0AAF9019B503401330193D6E70E
:1003E0000295B54200D90296029800F061F9039097
:1003F000002821D03200009902F00CF8002814D017
:10040000EFF3108372B6F0220593009B12069B183F
:1004100018003100049302F0A9F8320003990498FF
:1004200002F0E6F8059B83F310888022029B5201BC
:10043000ED1A009B9B18C9E706B070BD04FA0320B3
:10044000B8270020FEE7FEE70020704770B5094C92
:10045000094A236810684B43C018EFF3108572B641
:10046000F0231B062168C01802F080F885F310887D
:10047000002070BD84260020B42700200A4810B553
:1004800000680A4C4843821820688018EFF31084F3
:1004900072B6F022120680181900029A02F0A8F82B
:1004A00084F31088002010BD84260020B42700208B
:1004B00010B50C00074908480968614389180268AB
:1004C00018005118029A01F08BFF044B00201C60A9
:1004D00010BDC04684260020B4270020DC26002062
:1004E000802370B5074C05002200046006495B01BB
:1004F000064801F01BF82B6824185A1C6C602A600F
:10050000187870BD04E7032088260020E02600202C
:1005100010B501000148FFF799FF10BD60270020CA
:10052000F8B51C4B0D0018601B4B1700196080229A
:1005300000211A4801F04EFF194C542200212000DE
:1005400001F048FF174BE5616360174BA360174B41
:10055000E360174B236180235B006361A361002D7F
:1005600004D02900380001F07BFE050010236362EF
:10057000F033A362E3620F4B210063630E4B074825
:10058000A3630E4B2562E36300F0EEFDC043C00F92
:10059000F8BDC046B427002084260020E0260020B5
:1005A00060270020F9020020C502002095020020EB
:1005B0009102002004F9032004F8032004F703202B
:1005C000F0B50F4B99B006000D0000930D4A0123C2
:1005D0000D4803A900F0F6FE002802DA002019B049
:1005E000F0BDA427BF003B003200074803A900F07C
:1005F0009DFFB842F2D1054B01201B682B60EEE74E
:1006000004260020C1240020E0260020DC26002053
:10061000F0B500271F4B87B003931F701E4B0200DD
:1006200000931E4901231E4800F0CCFEB8422BDB8C
:1006300005AC022322001949194800F077FF02286F
:1006400022D11649164801F079F823781F2B02D1E0
:1006500063788B2B02D0012007B0F0BD01F09AF92E
:100660008022104C104B2000104912022760676056
:10067000A36001F090F9200001F001FB002805D0F3
:100680000649074801F05AF80020E5E70123039ADC
:100690001370E0E7EC2A0020F825002088260020CF
:1006A000E0260020005203202903002004670320D5
:1006B0000F4B70B51B7805000E4C002B0BD12B0097
:1006C00022000D490D4800F031FF281A43425841DD
:1006D0004042204070BD0A48651944618461C5618B
:1006E00001F068F903000020012BF3D82000F1E7A6
:1006F000EC2A00200457032088260020E026002052
:100700000052032070B5802604007601002C01D130
:10071000012070BD2500B44200D935002800FFF744
:10072000C7FF0028F5D0641BF0E7704710B50B68D1
:1007300004689C4201D1002010BD4068496888428D
:10074000F9D08C42F7D0181A431E9841F4E783057C
:100750009B1501335A42534118188005800D04300F
:1007600070470200836A2832002B03D08B4202D1EB
:100770001B68136070471A001B68F5E7F0B58BB073
:10078000109E0493129B0992F218836E0C00DB6991
:1007900006909A4205D8C36E002B20D0049A93424B
:1007A0001DD8542040420BB0F0BD6168A5684D19BA
:1007B000AE4248D28E4217D3129BAD1B9D4200D948
:1007C0001D00E368711A59182A00119801F008FEFB
:1007D000119B76195B191193129B5B1B1293129B51
:1007E000002B2CD11298DEE7129B8F1B9F422BD936
:1007F0001F0029E0049B2360059BF31A08936360A4
:10080000099B5F1E039BFF18BF191900380001F0F8
:1008100027FDEB697F1A9F4200D91F00059BAA6A3A
:100820009B1BFF18974200D91700A760009728006C
:10083000E368089A0499079DA8470028B3D1236864
:10084000049A9A42B1D0129F069B30009D6E6B694C
:100850001900039301F004FD6B68099A0793129B3A
:1008600005919342C6D30029C4D1039B129A9342A7
:10087000C0D81900380001F0F3FC7B1A280005915C
:10088000039300933200119B0499079DA847002809
:1008900000D088E7039A119BB6189B181193059B0B
:1008A000129ADB1BD31899E7F0B5036886688DB000
:1008B0008905050006938F0DBE4200D93E00002435
:1008C00013680793536808936B680993A64206D888
:1008D000AB680020BB4221D0BB4240411DE0321B2F
:1008E0000592082A01D908230593059B06990293CE
:1008F0000AAB0193089B08001B190093079BFFF7A5
:100900003DFF00280AD1099B059A19190AA801F090
:1009100081FD002804D0C043C00F01300DB0F0BDF0
:10092000059BE418D2E7F8B5C7690C68083F0E00CC
:100930000020BC4215D33900200001F091FC0138A1
:1009400001F088FC023080003900201A01F088FC98
:10095000050001F07FFC8000241A28006F43E41B8F
:100960003460F8BDF0B50C001500496B85B0002B64
:1009700007D05518012B04D00D00022B01D1E56AD8
:100980005519436FAB4232D32E008D4220D0236BDA
:1009900000935B0329D5876EE26BFB699A421AD0FC
:1009A0000291380002A9FFF7BEFF03A901903800A9
:1009B0000395FFF7B8FF019B83420CD1636C039A48
:1009C000934208D8A16C5B189A4204D26563E26333
:1009D000300005B0F0BD009BDB0202D401235B4276
:1009E0002364044B009A1A4022636563F0E71626DD
:1009F0007642EDE7FFFFFBFF10B50C00826AFF2196
:100A0000E06801F0E7FC01235B42236010BD0000B9
:100A1000F0B59FB01393C36E06000F000592002B34
:100A20000BD01268934204D85424644220001FB0B3
:100A3000F0BD059A52689342F6D9002516AB16957B
:100A400017950693079504220292069AAB0001922D
:100A500000220092059A3100D35830000422FFF79B
:100A60008DFE041E62D003005433DFD1069B043395
:100A70000693012D58D1079B05999A00059B9B5819
:100A80003B60079B5B192B400D939B00CB587B6011
:100A900016ABD358BB600023FB6002331193033BBA
:100AA0000793BB4B18AA11CB11C2390001200422B5
:100AB0000831404200F04CFE079B012505930023BE
:100AC000149010930F9309936D4208932800FFF739
:100AD0003EFE089BB26E1B1808930423029315ABCD
:100AE0000193089B3100009330003B68D269FFF707
:100AF00045FE041E26D02300543397D10025FB6801
:100B00000693002B00D04FE13B687A687B600D9B19
:100B10003A609B0016AA9B58BB60119B012B00D129
:100B200082E701231193BCE701258CE70123069A94
:100B30006B409B0016A912685B58D31A834295DD5F
:100B4000079593E70422149815A900F001FE159B60
:100B500014901BBA6B4006931593A34209DAF02355
:100B60002D0DDB001D408B4BED186B425D41EDB24E
:100B7000C5E70698FFF7EBFDB36EDB690C93089BA6
:100B80000C9AC318934200D9FFE0F021A0223B68E1
:100B9000C9001293089B250004330B93069BD200D7
:100BA0001B0D0B40011F0E91934254D1042302935D
:100BB0001CAB01930B9B310000933000129B0C9AED
:100BC000FFF7DCFD041E96D11C9A149B9A4295D126
:100BD000159B069A1B0DDB075A40069214A90422A6
:100BE000F06A00F0B5FDF0621598FFF7B0FD089BC4
:100BF000C018069BF8603B61099BBB82189BBB61D8
:100C0000199BFB610F9BFB7501235B421493059BB2
:100C10000793069D5AE70E9B5B1B0A93082B01D98D
:100C200008230A930C9B31005A1B0A9B3000029345
:100C30001CAB01930B9BEB180093129BFFF79EFDDF
:100C4000041E00D057E70A9A14981CA900F080FDF2
:100C50000A9B1490ED180E9BAB42DCD8159BE0214B
:100C60001D0D2A00C9000A400D421DD1099A1B031F
:100C70009B0D9A4201D8013309931599249B139D2A
:100C8000139A4B401D401A42C3D13B6827981C93CE
:100C90000B9B1CAA1D93269B9847041E58DA030041
:100CA000543300D12BE7C1E68021C9008A4220D10C
:100CB000099A6DB2521992B237490992059A1140B8
:100CC000364A0A43934205D18023059A1B061A43EC
:100CD0000592D2E7059A0132CFD0059A1B03120381
:100CE0009B0D920D9342C8D8059BAD02EB1805935E
:100CF000C3E7C0213B68C9008A4212D10821B26E05
:100D0000029118A901910B9930000091D26931002C
:100D1000FFF734FD041E00D0EDE601231D400F95C2
:100D2000ABE71F4A6D056D0D9542A6D10821B26E45
:100D300002911AA901910B9930000091D2693100FA
:100D4000FFF71CFD543000D1D8E60123109394E73F
:100D50001599002801D105915BE7059B114A4B408D
:100D600013420FD0022800D053E7059B1A030B0350
:100D7000920D9B0D9A4200D24BE780231B060B433A
:100D8000059346E701235B42FAE72500B7E6C04634
:100D9000E024002000FBFFFF00FC0F000000F04FEC
:100DA000FF05000000FCFF7F0023BB759D4236D08D
:100DB000B46E0698A16901F053FA0D1E2FD1109B55
:100DC0008B422CD0E3690A933B680B931A9B0993DF
:100DD00001235B420893099BAB421AD9099B5B1B19
:100DE0000593082B01D9082305930A9B31005A1B50
:100DF000059B300002931CAB0193069B5B1900938B
:100E00000B9BFFF7BBFC041E25D00300543300D01E
:100E10000CE6089A1B9B9B1A5A425341BB75E02370
:100E2000F46BDB00220D1A4226D03000390040302E
:100E3000FFF77CFC00281FD1079A24031203A30D9F
:100E4000920D9A4210D18024079B24061C43259BB7
:100E5000002B15D11FE0059A08981CA900F078FC1A
:100E6000059B0890ED18B6E7079901311CD007994A
:100E70000E480C189A4200D8079C259B002B07D0DF
:100E8000BA8A23039B0D934200D91300259A13803D
:100E9000002C00DBCAE5BA8A23039B0D00249A428A
:100EA00000D8C3E5023CC1E5079CD0E700FCFFFF8A
:100EB000F0B58BB00793CB68C46B0593E0230D6945
:100EC0000692DB00220D0F00049009951A4200D112
:100ED0007FE04030FFF72AFC002800D079E0069B35
:100EE0001B039B0D834200D173E0079B24031B036C
:100EF000A40D9B0D9C424AD09C42A441A40AA60288
:100F00002800FFF724FC059A031D93423FD8059B58
:100F100004991B1A05930423029309AB0193059BC3
:100F20000800009304223B68FFF728FC011E30D123
:100F3000099B069A1BBA6B405B005B08120309937E
:100F4000920D824219D0E0242A0D80211000E40085
:100F5000C9002040884210D10799881B01038C0DDD
:100F60002903890D8C4208D31C4908401C490143C0
:100F7000A9420CD052B292029619079A0699921B76
:100F80006A40114227D1AC05A315013304D10221D7
:100F9000494208000BB0F0BD129BA40D9C4200D941
:100FA0001C00119B059A0193109B049904339B1814
:100FB00002940093080022003B68FFF7DFFB011E4C
:100FC000E7D1129B1A1B119B181901F003FA711932
:100FD000DFE7002694E71D0092E7C04600FC0F0003
:100FE000000010401FB59C05A40D0294069C0194BE
:100FF00000240094FFF75CFF04B010BDF0B593B07F
:101000000D93036A15688B61436A0F00CB612B78DF
:1010100006900A92002B00D190E04B4C230D0B93CD
:10102000022B04D12800494901F03CFA2D18280070
:10103000464901F011FA0490012806D12B782E2B95
:101040000ED16B1C0793079DE8E7049B022B07D189
:1010500028003F49049A01F0DDF9002800D16DE035
:10106000049BEB181E00079301230593374B09934C
:10107000374B0C933000099901F014FA3618300000
:10108000099901F0E9F9089000281CD0012805D140
:1010900033782E2B13D1089BF618EBE7089B022B15
:1010A0000DD11A0030000C9901F0B4F9002806D1D6
:1010B000059B013B05938342EDD1B31CC2E7059B21
:1010C00001330593E7E72B78002B34D00A9B1D6092
:1010D0000B9B022B35D11F4A23039B0D93420DD04E
:1010E0001D4A1E4B224013433A0018320092390029
:1010F0001B4A0698FFF776FF041E1CDB3E001836DD
:101100000FAB0393174B069A02930D9B0F9201931B
:10111000F023049A39001192009206983200DB0500
:101120001095FFF775FC041E05DB00288BD1FB7DB5
:101130008342E5D1023C200013B0F0BD1624644286
:10114000F9E71424FBE7C04600FC2F00D024002060
:10115000D2240020FF03000000FC0F000800002044
:1011600000FC0F70F1060020F0B504000B6A99B086
:10117000E3664B6B0800A166E360002B03D08B6B2A
:10118000002B02D1E3610C20E1E0E3612100FFF7D5
:1011900033FC2100A06E1031FFF72EFCA16ECB6B4B
:1011A000002B01D16366EEE763660B6C002B5BD00E
:1011B00023674B6C002B00D1784B6367886C002849
:1011C00000D17748A0670B6D5A1C51D0002B0AD173
:1011D000CA6C8B6A002A49D0D208834200D9030026
:1011E000934200D913000125002620006D42E367D9
:1011F00031000C22A662E662256265623C3001F095
:10120000E9F8200031000C22303001F0E3F8200032
:1012100031000C22483001F0DDF831001C2210A80A
:1012200001F0D8F801231E00179304930595169B2F
:101230005A1C03D0179A511C00D0A6E0226BD30F82
:101240009B1823632200230030323C3323CA23C37C
:10125000E56EE06A290001F003F800206165A065F1
:10126000E065256619B0F0BDFF23A1E7CA69B3E7C1
:101270000023B8E7AB4203D105998A4200D18BE045
:101280000499B14205D1150000260499059349003F
:10129000049107AB0393434B434A02930023089204
:1012A00008220193414B099200932000404B16AA5B
:1012B00010A90794FFF7ACFB0028D3DB49D08005C9
:1012C0008015013045D0109B0AAF2362119B20008E
:1012D0006362374A374B009710A9FFF783FE002857
:1012E000C0DB0A990B0C022B30D189B201292DD811
:1012F000236B314A134001224A40520213432363B5
:101300000D9B002B03D0226F93421FD823670E9BA7
:10131000002B03D0626F934218D863670F9B002B9A
:1013200008D0A26F934211D8E26FA3679A4200D906
:101330001A00E267A36E0C9A196A002901D0914243
:1013400004D1E266DB690B9A9A4202D01620404231
:1013500088E70AAF2000194B194A009710A9FFF738
:1013600041FE002804DA831C00D07BE701365EE7EB
:10137000236B0A9A534023637A68636B5340636319
:10138000BA68A36B5340A363F0E705998B4200D082
:1013900070E7AA4200D073E75420D8E7FFFFFF7F31
:1013A000FE030000F1060020D52400200800F00F05
:1013B00000FCFF7F18001020FFFDFFFF0C00F07FF6
:1013C0000000F07FF0B589B00B6300234B63CB6363
:1013D000CB640B00079208330E9A03930A650B1D2A
:1013E0000C0007AA03990600FFF708FE051E12DA93
:1013F000831C2BD1474B079F19003800049301F041
:101400002BF804990590381801F04CF8059B3F180B
:10141000FB5C002B1AD10123A371B36A2360B46271
:10142000AB1C13D02B0D04931525012B49D1A28899
:10143000394B920213432200283200923000374A7F
:101440000399FFF7CFFD0027051E09DA21003000C0
:10145000FFF787F916E0226B04990A4215D101378C
:10146000236D9A689742F6D31B68E364002B27D05C
:101470002100B06E4031FFF7BFFA294A2B0D93428D
:1014800021D00025280009B0F0BD0C21C0207943EF
:101490005A68A388521891689B020B431178800008
:1014A0005268091809050B43009230001D4A039940
:1014B000FFF798FD0028D2DA831CD0D00500C5E7DD
:1014C0000C256D42C2E78023216B5B030B43236332
:1014D000002302226364B36EAD059B6A5242AD0DD8
:1014E000A262E5622264A364CCD0A2880E49920273
:1014F0008B4200D90B001A4380239B051343E26CF7
:10150000300000920399054AFFF76CFD051EB8DA1A
:101510009CE7C046D02400200800002000FC0F708B
:101520000102000000FCFF7FFE030000F0B597B051
:101530000C000A924A6BC96A070000208A4200D355
:10154000D7E08A1A08929A4200D90893089B06931A
:10155000069B002B01D10898CBE08022236BD2029E
:10156000134204D0BA6EE66BD269964215D180223E
:101570005203666B134200D08BE0A26AE36A1392B7
:101580001496002B4CD101221E005242A263E36349
:101590008022236BD20213432363BA6E0699D26969
:1015A0000992921B05928A4200D90591802252032A
:1015B000134200D19FE0059B099A9B199A4200D2E1
:1015C000B4E0230008331093A3885A4A9B021A43BD
:1015D0000A9B11920B93059B0793079B002B00D14D
:1015E00097E0E36C0F93236C023356D1616CA56CCA
:1015F0004D19AE4251D28E424FD3079BAD1B9D4237
:1016000000D91D000F9B711A59182A000B9800F081
:10161000E7FE0B9B76195B190B93079B5B1BDBE7C4
:101620002200BE6E4032013B15A93000099215938D
:10163000FFF779F914A905003000FFF774F9079056
:10164000139B0593079BAB4204D3059B149EA36396
:10165000E6639DE7079BE81A00F0F0FD060028000E
:1016600000F0F2FD1F239E1B864200D906000423D2
:10167000029313AB0193B300009304223800059B3F
:101680000999FFF77BF8002833D10123B340ED1A05
:10169000D6E702235B42A363DAE702235B422364BB
:1016A000BB6E30000D935B6919000C9300F0D8FD00
:1016B000731A0C9A0E936364099B11009D18013DE7
:1016C000AD19280000F0CCFD0D9B6D1A9B6A9D4260
:1016D00000D91D000F9BA56401930E9B3800009359
:1016E000154A119B10990295FFF7E2FB002800DBD9
:1016F00077E717B0F0BD2100059B009602930A9B87
:1017000038000193A36B099A4031FFF737F800289E
:10171000EFD1059A636B9B186363E36B9B18E363DC
:101720000A9B9B180A93069B9B1A10E75420404281
:10173000DFE7C0460000102000FCF7FF002310B5D3
:101740001A00FFF70FF9002800DD002010BD00008F
:1017500070B50F250A4C8A18914200D170BD0B78E4
:10176000060958402840800000591B094640734034
:101770002B409B001B59300958400131ECE7C04613
:10178000E8240020F0B50D0016000021202289B0C9
:10179000040000F01FFE2A00A81990420ED1002379
:1017A00069461A002380E05A5A5202331218202B3D
:1017B000F9D10022B24208D109B0F0BD137801324C
:1017C0005B00E15A0131E152E7E7A85C002806D04E
:1017D00040000B5A5F1C10335B000F52E252013283
:1017E000E8E70368426810B5934203D25A1C0260CE
:1017F000187810BD8368841D002B07D0E27F002A73
:1018000004D19847002801DBC0B2F2E70123002091
:10181000E377EEE7036910B55A1E04000261002B5E
:1018200004D1FFF7DEFF0723E0602361E06843088F
:10183000E3600123184010BDF7B5002517000190A3
:10184000A94204D0012426008E40B44201D3781965
:10185000FEBD0198FFF7DEFF604364002D18F4E73A
:10186000F7B500250B000F002C00203301908E1CD3
:1018700000930198FFF7CEFF009B9E420DD06D00B4
:101880002818358802362B19451B04D52418103426
:101890006400385BFEBD1C00EBE703204042F9E723
:1018A000F0B5D5B0039202220091FF320521050068
:1018B000FFF7C2FF0122052106002800FFF7BCFF49
:1018C0000422029011002800FFF7B6FF1322070040
:1018D000002104A800F07EFD0024BC4218D10024A1
:1018E0001322009804A9FFF74DFF029BF318019300
:1018F000019B9C4217D304AC320021000098FFF7F3
:1019000041FF0398029AA119FFF73CFF002012E063
:10191000002203212800FFF78FFF1D4B04AA1B5D47
:101920000134D054D9E728000099FFF799FF002827
:1019300003DA0320404255B0F0BD112820D0122810
:1019400022D0102818D1002CF3D02300413304AA50
:10195000FF339B1802210322423BFF3B1F782800E4
:10196000FFF76AFF019B20189842E2D804ABA0421F
:10197000BED0E7540134FAE704AB18550134B7E799
:10198000032211000027EAE70B220721FAE7C046ED
:10199000282500207047002310B5841DE37701241B
:1019A00064420361C3628462C2638163036403634C
:1019B00010BD0000F8B50400A36A013375D1200002
:1019C000A56AFFF727FF0022E06202212000FFF74F
:1019D00033FFA062012800D0CBE085426BD021000C
:1019E00000230831A21DD38702318B87CB870231B8
:1019F000CB870231CB8740310B804B8023001821ED
:101A000052331980803159802839998021008023F0
:101A1000183064315B00FF300B8001339BB2023120
:101A20008342F9D1200000239430590043520133FE
:101A3000902BFAD1D7218C204900400050521A2017
:101A40000231FF3050520231013050521C2002311D
:101A5000FF3050520231013050521E200231FF300F
:101A6000505202310130505220200231FF3050528A
:101A70002200C532FF32BC39138001339BB20232DF
:101A80008B42F9D1A922002320219200A352A2184F
:101A9000518153809380D3801381B1229200A11889
:101AA0005A008B520133202BFAD1A66A002E6FD038
:101AB000013E012E69D8236B002B38D12100200074
:101AC0004431FFF7CDFEA31DDB7F002B5DD1FF2846
:101AD00000DC7FE080235B00984200D1A5E0023863
:101AE000FF381C2851DC554B4200D25A544B195C2C
:101AF0002000FFF7A1FEA9239B002063E11820002E
:101B0000FFF7AEFE1D2840DC4E4B4200D25A4E4B32
:101B1000195C2000FFF790FEA36B002B75D0E26BE1
:101B2000904200D987E0236C1B1A6BD46363A16BCE
:101B3000A369626B002972D0581CA0618A5C1A707C
:101B4000A36B002B0BD0226C616B501C2064595C82
:101B50009954226CE36B9A4201D100232364636B96
:101B6000E26B0133934258D06363236B013B2363E1
:101B700041E0022899D1A92321009B002000E2180E
:101B80004431FFF78DFE00288FD00320404251E002
:101B9000206BB04217D12000FFF723FE0500200084
:101BA000FFF71FFE000245192000FFF71AFE07008D
:101BB0002000FFF716FE254B0002C01943409D424E
:101BC000E3D1681C26610138206300282DD0200055
:101BD000FFF707FEA3695A1CA2611870A26B002AC6
:101BE00009D0236C591C2164D054226CE36B9A42B7
:101BF00001D100232364A269E3699A4200D2DBE6A3
:101C0000002017E0D218626391E7A36962699B1A0A
:101C10009842BAD84042606389E70023A4E79A5CFF
:101C20001A70A3690133A3619FE7E36A002B00D117
:101C3000C5E60120F8BD0520A8E7C046962500208E
:101C4000D22500203C25002078250020FFFF000041
:101C500070B505000C00002C00D170BD2800013CBF
:101C6000FFF7BFFDF7E770B50400FFF7BAFD050009
:101C70002000FFF7B6FD0002284380B270BD70B5AA
:101C80000400FFF7AEFD1F2804D12000FFF7A9FDD7
:101C90008B2802D00320404270BD2000FFF7A1FD39
:101CA0000828F7D12000FFF79CFD05001F28F1D878
:101CB00006212000FFF7CCFF6B0706D52000FFF7B9
:101CC000D2FF01002000FFF7C3FF2B0704D520003F
:101CD000FFF787FD0028FAD1EB0604D52000FFF7B7
:101CE00080FD0028FAD10226354202D02000FFF7FD
:101CF000BAFF631DDE7701235B4200202362CBE73E
:101D0000044B0548054A1900043308609342FAD190
:101D10007047C04600E400E08080808020E400E05E
:101D2000044A1078431CDBB2172B00D91023137020
:101D30007047C046102600200021044B044ABFF320
:101D40005F8F02C39342FAD17047C046000100D0B2
:101D5000800100D0024BC918890001607047C0465D
:101D60004000003410B50400FFF7DAFF0100200046
:101D7000FFF7F0FFFF232371BFF35F8F10BD10B596
:101D80000400FFF7CDFF01002000FFF7E3FFFF2372
:101D9000A380BFF35F8F10BD10B50848084B984271
:101DA00000D310BD040003680834002B03D0FFF7F4
:101DB000E6FF2000F2E7FFF7D5FFFAE74026002014
:101DC00048260020142310B5010018889B889847E6
:101DD00010BD162310B5010018885B88984710BD08
:101DE000F8B50F00040000260125BE4201D12800ED
:101DF000F8BD2068FFF7E6FF01C4431E9841013695
:101E00000540F2E7F7B50C2444430193244B0092BC
:101E1000E4186368089A05000E00934200D26260DD
:101E2000C0232F1F9B01FFB2E318012F27D8012EDB
:101E300025D103221A60A3683342FCD0009B22689C
:101E40005B015340E022134080225201A350012F36
:101E500009D80321236873400B40A3500123B340EA
:101E6000A2681342FCD0802380229B011201E25021
:101E7000089B019A63600B4BAD00EA50F7BD8022CE
:101E800012011A60074BAA00D1580029D6D0586910
:101E900000F0E6F9431C032058430338FDD2CDE798
:101EA00000800040BC28002073B50D000699040096
:101EB0001800160000F0D4F9069A03001202290057
:101EC000009220003200FFF79DFF73BD13B5802400
:101ED00064000094FFF796FF13BD0000014B8000E3
:101EE000C0587047BC280020F8B504001F481700F0
:101EF0001E000D0000F0B4F90100380000F0B0F948
:101F0000069A3304120313432268002A0FDA3F2192
:101F100022680A40AA420AD1A2681205120D824222
:101F200005D1EE21E268C9020A409A421CD0104A4B
:101F3000104EA1184A42514101220C318A400E49EB
:101F40000A600E490A60170031688F43391EFAD1C2
:101F50000B4A2131A2182560A06011602168002978
:101F6000FCDAE36008231360F8BDC046001BB7002D
:101F70000040FDBF08C0004000E0004000F000400D
:101F800004300000024B1A68024B5A607047C0468A
:101F9000E4280020008005408022114BD20510B5B6
:101FA000104C1A60104A1460E022104CD204002930
:101FB00006D02260002805D180231B06236010BDB7
:101FC0001A60F7E7FA23DB005843094B094A9842A5
:101FD00000D918001060FFF7D5FF8023DB05EDE77F
:101FE00000B00540FCFF01000820014000A00540B2
:101FF000FFFFFF00E428002070B580240A4BE405B1
:102000001C600A4B00280DD00124094D04430948E7
:102010006540D8611D6259629C6200211000FFF783
:10202000BBFF70BDD861F8E700B0054000800540F7
:102030002D3FF84FD3C007B08023024A9B000B43CB
:10204000D362704700800540AA22064B12011A6035
:102050002132FF32DA600449044A11605A68002ACA
:10206000FCDA70470040024000B0FA000060024015
:102070007047000010B5044C044B9C4200D310BDC7
:1020800008CC9847F8E7C046482600208426002060
:10209000054B064A06491A60064B074A13601800AA
:1020A0000A689043FBD1704700E00040BFCDFBFEC3
:1020B00008C00040FE7F3C0000F00040044BDB6C99
:1020C000002B03D18022034BD2021A607047C04616
:1020D000000011504C201150044A054B1A60054A6B
:1020E0001368DB018033FBD17047C046FFFFFF015F
:1020F00000F0004008C000404022034B9A675A6736
:102100001A67DA667047C04600F0014010B5FFF765
:1021100013FE10BD70B50B490B4C0C4D641AA4088E
:102120002200302C00D930222800920000F058F90B
:10213000074B2F2C02D9074B9D6070BDA200AB50FE
:102140000134F6E700010010C0010010000000207B
:10215000C101001000ED00E0002373B5284DAB670E
:10216000FFF772FF0122274B1A606B6C012BFCD129
:102170000322254B1A60AC6B012CFCD102260525ED
:10218000210000960623214A2148FFF7ADFE2B00CF
:10219000210000951F4A2048FFF7A6FE31000022CB
:1021A00004201E4BFFF792FE2800210000221C4B4A
:1021B000FFF78CFE0022072011001A4BFFF786FE66
:1021C000002208201100174BFFF780FE8023002219
:1021D000DB00110000930920124BFFF765FE00227F
:1021E0000F4B11000620FFF771FE0420FFF776FE6B
:1021F0000D4900F035F801000020FFF71DFF73BD09
:10220000008000403CB0004030B00040002F6859D2
:1022100000800240008C864700C00240001BB700CF
:1022200040597307006CDC0240420F000148042152
:10223000014B184720260020291C0020014B5B6819
:102240001847000020260020014B9B68184700001B
:1022500020260020014B1B68184700002026002084
:10226000114A936F9B0813D210665166002905D05E
:10227000FFE7FFE7FFE7516F106F704704B50028D5
:1022800001D00020C04300F0C3F8002104BDC046C7
:10229000F0B5146E556E576F166FFFF7E5FF1466B5
:1022A000556657671667F0BD000000D0132370B560
:1022B0001C78114D012C0ED1002310499A000133D6
:1022C000A950202BFAD10D4BAB640D48FFF77AFDD6
:1022D0000C4B186070BD012CF5DD0B48FFF779FD44
:1022E00006000A48FFF775FD80223100280000F043
:1022F00077F8022CE9D1E6E7E828002059210020F0
:102300004C330000E82900205344000053460000ED
:1023100007B5604601880A0A0230DF2AFAD1C9B23D
:10232000820804D3028840880004104300E000685B
:10233000014A5050039007BDE8280020132310B530
:1023400010481C78FFF745FD0100012C13D10E4CFD
:102350005422200000F044F815230C4A9900013360
:102360006250202BFAD12262E2610948FFF72AFD70
:10237000084B186010BD012CF7DD8022024800F0E8
:102380002FF8F2E753460000EC290020E12100205D
:102390004C330000E829002007B5604601880A0A8E
:1023A0000230DF2AFAD1C9B2820804D302884088F9
:1023B0000004104300E00068014A5050039007BD3C
:1023C000EC29002001480421014B18473026002049
:1023D000291C0020014B1B681847000030260020F4
:1023E000014B5B6818470000302600207047000052
:1023F00010B5FFF73FFE044C044B9C4200D310BDC8
:1024000008CC9847F8E7C0468426002084260020A0
:102410007047C04630B50400032A18D90B000343A7
:102420009B070BD00023013A02E09A4211D00133FE
:10243000E05CCD5CA842F8D0401B0BE020680B6844
:102440009842EFD1043A04340431032AF6D8002A22
:10245000E8D1002030BDC04630B50C00017884467C
:1024600000291CD02578002D14D022002B0003E079
:1024700053780132002B04D08B42F9D16346C01A45
:1024800030BD417801300029EFD1F7E78378023081
:10249000002BF3D04378002BF8D10130EEE7002079
:1024A000EEE7C04630B50C000178844600200029D4
:1024B00012D025786046002D0CD022002B0003E0BE
:1024C00053780132002B05D09942F9D1417801307F
:1024D0000029F2D16346C01A30BDC046084A10B583
:1024E0001378002B0AD18023064807495B051C6836
:1024F000C45004338B42FAD10123137010BDC0467F
:10250000ED2A0020BC2700100001001010B5014B7F
:10251000984710BDBD270020002310B5011D064CB3
:102520009A00145901338C50062BF8D1A0235B0577
:102530001B68036010BDC04604000240002330B594
:10254000041D9A00A158054D01335151062BF8D1B5
:10255000A02302685B051A6030BDC046040002403B
:102560008023F0B5421807000E008DB05B049A423C
:1025700001D9FDF762FF14251824288823881549FE
:102580009847238801901449288898472388029007
:10259000124928889847238811490390288898472A
:1025A0000400FFF79BFF05A8FFF7B6FF019B9847C4
:1025B000029B98478022D823310038005202039DA5
:1025C000A847A047FFF7A2FF05A8FFF7B7FF0DB088
:1025D000F0BDC04649460000455800005245000085
:1025E000464300008023F0B517008DB08218060026
:1025F00000915B049A4201D9FDF71FFF14251824AE
:1026000028882388134998472388019012492888ED
:1026100098472388029011492888984723881049B1
:102620000390288898470400FFF758FF05A8FFF794
:1026300073FF019B9847029B98473A00300000992E
:10264000039B9847A047FFF761FF05A8FFF776FFB8
:102650000DB0F0BD49460000455800005250000042
:10266000464300005069636F204F5441006F74610E
:10267000636F6D6D616E642E62696E002F002E2E89
:10268000006C6974746C656673000000FFFFFFFFE7
:10269000FFFFFFFF000000006410B71DC8206E3B65
:1026A000AC30D9269041DC76F4516B6B5861B24D59
:1026B0003C7105502083B8ED44930FF0E8A3D6D6C3
:1026C0008CB361CBB0C2649BD4D2D38678E20AA02B
:1026D0001CF2BDBD10111200080709060A050B0403
:1026E0000C030D020E010F000100020003000400A4
:1026F0000500070009000D0011001900210031003C
:10270000410061008100C10001018101010201035A
:10271000010401060108010C01100118012001301B
:1027200001400160000000000101020203030404F3
:10273000050506060707080809090A0A0B0B0C0C11
:102740000D0D030004000500060007000800090045
:102750000A000B000D000F001100130017001B00F2
:102760001F0023002B0033003B0043005300630095
:1027700073008300A300C300E30002010000000017
:102780000000000000000101010102020202030337
:10279000030304040404050505050000F42F0010DC
:1027A000F02F001000500320000000000000000087
:1027B0000051032000000000000000001000000095
:1027C0000000000000000000000000005033000086
:1027D0004C33000054330000523300004D530000CE
:1027E0004D4300005334000043340000000000005B
:1027F00000000000752000200D220020E9000020CC
:10280000D91E0020051F0020F52000208521002072
:10281000A11F0020211F0020411F0020551F002064
:10282000E11B00205D1F0020B91E0020491B002075
:102830000000000000000000000000000000000098
:102840000000000000000000000000000000000088
:102850000000000000000000000000000000000078
:102860000000000000000000000000000000000068
:102FF00000F01F1000F01F1000F01F1000F01F0065
:1030000000200420E3300010CB300010CD30001041
:10301000C9300010C9300010C9300010C93000108C
:10302000C9300010C9300010C9300010CF30001076
:10303000C9300010C9300010D1300010D33000105A
:10304000C1300010C1300010C1300010C13000107C
:10305000C1300010C1300010C1300010C13000106C
:10306000C1300010C1300010C1300010C13000105C
:10307000C1300010C1300010C1300010C13000104C
:10308000C1300010C1300010C1300010C13000103C
:10309000C1300010C1300010C1300010C13000102C
:1030A000C1300010C1300010C1300010C13000101C
:1030B000C1300010C1300010C1300010C13000100C
:1030C000EFF30580103800BE00BE00BE00BE00BE9B
:1030D00000BE00BE00201E49086006C881F30888B3
:1030E00010471C480068002801D00020F3E70DA419
:1030F0000ECC002902D000F012F8F9E71649174A61
:10310000002000E001C19142FCD1154988471549D2
:1031100088471549884700BEFDE701C901C29A42A8
:10312000FBD3704770220110C0000020581300200C
:1031300008350110000004200000042008350110AB
:103140000010042000100420000000007047000060
:1031500008ED00E0000000D058130020D424002027
:103160008D08011009460010D1450010F8B5C04681
:103170000448054B10B5834203D0044B002B00D00C
:10318000984710BD5813002058130020000000007D
:1031900006480749091A8B10C90FC91810B54910FC
:1031A00003D0044B002B00D0984710BD58130020CB
:1031B000581300200000000010B5074C2378002BA6
:1031C00009D1FFF7D5FF054B002B02D0044800E0E2
:1031D00000BF0123237010BD701600200000000006
:1031E00028160110054B10B5002B03D004490548E3
:1031F00000E000BFFFF7CCFF10BDC046000000009C
:10320000741600202816011010B5094800F089FF37
:10321000002800D110BD0749054801F093F8044883
:1032200000F04BFFC1B2024801F0ACF8EDE7C04638
:10323000E016002028160110E12170B5294A2A481D
:10324000490200F0F7FD0821284800F06BF9092138
:10325000264800F0AFF9254800F0D9F83C21234872
:1032600000F0C0F82249204801F06CF81F4800F037
:1032700053F80A2201001C4801F0E5F83C211B48E4
:1032800000F0B0F80721194800F03CFC1949164835
:1032900001F058F8154800F03FF80A2201001248E2
:1032A00001F0D1F81449104801F04CF8134801F02E
:1032B000F7FA04F07FFC0A2201000B4801F0ADF898
:1032C0000F49094801F03EF81D2001F077FA0A2263
:1032D0000100054801F0A1F80A49034801F04EF841
:1032E00070BDC04613040000E0160020B81700208F
:1032F0002D160110341601103916011033335340C6
:103300003F160110451601100020704710B50368E4
:103310009C6B0123A04710BD10B5036801211B6BF6
:10332000984710BDF8B505000F0016000024B44200
:1033300001D12000F8BD2B682800395D1B68984733
:103340000028F6D00134F2E70200037F0020834218
:1033500002D0D36A106B181A7047036810B51B6946
:1033600004009847002805D0236B626A591C21632A
:10337000D05C10BD01204042FBE7036810B51B691B
:1033800004009847002803D0626A236BD05C10BD0C
:1033900001204042FBE770478163704741637047FB
:1033A00010B50022012102F0D5F910BD70B5FA2444
:1033B0000600002502F0ECFF640024184D4102F0E5
:1033C000E7FF8D4202D806D1844204D9300001F0D3
:1033D0004BFB0028F3D0300001F046FB431E984120
:1033E000C0B270BD037F002B07D0C37F002B04D178
:1033F000C362036301338177C377704710B5037FDE
:103400008161002B02D0006903F0D2FA10BD70B5C3
:10341000057F0400002D1BD181694577006903F009
:1034200017FB2A002900206903F03AFB0321207DC5
:1034300002F070F9207DFFF7B3FF0321607D02F0F9
:1034400069F9607DFFF7ACFF0123E5772377E5623B
:1034500070BD000070B5037F04000E00002B2ED15C
:10346000012581694577006903F0F2FA29003200ED
:10347000206903F015FB236911491A681163114A89
:103480009D1A69424D4110491735934200D00F49AA
:10349000280002F00FFA0121280002F0DBF90321D5
:1034A000207D02F037F9207DFFF77AFF0321607D50
:1034B00002F030F9607DFFF773FF0123237770BDC1
:1034C00064160000C80C00207937001089370010FE
:1034D00070B5FA250400AD00A560104D00202560F0
:1034E00001256D4225646564250001265035606024
:1034F000A087A064E0642E70606563752077084B38
:10350000E077E0620130FF3022752161A361A062A3
:103510000AF030FC6062200070BDC0468C170110BC
:10352000A0860100F0B5050087B002AC0E001022A5
:1035300020001C491C4F04F0EDFB2B7F0193002B56
:1035400015D11A4A2B6901209B1A5A425341002176
:10355000DB003200E4180DF0C3FF236818406368F5
:103560001940084303D02E75012007B0F0BD2B7D14
:10357000B342F9D001992A690C4B0D48002907D0B4
:10358000390068319A4201D13900663102F090F871
:10359000390068319A4201D1390066313200323047
:1035A00002F086F8C818011058180110C80C002045
:1035B000D8180110F0B5050087B01E4B02AC0E0004
:1035C000102220001C49019304F0A4FB2F7F002F40
:1035D00016D11A4A2B6901209B1A5A4253410021E5
:1035E000DB003200E4180DF07BFF236818406368AD
:1035F00019400843B84203D06E75012007B0F0BDF2
:103600006B7DB342F9D00E4B286919000B4A683123
:10361000002F07D0904201D166331900019878300D
:1036200002F046F8904201D1663319003200054895
:1036300002F03EF8D818011040190110C80C002003
:10364000581801108219011090B585B000AF78604C
:103650007B681B691B68DB6AFB60FB68002B00D181
:1036600086E0FB68042213401AD07B68DA6A7B6824
:103670009B6A9A4210DA7B681B691B681B69DCB283
:103680007B68596A7B68DA6A501C7B68D8621300D1
:10369000CB18221C1A7003E07B681B691B681B692E
:1036A000FB68202213400AD07B685B6B002B02D0A2
:1036B0007B685B6B98477B681B691B681B6DFB68AD
:1036C0004022134003D07B681B691B685B6DFA685E
:1036D0008023DB00134007D07B683C2201219954F2
:1036E0007B681B691B685B6EFA6880235B01134073
:1036F0001CD07B689B6B002B09D07B68DB6A002B9E
:1037000005D07B689A6B7B68DB6A180090477B6802
:103710000022DA627B6800221A637B683C22002167
:1037200099547B681B691B68A8229B58FA68802300
:103730009B0013401DD07B689B6B002B09D07B68DE
:10374000DB6A002B05D07B689A6B7B68DB6A18000C
:1037500090477B680022DA627B6800221A637B68EC
:103760003C22002199547B681B691B681B6E00E09A
:10377000C046BD4605B090BD10B50248FFF764FFD6
:1037800010BDC0461018002010B50248FFF75CFFBE
:1037900010BDC046B8170020F0B516001C0085B05B
:1037A000019103900221019801F0D2F8022130002A
:1037B00001F0CEF80521300001F0ACFF05210198A1
:1037C00001F0A8FF0121019801F02CF921004948DE
:1037D00003F07CFAC50F2D186F10ED173800290083
:1037E00002F038FD0121300001F01CF93000FFF734
:1037F000DDFD041E57D00021019801F013F93800B7
:10380000290002F027FD0021300001F00BF93800FB
:10381000290002F01FFD08230293039B01985B001F
:103820000393D9110123194001F0FCF83800290055
:1038300002F010FD0121300001F0F4F838002900F9
:1038400002F008FD3000FFF7B1FD041E2BD000216F
:10385000300001F0E7F80520002102F0FBFC029B9C
:10386000013B0293002BD8D10121019801F0DAF835
:103870003800290002F0EEFC0121300001F0D2F8FE
:103880003000FFF793FD041E0DD0019801F0ECF815
:10389000434258412900C4B2380002F0DBFC30003A
:1038A000029901F0BFF83800290002F0D3FC01981A
:1038B000002101F0B7F83800290002F0CBFC3000FD
:1038C000012101F0AFF83800290002F0C3FC019893
:1038D000012101F0A7F83800290002F0BBFC3000FC
:1038E000032101F017FF0198032101F013FF2000CD
:1038F00005B0F0BD40420F000122431C70B504002A
:10390000DA77002911D00368427F5B6A8669002A52
:103910000CD0857F98472368310020009B6A984728
:103920002368290020001B6A984770BD9847022130
:10393000207D01F00DF80221607D01F009F80521DC
:10394000607D01F0E7FE207D052101F0E3FE207D92
:1039500001F08AF8002829D10925207D01F084F89A
:10396000011E11D1607D01F05DF80520002102F0FB
:1039700071FC0121607D01F055F8013D0520002119
:1039800002F068FC002DE8D1207D01F06DF8050003
:1039900001280BD10021207D01F044F805200021F1
:1039A00002F058FC2900207D01F03CF8236820003B
:1039B00031009B6A984723682000DB699847B4E789
:1039C000F0B58BB006910793037F05001400002B20
:1039D00003D1002420000BB0F0BDC67F002EF8D12B
:1039E000B242F7D0836A9342F3D3036987680493A2
:1039F000436A059302F0CCFCFA2208900991002357
:103A000092003800310004F05DF9089A099B801893
:103A10005941B14202DA01200E4940420123079A7E
:103A20000290039153400093059A2300069904984D
:103A300003F06BF80400E862C31C08D9023404D117
:103A4000AB1C2800D97FFFF757FF0024EC6200234E
:103A50002B63BFE7FFFFFF7FF0B58BB00791037FBC
:103A60000500002B02D104200BB0F0BDC37F002B5A
:103A7000F9D00026C46A877FC677B4420AD1427D56
:103A8000017D836938000124FFF786FE6040A04075
:103A9000C0B2E9E703690493436A05938368069318
:103AA00002F076FCFA22089009910023920031007E
:103AB000069804F007F9089A099B801859410029D3
:103AC00002DA01200E4940420123079A0290039135
:103AD0005340009339002300059A049802F0FCFF3C
:103AE000831C06D1AB1C2800D97FFFF705FF0520FA
:103AF000BAE70023201AEB62431E98418000B3E727
:103B0000FFFFFF7FF7B5037F04000D00002B32D0CD
:103B1000437F002B31D08368019302F039FCFA22F5
:103B200006000F00002300210198920004F0CAF85B
:103B300080197941002902DA0120164940420E001D
:103B40002369154F1B685A6F102A09D17A6A0192AE
:103B50009642F8D8BA6A824202D2019A9642F2D0CC
:103B60005A6F102A02D01D61012005E0A31C20001D
:103B7000D97FFFF7C1FE0020FEBDC37F002BFAD026
:103B8000C36A826A9342F6D0426A591CC162D55414
:103B9000EAE7C046FFFFFF7F0040054000220369BF
:103BA00010B51B6888331A600123C2770200190020
:103BB00050321370426C9140044A1160016C8B408A
:103BC0001360436D002B00D0984710BD04340050A3
:103BD000F8B5A025084C094FED052E593B68334236
:103BE00005D0074B1868002801D0FFF7D7FF3B68C6
:103BF00033402B51F8BDC0460C040000741800205F
:103C00007C180020F8B5A025084C094FED052E5969
:103C10003B68334205D0074B1868002801D0FFF7F6
:103C2000BDFF3B6833402B51F8BDC0460C0400007B
:103C3000781800208018002070B506003D363378D3
:103C40000400002B33D01D4A0169002391422FD07C
:103C50001B4A1C4913601C4A13600B2001F018FF1B
:103C6000206C002807DB02F06BFD206C02F060FD89
:103C700001235B422364606C002807DB02F060FDD7
:103C8000606C02F055FD01235B42636400252369EB
:103C9000A06C1B6888331D600AF076F823000122AF
:103CA0005033A564E564E5771A706565357070BDBD
:103CB000064A07491360074A1360CEE7C80C002084
:103CC00074180020D13B00107C18002078180020C8
:103CD000053C00108018002070B50400FFF7ACFF11
:103CE000237F002B21D0637F002B10D022690F4B44
:103CF000D51A69424D410E4917359A4200D00D49F7
:103D0000280001F0C5FE0021280001F0A3FD206974
:103D100002F040FE0021207D00F01AFE0021607DAF
:103D200000F016FE00232377E37770BDC80C002057
:103D3000793700108937001010B505230422054992
:103D40000548FFF7C5FB1B231A2204490448FFF767
:103D5000BFFB10BDD00C0020B8170020C80C0020FD
:103D60001018002010B50368014A1B6A984710BD5F
:103D700013040000007C7047F8B5037C0400002B9E
:103D800055D000230374030030331978002907D17C
:103D90004269274B14209A4200D0152001F05AFDA9
:103DA000260027002836300040370DF009FC380087
:103DB0000DF006FC606902F0EDFEA56B002D08D049
:103DC000E868002801D005F0A1FF1021280005F0C7
:103DD00099FF38000DF074FB30000DF071FB207E70
:103DE000FF2806D0217F01F095FC0021207E01F004
:103DF000D1FC607EFF2806D0617F01F08BFC0021A2
:103E0000607E01F0B7FCA07EFF2806D0A17F01F004
:103E100081FC0021A07E01F0BDFCE07EFF2806D0E1
:103E2000E17F01F077FC0021E07E01F0A3FCF8BD0A
:103E300000400340F7B50191037C04001700002BFC
:103E400002D003685B6A98472300002631331E7056
:103E5000102005F05FFFE36B05001800009305F0EC
:103E60006BFF009BE860AB602E606E60019B207E64
:103E7000A5632362FF280CD001F062FC02212077A9
:103E8000207E01F047FC230033331978207E01F0B7
:103E900081FC607EFF280CD001F052FC022160778B
:103EA000607E01F037FC230034331978607E01F026
:103EB00061FCA07EFF280CD001F042FC0221A0771B
:103EC000A07E01F027FC230035331978A07E01F095
:103ED00061FCE07EFF280CD001F032FC0221E0778B
:103EE000E07E01F017FC230035331978E07E01F005
:103EF00041FC0199606902F087FE0F223A401300ED
:103F00006062012A03D0023A53425A415300F02220
:103F10003A40F020103A511E8A41802500010621C6
:103F200001323840AD00A8420AD00135FF350131D9
:103F3000A84205D0802502396D00A84200D0033187
:103F4000606902F0A1FEE37E6269FF3B591E8B416E
:103F5000A17EDB03FF394D1EA94189030B43C0211C
:103F6000106B090243400B40134953502300303378
:103F70001B78002B12D1114B9A4216D114201049F4
:103F800001F098FC0121142001F064FC502238213A
:103F900063699A635A6B0A400A495A502300002207
:103FA00032331A7001232374F7BD1520064901F03E
:103FB00081FC01211520E7E730100000004003409C
:103FC000390100203410000049010020F8B5FA271B
:103FD0000400BF00A760104F00252760270006A837
:103FE000067807A800783037656025743D70202773
:103FF000E07620006376E76361612276A67628305A
:1040000001F054FE2000403001F050FE2300333315
:104010001D702000A586F8BDC0190110F8B5104B21
:1040200044690500E418631E9C411434200001F02B
:1040300025FC2E00070040360021200001F00AFC7C
:1040400030000DF0BDFA280000210DF0A9FA300073
:104050000DF036FA3900200001F0FCFBF8BDC04637
:1040600000C0FCBF37B501000400012268462831BA
:1040700000F042FD237C6D46002B06D101246442F2
:10408000280000F052FD20003EBD2B79002BF5D01A
:10409000230030331B78002B0BD0002120000DF0C3
:1040A0007FFAA36B5A6819689142E7D0DB689C5C81
:1040B000E6E72000FFF7B2FFF3E737B501000500A0
:1040C00001226846283100F017FD2B7C6C46002B3E
:1040D00006D101256D42200000F027FD28003EBDDD
:1040E0002379002BF5D02B0030331B78002B14D014
:1040F000002128000DF054FAAA6B53681168994208
:10410000E7D0D168CD5C516893680131CB1A581E55
:1041100083415B4219405160DDE72800FFF77EFFD5
:10412000EAE737B50100040001226846283100F0B3
:10413000E3FC237C6D46002B05D11C00280000F019
:10414000F4FC20003EBD2B79002BF6D02300303349
:104150001B78002B0DD0002120000DF021FAA26B5E
:104160009368106854681818041BA342E6D8E41A30
:10417000FBE72000FFF752FFF1E70000054B10B509
:10418000002B06D00448FFF7CCFF002801D000E048
:1041900000BF10BD00000000E0160020054B10B568
:1041A000002B06D00448FFF7BCFF002801D000E038
:1041B00000BF10BD000000002817002037B5010027
:1041C000050001226846283100F096FC2B7C6C46E5
:1041D000002B05D11D00200000F0A7FC28003EBDEB
:1041E0002379002BF6D02B0030331B78002B03D023
:1041F000002128000DF0D4F96B6901259B699B060D
:10420000DB0F5D40E7E737B5010004000122684697
:10421000283100F071FC237C6D46002B10D02B79E7
:10422000002B0DD0230030331B78002B03D000214E
:1042300020000DF0B5F9082361698A691A42FCD1A2
:10424000280000F072FC37BD73B50E0001000400B9
:1042500001226846283100F04FFC237C6D46002B7C
:1042600005D11C00280000F060FC200076BD2B79F1
:10427000002BF6D0230030331B78002B03D0002115
:1042800020000DF08DF92022636999691142FCD15B
:1042900001241E60E6E7F7B50C00010006001500DA
:1042A00068460122283100F027FC337C6F46002B42
:1042B00005D11D00380000F038FC2800FEBD3B7918
:1042C000002BF6D0330030331B78002B03D00021B5
:1042D00030000DF065F92021736962199442E9D02C
:1042E00020789E690E42FCD118600134F6E7000088
:1042F00013B5FF24012300220749019400940748C5
:10430000FFF764FE0923082205490194009405483B
:10431000FFF75CFE13BDC04600400340E0160020DE
:10432000008003402817002070B505000C00081E0F
:1043300007D009F047FD2B680200210028005B68C8
:10434000984770BD10B5FFF7EFFF10BD10B50368BB
:104350001B68984710BD000010B50249FFF7E4FF45
:1043600010BDC0464B16011070B50400FFF7DCFF0E
:1043700005002000FFF7F0FF401970BD10B5FFF7F2
:10438000F3FF10BD70B50500FFF7E0FF0400280043
:10439000FFF7E2FF201870BDF0B58BB014006A463D
:1043A0000023243207000D001370012C00D80A24CA
:1043B00009AE2800210002F0B1FC0B002A003733BF
:1043C0000500092900D8073B013E33709442F0D91B
:1043D00031003800FFF7A8FF0BB0F0BDF8B50700BB
:1043E0000D00161E04D10368C9B21B689847F8BDBA
:1043F0000A2A0CD100290BDA2D21FFF7A7FF320082
:10440000040069423800FFF7C7FF2018EFE7D2B277
:1044100029003800FFF7C0FFE9E770B50400FFF797
:10442000DDFF05002000FFF797FF401970BD10B5B4
:10443000002A04D10368C9B21B68984710BDD2B2E4
:10444000FFF7AAFFFAE770B50400FFF7F0FF0500D9
:104450002000FFF781FF401970BD10B5040000680F
:10446000002801D009F090FC00232360A360636062
:1044700010BD70B504000D000068013107F08AFF1F
:10448000031E01D0012028C470BD036810B50400CC
:10449000002B03D0436801208B4209D22000FFF794
:1044A000E8FF002804D0A368002B01D12268137014
:1044B00010BD70B50E00110004001500FFF7E5FFF8
:1044C000002804D12000FFF7C8FF200070BD2A009B
:1044D00031002068A56003F01DFC00212268A3685C
:1044E000D154F2E7002370B504000D00036043606F
:1044F0008360994207D0080009F064FC290002009B
:104500002000FFF7D6FF200070BD10B5002801D0B5
:1045100001F0B2FE10BD000010B5D024FF23240628
:104520002068236504490F3001F0C4F92068012197
:104530000F3001F08FF910BD7D010020104B10B538
:104540001B78002B0DD1002000210E4B9860D96004
:104550000D490F3002F02AF907220C4B1A600C4A61
:104560005A60FFF7D9FF0B4B002B01D000E000BFD2
:10457000094B002B00D1FEE700E000BFF8E7C04682
:10458000C4240020401600205901002010E000E063
:10459000FFFFFF0000000000000000007047000067
:1045A000084B10B5002B01D000F042FD064B002B4C
:1045B00001D0FFF7E3FD054B002B01D0FFF7EEFD27
:1045C00010BDC046315000107D4100109D410010CB
:1045D00010B5014801F06CF84E16011010B5074CEB
:1045E00010220021200003F08FFB002304492374D4
:1045F0000448013BE362FFF775FF10BD4016002041
:104600004D160110F41C0020F0B585B002F05CF8E6
:104610000B2805D80C2002F049F8454B033BFDD28E
:10462000444803AB02AA01A901F0B6FF041E75D0ED
:10463000039A0299019801F07FFF3F4E002E02D1AC
:104640003E4B002B10D04C21012007F099FD0500B6
:104650003B4B4C220021186003F056FB394B6B603A
:10466000394BAB60394BEB6000220023384D3949A0
:104670000F202A606B6002F099F80722364B1A600F
:10468000364A5A60FFF78AFF354800F09DFFE12166
:104690003448490200F0B4FB002E02D1274BB3424C
:1046A00040D0314801F002FB1021022007F068FDE4
:1046B0000700E86101F014F8082203000421380023
:1046C00001F0B4FEEF6901F00BF810370300082287
:1046D0000421380001F0AAFE2C74FFF71DFF002E04
:1046E00002D1164BB34212D00120FFF70EFF1F4B31
:1046F0001B78002B18D08020800109F03BFB802222
:104700001B4B0100186092011A4803F063FBFEF78F
:1047100093FDFEF779FDFFF743FFFAE716480549D9
:1047200000F0C6FF3400D7E7124803F06DFBEEE758
:10473000E02E0000400D030000000000000000001B
:104740006818002060130020D013002040140020BF
:10475000401600205901002010E000E0FFFFFF009C
:1047600070170020C416002054160020C524002015
:10477000EC1C00203D450010531601100422054B8F
:104780001A60054BFC3219681142FCD0586880B29F
:104790007047C04600E0044000C0044010B502006D
:1047A000012000210CF09CFE034C226863688243C8
:1047B0008B430CC410BDC046B0140020F0B50500FA
:1047C00087B004AF012238002E4900F095F92B0084
:1047D0001A3B01936B461B79042B06D90024380041
:1047E00000F0A3F9200007B0F0BD3B79002BF5D015
:1047F000254C2378002B03D100F040FF01232370C8
:104800002A00012000210CF06BFE204E029034683B
:10481000736804400B4003911C4313D11F212800EF
:1048200000F078FF22002100280000F093FF210013
:10483000280000F0DDFF3268029B03991A43736879
:104840000B430CC6124A1378AB420AD0114B1968BD
:10485000019B1B034B40E021C9010B400E490B603B
:1048600015700E4B1C780B2C06D8FFF787FF0C2316
:104870001B1B18410400B2E7FFF780FF0C3CA0406F
:10488000F8E7C046F81200206E230020B014002084
:104890006F23002000C0044000D00440380C0020EA
:1048A00073B56C4601222049061C684600F024F9C5
:1048B00023790025002B32D01C4D2B78002B03D1FF
:1048C00000F0DCFE01232B7000220225184B012092
:1048D0001A70184B1D60FFF718FE174B1A688023DB
:1048E000DB015340E022D2011340144A1360FFF76A
:1048F00045FF134B1D6003F03BF9311C03F0F5F845
:10490000E621890503F0F1F80E4903F0D4F80E49C9
:1049100003F0D7F8011C0D4803F0CDF8051C20006A
:1049200000F003F9281C76BDF81200206E23002049
:104930006F23002000E0044000C0044000D0044089
:1049400000F004406ABC343F2D93E13A0000D841A6
:10495000F7B5040001911D281FD808291DD80800AB
:104960000CF006FE053E1C2D1B4C3E525800012348
:10497000D022A340120605212000936200F0CAFE57
:1049800000222000110000F0E5FE254B019A1A5587
:10499000192C02D92000FFF701FFF7BD01273E00C7
:1049A000D025A6402D0605212000AE6200F0B2FE03
:1049B00000223900200000F0CDFEAE61E5E70127BE
:1049C0003E00D025A6402D0605212000AE6200F055
:1049D000A1FE3A000021200000F0BCFE6E61D4E789
:1049E0000521200000F096FE0121200000F0F2FEDB
:1049F0000123D022A34012065362C6E705212000FE
:104A000000F088FE0021F0E70521200000F082FE82
:104A10000221EAE70521200000F07CFE0321E4E703
:104A20007023002070B505000C001D280DD805214D
:104A300000F070FE0B4BD022595D01231206AB40F3
:104A4000032903D1002C05D1936270BD022903D143
:104A5000012CF9D05362F8E7002C01D05361F4E740
:104A60009361F2E770230020010000201D2908D87F
:104A70000122D0238A401B065B6813405A1E9341D3
:104A8000D8B27047D0231B061B6808489B001958F2
:104A900030B5002909D0064C01391A59195055086A
:104AA0001D5101231A4082F3108830BD6C1800207C
:104AB00084180020D0231B061B680C499B005A5801
:104AC00010B50F2A02D10A4800F0F2FD094A9858A1
:104AD00040009850EFF3108472B6601E84419858DD
:104AE000204398505A5801325A5010BD6C1800207B
:104AF000851601108418002013B500230400080057
:104B000021602371627101A90CF012FD002808D107
:104B1000D0231B06019A1B689A4204D020680CF02F
:104B20004FFD01232371200016BD10B50379040049
:104B3000002B02D000680CF0C3FC200010BD10B5A3
:104B40000368DB69984710BD13B56B460268D971DD
:104B50005468D91D0122A04716BD000030B50400DD
:104B600085B002AD002228001049FFF7C5FF237C65
:104B7000002B06D11C002800FFF7D7FF200005B04E
:104B800030BD2B79002BF5D001200021404203F0ED
:104B90003DFC6B46DC1D2100002004F05BF8002882
:104BA00001D02478E7E701246442E4E7701700208D
:104BB00037B50400002268460C49FFF79DFF237CAF
:104BC0006D46002B05D11C002800FFF7AEFF20002A
:104BD0003EBD2B79002BF6D001200021404203F08E
:104BE00015FC002004F012F80400EDE77017002017
:104BF00030B5040085B002AD002228001249FFF74D
:104C00007BFF237C002B02D10124644216E02B7928
:104C1000002BF9D001200021404203F0F7FB0020D7
:104C200003F0F4FF0028EFD06B46DC1D01222100C9
:104C3000002003F0F7FF0028E6D024782800FFF7D3
:104C400074FF200005B030BD7017002037B5040098
:104C5000002268460C49FFF74FFF237C6D46002B6E
:104C600005D11C002800FFF760FF20003EBD2B7916
:104C7000002BF6D001200021404203F0C7FB0020AA
:104C800004F050F80400EDE77017002037B5050078
:104C9000002268460A49FFF72FFF2B7C6C46002B49
:104CA0000AD02379002B07D0002003F0DFFF01207A
:104CB0000021404203F0AAFB2000FFF736FF37BD7A
:104CC00070170020F0B5050085B0019100923A49B7
:104CD000002202A8FFF710FF2B7C002B03D002ABB1
:104CE0001B79002B06D11D0002A8FFF71EFF28002C
:104CF00005B0F0BD03F014FA002801D003F018FA53
:104D0000002003F06BFF002851D102222B7E1500FA
:104D10001D401A424ED100200021284B03C340E021
:104D2000002003F0FFFF009B1E1B864200DD0600F3
:104D3000002E17D0019B32001919002003F0D4FF78
:104D400024182D1801200021404203F05FFB0020B1
:104D500003F08CFF01F01CFB184B03C3009B9C422B
:104D6000DED31EE001203100404203F04FFB300053
:104D700003F07CFF300003F031FFB04211D030006F
:104D800003F0D0FFB042E9D1002701F001FB0C4E47
:104D90000A4B0CCB92197B41994202D8DED190424A
:104DA000DCD901200021404203F030FB9CE70024C5
:104DB0002500D3E70400FBE770170020B81400209B
:104DC00040420F0037B50400002268460B49FFF748
:104DD00093FE247C6D46002C0BD02C79002C08D03F
:104DE00001200021404203F011FB002003F0F6FEF9
:104DF00004002800FFF799FE20003EBD7017002038
:104E00007FB5067C0400002E23D1124800F09AFBE7
:104E1000104800F04DF9A0740E4800F05DF9E07400
:104E20000C4800F045F90C4920750A4800F0DAF901
:104E300042236075029601360221084A0093054814
:104E40002300019600F0B5F96074024800F0AAFB57
:104E500026747FBD7017002098160110894F00102E
:104E600070B5037C0500002B13D00A4800F06AFBE4
:104E7000697C084800F0AFF9A97C064800F026F9E3
:104E80000448E97C00F035F9002302482B7400F057
:104E900089FB70BD701700200023FA224360037461
:104EA000E12392008260024A5B03026083617047E3
:104EB000F4190110F0B5160093B0244A0C0001A9B2
:104EC0000A800222CA70224A6D460292214A442771
:104ED0000392214A8C700492204A8C720592204AD7
:104EE0000692204A0792204A0892204A0992204AB4
:104EF0000A92204A0B92204A0C920A220D921F4AD3
:104F00000E921F4A0F921F4A10920022EA53427DCE
:104F1000651C0A746A460732D47702AAD5770B2239
:104F20008D76847C6A44D47731226A4415703A22A3
:104F3000C47C6A4414704122007D6A4410701A00D7
:104F4000300002F0E7FE13B0F0BDC046080B0000D1
:104F50000202000009040000010202000005240012
:104F60002001052401000004240206052406000097
:104F700007050003080010090400000207050002ED
:104F8000400000070500024010B50400180013009F
:104F90000A002100FFF78EFF10BD00000A2283697E
:104FA00010B593439622D201934214D10123027E7D
:104FB000002113430376052000F04CFC8023064AB1
:104FC0005B041360054A0320136001F01DFA002101
:104FD000080001F0A1FB10BD00E0004000F000401F
:104FE0008900D2000A430C21044810B5037E0A4010
:104FF0008B431A430276FFF7D1FF10BDC416002081
:105000004B780A781B0213438A78084812041A4323
:10501000CB780F2110B51B06134382691B010A4090
:1050200013438361FFF7BAFF10BDC046C4160020CA
:10503000054B10B5002B06D00448FFF7B9FD00283A
:1050400001D000E000BF10BD00000000C416002029
:1050500010B50248FFF720FF10BDC046C41600205F
:1050600070B50C0005001900200002F053FEA57079
:1050700070BD000010B5044B187A00F00BFCFA204C
:105080000021800010BDC0467017002010B500211F
:1050900006480CF04DFA002807D0012000214042BC
:1050A00003F0B4F901480CF00BFA10BD70170020A2
:1050B00070B5448D0500201E07D001F001FE0123CC
:1050C000834080389C436C85C0B270BD01238B4007
:1050D000428D13434385704770B5848D0500201EB3
:1050E00006D001F0EDFD012383409C43AC85C0B2A6
:1050F00070BD012380398B40828D134383857047B7
:10510000F8B518201F000D001403089E08F032FEA9
:10511000069B07604360184B2F681A78511C197062
:10512000079BB1031B051B0D1C433F231340890B39
:105130009B040B43C1680481090E09060B43C3603D
:10514000099B390003610023436100290CD0CC681E
:10515000A403A40BB44204DB002B07D041615861C7
:1051600006E00B004969F0E78B42F8D147612860FF
:105170003F201040F8BDC046390C002070B50D68C6
:105180000C002800002100280AD0837B1B069B0E00
:10519000934206D1A84207D1456908F0F5FD256084
:1051A00070BD01004069EEE743694B6108F0ECFD1A
:1051B000F6E730B50C00010085B00A9D0093039519
:1051C000099D13000295089D220010310195FFF7FB
:1051D00097FF05B030BD0A00010010B51031FFF790
:1051E000CDFF10BDF7B50191417E037E05008B42D6
:1051F00007D30431C9B240696976890007F0CAF85B
:1052000068612C7E6F69002C03D10C4B01343B602C
:105210002C760026B300F958019809F00BF8002805
:1052200002D1F4B22000FEBD0136B442F2D8019A98
:10523000A300DA51631C2B76F4E7C0464D1601102B
:10524000F7B5394F04003B78002B03D11921380002
:1052500002F0F2FDE68D002E00D1344E258E002D99
:1052600000D10A35230032331B780093002B04D180
:105270002F493048FFF7B6FF0090230033331B78E7
:105280000193002B04D12C492A48FFF7ABFF019072
:10529000230034331A78002A04D139002548FFF757
:1052A000A1FF02002000122335300370234B01219F
:1052B000A363230040273C33E1865E70360A1F70EB
:1052C0009E702E0A1E71260000274136DD70327155
:1052D00022003770009F4632B770019F7170F770DF
:1052E0001170268E0333002E12D12A00E768002F9A
:1052F0000FD1BE4203D01500110A1A705970002157
:105300002269002A0AD1914202D01D702D0A5D70D7
:10531000FEBD3E8A7F6972400E00E8E7118A52693D
:105320004D400121EDE7C0468E2300208A2E00006B
:10533000A416011070170020B116011002EF02012F
:1053400010B50248FFF77CFF10BDC0467017002063
:10535000F8B50023C56806002A001800002A05D108
:1053600093420BD1B38300233362F8BD1389526992
:105370001B051B0DC01880B20123EFE7B083002886
:10538000F1D008F0F7FC8527306204000126002DDB
:10539000EBD02A89200012056968120D02F0BAFCD0
:1053A000E671A7712B8901361B051B0D6D69E41889
:1053B000EDE70000014B586A7047C04670170020A7
:1053C000F0B5466A05008FB0002E55D1036AB3428E
:1053D00025D0394A838B0792384A394F0892394A87
:1053E00007AC0992384A38000A92384A0B92384A78
:1053F00023741B120C926374FFF75AFE354BE87648
:105400001B68207523760A2301930F330093012133
:1054100023003800304A0296FFF7CBFEA876002220
:10542000092617002B69002B28D13300002A01D14F
:105430000926330029492B852148FFF7D3FE059023
:105440002B8D1800049308F095FC0400686200217D
:10545000049A02F059FC224B668023800123637179
:10546000059B0026A371A0232D69E371233B2771BF
:1054700023720934002D0CD10FB0F0BD1A8912052A
:10548000120DB6185A7A5B691206120FBF18012264
:10549000C9E72A896B681205210030002F68120DB8
:1054A000B8472B891B051B0DE4186B7A6D691B0629
:1054B0001B0F9E19DEE7C04609040100010300002E
:1054C00070170020000921110100012200000705CA
:1054D000000340003C0C0020615000104D160110EC
:1054E00009020000030000290CD10F4B0F4A5A801B
:1054F0000123C0220133DBB20B485B00920013434F
:1055000003807047027E00208A42FAD95B698900D5
:10551000C8580023044AC15C0029EAD001335180F5
:1055200002321F2BF7D1E4E72823002009040000F2
:1055300010B50A0001000248FFF7D4FF10BDC046B5
:105540007017002070B5040002F0DAFD0600144860
:105550000CF036F802F004FE002E03D0FA204000D2
:1055600000F08AFE0E480BF0ABFF606A08F00CFCFE
:10557000002363622385236A002B09D02000A17ECB
:10558000FFF729FE0123E27E9340628D134363857A
:10559000206A08F0F9FB00232362A38370BDC04694
:1055A0007017002010B50400FFF7D2FE2000FFF7AF
:1055B00007FF04480CF004F802F0DCFD01480BF092
:1055C0007FFF10BD7017002030B585B0040003F0D8
:1055D0007BFD051E30D12000FFF7BAFE2000FFF74B
:1055E000EFFE200000F062FB2900280003F048FDD8
:1055F000012000F049FB11492072C0B200F05AF9B5
:105600000121207A00F026F900F034FD040000F0BA
:10561000BFFEFA220023920012184B41AB4202DA7D
:105620000122074B524201210291002101910549BB
:105630002000009100F074FD05B030BD8D500010C9
:10564000FFFFFF7F75500010FF210022084B090467
:1056500099610849DA60996207491A615A619A8327
:105660001A625A62D9621A6334331A707047C0469C
:10567000701700200000FEFFFEFF00000123084A13
:1056800008491360084A136018000A689043FBD168
:10569000064A136080235B0011681942FCD07047F2
:1056A00000E0004008C0004000F0004000C004409E
:1056B0000FB407B5084806F04FFD049B002B07D038
:1056C00005A91800019104F0EDFC044806F044FD22
:1056D00001200BF0C2F8C046B61601104D1601109D
:1056E000044A1078431CDBB2172B00D91023137027
:1056F0007047C046400C002013B5044B01000093D6
:1057000018221F23024803F0E2FF16BDC61601103F
:10571000C01C0020074B820010B5D45840236340C2
:10572000C0242340044CC0001351044BC0184160F6
:1057300010BDC04604C0014004D0014000400140FB
:10574000034BC000C0181F23406818407047C04674
:1057500000400140054B8000C358C90092000A4335
:105760005A400C231A40024BC250704704C00140FB
:1057700004D00140054BC000C35809045940C02360
:105780009B021940024BC1507047C0460440014083
:1057900004500140054BC000C35809025940C023C2
:1057A0009B001940024BC1507047C0460440014065
:1057B00004500140054BC000C35809035940C023A1
:1057C0009B011940024BC1507047C0460440014044
:1057D00004500140044B8000C35809015940302354
:1057E0001940024BC150704704C0014004D0014031
:1057F00040238000002902D0024A83507047024AA9
:10580000FBE7C04604E0014004F00140074B1030C4
:105810009B688000C150BFF35F8FBFF35F8F002193
:10582000034B196082F310887047C04600ED00E01A
:10583000240100D0044B0548054A190004330860D0
:105840009342FAD17047C04600E400E08080808037
:1058500020E400E01F2318401E3B8340002905D0B0
:10586000C021044A4900535013607047024AD3676D
:10587000FBE7C04600E100E004E100E001228240D5
:10588000034B1B6813405A1E9341D8B27047C04661
:1058900000E100E001238340014A13607047C046E5
:1058A00000E200E0024B10309B688000C058704757
:1058B00000ED00E070B504000D00EFF3108672B645
:1058C0000A4A1368002BFCD0BFF35F8F2000FFF75C
:1058D000E9FF074B984201D0A84205D132002900C8
:1058E0002000FFF793FF70BD02F0C6FA240100D03C
:1058F000C1300010F0B587B0049003910292EFF32D
:10590000108372B6564A05931368002BFCD0BFF380
:105910005F8F00235349CB560093002B01DA02F02E
:10592000ABFA0C239C466246009B4F4D53435A19D9
:10593000907908704D498868049910318900095898
:10594000481B472819D94A488142E8D14949595347
:105950004949023304395B19CB1A1B0547495B0DD2
:105960000B435380464B9380FF239371029BD3716B
:10597000039B93600121114335E001200E00864313
:10598000340000200196E779029EB74231D83B4CA3
:10599000A44600283AD006268657071D002E33DB82
:1059A000384D84885D19634664052415083404194C
:1059B000641B043C2405640D1C436346043AD21B5B
:1059C0001205520D13438380009B009A83710C23B0
:1059D0005343254A9B182C4A9C801A60029A9E7158
:1059E000DA71039A9A60059A0498FFF70FFF07B0DF
:1059F000F0BD0627E757002F04DB60464743200031
:105A0000EC19C0E72000C2E71D4CD6E70C20664623
:105A1000154C1E4D0199091B49414D432D0D00990F
:105A20009F1C484313493F19015313492018043957
:105A3000C91B0905490D31434180043301991B19E4
:105A4000CB1A043B1B055B0D33438380029B0199FA
:105A5000C371039B857183600B4B0B608AE7C04663
:105A6000240100D0C8240020440C002000ED00E0F8
:105A7000C130001000A1FFFF8C0C002000E0FFFFF0
:105A800001BDFFFF480C002001488047AAAA000082
:105A9000F7B505000E00EFF3108372B6474A009386
:105AA0001368002BFCD0BFF35F8F2F00444B1037DF
:105AB0009B68BA00D458434B9C4265D0B44200D195
:105AC00079E0414BE31A472B5ED82800FFF7D6FE5A
:105AD000002101902800FFF7BDFEBFF35F8FEFF3B9
:105AE0000580002801D0874220D1012322009A435B
:105AF0001300354A0021944606229F689A56BE42FA
:105B000016D1002A1CDA002848D1814244D0FF2255
:105B10008A712E4A8A802E482B4902789A712D4A22
:105B20005B1A5B415A43120D027029E002F0A4F99E
:105B3000002A25DB0C214A43190013006344DBE7EC
:105B40000C20504320490E18B7689F60F779DF7129
:105B50000627F7579F71002F1CDBB688C91A7605F8
:105B600036158019091809051B48490D014399800C
:105B70000C215143144B5B18154908780A70987131
:105B800028000199FFF766FE28002100009AFFF720
:105B90003DFEF7BD0D49EAE70A4CBCE70F4A104944
:105BA000D21A083A5002400D014399800D4952081B
:105BB0000A43DA80E4E71C00E6E7C046240100D08F
:105BC00000ED00E0C1300010440C002001BDFFFFDB
:105BD000C8240020AAAA000000E0FFFF960C0020C5
:105BE00000F0FFFF00F8FFFF01230343F0B51E00A4
:105BF000EFF30581EFF3108772B61C4B1B68002B87
:105C0000FBD0BFF35F8F1A4A04001A4BA41A6441F9
:105C100063431B0D5BB29C46174B89009B681400C5
:105C20005B581D000023B54214D1134B134A9B68E7
:105C30005A50134B1A78827162461A70BFF35F8F05
:105C400000230A4A136087F31088F0BD01330C3437
:105C5000062BEED0062161566145F7D10C214B434E
:105C6000D318FF229A71074A9A80E2E7240100D0F4
:105C7000440C0020AAAA000000ED00E0C130001092
:105C8000C824002001BDFFFF13B5064B010000939F
:105C900000220523044803F01AFD002801DB1F231E
:105CA000181A16BDE1160110D124002010B5040009
:105CB000FFF716FD0100200003F050FDFF232371C4
:105CC000BFF35F8F10BD10B50400FFF709FD0100A1
:105CD000200003F043FDFF23A380BFF35F8F10BDBF
:105CE00010B50848084B984200D310BD0400036863
:105CF0000834002B03D0FFF7E6FF2000F2E7FFF7A0
:105D0000D5FFFAE7F8120020581300200A4B186854
:105D1000EFF3108272B601680029FCD0BFF35F8FE9
:105D20001B68BFF35F8F0021196082F3108840BFAA
:105D3000002000217047C04624230020F8B5C16030
:105D400004001F0016000D00FFF7CAFC154B26705B
:105D5000C018D0231B061B688000637001235B42C0
:105D60002381A380FB186380002320616781BB42ED
:105D700011D101270C4BB200D4503C00B44030008C
:105D80002C620A49FFF796FD39003000FFF762FDEB
:105D9000074BEC50F8BD1820584361695A1E425217
:105DA0000133E4E740000034102100200D5E0010B4
:105DB0003820000010B5094C2369002B09D10321BC
:105DC000074800F0B1FA1023032220000449FFF72E
:105DD000B5FF0A21034803F0C1FC10BDB00C002040
:105DE0000040054024230020074A10B5536A0400F0
:105DF0000020994206D8926A0130A24202D2C81A03
:105E0000431E984110BDC04600400540F0B587B024
:105E1000EFF3058203231A40924B03929200D45869
:105E20000123039A93400493049A8F4B1A608F4B7B
:105E3000049A5A630822A35E0293002B55DB1823B1
:105E4000029A656953438948ED18AA68EB68009285
:105E5000019300F073FA019B8B4246DC02D1009B58
:105E6000834242D8019B002B00DAA5E02B69804ACF
:105E70006E69934200D08FE0300033699847002864
:105E800000D199E0C0CE33003B4300D194E0002F15
:105E900000DB8BE000980199801BB9410022AB5ECA
:105EA000A860E960002B20DB6269944618225A43FF
:105EB0006244D6688E4218DC02D19268824214D8BD
:105EC00026002381083618225A436244D7688F423D
:105ED00008DC02D19768874204D816000022B35E1E
:105EE000002BF0DA2B80029B33800422A35E002B70
:105EF0001ADB2169EFF3108372B60A68002AFCD01E
:105F0000BFF35F8F0422A15E01225242A280226968
:105F1000BFF35F8F0020106083F3108823000833E5
:105F20000593002900DB5EE0A379002B08D0002355
:105F3000A37120000822A35E08305A1C00D076E02E
:105F40000823E15E002924DB18224A4363699B1879
:105F50009D68DE686B1C01D1731C10D0039B434FFE
:105F60009B00DB19B96A1A69681A521A904205D364
:105F700001220398396A8240114200D11D613B48D9
:105F800000F0DCF98E4204DC00D050E7854200D8F6
:105F90004DE740BF07B0F0BD0821605E6A8800048D
:105FA00031001043984706000F006CE72F4800F0BF
:105FB000C5F98019794171E72B8821692381EFF3B5
:105FC000108372B60A68002AFCD0BFF35F8F628824
:105FD0002A80029A62802269BFF35F8F00211160DC
:105FE00083F3108881E76369059D009318234B4371
:105FF000009AD3189A68DF6802920822A05E0028EF
:106000000CDB18224243009EB218D668BE4205DC63
:1060100009D19668B446029EB44504D9298000226D
:10602000995E18807DE715000022A85EE7E7182139
:10603000594366697218715E0227D65F002E0EDA28
:1060400001267642F7179660D7600827E65F9E42E2
:1060500003D001802689168023810B006DE7100094
:10606000FBE7C046102100203C7005400040054081
:106070000D5E001000487047B00C0020F0B5010024
:1060800016001F000269EFF3108072B61368002B30
:10609000FCD0BFF35F8F18220223CC5E4B696243B2
:1060A0009B18002C01DB1A884A800A69BFF35F8FB6
:1060B0000025156080F31088AC422CDB059A9E60A9
:1060C000DF601A61069A5A615A8801325204520CF2
:1060D000101CAA4200D1012082B258802004104333
:1060E0000E69EFF3108272B63568002DFCD0BFF355
:1060F0005F8F04268D5F1D808C800B69BFF35F8FDF
:1061000000241C6082F3108801220B789A40CB682F
:1061100002495A50F0BD01204042FBE73C200000FC
:10612000F7B51F000AAB1C7805001600002C09D03B
:10613000099B32000193089B280000933B00FFF766
:106140009DFFFEBD00F024F932003B00121A8B4186
:10615000A342EDDA2000F4E730B5448903000A14C5
:106160000020944225DD183050435A691D691218E9
:10617000EFF3108472B628680028FCD0BFF35F8F5D
:10618000558889B20020A94204D10A4801435180B0
:10619000012098711A69BFF35F8F0021116084F3A9
:1061A0001088884205D001221978DB688A400249AC
:1061B0005A5030BD0080FFFF3C200000F0B50600C3
:1061C0000F0006246442E517A4197D4185B08D4275
:1061D00002D803D1844201D90024002500F0D8F868
:1061E00022002B00121A8B41002B08DC01D19A42AD
:1061F00005D13000390000F00FF905B0F0BD0023E3
:1062000002930193104B2200009310482B00FFF7DC
:1062100087FF0130EDD020002900FFF7E5FD0028C1
:10622000E7D10B4B1868EFF3108272B601680029B2
:10623000FCD0BFF35F8F1B68BFF35F8F0021196035
:1062400082F3108820BFE6E70D5D0010B00C00203F
:106250002423002070B504000D0000F099F8001907
